:020000040801F1
:10000000005B0220990201080D330108BD020108BE
:10001000B532010861060108393B01080000000003
:10002000000000000000000000000000E1010108E5
:10003000E1060108000000003502010875350108DD
:10004000B3020108B3020108B3020108B3020108B8
:10005000B3020108B3020108B3020108B3020108A8
:10006000B3020108B3020108B3020108B302010898
:10007000B3020108B3020108B3020108B302010888
:10008000B3020108B3020108B3020108B302010878
:10009000B3020108B3020108B3020108B302010868
:1000A000B3020108B3020108B3020108B302010858
:1000B000B3020108B3020108B3020108B302010848
:1000C000B3020108B3020108B3020108B302010838
:1000D000B3020108B3020108B3020108B302010828
:1000E000B3020108B3020108B3020108B302010818
:1000F000B3020108B3020108B3020108B302010808
:10010000B3020108B3020108B3020108B3020108F7
:10011000B3020108B3020108B3020108B3020108E7
:10012000B3020108B3020108B3020108B3020108D7
:10013000B302010889070108B3020108B3020108EC
:10014000B3020108B3020108B3020108B3020108B7
:10015000B3020108B3020108B3020108B3020108A7
:10016000B3020108B3020108B3020108B302010897
:10017000B3020108B3020108B30201080000000045
:10018000B3020108B3020108B3020108B302010877
:10019000B3020108B3020108B3020108B302010867
:1001A000B3020108B3020108B3020108DFF80CD062
:1001B00000F026F900480047F97A0108005B0220A8
:1001C000EFF308807047EFF3098070476846704787
:1001D00030BF72B6704762B6704780F308887047C8
:1001E0002A4B19680868B0E8F04F80F30988BFF31C
:1001F0006F8F4FF0000080F31188704700000000FF
:1002000006480068006880F3088862B661B6BFF3EC
:100210004F8FBFF36F8F00DF00BF00BF08ED00E01E
:10022000DFF80C00016841F470010160704700BF05
:1002300088ED00E0EFF30980BFF36F8F134B1A686E
:100240001EF0100F08BF20ED108A20E9F04F10605B
:1002500008B44FF0500080F31188BFF34F8FBFF305
:100260006F8F0FF0CFFC4FF0000080F3118808BCB7
:1002700019680868B0E8F04F1EF0100F08BFB0EC26
:10028000108A80F30988BFF36F8F70472C0000201D
:10029000EFF3058070470000064880470648004796
:1002A000FEE7FEE7FEE7FEE7FEE7FEE7FEE7FEE726
:1002B000FEE7FEE745360108AD01010870466946D4
:1002C00003F092FFFFF7FEFF2DE9F05F05460020E7
:1002D00092469B4688460646814640241BE02846B7
:1002E00041464746224600F07AF853465A46C01A1D
:1002F000914110D311461846224600F061F82D1A9C
:1003000067EB01084F4622460120002100F058F813
:1003100017EB00094E41201EA4F10104DFDC484622
:1003200031462A464346BDE8F09F10B5431A934232
:1003300009D28318881803E010F8011D03F8011D85
:10034000521EF9D210BD40EA01039B0703D009E019
:1003500008C9121F08C0042AFAD203E011F8013BB1
:1003600000F8013B521EF9D210BDD2B201E000F8F4
:10037000012B491EFBD270470022F6E710B5134649
:100380000A4604461946FFF7F0FF204610BD10B597
:10039000044604E00B7800F8013B03B1491C521EEF
:1003A000F8D2204610BD30B504460020034600E0D8
:1003B0005B1C934203D2E05CCD5C401BF8D030BDA7
:1003C000202A04DB203A00FA02F100207047914015
:1003D000C2F1200320FA03F3194390407047202A0A
:1003E00004DB203A21FA02F00021704721FA02F3DF
:1003F000D040C2F1200291400843194670470000E6
:10040000064C074D06E0E06840F0010394E8070061
:1004100098471034AC42F6D3FFF7CCFE78130208AD
:100420009813020870B58C1810F8015B15F00703DB
:1004300001D110F8013B2A1106D110F8012B03E07D
:1004400010F8016B01F8016B5B1EF9D12B0705D485
:100450000023521E0DD401F8013BFAE710F8013BCE
:10046000CB1A921C03E013F8015B01F8015B521EEA
:10047000F9D5A142D8D3002070BD000010B503F01B
:100480000BF90EF09FFF0FF0EFF80AF025F8044883
:1004900000680FF065FABDE810400FF01FB90000CA
:1004A0001000002010B501F00BFA00F011FA03F073
:1004B00077F803F005F800F0FFF802F0D9FE07A284
:1004C00008A10AA003F0C4FF0DA003F037FBBDE8AC
:1004D000104002A203A10D4803F030BB56302E316C
:1004E0002E30000056312E302E30000048442D565C
:1004F000657373656C2D416E63686F720000000058
:100500005B44454255475D3A00000000040A02087A
:100510002DE9F041364888B00468364800F0A1FA69
:1005200035480025016841F001010160006801269D
:1005300000F0010007900820DFF8C0800227029039
:10054000039602A94046CDE9046700F0ADFF002202
:100550000821404601F070F9322000F0FBF9012239
:100560000821404601F068F9322000F0F3F92448F0
:10057000016841F0010101608DF800708DF80150B3
:100580008DF80250200C8DF80300200A8DF804002D
:1005900018488DF805401B49C0E9001605826946D8
:1005A000C0E90516F105C0E9075149128160C9107B
:1005B000C16000F0F3FA040013A015D003F0BEFAF6
:1005C00015A003F0BBFA08231A4A1B49094800F09A
:1005D0000CFA1A4A0823A2F50071064800F0CCF97B
:1005E00008B02046BDE8F08103F0A8FA14A0E8E7BF
:1005F000107AFF1FDC01002030380240000002406A
:1006000000900240008002400D0A5B44454255477D
:100610005D203E3E200000006574682068617264C1
:100620007761726520696E6974206661696C642EF9
:100630002E2E0A00C43300202403002024040020AE
:1006400065746820686172647761726520696E699B
:1006500074207375636573732E2E2E0A00000000DC
:1006600004A263210BA003F069FA012080F3108833
:1006700002F05EFE2E2E5C557365725C636F6D6DCD
:100680006F6E5C73746D3332663478785F69742E84
:10069000630000000D0A5265626F6F742064657616
:1006A000696365206174206C696E6520256420692A
:1006B0006E2025730D0A00000848074901604FF4B9
:1006C000E131416000218160C160016181610C21E3
:1006D000416102F079BC0000001001409C01002043
:1006E00004A27A210BA003F029FA012080F31088DC
:1006F00002F01EFE2E2E5C557365725C636F6D6D8D
:100700006F6E5C73746D3332663478785F69742E03
:10071000630000000D0A5265626F6F742064657695
:10072000696365206174206C696E652025642069A9
:100730006E2025730D0A0000064908B509684FF4BC
:10074000FA52B1FBF2F14143009100BF491E009102
:10075000FBD208BD0000002038B50446006800F553
:100760008050816941F480118161206800F58050DA
:10077000806900900120FFF7DFFF2068009900F5F5
:100780008050816138BD000010B55020EFF3118416
:1007900080F31188BFF34F8FBFF36F8F024800F0D3
:1007A000C0F984F3118810BDDC0100202DE9F0416F
:1007B000044621B14FF40060E060C000A060E06931
:1007C0000026002861D035462068402702683A4953
:1007D0000A40D4E902131943294341F4007111433B
:1007E000016020680568012000F0B4F82068056009
:1007F0002068476020684568012000F0ABF8206859
:100800004560206886602068C660206881694FF670
:100810004172114041F080018161206885690120A9
:1008200000F098F8206885612068C6612068C56975
:10083000012000F08FF82068C561206800F5805025
:1008400081691E4A11401E4A0A438261206800F5F0
:1008500080508569012000F07DF8206800F5805007
:1008600085612068174900F580500160206800F517
:1008700080500568012000F06DF8206800F5805078
:100880000560A069012803D009E04FF480659BE76B
:10089000206800F58050C1690B4A1143C16160694D
:1008A0000A4A818811640178D0F8010041EA0020E9
:1008B0005064BDE8F08100000F8120FF233FDEF887
:1008C000040020028020C10240000100008002409C
:1008D000194808B5016841F080010160016801F024
:1008E00080010091016841F004010160016801F09C
:1008F00004010091016841F001010160016801F00B
:1009000001010091016841F002010160016801F0FC
:1009100002010091016841F040010160016801F0AD
:1009200040010091016841F480710160006800F4A9
:100930008070009008BD000030380240044D42F243
:10094000107420460EF0D4FF284609F053FDF8E756
:10095000C703855F70B5044600F0A4FF0546601C20
:1009600002D004480078044400F09CFF401BA042E1
:10097000FAD370BD040000202DE9F04390F84550F3
:100980000024012D0DD04FF0010980F8459002257B
:1009900080F8445044F2F45C4FF000485F1E8162DE
:1009A00016E00220BDE8F08301EB4415C5F8008095
:1009B000C4EBC41606EB460602EB8606C5E901C683
:1009C000BC4203D205F12006EE6000E0E960641C41
:1009D0009C42E9D3026802F58052D16080F84490CD
:1009E000002180F845100846DCE72DE9F04390F837
:1009F00045400025012C0BD04FF0010C80F845C07C
:100A0000022480F844404FF480195F1EC1621BE04D
:100A10000220BDE8F08301EB4514C4F80090C5EB5B
:100A2000C51606EB460602EB8606A660C6691EB929
:100A3000266846F440062660BD4203D204F1200633
:100A4000E66000E0E1606D1C9D42E4D3026802F5BF
:100A50008052116180F844C0002180F8451008469A
:100A6000D7E710B50446022084F84400204600F081
:100A7000DDF9002004F8440F607010BD10B504A02B
:100A800003F05CF8BDE8104004A003F057B8000084
:100A90000D0A5B4552525D203E3E20006574682081
:100AA0006572720A0000000010B590F84510012927
:100AB00013D0012380F84530022180F84410816A68
:100AC0000A680024002A27DB0A68D20518D5826B41
:100AD000521C8263012A02D002E0022010BD016391
:100AE00041630A68C2F30D42121FC263026B92682F
:100AF0000264C96840F8281F03774477002010BDBE
:100B00000A68920503D58363C0E90C1402E0826B86
:100B1000521C8263C968816200F8443F447001201E
:100B200010BD70B50446006800F5805041694FF073
:100B3000000649064FF0010508D5204600F08CFA62
:100B40002068402100F58050416109E04069C007FC
:100B50000AD0204600F05EFB206800F58050456119
:100B600084F8445084F8456020684FF4803100F5E3
:100B700080504161206800F58050406900040CD528
:100B80002046FFF77BFF20684FF4004100F58050BE
:100B9000416184F8445084F8456070BD2DE9FC5FE4
:100BA0004FF000060400B346009624D06068012888
:100BB00004D018B1C02184A003F070FAA06928B154
:100BC000012803D0C12180A003F068FAE06928B1B0
:100BD000012803D0C2217CA003F060FA206A30B162
:100BE000B0F5000F03D0C32177A003F057FA94F8B3
:100BF000440018B107E00120BDE8FC9F84F845607F
:100C0000204600F045F97F48016841F480410160C9
:100C1000006800F4804001907B48016821F40001E5
:100C200001600168226A11430160206800F580506C
:100C3000016841F00101016000F034FE05464FF407
:100C4000FA7708E000F02EFE401BB84203D90320DB
:100C500004F8440F6DE0206800F580500068C0077C
:100C6000F0D12068006920F01C0501F0DBFA67492B
:100C7000674A0144914202D245F0080516E06549F1
:100C8000654A0144914202D245F00C050EE06349E9
:100C9000634A0144914209D3624908446249884247
:100CA00002D245F0040501E045F010052068056119
:100CB0004FF400420021204600F0AEFA0125002842
:100CC0006FD10520FFF746FE60684FF400694FF4CE
:100CD000804A88B300F0E6FD804641F288376A46D4
:100CE0000121204600F050F900F0DCFDA0EB0800E7
:100CF000B84218D800984007F1D54FF4805200212F
:100D0000204600F089FA00284BD100F0CBFD804648
:100D10006A460121204600F037F900F0C3FDA0EB40
:100D20000800B84209D901212046FFF73FFD04F829
:100D3000445F032066705FE716E000988006E7D501
:100D40006A461F21204600F01FF950BB0098C106DB
:100D500002D5C4F80C9000E0E660400701D5A6601B
:100D600029E0C4F808A026E0A06830B1504504D0BE
:100D70004FF4CD7114A003F091F9E068484505D017
:100D800020B140F29B1110A003F088F9E068A1683F
:100D9000C00840EA510082B20021204600F03CFA2F
:100DA00030B101212046FFF701FD84F8445022E7CD
:100DB0000520FFF7CFFD59462046FFF7F7FC84F8E2
:100DC0004450002018E700002E2E5C4C69627261CE
:100DD000726965735C53544D3332463478785F489A
:100DE000414C5F4472697665725C5372635C7374E4
:100DF0006D3332663478785F68616C5F6574682E35
:100E000063000000443802400438014000D3CEFEA5
:100E1000C0E1E40040F1E9FD40787D0100796CFC1F
:100E2000005A6202001F0AFA80F0FA0210B5006848
:100E30001249884221D11248016821F08061016085
:100E4000016821F000610160016821F0007101601A
:100E500032210C4800F044FA86210B4800F040FA99
:100E60000A4C4FF40061204600F03AFA2046BDE8F3
:100E700010404FF4405100F033BA10BD00800240E2
:100E800030380240000802400000024000040240E6
:100E90002DE9F0430068374987B0884267D1364C66
:100EA0000025206840F000702060206800F000708D
:100EB0000590206840F080602060206800F080602D
:100EC0000590206840F0006020602068022600F055
:100ED000006005903220CDE9000602AA03274FF0FA
:100EE0000B0882E8A0016946244800F0DDFA86205C
:100EF000CDE9000602AA694682E8A001204800F078
:100F0000D3FAE014CDE9000602AADFF8789082E86F
:100F1000A0016946484600F0C7FA3803CDE900064B
:100F200002AA694682E8A001484600F0BDFA002204
:100F300006213D2000F032FD3D2000F0FDFC206840
:100F400040F000702060206800F00070059020687C
:100F500040F080602060206800F08060059020688C
:100F600040F000602060206800F00060059007B04D
:100F7000BDE8F083008002403038024000080240A3
:100F800000000240000402402DE9F0470446008AB8
:100F900091460D46202804D94FF485611FA003F027
:100FA0007DF894F8440082281DD0822084F8440003
:100FB00020680169228A4FF6FF7301F01C0103EAE1
:100FC000C2220A434FF4F86101EA8511114321F06E
:100FD000020141F00105056100F064FC06460127AD
:100FE0004FF480380FE00220BDE8F08700F05AFC93
:100FF000801B404505D304F8447F00206070032027
:10100000F2E720680569E807F0D12068406981B2FD
:10101000C9F8001084F844700020E5E72E2E5C4CDF
:1010200069627261726965735C53544D3332463440
:1010300078785F48414C5F4472697665725C5372A0
:10104000635C73746D3332663478785F68616C5FAB
:101050006574682E6300000008B500200090084801
:10106000694600680FF002F90098002807D005498A
:101070004FF080500860BFF34F8FBFF36F8F08BDF4
:101080005401002004ED00E0F8B5044690F8450056
:10109000012839D0012584F84550022084F8440005
:1010A00020680026016841F008010160206800689E
:1010B00000902846FFF740FB2168009808602068F0
:1010C000016841F00401016020680068009001207F
:1010D000FFF732FB2168009808602046FFF73CFBD1
:1010E000206800F58050816941F4005181612068D9
:1010F00000F58050816941F00201816184F844501B
:1011000084F845600020F8BD0220F8BDF0B590F8E5
:1011100045300022012B11D0012780F845700223B1
:1011200080F84430002559B1C46A2368002B0ADADC
:10113000122100F8441F45700120F0BD0220F0BDCF
:1011400000F8447FF7E740F2F456B1420BD9B1FB07
:10115000F6FCB1FBF6F306FB1C1CBCF1000F00D043
:101160005B1C012B43D1226842F040522260C26ACC
:10117000C1F30C015160C16A0A6842F000420A6082
:10118000C16AC968C16234E0D4F800C02CF0405C88
:10119000C4F800C032B9C46AD4F800C04CF0805C16
:1011A000C4F800C0C46A66605C1EA24214D1C46A5E
:1011B000D4F800C04CF0005CC4F800C0C3F10104D6
:1011C000C4EBC41404EB4404D0F82CC001EB840439
:1011D000C4F30C04CCF80440C46AD4F800C04CF04A
:1011E000004CC4F800C0C46A521CE468C4629A424D
:1011F000CAD3016801F580514A69520705D5042216
:101200004A61016801F580514D6000F8447F4570E6
:101210000020F0BD704700002DE9F0410446008A2F
:1012200016460D46202804D94FF48E611DA002F009
:1012300035FF94F8440042281ED0422084F8440030
:1012400020680169228A4FF6FF7301F01C0103EA4E
:10125000C2220A434FF4F86101EA8511114341F0BB
:101260000305B1B241612068056100F01BFB064631
:1012700001274FF480380FE00220BDE8F08100F034
:1012800011FB801B404505D304F8447F00206070AB
:101290000320F2E720680569E807F0D184F844707C
:1012A000EBE700002E2E5C4C696272617269657317
:1012B0005C53544D3332463478785F48414C5F4438
:1012C00072697665725C5372635C73746D333266F7
:1012D0003478785F68616C5F6574682E6300000025
:1012E0002DE9F35F544DDFF854A1DFF854B1044603
:1012F000A84220D054451ED05C451CD051488442A1
:1013000019D05148844216D05048844213D05048D6
:10131000844210D04F4884420DD04F4884420AD0B6
:101320004E48844207D04E48844204D04FF4A07106
:101330004CA002F0B3FE00204FF0010E4FF00F085A
:1013400001990EFA00F31940994270D126684700BE
:101350000322BA4096432660C60804EB8606D6F8F8
:1013600020C047074FEAD76908FA09F72CEA070CAB
:10137000C6F820C0A6689643A66066689E4366606D
:10138000E3689343E360464A20F003031344D3F831
:1013900008288607370F08FA07F606EA020CAC425F
:1013A00001D100222BE0544501D1012227E05C4508
:1013B00001D1022223E0234A944201D103221EE0FC
:1013C000214A944201D1042219E0204A944201D1D9
:1013D000052214E01E4A944201D106220FE01D4A64
:1013E000944201D107220AE01B4A944201D108220B
:1013F00005E01A4A944201D1092200E00A22BA40CB
:10140000624514D1D3F80828B243C3F80828254A06
:1014100013688B431360121D13688B431360121DF6
:1014200013688B431360131D1A688A431A60401CAB
:10143000102885D3BDE8FC9F000002400004024054
:1014400000080240000C024000100240001402405C
:1014500000180240001C024000200240002402400C
:10146000002802402E2E5C4C6962726172696573BD
:101470005C53544D3332463478785F48414C5F4476
:1014800072697665725C5372635C73746D33326635
:101490003478785F68616C5F6770696F2E630000F5
:1014A00000300140003C01402DE9F84F0446A948B6
:1014B0000D46844221D0A84884421ED0A7488442C9
:1014C0001BD0A748844218D0A648844215D0A6480D
:1014D000844212D0A54884420FD0A54884420CD043
:1014E000A448844209D0A448844206D0A348844238
:1014F00003D0C321A2A002F0D1FD28680104090C89
:1015000001D0000C03D0C4219DA002F0C7FD686883
:10151000F8B101281DD011281BD0022819D012289B
:1015200017D0A649884214D0A549884211D0A549B0
:1015300088420ED0A44988420BD0A449884208D0E2
:10154000A349884205D0032803D0C5218CA002F00E
:10155000A5FDA86838B1012805D0022803D0C6210E
:1015600087A002F09BFD00264FF00F0B0120B0403A
:101570002F688246074057457ED16868022801D00F
:10158000122830D1286908B309281FD001281DD09E
:1015900002281BD0032819D0042817D0052815D0FD
:1015A000062813D0072811D008280FD00A280DD0FC
:1015B0000B280BD00C2809D00D2807D00F2805D0F8
:1015C0000E2803D0D7216EA002F068FDF00804EBCE
:1015D0008000026A7107C90E0BFA01F39A432B6966
:1015E0008B401343036222687000032101FA00F864
:1015F0002979814601F0030122EA080201FA09F182
:10160000114321606868012805D0022803D0112801
:1016100001D012281CD1E86848B1012807D002285F
:1016200005D0032803D0EA2155A002F037FDA068B9
:10163000E96820EA080001FA09F10143A160616844
:10164000287921EA0A01C0F30010B0400843606025
:10165000E168A86821EA080100FA09F00843E0609F
:101660006868C0006FD55B48016841F48041016043
:10167000006800F4804000E065E00090564826F0E5
:1016800003010A18D2F80838B007010F0BFA01F06D
:1016900083433048844201D100202DE02E4884420B
:1016A00001D1012028E02D48844201D1022023E00D
:1016B0002B48844201D103201EE02A48844201D1F4
:1016C000042019E02848844201D1052014E027486D
:1016D000844201D106200FE02548844201D1072031
:1016E0000AE02448844201D1082005E022488442CF
:1016F00001D1092000E00A2088401843C2F80808F8
:10170000364908686A68B843D20300D53843086090
:101710003249091D08686A68B843920300D5384306
:1017200008602E49083108686A68B843D20200D5BB
:101730003843086029490C3108686A68B843920246
:1017400000D538430860761C102EFFF40FAFBDE8BB
:10175000F88F000000000240000402400008024030
:10176000000C024000100240001402400018024029
:10177000001C0240002002400024024000280240D9
:101780002E2E5C4C69627261726965735C53544DB4
:101790003332463478785F48414C5F4472697665ED
:1017A000725C5372635C73746D3332663478785F45
:1017B00068616C5F6770696F2E6300000000111034
:1017C0000000211000003110000012100000221053
:1017D000000032104438024000300140003C01401B
:1017E00070B50C00054604D14FF4E37103A002F07C
:1017F00055FC68696040686170BD00002E2E5C4C2D
:1018000069627261726965735C53544D3332463458
:1018100078785F48414C5F4472697665725C5372B8
:10182000635C73746D3332663478785F68616C5FC3
:101830006770696F2E63000070B515460C00064690
:1018400004D140F2AF1108A002F028FC45B1012DEF
:1018500004D04FF4D87104A002F020FCB46170BD34
:101860002004B06170BD00002E2E5C4C6962726174
:10187000726965735C53544D3332463478785F48EF
:10188000414C5F4472697665725C5372635C737439
:101890006D3332663478785F68616C5F6770696F4A
:1018A0002E6300000148806870470000040000209B
:1018B000024881680278114481607047040000206A
:1018C0000B4810B5016841F400710160016841F4F2
:1018D00080610160016841F480710160032000F0C3
:1018E000ADF80F2000F006F800F024F8002010BD3D
:1018F000003C024070B50D4D04464FF47A712878D3
:10190000B1FBF0F00A490968B1FBF0F001F048FBC7
:1019100048B9102C07D200222146501E00F03EF894
:1019200000206C6070BD012070BD0000040000202C
:10193000000000207047000010B5040003D5CE2140
:1019400006A002F0ABFB04F01F01012088406109F2
:10195000890001F1E021C1F8000110BD2E2E5C4C80
:1019600069627261726965735C53544D33324634F7
:1019700078785F48414C5F4472697665725C537257
:10198000635C73746D3332663478785F68616C5F62
:10199000636F727465782E630000000070B51446A2
:1019A0000D460646102A03D3BA2113A002F076FB97
:1019B000102D03D3BB2110A002F070FB1E4800685D
:1019C000C0F30223C3F10700042800D90420191D25
:1019D000072901D2002300E0DB1E012202FA00F1F8
:1019E000491E294099409A40521E22403046BDE887
:1019F0007040114301F08BBC2E2E5C4C6962726109
:101A0000726965735C53544D3332463478785F485D
:101A1000414C5F4472697665725C5372635C7374A7
:101A20006D3332663478785F68616C5F636F7274AF
:101A300065782E63000000000CED00E010B5044650
:101A400007280BD0062C09D0052C07D0042C05D074
:101A5000032C03D0A22108A002F020FB164A04F0B8
:101A6000070110684FF6FF03184040EA01201349B0
:101A70000843106010BD00002E2E5C4C696272613C
:101A8000726965735C53544D3332463478785F48DD
:101A9000414C5F4472697665725C5372635C737427
:101AA0006D3332663478785F68616C5F636F72742F
:101AB00065782E63000000000CED00E00000FA05E0
:101AC0002DE9F8431748016841F080510160006832
:101AD000DFF8548000F0805001270090C8F8407073
:101AE000FFF7E0FE04464FF47A75104E04E0FFF76E
:101AF000D9FE001BA8420DD87068C003F7D5C8F8FE
:101B00004470FFF7CFFE044607E0FFF7CBFE001B53
:101B1000A84202D90320BDE8F88370688003F4D599
:101B20000020F8E74038024000000E4200700040FC
:101B3000014901200862704700000E422DE9F84F6C
:101B400004460068401E7E2804D940F68B01E5A0BB
:101B500002F0A4FA2068DFF8CCA3F34FF34DC107DD
:101B60004FF4BF7B4FF001094FF0000801D180070F
:101B70005ED560683238584504D940F69501D9A041
:101B800002F08CFACAF86880FFF78CFE064604E083
:101B9000FFF788FE801B02287ED828680001F7D452
:101BA0002078E34EC0070ED0A068801E052804D917
:101BB00040F6AB01CBA002F071FA6068217A800197
:101BC00040EA017030602078800723D5E068801EED
:101BD0000D2804D940F6B801C2A002F05FFAE0690E
:101BE000401E1F2804D940F6B901BEA002F056FAE3
:101BF00030686168227B8901C0F3027041EA0261AA
:101C000041EA007030603868E16920F01F00491E29
:101C100008433860CAF86890FFF744FE064604E0BF
:101C2000FFF740FE801B0228B6D828680001F7D5D0
:101C30002068410701D4000777D52069323858451C
:101C400004D940F6DE01A7A002F028FACAF8708095
:101C5000FFF728FE064604E0FFF724FE801B02285B
:101C60009AD82868C0438000F6D52078B14E400746
:101C700028D56069801E0D2804D940F6F30199A08B
:101C800002F00CFA206A401E1F2804D940F6F40125
:101C900094A002F003FA00E0CBE030682169227DD5
:101CA0008901C0F3027041EA026141EA00703060CC
:101CB0003868216A6FF0FF0220F4F85002EB01212E
:101CC000084338602078000729D5A069801E0528C0
:101CD00004D940F6031183A002F0E0F9606A68B10C
:101CE000B0F5803F0AD0B0F5003F07D0B0F5403FD7
:101CF00004D040F604117BA002F0D0F930682169CD
:101D0000C0F30360890141EA0060217E40EA01706E
:101D100030603868616A20F4403008433860CAF89F
:101D20007090FFF7BFFD064605E008E0FFF7BAFD3B
:101D3000801B02287DD82868C0438000F6D4207814
:101D4000800677D5A06AB0F5807F61D0B0F5007FBE
:101D50005ED0794988425BD07849884258D078492A
:101D6000884255D07749884252D0774988424FD02F
:101D7000764988424CD07649884249D07549884294
:101D800046D07549884243D07449884240D074494E
:101D900088423DD0734988423AD07349884237D04F
:101DA0007249884234D07249884231D071498842A0
:101DB0002ED0714988422BD07049884228D0704972
:101DC000884225D06F49884222D06F4988421FD06F
:101DD0006E4988421CD06E49884219D06D498842AC
:101DE00016D06D49884213D06C49884210D06C4996
:101DF00088420DD06B4988420AD06B49884207D08F
:101E00006A49884204D040F6231136A002F046F910
:101E1000464845464030016841F080510160006805
:101E2000634F00F080500090386840F48070386054
:101E300001E02DE043E0FFF735FD064604E0FFF743
:101E400031FD801B022823D83868C005F7D5384EED
:101E5000143E306810F4407020D0218D01F44071A0
:101E600081421BD03068534920F44070C1F8009083
:101E70000D6030603068C00710D0FFF713FD0546D5
:101E800041F2883707E0FFF70DFD401BB84202D949
:101E90000320BDE8F88F30688007F4D5A06A234995
:101EA000C0F301220831032A13D0086820F4F81087
:101EB00008603068218DC1F30B0108433060207841
:101EC000C00604D53C4994F82C00C1F8E00100207C
:101ED000DFE70A68394B22F4F812184002430A601F
:101EE000E7E700002E2E5C4C6962726172696573CF
:101EF0005C53544D3332463478785F48414C5F44EC
:101F000072697665725C5372635C73746D333266AA
:101F10003478785F68616C5F7263635F65782E63A5
:101F200000000000000047428C38024000380240A8
:101F30008438024088380240000302000003030096
:101F4000000304000003050000030600000307006F
:101F5000000308000003090000030A0000030B004F
:101F600000030C0000030D0000030E0000030F002F
:101F7000000310000003110000031200000313000F
:101F800000031400000315000003160000031700EF
:101F9000000318000003190000031A0000031B00CF
:101FA00000031C0000031D0000031E0000031F00AF
:101FB00000700040400E474200104742FFFCFF0FF8
:101FC0002DE9F0470C4605007ED02868401E0E28FB
:101FD00004D94FF4147180A002F060F814B3012CFE
:101FE00020D0022C1ED0032C1CD0042C1AD0052C7F
:101FF00018D0062C16D0072C14D0082C12D0092C7F
:1020000010D00A2C0ED00B2C0CD00C2C0AD00D2C7E
:1020100008D00E2C06D00F2C04D040F251216EA017
:1020200002F03CF8DFF8EC91D9F8000000F00F0165
:10203000E0B28046A14208D2014689F80010D9F8E2
:10204000000000F00F00A0427BD12868724E81078B
:1020500029D5400703D5306840F4E0503060287837
:10206000000703D5306840F460403060A868A0B134
:10207000802812D0902810D0A0280ED0B0280CD0E4
:10208000C0280AD0D02808D0E02806D0F02804D0F4
:102090004FF41D7150A002F001F83068A96820F0DB
:1020A000F000084330602878C0073CD05A4F686879
:1020B000083F98B1012821D0022822D0032820D03F
:1020C00040F27B2144A000E03BE001F0E7FF6868BC
:1020D000012813D0022814D0032812D038688007B2
:1020E00000282EDA3068696820F003000843306069
:1020F000FFF7D8FB074641F2883A0DE038688003C5
:10210000EEE738688001EBE7FFF7CCFBC11B5145D8
:1021100002D90320BDE8F0873068696800F00C0040
:10212000B0EB810FF0D1D9F80010484601F00F0153
:10213000A14208D980F80080006800F00F00A0429A
:1021400001D00120E6E728784FF4805440074FF48F
:10215000A0574FF4C0584FF4E05914D5E86860B167
:10216000A0420AD0B84208D0404506D0484504D025
:1021700040F2B92118A001F091FF3068E96820F41D
:10218000E050084330602878000715D5286960B111
:10219000A0420AD0B84208D0404506D0484504D0F5
:1021A0004FF430710CA001F079FF3068296920F4F8
:1021B000604040EAC100306000F05AF83168174AC8
:1021C000C1F30311515CC840154908600F20FFF7A7
:1021D00091FB00209EE700002E2E5C4C696272612C
:1021E000726965735C53544D3332463478785F4876
:1021F000414C5F4472697665725C5372635C7374C0
:102200006D3332663478785F68616C5F7263632E19
:1022100063000000003C02400838024058070208F2
:102220000000002001480068704700000000002006
:102230000448054900680968044AC1F38221515CD9
:10224000C8407047000000200838024068070208B4
:102250000448054900680968044AC1F34231515CE9
:10226000C840704700000020083802406807020894
:10227000154810B5006810F00C01144813D0144B29
:1022800004290FD008290ED10F4C241F216801F01A
:102290003F022168490207D52068C0F38810A0FBDF
:1022A000030106E0184610BD2168C1F38811A1FBA7
:1022B00000010023FEF708F82168C1F30141491C21
:1022C0004900B0FBF1F010BD083802400024F400D2
:1022D00040787D012DE9F84F04007CD020680F285C
:1022E00003D9F821ECA001F0D9FE2078F94DC00700
:1022F00055D060684FF480364FF4A02738B1B04213
:1023000005D0B84203D0FD21E3A001F0C7FEF1489B
:1023100008300168C1F38101012909D00068C0F3C8
:10232000810002280BD1EB48001D0068400206D551
:102330002868800333D560680028CED02FE060681D
:10234000B04203D1286840F480300CE0B8422868DD
:1023500003D140F480202860F4E720F48030286026
:10236000286820F480202860606860B1FFF79AFA3E
:10237000064604E0FFF796FA801B64287ED828689A
:102380008003F7D50BE0FFF78DFA064604E0FFF770
:1023900089FA801B6428F1D828688003F7D4207854
:1023A000DFF8349380074FF0000A50D5E06830B171
:1023B000012804D040F22F11B7A001F06FFE206970
:1023C0001F2804D94FF49871B3A001F067FEC148EB
:1023D0000830016800E091E011F00C0F09D00068AE
:1023E000C0F3810002280BD1BA48001D00684002EA
:1023F00006D42868800714D5E06801287ED110E053
:10240000E068B0B10120C9F80000FFF74BFA0646BA
:1024100004E0FFF747FA801B0228AFD8286880073E
:10242000F7D52868216920F0F80040EAC10028604B
:102430000DE0C9F800A0FFF735FA064604E0FFF703
:1024400031FA801B022899D828688007F7D42078B1
:1024500000072BD59F4FA14E60697437C0B101288A
:1024600006D04FF4B8718CA001F018FE606978B105
:1024700001203060FFF716FA064605E042E1FFF75B
:1024800011FA801B022886D838688007F7D50DE03E
:10249000C6F800A0FFF706FA064604E0FFF702FAC6
:1024A000801B0228B9D838688007F7D42078400705
:1024B00076D5A0684FF0000840B1012806D0052865
:1024C00004D04FF4CE7174A001F0E8FDDFF804B23F
:1024D0000BF1400BDBF80000C0000CD4DBF800105F
:1024E00041F08051CBF80010DBF800004FF00108FC
:1024F00000F0805000907A4F386800E0CBE0C005D3
:102500000FD4386840F480703860FFF7CBF9064686
:1025100004E0FFF7C7F9801B022894D83868C0058B
:10252000F7D56C4FA068703701280FD005283868A0
:1025300010D020F001003860386820F004003860C6
:10254000A068B0B1FFF7AEF906460EE0386840F07B
:102550000100F4E740F004003860F7E7FFF7A2F964
:10256000811B41F2883081428DD838688007F5D5CB
:102570000DE0FFF797F9064606E0FFF793F9811B98
:1025800041F2883081428DD838688007F5D4B8F19F
:10259000000F05D0DBF8001021F08051CBF80010BF
:1025A000A069002876D0012809D0022807D040F27F
:1025B000DF1139A001F072FDA0690028F2D0454872
:1025C00008300068C0F38100022864D0A0690228A6
:1025D00005D0C9F860A0FFF765F9044695E0E06909
:1025E00038B1B0F5800F04D04FF4F4712AA001F097
:1025F00055FD206A3F2804D940F2E91126A001F0D8
:102600004DFD606A3238B0F5BF7F04D94FF4F571E3
:1026100021A001F043FDA06A02280AD0042808D0B6
:10262000062806D0082804D040F2EB111AA001F0C9
:1026300035FDE06A801E0D2804D94FF4F67116A00E
:1026400001F02CFD4F46C9F860A0FFF72BF90646B4
:1026500004E0FFF727F9801B022853D8286880017F
:10266000F7D4D4E907010843A16A1E4A490802EBDE
:102670000141626A41EA8211084394F82C1040EA51
:1026800001611448001D016001203866FFF70AF956
:1026900004462EE03CE03DE02E2E5C4C6962726107
:1026A000726965735C53544D3332463478785F48B1
:1026B000414C5F4472697665725C5372635C7374FB
:1026C0006D3332663478785F68616C5F7263632E55
:1026D000630000000038024000004742800E47427D
:1026E000007000400000FFFFFFF7DCF8001B02282D
:1026F00008D828688001F7D50AE0FFF7D3F8001B57
:10270000022802D90320BDE8F88F28688001F4D49C
:102710000020F8E70120F6E770B50C0005462AD046
:10272000012C28D0022C26D0032C24D0042C22D01B
:10273000052C20D0062C1ED0072C1CD0082C1AD01B
:10274000092C18D00A2C16D00B2C14D00C2C12D01B
:102750000D2C10D00E2C0ED00F2C0CD0102C0AD01B
:10276000112C08D0122C06D0132C04D040F27F413B
:1027700003A001F093FC2868503050F8240070BD8D
:102780002E2E5C4C69627261726965735C53544DA4
:102790003332463478785F48414C5F4472697665DD
:1027A000725C5372635C73746D3332663478785F35
:1027B00068616C5F7274635F65782E63000000006F
:1027C00070B515460C0006462AD0012C28D0022CE4
:1027D00026D0032C24D0042C22D0052C20D0062C6B
:1027E0001ED0072C1CD0082C1AD0092C18D00A2C6B
:1027F00016D00B2C14D00C2C12D00D2C10D00E2C6B
:102800000ED00F2C0CD0102C0AD0112C08D0122C6A
:1028100006D0132C04D04FF48D6104A001F03EFCCF
:102820003068503040F8245070BD00002E2E5C4CB3
:1028300069627261726965735C53544D3332463418
:1028400078785F48414C5F4472697665725C537278
:10285000635C73746D3332663478785F68616C5F83
:102860007274635F65782E630000000070B5150018
:102870000C46064606D0012D04D040F2DF2110A000
:1028800001F00CFC306841681C480140080CE07005
:10289000C1F30422627001F03F02A270C1F3423121
:1028A000217055B900F0DCFDE070607800F0D8FDD3
:1028B0006070A07800F0D4FDA070002070BD000012
:1028C0002E2E5C4C69627261726965735C53544D63
:1028D0003332463478785F48414C5F44726976659C
:1028E000725C5372635C73746D3332663478785FF4
:1028F00068616C5F7274632E630000003FFFFF002D
:1029000070B515000C46064606D0012D04D04FF4D4
:10291000117115A001F0C2FB3068806A60603068F8
:102920000069C0F30E00A060306801681D480140D6
:10293000C1F305402070C1F30622627001F07F02EE
:10294000A270402202EA1141E17055B900F088FD01
:102950002070607800F084FD6070A07800F080FD49
:10296000A070002070BD00002E2E5C4C6962726168
:10297000726965735C53544D3332463478785F48DE
:10298000414C5F4472697665725C5372635C737428
:102990006D3332663478785F68616C5F7274632E71
:1029A000630000007F7F7F0070B504003AD060684C
:1029B000402804D018B1D22141A001F06FFBA068DB
:1029C0007F2803D9D3213EA001F068FBE068B0F571
:1029D000004F03D3D4213AA001F060FB206960B11D
:1029E000B0F5001F09D0B0F5800F06D0B0F5C00FCC
:1029F00003D0D52132A001F051FB606930B1B0F5B0
:102A0000801F03D0D6212EA001F048FBA06930B171
:102A1000B0F5802F03D0D72129A001F03FFB607FC4
:102A200010B106E0012070BD00202077204600F0A4
:102A300067F8022060772168CA2048622168532025
:102A40004862204600F020FDFF25042618BB2068C0
:102A500081682A4A11408160206881686268114358
:102A6000D4E904231A43114381602168E0680861B6
:102A700020680169228941EA024101612068C16838
:102A800021F08001C16020688068800607D420465C
:102A900000F038FA18B1206845626677C2E720680E
:102AA000016C21F4802101642068016CA26911434A
:102AB00001642068456201206077002070BD00003D
:102AC0002E2E5C4C69627261726965735C53544D61
:102AD0003332463478785F48414C5F44726976659A
:102AE000725C5372635C73746D3332663478785FF2
:102AF00068616C5F7274632E63000000BFFF8FFF1C
:102B000010B510489AB00024016841F0805101606E
:102B1000006800F080501890FFF70AF8082006942B
:102B20000090012468460594FFF7D4FB20200C9008
:102B3000000116900CA8FFF701F8034804601AB0D2
:102B400010BD0000403802403C0E47422DE9F047DE
:102B500016000D46044606D0012E04D040F2712125
:102B600052A001F09BFA207F012807D04FF0010905
:102B700084F81C90022060771EB109E00220BDE8B5
:102B8000F0876878C10603D500F0EF000A3068705E
:102B90002878012810D002280ED003280CD0042851
:102BA0000AD0052808D0062806D0072804D040F20D
:102BB0007D213EA001F072FAE878002E2CD000F0C2
:102BC0004FFC632804D94FF4237138A001F066FA52
:102BD00040F28D2135A001F061FA40F28E2133A040
:102BE00001F05CFAA878E97840EA0146687829782B
:102BF000000240EA413006432168CA204862216849
:102C000053204862204600F03FFC0025FF274FF08C
:102C1000040800283BD129E0632804D940F281212F
:102C200022A001F03BFA6878401E0B2804D940F23C
:102C300082211EA001F032FAA878401E1E2804D975
:102C400040F2832119A001F029FAE87800F011FC84
:102C50000204687800F00DFC42EA0022A87800F037
:102C600008FC0243287842EA4036C5E71E48064081
:102C7000206846602068C16821F08001C16020683A
:102C8000806880060AD4204600F03CF930B1206804
:102C9000476284F81D802577012070E7206847622D
:102CA00084F81D902577002069E700002E2E5C4CEB
:102CB00069627261726965735C53544D3332463494
:102CC00078785F48414C5F4472697665725C5372F4
:102CD000635C73746D3332663478785F68616C5FFF
:102CE0007274632E630000003FFFFF002DE9F04780
:102CF00017000C46054606D0012F04D04FF4E071B2
:102D000070A001F0CBF9E068B0F5003F08D0B0F555
:102D1000803F05D020B140F2C1116AA001F0BEF998
:102D2000206938B1B0F5802F04D04FF4E17165A06F
:102D300001F0B4F9287F012820D04FF0010A85F86E
:102D40001CA0022068772868002680684FEA40604F
:102D5000BFB1002851DA207800F082FB401E0B281A
:102D600004D94FF4F17157A001F098F9E0780028E8
:102D70004ED040284CD040F2E31146E00220BDE89E
:102D8000F08700280FDA2078401E0B2804D940F283
:102D9000CD114CA001F082F9E07868B140280BD049
:102DA0004FF4E77105E0E6702078172804D940F267
:102DB000D31144A001F072F960783B2804D940F2A5
:102DC000D51140A001F06AF9A0783B2804D94FF44E
:102DD000EB713CA001F062F9207800F04AFB02049C
:102DE000607800F046FB42EA0022A07800F041FB48
:102DF0000243E07842EA004728E0E670207800F0DD
:102E00002FFB172804D94FF4F4712EA001F046F9D6
:102E1000607800F025FB3B2804D94FF4F57129A018
:102E200001F03CF9A07800F01BFB3B2804D940F2EC
:102E3000EB1124A001F032F9A078217840EA014793
:102E40006078E178000240EA014007432968CA201F
:102E50004862296853204862284600F015FB4FF06D
:102E6000FF084FF00409E0B92548074028680760CB
:102E70002868816821F480218160D4E9031001432E
:102E800028688268114381602868C16821F0800148
:102E9000C1602868806880060BD4284600F032F8AC
:102EA00038B12968C1F8248085F81D902E7701205B
:102EB00065E72968C1F8248085F81DA02E770020D9
:102EC0005DE700002E2E5C4C696272617269657369
:102ED0005C53544D3332463478785F48414C5F44FC
:102EE00072697665725C5372635C73746D333266BB
:102EF0003478785F68616C5F7274632E63000000E1
:102F00007F7F7F0070B505460068C16821F0A00191
:102F1000C160FEF7C7FC04464FF47A7606E0FEF780
:102F2000C1FC001BB04201D9032070BD2868C068F5
:102F30008006F4D5002070BD10B54FF0E0240428C1
:102F40000AD020B140F2D91105A001F0A7F82069FC
:102F500020F00400206110BD206940F00400F9E772
:102F60002E2E5C4C69627261726965735C53544DBC
:102F70003332463478785F48414C5F4472697665F5
:102F8000725C5372635C73746D3332663478785F4D
:102F900068616C5F636F727465782E630000000077
:102FA00010B5401EB0F1807F01D3012010BD4FF05D
:102FB000E02460610F21601700F0A9F90020A061F2
:102FC00007202061002010BD70B5040022D0A06948
:102FD0003D4900283D4A3E4B3E4E20681CD08D1591
:102FE00088420BD0904209D0984207D0B04205D019
:102FF000294639A001F052F8A06930B3A069A8426F
:1030000023D0B0F5007F20D0B0F5407F1DD040F236
:10301000011117E0012070BD884216D0904214D0F3
:10302000984212D03B4988420FD03B4988420CD08D
:10303000B0420AD03949884207D03949884204D081
:1030400040F2051124A001F029F8A06838B1B0F5CC
:10305000805F04D040F207111FA001F01FF8E06963
:1030600038B1B0F5004F04D04FF484711AA001F0CC
:1030700015F894F83900002520B984F83850204616
:1030800000F050F8242084F839002068C16821F449
:103090000051C160204600F04FFB2068016921F417
:1030A000904101612068416921F02A014161206855
:1030B000C16841F40051C160E563202084F8390003
:1030C00084F83A00002070BD001001400044004028
:1030D00000480040001401402E2E5C4C6962726171
:1030E000726965735C53544D3332463478785F4867
:1030F000414C5F4472697665725C5372635C7374B1
:103100006D3332663478785F68616C5F75617274B4
:103110002E630000004C004000500040007800404A
:10312000007C004030B51E4887B0016841F01001B6
:103130000160006800F0100005901948143801681B
:1031400041F002010160016801F00201059101688E
:1031500041F0020101600068072400F002000590C0
:103160004020009002200190012002900320CDE930
:1031700003040C4D69462846FEF796F9802100911C
:10318000049469462846FEF78FF901220021252084
:10319000FEF704FC2520FEF7CFFB07B030BD000092
:1031A00044380240000402402DE9F843044690F8F8
:1031B00039001E4617460D46202850D1A5B19FB1B3
:1031C00094F8380001284AD0012084F838004FF0E4
:1031D0000008C4F83C80212084F83900FEF762FB27
:1031E000A7848146E78426E00120BDE8F883E08CCF
:1031F000401EE084A0684B46B0F5805F4FF00002AF
:103200004FF080012046009603D000F037FCE8B96B
:103210000DE000F033FCC8B928882168C0F308002D
:103220004860206908B16D1C05E0AD1C03E0216811
:1032300015F8010B4860E08C0028D8D14B460022DD
:1032400040212046009600F019FC08B10320CCE78D
:10325000202084F8390084F838800020C5E7022057
:10326000C3E74FF4FA7420460CF042FBFBE7000082
:103270000B4800B5026887B0002142F010020260DE
:10328000006800F010000590082000900120CDE9B2
:103290000101039169460348FEF706F907B000BD36
:1032A00030380240001002404FF4C87420460CF041
:1032B0001FFBFBE704A259210BA000F03FFC0120FB
:1032C00080F3108800F034F82E2E5C557365725C24
:1032D000636F6D6D6F6E5C73746D333266347878C6
:1032E0005F69742E630000000D0A5265626F6F748F
:1032F00020646576696365206174206C696E652061
:10330000256420696E2025730D0A000070470907A7
:10331000090E002806DA00F00F0000F1E02080F826
:10332000141D704700F1E02080F800147047000081
:10333000BFF34F8F05480168054A01F4E06111436E
:103340000160BFF34F8F00BFFDE700000CED00E010
:103350000400FA058CB024A002AB07C883E807007C
:103360004FF47A740A2102A800F0BAFB002206A9E1
:103370002048FFF7C5FA20A000F0E0FB9DF81A30C6
:103380009DF819209DF818101EA000F0D7FB002210
:1033900005A91848FFF76AFA17A000F0CFFB9DF8BF
:1033A00016309DF815209DF817101BA000F0C6FBE5
:1033B00011A000F0C3FBDDE909010DF1140CCDE90A
:1033C00000019CE80F000BF073FB014618A000F011
:1033D000B5FB09A000F0B2FB1AA000F0AFFB20463D
:1033E0000CF086FABEE700007564705F7465737454
:1033F0000D0A0000646300205B44454255475D3A76
:103400000000000054696D653A253032643A253079
:1034100032643A2530326400446174653A323025B2
:103420003032642D253032642D25303264000000A6
:1034300074696D657374616D70203D2025640D0A9B
:10344000000000004E6574776F726B4D6573736199
:1034500067655F5461736B2E2E2E0D0A000000000D
:10346000010901EB810100F00F0000EB4100C0B247
:103470007047002102E00A38C0B2491C0A28FAD27B
:10348000090740EA1160704770B505460068C168D9
:10349000490613D44FF0FF31C160FEF703FA04462A
:1034A0004FF47A7606E0FEF7FDF9001BB04201D931
:1034B000032070BD2868C0684006F4D5002070BDA8
:1034C000174810B51549016000217F22C0E901129B
:1034D000FF22C0E9032141618161FFF765FA08B16C
:1034E000022010BD00210E48FFF716F945F25004E6
:1034F000A04210D0402338223921112000F024F8B6
:10350000032304220B21142000F00CF82246002192
:103510000348FFF755F9002010BD000000280040C7
:103520006463002008B58DF802208DF801108DF835
:1035300000308DF80300002269460248FFF706FBC1
:1035400008BD00006463002000B585B08DF8000060
:103550008DF8011000208DF802200390024604909F
:103560008DF8033069460248FFF7C0FB05B000BD87
:103570006463002010B55020EFF3118480F31188AC
:10358000BFF34F8FBFF36F8FFEF792F90CF03CFF44
:10359000012801D00CF0FEFB84F3118810BD00005F
:1035A00030B5264893B00025016841F08051016094
:1035B000006800F0805011902148016841F44041BA
:1035C00001600068022400F4404011900120009046
:1035D000000401908001CDE90640192008904FF4C5
:1035E000B470CDE9090408200B906846FEF772FE1E
:1035F00000B1FEE7FEF764FA0CA90F2081E8310064
:103600004FF4A0500F904FF48050109005210CA85B
:10361000FEF7D6FC00B1FEE7FEF704FE4FF47A7128
:10362000B0FBF1F0FFF7BCFC0420FFF785FC0022A3
:103630001146501EFEF7B2F913B030BD40380240BB
:10364000007000401048016841F4700101600F48AB
:10365000016841F0010101600C4A0021083211604B
:1036600002680B4B1A400260031D0A4A1A60026886
:1036700022F48022026005480C300160024958069D
:10368000803908607047000088ED00E00038024093
:10369000FFFFF6FE103000243EB5002108460BF077
:1036A000CDF8194817491A4A016017496FF07F4051
:1036B000091D154B0860091D1448086015490020B4
:1036C0008DE8070008331A1F111F134805F070FA20
:1036D000114805F0DDFB104C94F829004007204606
:1036E00002D505F0FDFB01E005F0D8FB6068010E96
:1036F0000091C0F30743C0F30722C1B207A000F056
:103700001DFA3EBDC0A801686C010020C0A80101DF
:1037100039E90108F150010898550220B1BEB5D829
:103720004950B5D8D6B7CAC73A25642E25642E2588
:10373000642E25640A0A00002DE9F0410446406821
:10374000BC49884204D340F68511BBA000F0A6FC1A
:10375000E06838B1B0F5005F04D040F68611B6A03D
:1037600000F09CFC206950B1B0F5806F07D0B0F537
:10377000C06F04D040F68711AFA000F08FFC6069E5
:103780004FF6F371084200D120B940F68811AAA083
:1037900000F084FC2068016921F44052E168114383
:1037A00001612068C26849F20C618A432369A168FB
:1037B000E569194363692B4319431143C1602068CC
:1037C0004169A26921F440710A434261E0696425BC
:1037D000B0F5004FA74AA84920684FF032083FD003
:1037E000884201D090427CD1FEF732FD00EBC0014F
:1037F00001EB001061688900B0FBF1F6FEF728FDCF
:1038000000EBC00101EB001061688900B0FBF1F032
:10381000B0FBF5F06FF01801484306EB800108EBB0
:103820000110B0FBF5F000F0F006FEF711FD00EB23
:10383000C00101EB001061688900B0FBF1F0B0FB42
:10384000F5F006EB0016FEF703FD00EBC00101EBFF
:10385000001061688900B0FBF1F7FEF7F9FCD2E0D7
:10386000884201D090423DD1FEF7F2FC00EBC0014E
:1038700001EB001061684900B0FBF1F0B0FBF5F01E
:103880000601FEF7E5FC00EBC00101EB00106168EA
:103890004900B0FBF1F7FEF7DBFC00EBC00101EBE8
:1038A000001061684900B0FBF1F0B0FBF5F06FF07B
:1038B0001801484307EB800108EBC100B0FBF5F0AD
:1038C00000F0F80006EB4006FEF7C2FC00EBC0017A
:1038D00001EB001061684900B0FBF1F7FEF7B8FC9E
:1038E0003CE055E0FEF7A4FC00EBC00101EB00104A
:1038F00061684900B0FBF1F0B0FBF5F00601FEF79E
:1039000097FC00EBC00101EB001061684900B0FBBF
:10391000F1F7FEF78DFC00EBC00101EB00106168D0
:103920004900B0FBF1F0B0FBF5F06FF0180148432F
:1039300007EB800108EBC100B0FBF5F000F0F800E8
:1039400006EB4006FEF774FC00EBC00101EB001033
:1039500061684900B0FBF1F7FEF76AFC00EBC001BB
:1039600001EB001061684900B0FBF1F0B0FBF5F02D
:103970006FF01801484307EB800108EBC100B0FB72
:10398000F5F000F00700216830448860BDE8F08160
:10399000FEF74EFC00EBC00101EB001061688900EE
:1039A000B0FBF1F6FEF744FC00EBC00101EB0010A8
:1039B00061688900B0FBF1F0B0FBF5F06FF0180121
:1039C000484306EB800108EB0110B0FBF5F000F076
:1039D000F006FEF72DFC00EBC00101EB0010616862
:1039E0008900B0FBF1F0B0FBF5F006EB0016FEF736
:1039F0001FFC00EBC00101EB001061688900B0FB07
:103A0000F1F7FEF715FC00EBC00101EB0010616857
:103A10008900B0FBF1F0B0FBF5F06FF018014843FE
:103A200007EB800108EB0110B0FBF5F000F00F0090
:103A3000A9E70000A137A0002E2E5C4C69627261DC
:103A4000726965735C53544D3332463478785F48FD
:103A5000414C5F4472697665725C5372635C737447
:103A60006D3332663478785F68616C5F756172744B
:103A70002E63000000140140001001402DE9F041C8
:103A80001E46174688460446069D1CE0681C1AD050
:103A900025B1FDF707FF801BA84214D92068C16833
:103AA00021F4D071C1602068416921F001014161B8
:103AB000202084F8390084F83A00002084F8380087
:103AC0000320BDE8F0812068016838EA010004D0D5
:103AD0000020B842DAD00020F3E70120F9E7000027
:103AE00030B587B0054602208DF809000C460D4818
:103AF00002F0EEFE039041F2797002F0EBFEADF8B9
:103B00000A00002004900590102102A8CDE90001D0
:103B10000548002322462946006803F0BFFE07B08F
:103B200030BD00006401A8C0140000204FF496745A
:103B300020460BF0DDFEFBE7FEE700000FB4054B6F
:103B400010B503A9044A029800F030F810BC5DF8E3
:103B500014FB0000E9540108940100200FB4084B45
:103B600010B504A902AA039800F020F8044602A99F
:103B7000002000F04CFA204610BC5DF814FB000059
:103B80000F400108004870479001002002E008C87B
:103B9000121F08C1002AFAD170477047002001E0C7
:103BA00001C1121F002AFBD1704700002DE9FF4F11
:103BB0008DB00F460546002606E025280BD0DDE92E
:103BC0000F1290476D1C761C28780028F5D111B093
:103BD0003046BDE8F08F0024A246A1460122EC4900
:103BE00000E0044315F8013F203B02FA03F00842CD
:103BF000F7D128782A2810D06FF02F022878A0F16A
:103C00003001092914D80AEB8A0102EB410144F082
:103C1000020400EB010A6D1CF0E701CF5FEA000A25
:103C200003D544F40054CAF1000A44F002046D1CA8
:103C300028782E2817D115F8010F44F004042A28FB
:103C40000ED06FF02F022878A0F1300109290AD890
:103C500009EB890102EB410100EB01096D1CF2E760
:103C600057F8049B6D1C28786C280FD006DC4C2874
:103C700017D068280DD06A2814D104E0742810D019
:103C80007A280FD10DE044F400140AE044F48014C3
:103C900001E044F440146978814202D104F58014B3
:103CA0006D1C6D1C2A786E2A1FD00CDC632A31D063
:103CB00004DC002A8BD0582A11D1A3E0642A68D0F2
:103CC000692A0CD165E0732A2ED004DC6F2A73D0E8
:103CD000702A04D19BE0752A6FD0782A6ED01046E6
:103CE000DDE90F129047761C50E1C4F30250022820
:103CF00006D0032809D0042801CF09D0066045E189
:103D000001CFF117C0E9006140E101CF06803DE13C
:103D100006703BE117F8040B8DF8000000208DF8C9
:103D20000100EB46012003E057F804BB4FF0FF30E1
:103D300061074FF0000102D40DE008F1010188464F
:103D400049450FDA8045F8DB1BF808100029F4D14B
:103D500008E008F1010188468142FADB1BF80810EF
:103D60000029F6D1DDE90F23AAEB080081462146A0
:103D700000F036F9304400EB080604E0DDE90F12EC
:103D80001BF8010B9047B8F10108F7D221464846CD
:103D9000F7E00A21C4F302534FF0000B0891022B05
:103DA00004D001CFC117032B09D00AE0FF1D27F073
:103DB0000707F7E8020108E032E01FE020E000B268
:103DC000C117042B01D140B2C117031E71F10003CA
:103DD00007DA4FF0000CD0EB0C006CEB01012D2347
:103DE00002E0230504D52B238DF82430012303E0C2
:103DF000E30701D02023F7E7984658E00A2110E0B6
:103E000010210EE010204FF0000B08900CE0102164
:103E10004FF0000B44F004044FF00809089103E050
:103E200008214FF0000B0891C4F30253022B04D079
:103E300001CF0021032B06D006E0FF1D27F0070766
:103E4000F7E8020103E080B2042B00D1C0B24FF0CA
:103E5000000823072BD5702A07D0DDF820C08CF08E
:103E6000100C5CEA0B0C05D00EE040238DF82430DA
:103E7000012308E050EA010306D030238DF82430F6
:103E80008DF8252002239846DDF820C08CF0080C20
:103E90005CEA0B0C0BD150EA010301D1630706D594
:103EA00030238DF824304FF00108A9F10109582A78
:103EB00004D038A20B9208AA0A920BE03AA2F9E7C2
:103EC0005B46089AFCF700FA0B9B9B5C0A9A521E11
:103ED0000A92137050EA0102F2D10A98ADEB000089
:103EE00000F1200B600702D524F4803401E04FF08C
:103EF0000109D94502DDA9EB0B0000E0002000EB31
:103F00000B0141440890AAEB010AE00306D4DDE965
:103F10000F232146504600F063F806444FF0000995
:103F200008E009A911F80900DDE90F12904709F12D
:103F30000109761CC145F4DBE0030CD5DDE90F2354
:103F40002146504600F04CF8064404E0DDE90F122B
:103F500030209047761C0899481E08900029F5DC0F
:103F600008E00A980A990078491C0A91DDE90F12C5
:103F70009047761CBBF10001ABF1010BF1DC21464F
:103F80005046DDE90F2300F019F806446D1C1BE6CE
:103F9000092801003031323334353637383961621F
:103FA00063646566000000003031323334353637E3
:103FB0003839414243444546000000002DE9F041B4
:103FC000044600251E461746880404D405E03946F9
:103FD0002020B0476D1C641EF9D52846BDE8F0814D
:103FE0002DE9F041044600251E469046C80301D540
:103FF000302700E02027880404D505E041463846F4
:10400000B0476D1C641EF9D52846BDE8F0810A68EA
:10401000531C0B60107070472DE9F041884606462E
:104020000024154D06F0EEFA05EB0411096841B1C4
:1040300006F00AFB641C042CF4DB4FF0FF30BDE8F3
:10404000F08105EB04152E6006F0FEFA00276F6084
:10405000A87B10B109A0FFF771FD2F8130780121F5
:10406000B1EB101F02D15FEA080000D00120688187
:10407000AF812046E3E70000B8F60020736F636B62
:104080006574735B695D2E73656C6563745F7761DE
:104090006974696E67203D3D203000000C4605467E
:1040A000FCF794F800F014F82246294601A0FFF727
:1040B00045FDFEE7617373657274206661696C6526
:1040C000642061742025733A2564200A00000000F2
:1040D00070B50F4C0546207888B10EA0FFF72EFD75
:1040E0000DA0FFF72BFD00F09DF9D4E902012A464F
:1040F00000F02CFA2846BDE8704005F069BC074A7C
:1041000007A109A0FFF71AFD03A0FFF717FDFEE7BF
:1041100078010020000000000D0A0000BC09020820
:10412000696E69745F6F6B0028257329206861735D
:1041300020617373657274206661696C65642061C7
:10414000742025732E0000002DE9F043244C89468D
:10415000A446D4E9023794F801809CF80260014635
:10416000DCE9044C00200546A444B8F1000F11D04E
:104170008EB91C4EB069086076690120361FA642D0
:1041800011D3B4450FD3B9F1010F0CD90220012589
:104190004E6008E03EB19A4201D21A4603E0DE19B1
:1041A000964200D232461F44974216D91668331FF2
:1041B000F60710D0A3420ED39C450CD310280AD288
:1041C000484508D2022803D115B14E689E4202D05C
:1041D00041F82030401C121DE6E7BDE8F0830000E6
:1041E00078010020B85602202DE9F04F8DB00C4622
:1041F000074620225D4905A8FCF797F85C4ED6E9F2
:1042000002508146307858B1707898B1574A59A118
:10421000143A5BA0FFF792FC61A0FFF78FFCFEE76A
:10422000524A60A1143A56A0FFF788FC5CA0FFF741
:1042300085FCFEE74FF0010A86F801A05BA0FFF7BE
:104240007DFC57A0FFF77AFC00F0ECF8DFF81CB11A
:10425000ABF1BC0BDBF82800FFF770FC50A0FFF7B8
:104260006DFC47F30010401C04F12008F07001D0F1
:1042700008F14808A84503D305EB0900404501D2E1
:1042800086F802A042464946284600F05FF9B07819
:10429000474D00283ED1DBF82C00FFF74FFC40A033
:1042A000FFF74CFC26682E6060686860A168A96012
:1042B000E268EA6023692B6163696B61A369AB61A2
:1042C000E369EB61DDE90734CDE90003CDE90214D0
:1042D0000492DDE90513324636A0FFF72FFC30A02B
:1042E000FFF72CFC01AE0B98EB690C9AA96986E8E4
:1042F0000F00686900900A9B2A692EA00999FFF7B0
:104300001DFC27A0FFF71AFC35A0FFF717FC24A01F
:10431000FFF714FC4248006845F8200F4048001D94
:10432000007828713E4810300068A8603C48401D65
:10433000007828733A481430006828613848801D96
:104340000088A882364808300068A86134480C30DC
:104350000088E861324818300088286200F0A4FF25
:10436000404605F035FB0DB0BDE8F08FE4090208CA
:1043700078010020216F6E5F6661756C740000002B
:104380002825732920686173206173736572742016
:104390006661696C65642061742025732E000000DD
:1043A0000D0A0000696E69745F6F6B000000000009
:1043B000B8560220202025733A2025303878202056
:1043C00025733A2025303878202025733A2025306F
:1043D0003878202025733A202530387800000000F6
:1043E0003D3D3D3D3D3D3D3D3D3D3D3D3D3D3D3DFD
:1043F0003D3D3D3D3D3D3D3D3D3D3D3D3D3D3D3DED
:104400003D3D3D3D3D3D3D3D3D3D3D3D3D3D3D3DDC
:104410003D3D3D3D3D3D3D3D3D3D3D3D3D3D000046
:1044200024ED00E010B50748074BA3F12002006817
:10443000A2F12001FFF782FBBDE8104003A0FFF7C7
:104440007DBB000028090208085602200D0A000062
:1044500070B50C461546014620220E48FBF797FF23
:104460000C48202221462030FBF791FF09482022EA
:1044700029464030FBF78BFF08480749084A81600E
:10448000511AC1600749084A0161511A416101216D
:10449000017070BDC855022000570220780100202D
:1044A000005B0220000001089813020870B5054661
:1044B0000C46880702D007A0FFF740FB06F0A2F8E1
:1044C000A96809682160A9680C60BDE8704006F021
:1044D000BBB800006D656D705F667265653A206DF2
:1044E000656D2070726F7065726C7920616C6967A0
:1044F0006E65640070B5044606F084F80546A06851
:1045000004685CB121680160A00702D006A0FFF733
:1045100015FB284606F098F8204670BD284606F0A0
:1045200093F8002070BD00006D656D705F6D616C6B
:104530006C6F633A206D656D702070726F7065727C
:104540006C7920616C69676E656400002DE9F0414B
:10455000064619481446194F827875188AB10079B1
:1045600008B1786900E0B8692146FFF7E7FA14A0BE
:10457000FFF7E4FAB44201D2344602E0A54200D289
:104580002C46F868FFF7DAFA0DA0FFF7D7FA08E033
:1045900021460CA02268FFF7D1FA09A0FFF7CEFA56
:1045A000241DA542F4D80EA0FFF7C8FABDE8F041DB
:1045B00003A0FFF7C3BA0000780100202809020811
:1045C0000D0A00002020616464723A20253038789A
:1045D00020202020646174613A2025303878000062
:1045E0003D3D3D3D3D3D3D3D3D3D3D3D3D3D3D3DFB
:1045F0003D3D3D3D3D3D3D3D3D3D3D3D3D3D3D3DEB
:104600003D3D3D3D000000002DE9F0470F46040010
:1046100002D137A0FFF792FA05F0F4FF002666609A
:104620002772217F41F0010121776578667006F0DD
:104630000BF8636A7BB10022042120469847636A25
:104640004BB10022114620469847636A1BB10022F5
:10465000022120469847384602F0EAFE804604F1DF
:104660001000814606F04EF818B14146484606F063
:104670003BF804F11400814606F044F818B14146B5
:10468000484606F031F8012D0BD0042D09D0032D3A
:1046900007D0206A002828D0BDE8F04718A0FFF70F
:1046A0004DBA207FC0F3800100F0FB002077002985
:1046B0001BD1206A10B919A0FFF740FA206A042D17
:1046C00008D00771206A05680C35284606F0AAF85C
:1046D00010B104E00671F5E717A0FFF72FFA28469E
:1046E0002662BDE8F04706F07DB8BDE8F08700001F
:1046F000636F6E6E20213D204E554C4C0000000033
:10470000636F6E6E2D3E63757272656E745F6D734E
:1047100067203D3D204E554C4C000000636F6E6E8F
:104720002D3E63757272656E745F6D736720213DF7
:10473000204E554C4C000000696E61766C69642017
:104740006F705F636F6D706C657465645F73656DCA
:1047500000000000002802DC4142112901DB052095
:1047600070470249A1EB8000006870479807020873
:1047700070B5094E0546002404EB440006EBC0006A
:10478000017D29B18068A84202D1204600F0F0F8EE
:10479000641C0A2CF0DB70BD785402202DE9F74F21
:1047A00084B04FF00A0B00248046DA465F46D946B3
:1047B000029401940094474904EB440001EBC006C5
:1047C0000390357D0A2F18D02DB3012D04D0022D72
:1047D00002D241A0FFF7B2F9B8F1000F11D0D8F81A
:1047E0000000716888420CD1069810B1B16881420E
:1047F00007D1204607B0BDE8F08F002DE5D1274650
:1048000009E0012D15D0022D05D3708A0099884248
:1048100001D3A2460090641C24B20A2CCBDB05987D
:1048200081074FF0FF30E5D40A2F15D017DA3C4648
:1048300035E02848039950F831000028708A05D0E7
:1048400002998842E7D3A1460290E4E701998842A1
:10485000E1D3A3460190DEE70599C907CAD05146C6
:10486000BAF10A0F0ADA0C461A4801EB440150F873
:10487000310060B128A0FFF761F908E05946BBF1AB
:104880000A0F03DB4946B9F10A0FB3DA0C460A2CCA
:1048900002DB27A0FFF752F9204600F069F80A2C46
:1048A00002DB23A0FFF74AF90A4804EB440100EBBE
:1048B000C105287D10B123A0FFF740F9B8F1000F22
:1048C00002D0D8F800006860002068820698A860CE
:1048D0008FE70000785402207374617465203D3DB9
:1048E000204554484152505F53544154455F504510
:1048F0004E44494E47207C7C207374617465203E91
:104900003D204554484152505F53544154455F53F4
:104910005441424C450000006172705F7461626CEA
:10492000655B695D2E71203D3D204E554C4C00006D
:1049300069203C204152505F5441424C455F5349ED
:104940005A4500006172705F7461626C655B695DFD
:104950002E7374617465203D3D204554484152508A
:104960005F53544154455F454D5054590000000079
:1049700070B5074D00EB4004002655F8340018B11F
:1049800004F0B6FD45F8346005EBC400067570BD53
:10499000785402202DE9F04385B00D00074609D078
:1049A0007C684FF480782088404537D120790628EC
:1049B00034D105E01BA0FFF7C1F805B0BDE8F083D6
:1049C000607904282AD16088082827D1D4F80E00FD
:1049D0000490A169686818B1814201D1012600E004
:1049E00000260EB1012300E0022304F108029146E3
:1049F00004A9284600F088FAE08840450ED16EB13F
:104A0000022204ABCDE90232291DCDE9001905F1DE
:104A1000220319464A46284600F0B4F9384604F005
:104A200067FDCAE76E6574696620213D204E554CCE
:104A30004C000000FEB515460E46040002D13DA014
:104A4000FFF77CF816B93FA0FFF778F815B940A03A
:104A5000FFF774F82146286800F0E1FE08B1404BEA
:104A60003FE02868C0F303110E2925D0A1686368D0
:104A700000EA01020B409A4208D080B2A0F57E41C4
:104A8000A93903D0E068B0B304F10C05354B3649C1
:104A90001A7802EB420001EBC000077D022F2ED3F3
:104AA0008768A7422BD12F684068874227D13146BB
:104AB000204600F05BF8FEBD01208DF804000020C8
:104AC0008DF805005E208DF80600687801AB00F0D7
:104AD0007F008DF80700A8788DF80800E8788DF839
:104AE00009004FF40060009004F122023146204694
:104AF00000F0B6FAFEBDFFE76FF00300FAE7002210
:104B000002EB420001EBC000077D022F08D387684B
:104B1000A74205D12F684068874201D11A70C6E7C5
:104B2000521CD2B20A2AEBD332462946204600F064
:104B300071F8DFE76E6574696620213D204E554CA3
:104B40004C0000007120213D204E554C4C000000CF
:104B500069706164647220213D204E554C4C000008
:104B60001C09020848010020785402202DE9F8436E
:104B70000646154688461A4802EB450100EBC1047B
:104B8000207D022802D217A0FEF7D8FF144A05EBB9
:104B90004501207D02EBC1050C35022813D1608A46
:104BA0000327B0F58E7F04D9211D304600F068F947
:104BB00007E0B0F5877F06D32A46211D304600F076
:104BC00065F900B927754FF4006000902B4606F197
:104BD00022024146304600F043FABDE8F883000067
:104BE000785402206172705F7461626C655B6172FF
:104BF000705F6964785D2E7374617465203E3D203A
:104C00004554484152505F53544154455F535441B9
:104C1000424C45002DE9FC5F8246223001900F4650
:104C2000086816464FF0FF344FF0000B514600F075
:104C3000F6FD80B93868C0F303110E290BD057B1C7
:104C400048B1524601213846FFF7A8FD050005D5B9
:104C500040B2BDE8FC9F6FF00F00FAE77F2D02D352
:104C600031A0FEF76BFF05F0FF09334909EB490856
:104C700001EBC805287D50B1012804D0022802D2DA
:104C80002EA0FEF75BFFBBF1000F06D104E0012070
:104C90002875C5F808A000E036B93946504600F03E
:104CA000EFF80446002ED4D0287D234F02280ED3DF
:104CB0002C494FF4006005F10C0381F8009000903E
:104CC00031465046019A00F0CBF904462AE001280B
:104CD00028D10025344660892189884204D1206882
:104CE00010B121A0FEF72AFF207B400603D42468E0
:104CF000002CF0D13DB132464FF420710E2004F06B
:104D0000D3FA064602E0304604F0F6FC46B157F806
:104D1000380008B104F0ECFB47F83860002401E0EB
:104D20004FF0FF34204694E774797065206F766504
:104D300072666C6F77000000785402206172705FB9
:104D40007461626C655B695D2E7374617465203D8E
:104D50003D2050454E44494E47206F7220535441E8
:104D6000424C4500480100206E6F207061636B6506
:104D7000742071756575657320616C6C6F776564FF
:104D8000210000002DE9FF4F81B09846DDE90FA911
:104D9000DDF838B006004FF0000702D126A0FEF77C
:104DA000CDFE4FF420721C210E2004F0EBF805001C
:104DB0003ED068891C2802D223A0FEF7BFFE6C6893
:104DC000119801F087FDE08096F82800062802D0AF
:104DD0002A48FEF7B3FED8F80010A160B8F8040026
:104DE000A081DAF80010C4F81210BAF80400E082CA
:104DF000DBF80000C4F80E00D9F80000A0614FF401
:104E0000807020800820608006202071042060715E
:104E100040F60600DDE9022300902946304600F006
:104E20001FF9284604F064FB384605B0BDE8F08F52
:104E30004FF0FF30F9E700006E6574696620213D90
:104E4000204E554C4C000000636865636B2074680D
:104E50006174206669727374207062756620636184
:104E60006E20686F6C64207374727563742065744F
:104E7000686172705F686472000000001C0B0208B9
:104E8000014A00F003B800001C0902087FB5064D76
:104E9000031D0124CDE90035CDE902141E33194666
:104EA000FFF770FF04B070BD2209020870B5154D00
:104EB000002404EB440005EBC002117DF1B1508ADF
:104EC000401C80B25082B0F5967F0AD2012906D0EC
:104ED00003290AD004290AD001290BD00EE00528A5
:104EE00008D32046FFF744FD08E0042000E002203C
:104EF000107503E0111D9068FFF7C2FF641C0A2CB7
:104F0000D7DB70BD78540220F8B5044690F828002D
:104F10001F4615460E46062802D01EA0FEF70EFEBE
:104F20009EB1306888B1214600F079FC68B93078CC
:104F3000C0F303100E2808D0224639463046FFF74A
:104F40002DFC002804DA40B2F8BD6FF00F00F8BD68
:104F5000194A00EB400102EBC10002230375846093
:104F60002B68C360AB8803820023438252F8316010
:104F700076B142F831304FF4006000902B4604F1D6
:104F800022023146204600F06BF8304604F0B0FAB9
:104F90000020F8BD6E657469662D3E6877616464B3
:104FA000725F6C656E203D3D204554485F48574117
:104FB0004444525F4C454E00785402202DE9F041A4
:104FC000044640890E270D460E283CD9E07B18B9CF
:104FD00095F82C00401CE073606801788689CA0748
:104FE00014D0012905D006221C49FBF7DCF948B191
:104FF0000CE0417851B980785E2807D1607B40F0A1
:10500000100002E0607B40F008006073082E03D0BF
:10501000B6F5C16F17D10DE095F82900000712D53C
:105020003946204604F086FB68B92946204600F040
:1050300001FD10E095F82900000704D53946204607
:1050400004F078FB18B1204604F052FA03E0294638
:105050002046FFF79FFC0020BDE8F0811C090208F4
:105060002DE9F04104461F4690460E46069801F091
:1050700031FC05460E21304603F050FF18B16FF0A9
:105080000100BDE8F0817068858139680160B988E8
:105090008180D8F80020C0F80620B8F804104181BB
:1050A00094F82800062802D004A0FEF747FD3146F8
:1050B0002046A269BDE8F041104700006E657469A2
:1050C000662D3E6877616464725F6C656E206D75F5
:1050D0007374206265203620666F7220657468657F
:1050E000726E65745F6F75747075742100000000D6
:1050F00070B50446042002F00BFE050001D04CB14F
:105100000BE00FA0FEF71AFD10A0FEF717FD4FF001
:10511000FF3070BD15A0FEF711FD7320E56184F826
:105120002A00742084F82B00144860611448A061A0
:10513000204601F075F9223400202C6070BD00007B
:105140000D0A5B4552525D203E3E20006574686545
:10515000726E657469665F696E69743A206F757402
:10516000206F66206D656D6F72790A006E657469D7
:105170006620213D204E554C4C000000354A010868
:1051800055660108114E04464FF0FF3700233A469A
:10519000194630680AF094FE0128F7D10AF064FA43
:1051A000204601F0E1F905460AF098FA002DEDD00D
:1051B0000AF05AFA226921462846904710B128463B
:1051C00004F096F90AF08AFAE0E7000054010020A2
:1051D0002DE9F0410F4604005BD0A669002E0DDAE0
:1051E00005F010FAA669002E06DA0FB9761EA66140
:1051F000BDE8F04105F028BA05F026FA304600F087
:10520000C2F9040045D0012505F0FCF980460120D3
:10521000052F1AD2DFE807F0030B0F1417002089BF
:10522000401C00B22081012812DD002510E02089F9
:10523000401E2081F9E7618901B10025608107E006
:1052400000206081F1E7A08102E013A0FEF776FC68
:10525000A07BE0B1DDB1B4F90800002801DD012731
:1052600000E00027608908B1012500E00025A08941
:1052700008B1012400E00024404605F0E5F923468A
:105280002A4639463046BDE8F04104F0EFBF4046BB
:10529000AEE7BDE8F0810000756E6B6E6F776E2033
:1052A0006576656E7400000070B58C4D8C4C95F879
:1052B0003800800705D5206BFEF740FC89A0FEF77B
:1052C0003DFCA86B40007DD595F82400F0B3C007E5
:1052D00005D0606BFEF732FC82A0FEF72FFC95F83C
:1052E0002400800705D5A06BFEF728FC7DA0FEF703
:1052F00025FC95F82400000705D5E06BFEF71EFCA1
:1053000078A0FEF71BFC95F82400C00605D5206C9C
:10531000FEF714FC73A0FEF711FC95F8240080063C
:1053200005D5606CFEF70AFC6EA0FEF707FC95F849
:10533000240001060DD5C10701D1800709D5A96A4E
:10534000D4F88C00FEF7FAFB66A000E001E0FEF75F
:10535000F5FB95F82C00B0B3C00705D0A06CFEF7A4
:10536000EDFB60A0FEF7EAFB95F82C00800705D561
:10537000E06CFEF7E3FB5BA0FEF7E0FB95F82C008A
:10538000400705D5206DFEF7D9FB56A0FEF7D6FBEA
:1053900095F82C00000705D5606DFEF7CFFB51A0F6
:1053A000FEF7CCFB95F82C00C00605D5A06DFEF7E6
:1053B000C5FB4CA0FEF7C2FB95F82C00800608D573
:1053C000E06D01E04DE012E0FEF7B8FB45A0FEF70E
:1053D000B5FB95F82C00010609D5800707D5296B88
:1053E000D4F89000FEF7AAFB3EA0FEF7A7FBA88E1C
:1053F000B8B3C00705D0206EFEF7A0FB39A0FEF7BA
:105400009DFB95F83400800705D5606EFEF796FB8E
:1054100034A0FEF793FB95F83400400705D5A06E45
:10542000FEF78CFB2FA0FEF789FB95F834000007F0
:1054300005D5E06EFEF782FB2AA0FEF77FFBA88E63
:10544000C00505D5206FFEF779FB26A0FEF776FB99
:10545000A88E800505D5606FFEF770FB21A0FEF7D2
:105460006DFBA86B002837DAE86B002834D0C00742
:1054700005D0A06FFEF762FB1AA0FEF75FFB95F860
:105480003C00800705D5E06FFEF758FB15A0FEF73E
:1054900055FB95F83C00400706D5D4F88000FEF790
:1054A0004DFB10A0FEF74AFB95F83C00000706D51F
:1054B000D4F88400FEF742FB0AA0FEF73FFB95F804
:1054C0003C00C00608D5D4F88800FEF737FBBDE8DD
:1054D000704004A0FEF732BB70BD0000B856022039
:1054E000280902080D0A000013B54FF47A7301224F
:1054F00069460248FDF758FE00981CBD9C0100203B
:1055000010B5002821D0114B0022001F196803E0BC
:10551000814203D80A4649680029F9D152B113687B
:10552000841A9C4204D1006818441060104602E0BE
:10553000506000E0186039B102680B1A934203D141
:105540000B681A4402604968416010BD9801002050
:10555000F8B50E46044605F055F861680091002143
:1055600061602568216005F06FF8009828B116B1D8
:1055700003F0BEFF01E002F0D5FD002D02D0284669
:1055800002F004FFF8BD10B509F0F6FA002804D1C6
:10559000FEF7F8FA09210160002010BD0A46032138
:1055A00000F0C0B82DE9FE4F424A04468A46D2F8C0
:1055B000088098F800000007860E142E75D36089C5
:1055C000042872D36068017800296ED008296CD154
:1055D000506902F11407C0F303110E2965D09146FA
:1055E000116800F01CF900285FD1208908285CD3DD
:1055F000204600F0EFF8002857D106F10E010D46C5
:10560000204603F08BFC60B32089811989B288425F
:105610004BD84FF420720E2003F0B4FC050044D0A8
:10562000698906F10800814212D332464146686812
:10563000FAF77BFE3146284604F07CF818B11EA02C
:10564000FEF77CFA04E02146284603F04BFE18B131
:10565000284603F04DFF28E0204603F049FF2C4682
:1056600008E02946204604F065F818B120A0FEF7AE
:1056700065FA1AE031462046656803F04FFCA0B990
:1056800060683968FF22C160D9F8101001610021FB
:10569000297069800272418101228DE806040A4660
:1056A000FF233946204600F095FA2046BDE8FE4F1C
:1056B00003F01EBFF8F6002069636D705F696E70BD
:1056C00075743A206D6F76696E6720722D3E706139
:1056D000796C6F616420746F2069636D70206865F8
:1056E00061646572206661696C65640A000000008F
:1056F00069636D705F696E7075743A20726573745A
:105700006F72696E67206F726967696E616C207075
:105710002D3E7061796C6F6164206661696C6564AF
:105720000A0000002DE9FF479146884606464FF4DF
:1057300020722421222003F025FC05002DD0688949
:10574000242802D216A0FEF7F9F96C6877681C22AB
:1057500084F8008084F801904FF00008A4F80480D9
:10576000A4F80680686871680830FAF7DEFDF8680A
:10577000039003A800F0D8FB60B1A4F802800122D6
:10578000CDF80080CDE90120FF2303AA002128469F
:1057900000F020FA284603F0ABFEBDE8FF870000CA
:1057A000636865636B2074686174206669727374E2
:1057B00020706275662063616E20686F6C6420697A
:1057C000636D70206D657373616765000A460B2118
:1057D000FFF7A8BF70B500260546344612E0698978
:1057E000686802F05DF92044010C11FA80F4A87A8F
:1057F000C00706D08EB10026E0B2C4F3072141EA0B
:1058000000242D68002DEAD126B1E0B2C4F30721AF
:1058100041EA0024E04380B270BD0126ECE7421C5F
:1058200012D088B191F8292092070BD54A6882429C
:1058300008D0896800EA01030A40934202D101437B
:10584000491C01D000207047012070472DE9F74F17
:1058500088B00446099800271426008CBD1F143810
:10586000C11700EB5170C0F3CF0003906068069041
:10587000017801F00F01052903D028460BB0BDE8DF
:10588000F08F6189142903D256A0FEF757F9F4E787
:10589000C08801F01FF8C0F30C0100F40050029121
:1058A0000790208914381FFA80F994E003984FF686
:1058B000FF7101EAC0004946484500D908460490F6
:1058C0004FF4207214210E2003F05CFB5FEA000B02
:1058D00051D0BBF80A00142802D249A0FEF72EF9D5
:1058E0001422DBF804000699FAF71FFDDBF8040028
:1058F0000590049D31E06089811B8FB2B04202D2D5
:1059000047A0FEF71BF9BD4200D22F461FB305206A
:1059100002F0E6FB5FEA00082AD0606843463044A4
:10592000CDE9000741223946002003F02FFC5FEA51
:10593000000A23D0204603F0DFFE3D49C8E90414E5
:105940005146584603F03EFCE81B05042D0C06D0DA
:1059500000262468CFE724680026002DCBD1F0195B
:1059600086B20998008C143848450BDB01210AE007
:10597000584603F0BDFD4FF0FF307FE7404600F092
:1059800045FBF5E700210298C0F30C0009B1079927
:1059900009B140F4005000F09DFF0599C8800498BB
:1059A000143080B200F096FF0599488005980021D8
:1059B0004181099859460A9A43699847584603F025
:1059C00097FD0499A9EB01001FFA80F9DDE90201B6
:1059D000084480B20290B9F1000F7FF467AF002055
:1059E0004CE700006970345F6672616728293A20CD
:1059F0007062756620746F6F2073686F7274000038
:105A000074686973206E65656473206120706275C7
:105A10006620696E206F6E65207069656365210080
:105A2000702D3E6C656E203E3D20706F66660000F6
:105A3000F56301082DE9F047456807460E462878CA
:105A40000421B1EB101F03D0384603F051FD77E07D
:105A500000074FEA9068688800F03CFF04463889E8
:105A6000A04203D92146384603F0E8FD7989414533
:105A7000EAD33889A042E7D3B8F1140FE4D3DFF8B2
:105A800020912869C9F81400EA68C0F30310C9F826
:105A900010200E2805D0304600F086F850B134466C
:105AA00019E096F82900C00702D070680028F6D1E6
:105AB000002410E099F8140000247F280BD0394806
:105AC000046806E0B44203D0204600F06DF810B937
:105AD0002468002CF6D13146D9F81000FFF79FFE5C
