:020000040801F1
:1000000030B30120D1010108F5300108DD2F0108CE
:10001000F1300108730B0108055E010800000000C3
:10002000000000000000000000000000A9380108E6
:10003000770B0108000000007131010865390108E3
:10004000EB010108EB010108EB010108EB010108DC
:10005000EB010108EB010108EB010108EB010108CC
:10006000EB010108EB010108EB010108EB010108BC
:10007000EB010108EB010108EB010108EB010108AC
:10008000EB010108EB010108EB010108EB0101089C
:10009000EB010108EB010108EB010108B9100108AF
:1000A000EB010108EB010108EB010108EB0101087C
:1000B000EB010108D1390108EB010108EB0101084E
:1000C000EB010108EB010108EB010108EB0101085C
:1000D000EB010108EB010108EB010108EB0101084C
:1000E000EB010108EB010108EB010108EB0101083C
:1000F000EB010108EB010108EB010108EB0101082C
:10010000EB010108EB010108EB010108EB0101081B
:10011000EB010108EB0101080D3A0108EB010108B0
:10012000EB010108EB010108EB010108EB010108FB
:10013000EB010108690D0108EB010108EB01010861
:10014000EB010108EB010108EB010108EB010108DB
:10015000EB010108EB010108EB010108EB010108CB
:10016000EB010108EB010108EB010108EB010108BB
:10017000EB010108EB010108EB01010800000000A0
:10018000EB010108EB010108EB010108EB0101089B
:10019000EB010108EB010108EB010108EB0101088B
:1001A000EB010108EB010108EB010108DFF80CD0BD
:1001B00000F0F0FB00480047C9A5010830B301205A
:1001C00030BF72B6704762B6704780F308887047D8
:1001D0000648804706480047FEE7FEE7FEE7FEE7E1
:1001E000FEE7FEE7FEE7FEE7FEE7FEE76D39010802
:1001F000AD0101082DE9F05F0546002092469B46BF
:1002000088460646814640241BE02846414647462C
:10021000224600F0A2FA53465A46C01A914110D322
:1002200011461846224600F089FA2D1A67EB01089C
:100230004F4622460120002100F080FA17EB00090A
:100240004E41201EA4F10104DFDC484631462A4617
:100250004346BDE8F09F40EA01039B0703D009E055
:1002600008C9121F08C0042AFAD203E011F8013BA2
:1002700000F8013B521EF9D27047D2B201E000F8FB
:10028000012B491EFBD270470022F6E710B513463A
:100290000A4604461946FFF7F0FF204610BD30B568
:1002A00005462A460B4612F8010B13F8014B08B11C
:1002B000A042F8D01CB1002802D06D1CF1E72846FE
:1002C00030BD421C10F8011B0029FBD1801A704779
:1002D00030B504460020034600E05B1C934203D285
:1002E000E05CCD5C401BF8D030BD70B5064605F033
:1002F0000FFE046805460A220021304600F04FFA3E
:100300002C6070BD2DE9FE4F804681EA0300C00FCE
:100310000C46009021F0004123F00045B8EB0200AC
:10032000A94105D24046214690461C460B4602464E
:1003300023F00040104347D0270DC7F30A00C3F352
:100340000A510290401A019040286BDAC3F313005F
:1003500040F4801B0098924620B10023D2EB030AA0
:1003600063EB0B0B01985946C0F14002504600F078
:10037000E5F906460D4650465946019A00F0FDF94A
:1003800010EB08006141002487EA115284EAE77308
:100390001A4340D0009A62B3019A012A4FEA0752E9
:1003A00015DC001B61EB02014FF0004202EA07522C
:1003B000CDE90042001C41F5801132462B4600F089
:1003C0006CFA03B0BDE8F08F40462146F9E7001B08
:1003D00061EB0201001C41F5801300185B412018FD
:1003E000A2F5001747EB030140EAD570B6196D413D
:1003F00011E06D084FEA360645EAC0754FEA07522C
:10040000001B61EB0201001C41F5801149084FEA15
:1004100030000019514132462B4603B0BDE8F04F81
:1004200000F02CBA0098012240000023D0EB020219
:1004300063EBE073009821464FEAE074B8EB0000EC
:1004400061EB0401E9E783F000435BE781F00041E1
:1004500058E72DE9FE4F81EA030404F0004421F03F
:10046000004100944FF0000B23F0004350EA0104D8
:100470005ED052EA03045BD0C3F30A54C1F30A55B9
:100480002C44A4F2F3340194A0FB0254C1F31301F1
:1004900041F48011C3F3130343F4801301FB0244BE
:1004A00000FB034E840A970A44EA815447EA8357C3
:1004B000A4FB076802958D0A05FB07854FEA932C7C
:1004C00004FB0C542705029D4FEA065847EA1637ED
:1004D000B5EB08056EEB070C870E920E47EA811705
:1004E00042EA8312A7FB0201B6EB0B0164EB0004A6
:1004F0002B0D43EA0C335E1844EB1C50DA46514690
:10050000E7FB0201C5F313044FEA0B3343EA14532C
:100510004FEA0432019C43EA0603A4F10C0402945E
:10052000009CCDE900B400F0B8F903B0BDE8F08F4D
:1005300000200146F9E72DE9F04D81EA030404F0BB
:10054000004B21F0004514464FF0000A23F0004113
:1005500050EA050220D054EA01021DD0C5F30A5723
:100560000246C5F31303C1F31300C1F30A5640F466
:10057000801543F48013A7EB0608101BD64608F23B
:10058000FD3873EB050002D308F1010801E0921871
:100590005B41B8F1000F03DA00200146BDE8F08DA1
:1005A00000204FF48011064684460EE0171B73EBC3
:1005B000050705D3121B63EB050306434CEA010C48
:1005C00049084FEA300092185B4150EA0107EDD12B
:1005D00052EA030012D082EA040083EA05010843CC
:1005E00005D0101BAB4106D20122002306E00022F9
:1005F0004FF0004302E06FF0010253101AEB0600C7
:100600004CEB085110EB0A0041EB0B01BDE8F04D3B
:1006100000F034B90EB5C10F80EAE0700844CA0793
:10062000002140F233438DE80E000A460B4600F0ED
:1006300034F903B000BD0EB540F233410291002100
:10064000CDE900110A460B4600F027F903B000BDC2
:1006500000F0004230F000400AD0C10D01F5607199
:10066000C0F3160042EA0151C20840071143704727
:10067000002001467047000030B5041E71F10004EF
:1006800004DB4FF00044404264EB0101141E73F19F
:10069000000405DB1C464FF00043524263EB0403A9
:1006A0008B4208BF824230BD30B5041E71F1000498
:1006B00004DB4FF00044404264EB0101141E73F16F
:1006C000000405DB1C464FF00043524263EB040379
:1006D000994208BF904230BD01F0004330B421F090
:1006E000004150EA010206D00A0DA2F56072C1F382
:1006F0001301002A02DC30BC00207047440F44EA9A
:10070000C104C100E01830BC00EBC25000F07FB85B
:1007100030B50B46014600202022012409E021FAD1
:1007200002F59D4205D303FA02F5491B04FA02F5CE
:100730002844151EA2F10102F1DC30BD202A04DBA1
:10074000203A00FA02F1002070479140C2F12003E4
:1007500020FA03F3194390407047202A04DB203A23
:1007600021FA02F00021704721FA02F3D040C2F1D1
:1007700020029140084319467047202A06DBCB1718
:10078000203A41FA02F043EAE07306E041FA02F34C
:10079000D040C2F1200291400843194670472DE92C
:1007A000F04791460F4680460446002614F8015B48
:1007B0002DB100F001F90068405DC007F6D12B2D86
:1007C00002D02D2D18D0641E4A463946204600F02E
:1007D000F7F827B13968A14201D1C7F80080710547
:1007E0004FF002040BD54042002803DD05F090FBDA
:1007F0000460A007BDE8F08746F48066E4E70028BF
:10080000F8DA05F085FB04606FF00040F2E700299C
:10081000A8BF7047401C490008BF20F00100704786
:1008200010B4B0FA80FC00FA0CF050EA010404BFE6
:1008300010BC704749B1CCF1200421FA04F411FA3C
:100840000CF118BF012121430843A3EB0C01CB1D80
:100850004FEA00614FEA102042BF002010BC7047F1
:1008600000EBC35010440029A4BF10BC7047401CCB
:10087000490008BF20F0010010BC704710B5141EDD
:1008800073F1000408DA401C41F1000192185B4149
:100890001A4301D120F0010010BD2DE9F04D924620
:1008A0009B4611B1B1FA81F202E0B0FA80F2203237
:1008B0009046FFF743FF04460F4640EA0A0041EA2C
:1008C0000B0153465A46084313D0114653EA010020
:1008D00019D0C8F140025046FFF73FFF05460E46CB
:1008E000504659464246FFF729FF084305D00120EC
:1008F00004E020463946BDE8F08D0020054346EA75
:10090000E0762C4337430A986305E40AA0EB08001D
:100910000022FD0A44EA47540A3002D5002001466D
:10092000E9E7010510196941DDE908450019694148
:10093000BDE8F04DA2E770B521F0004303430CD0B1
:10094000C1F30A550024D5EB040564EB0403D61764
:10095000AD1AB34102DB0020014670BD201841EB07
:10096000025170BDC1F30A52C1F3130140F2FF33CB
:1009700041F480119A4202DA00200146704740F2A9
:1009800033439A42A2F2334202DC5242FFF7E5BE01
:10099000FFF7D4BE064C074D06E0E06840F00103C7
:1009A00094E8070098471034AC42F6D3FFF702FCF6
:1009B000240D0208440D0208004870470C0C020880
:1009C0002DE9F05F82460078002715468B460AF134
:1009D0000104B946302801D09DB113E014F8010B91
:1009E0000127782803D0582801D045B10AE00DB17D
:1009F000102D07D10027102514F8010B02E008255F
:100A000000E00A250026B0460EE005FB080005FBC5
:100A100006F1012701EB10461FFA80F8B6F5803F7A
:100A200000D3B94614F8010B294600F069F80028F4
:100A3000EBDABBF1000F05D00FB1641E00E05446A5
:100A4000CBF80040B9F1000F06D005F061FA0221A1
:100A50000160C81EBDE8F09F48EA0640FAE72DE9AC
:100A6000F04D00231A461B1A8A4103DB0020014681
:100A7000BDE8F08DC1F30A52C1F3130141F48015B2
:100A80004FF0000BD10702D100186D41521E002714
:100A9000044640F2FF11384601EB620A3E468046AA
:100AA000024600204FF48011FFF757FEC219714132
:100AB000BB1846EB0100B4EB030C75EB000C04D340
:100AC000E41A65EB000517460E46241908F10100EB
:100AD0006D4180463428E3DDF91946EB0600091B19
:100AE000A84103D24FF0FF32134601E00022134623
:100AF0001BEB070046EB0A51BDE8F04DFFF7BEBE09
:100B00003A2800D2303820F02002412A01D3A2F145
:100B10003700884201D34FF0FF30704770B58C1812
:100B200010F8015B15F0070301D110F8013B2A1101
:100B300006D110F8012B03E010F8016B01F8016BEE
:100B40005B1EF9D12B0705D40023521E0DD401F8EA
:100B5000013BFAE710F8013BCB1A921C03E013F8B3
:100B6000015B01F8015B521EF9D5A142D8D30020E8
:100B700070BD00BFFEE7704710B50C480C49086017
:100B80004FF4E1304860002109488160C160016193
:100B90000C21416100218161C16102F028F918B185
:100BA000192104A005F030F910BD0000001001402B
:100BB000D40200202E2E5C53595354454D5C75735E
:100BC0006172745C75736172742E630010B500BF3E
:100BD0000420012806D002280BD0032810D00428B6
:100BE0001CD114E024A005F057F926A005F054F913
:100BF0001BE02DA005F050F922A005F04DF914E0FE
:100C00002BA005F049F91FA005F046F90DE02AA038
:100C100005F042F91BA005F03FF906E029A005F018
:100C20003BF918A005F038F900BF00BF00BF002055
:100C30001EE00022274901EB40110A70254901EB13
:100C400040118A709FED240B224901EB401181ED88
:100C5000060B9FED210B1F4901EB401181ED020BAB
:100C60009FED1D0B1B4901EB401181ED040B401C56
:100C70000428DEDB10BD00005B4572726F725D3AC6
:100C80000000000064697374616E636520446566EA
:100C900061756C7420466F6C6C6F774D6F64654F37
:100CA00066667365740D0A005B5741524E5D3A00EB
:100CB0005B494E464F5D3A005B44454255475D3ABD
:100CC000000000005B556E6B6E6F776E204D736792
:100CD0005D3A00000002002000000000000000005B
:100CE000016801F58051896941F00202016801F54E
:100CF00080518A617047016801F58051896941F42A
:100D00000052016801F580518A61704738B5044688
:100D100000200090206800F58050806940F4801128
:100D2000206800F580508161206800F5805080695E
:100D30000090012000F06CFB0099206800F58050C5
:100D4000816138BD014600200A6802F0004252B9B4
:100D50000A6802F4004232B90A6802F4807212B1E1
:100D60000A68C2F30D40704710B501E009F0F4FBCA
:100D70000949886AFFF7E6FF0028F7D14FF4803170
:100D80000548006800F58050416140210248006834
:100D900000F58050416110BD1403002030B50346BA
:100DA0001479557944EA0520084C0C442064D47821
:100DB0002406957844EA0544557844EA05241578D4
:100DC00044EA0500014C0C44606430BD00800240E0
:100DD00070B5AEB004460E46002526B14FF4006152
:100DE000E160C900A160002011901290139014904E
:100DF00015901690E06918B94FF48060179001E0E3
:100E0000002017904FF400701890002019901A904D
:100E10001B901C901D9040201E9000201F90209041
:100E20002190229023902490259026908020279036
:100E30000020289029902A902B902C902D902068AB
:100E4000056871480540DDE911010843139908431D
:100E500014990843A1680843159908431699084353
:100E6000E1680843179908431899084319990843FA
:100E70001A9908431B9908430543206805602068B8
:100E80000568012000F0C4FA20680560DDE91C0156
:100E900008431E9908431F99084320990843219944
:100EA0000843229908432399084321684860206831
:100EB0004568012000F0ACFA20684560249821685C
:100EC000886025982168C860206885694FF6417060
:100ED0000540DDE9261040EA014028990843299998
:100EE00008432A9908432B990843054320688561E4
:100EF00020688569012000F08BFA20688561DDE9B2
:100F00002C0108432168C8612068C569012000F0F0
:100F10007FFA2068C561002001904FF000700290B8
:100F2000002003904FF400100490002005900690DC
:100F30000790089004200990C0050A9040120B9079
:100F400080010C9040120D9080200E9000200F9098
:100F50001090206800F5805085692C480540DDE937
:100F6000010108430399084304990843059908437C
:100F700006990843079908430899084309990843C3
:100F80000543206800F580508561206800F5805099
:100F90008569012000F03CFA206800F580508561E9
:100FA000DDE90A0108430C9908430D9908430E999D
:100FB00008430F9940EA81001099084340F400016A
:100FC000206800F580500160206800F580500568B9
:100FD000012000F01DFA206800F580500560A0692E
:100FE000012809D1206800F58050C06908490843EC
:100FF000216801F58051C861002120466269FFF730
:10100000CDFE2EB070BD00000F8120FF233FDEF823
:101010004000010038B504460020009020680068B8
:1010200040F00400216808602068006800900120FA
:1010300000F0EEF900982168086038BD38B5044624
:10104000002000902068006840F0080021680860D7
:10105000206800680090012000F0DAF9009821680B
:10106000086038BD10B54FF4A07100200AF0FCFAFA
:101070000D490860A02100200AF0F6FA0B4908602B
:1010800043F6883100200AF0EFFA0949086041F67A
:10109000C45100200AF0E8FA0649086000BF00BF0A
:1010A00000BF00BF002010BDE0000020E4000020D1
:1010B000E8000020EC00002010B54FF4007000F0B4
:1010C00091FE10BD10B5002201B909E0012901D13E
:1010D0000A0205E0022901D10A0201E04FF4407240
:1010E0000B2800D9001D114B1B6823F440730F4CD3
:1010F000236023461B681343236023461B6823F0A9
:10110000F803236023461B68F82494FAA4F4B4FA85
:1011100084F400FA04F444F002042343034C2360F3
:1011200023461B6843F48033236010BD103C02400B
:101130001C48006800F40070B0B11A48006820F440
:1011400000701849086000BF0846006840F400605D
:1011500008600846006820F40060086000BF084688
:10116000006840F4007008600E48006800F4806079
:10117000B0B10C48006820F480600A49086000BFE4
:101180000846006840F4805008600846006820F473
:101190008050086000BF0846006840F48060086026
:1011A00070470000003C024010B502460020144B7E
:1011B0001B6823F44073124C236023461B680343CF
:1011C0002360032906D123461B68E41323430C4CF8
:1011D00023600EE0012906D1094B1B6843F004038C
:1011E000074C236005E0064B1B6843F40043044CA6
:1011F0002360034B1B6843F48033014C236010BD14
:10120000103C0240074A126822F44072054B1A60F3
:101210001A4612681A601A46126842F001021A60F1
:1012200001707047103C024010B50949096821F46B
:101230004071074C21602146096841F440712160EA
:101240002146096841F0010121600260436010BD40
:10125000103C0240084A126822F44072064B1A60A1
:101260001A46126842F480721A601A46126842F0F6
:1012700001021A6001807047103C0240084A12685F
:1012800022F44072064B1A601A46126842F4007249
:101290001A601A46126842F001021A600160704733
:1012A000103C02402A480068C0F3001040B12948B1
:1012B000C06940F010002749C86110202449086027
:1012C00023480068C0F3401040B12248C06940F094
:1012D00008002049C86120201D4908601C4800689A
:1012E000C0F3801040B11B48C06940F004001949A8
:1012F000C86140201649086015480068C0F3C01056
:1013000040B11448C06940F002001249C861802011
:101310000F4908600E480068C0F3002048B10D482E
:10132000C06940F001000B49C8614FF48070084962
:10133000086007480068C0F3400040B10548C06934
:1013400040F020000349C86102200149086070474D
:101350000C3C0240B402002070B504460025002079
:101360001749C86100F064FE054609E0601C38B109
:1013700024B100F05DFE401BA04201D9032070BDE6
:1013800010480068C0F300400028EFD10D48006805
:1013900000F0010010B101200A4908600948006806
:1013A00000F4F970B0F5F97F01D1012000E00020D0
:1013B00018B1FFF777FF0120E1E70020DFE7000029
:1013C000B40200200C3C024000B587B000BF0020F2
:1013D00001900D48006840F010000B490860084675
:1013E000006800F01000019000BF00BF08200290CC
:1013F0000120039000200490059002A9034800F00A
:10140000FFFC07B000BD0000303802400010024071
:1014100031B5002400F00CFE044600BF00F008FEC9
:10142000001B00998842F9D338BD70B504460D46BB
:101430001646002200BF94F84500012801D1022081
:1014400070BD012084F8450000BF022084F84400EC
:10145000A56200221FE005EB42114FF0004008603A
:1014600044F2F4504860C2EBC21000EB400006EBBF
:1014700080008860A069012803D1486820F00040FE
:101480004860581E904204D905EB42102030C860D5
:1014900000E0CD60521C9A42DDD3206800F58050F8
:1014A000C560012084F8440000BF002084F8450096
:1014B00000BF00BFC4E770B504460D4616460022C3
:1014C00000BF94F84500012801D1022070BD012021
:1014D00084F8450000BF022084F84400E562002241
:1014E0001BE005EB42114FF480100860C2EBC21004
:1014F00000EB400006EB80008860E06918B90868DE
:1015000040F440000860581E904204D905EB421098
:101510002030C86000E0CD60521C9A42E1D32068C0
:1015200000F580500561012084F8440000BF0020D0
:1015300084F8450000BF00BFC8E70146002200BF95
:1015400091F84500012801D102207047012081F85F
:10155000450000BF022081F84400886A006800F05E
:101560000040002838D1886A006800F48070F0B12B
:10157000886B401C8863886B012801D1886A0863E6
:101580008B6A4B63886A0068C0F30D40021FCA6310
:10159000086B83680B64886AC0688862012081F8E0
:1015A000440000BF002081F8450000BFCDE7886AF5
:1015B000006800F4007048B1886A086300234B6338
:1015C00001238B63886AC068886205E0886B401CD1
:1015D0008863886AC0688862012081F8440000BF7F
:1015E000002081F8450000BF0120AEE72DE9FC4155
:1015F0000446002500200190924E0027804614B931
:101600000120BDE8FC8194F8440028B9002084F84A
:101610004500204600F024F900BF002000908A48D1
:10162000006840F48040884908600846006800F47B
:101630008040009000BF00BF8448006820F4000094
:101640008249086008460068216A08437F490860AB
:10165000206800F58050006840F00101206800F526
:101660008050016000BF206800F58050006800F0E5
:1016700001000028F7D12068056925F01C0500F05D
:1016800095FF06467248864205D37248864202D2CA
:1016900045F008051AE06F48864205D3694886423E
:1016A00002D245F00C0511E06648864203D36A4831
:1016B000864200D20AE06848864205D367488642DF
:1016C00002D245F0040501E045F0100520680561EF
:1016D0004FF400420021204600F071FA48B14FF06B
:1016E000010841462046FFF773FB012084F84400BF
:1016F00087E7FF20FFF78CFE606800287ED000F0AF
:1017000097FC074600BF01AA0121204600F046F9D8
:1017100000F08EFCC01BB0F5FA6F0FD94FF0010836
:1017200041462046FFF754FB012084F8440000BFE7
:10173000002084F8450000BF032062E7019800F014
:1017400004000428DFD182020021204600F037FA8D
:1017500048B14FF0010841462046FFF739FB012010
:1017600084F844004DE700F063FC074600BF01AA7F
:101770000121204600F012F900F05AFCC01BB0F520
:101780007A7F0FD94FF0010841462046FFF720FB32
:10179000012084F8440000BF002084F8450000BF09
:1017A00003202EE7019800F020002028DFD101AAB5
:1017B0001F21204600F0F2F848B14FF001084146E1
:1017C0002046FFF705FB012084F8440019E7019843
:1017D00000F0100020B14FF40061E16002E00DE084
:1017E0000021E160019800F00400042802D10021EA
:1017F000A1601DE04FF48041A16019E0E068C0F3F2
:10180000CF00A168C1F34F0140EA01020021204648
:1018100000F0D5F948B14FF0010841462046FFF7E6
:10182000D7FA012084F84400EBE6FF20FFF7F0FD33
:1018300041462046FFF7CCFA012084F844000020FE
:10184000DFE600000087930344380240043801407B
:10185000002D3101C00E160200E1F50580D1F0081F
:1018600010B586B0044600BF00BF00200090474876
:10187000006840F00070454908600846006800F0C4
:101880000070009000BF00BF00BF0020009008461D
:10189000006840F0806008600846006800F08060E2
:1018A000009000BF00BF00BF002000900846006805
:1018B00040F0006008600846006800F0006000909A
:1018C00000BF00BF00BF00BF0020009008460068B6
:1018D00040F0010008600846006800F00100009038
:1018E00000BF00BF00BF002000900846006840F025
:1018F000020008600846006800F00200009000BF87
:1019000000BF00BF002000900846006840F00400BF
:1019100008600846006800F00400009000BF00BFA7
:10192000082001900120029003900320049001A957
:10193000174800F065FA01220821154800F072FBF3
:101940008620019002200290002003900320049042
:101950000B20059001A90E4800F052FA4FF4605098
:10196000019001A90B4800F04BFA3220019001A927
:10197000094800F045FA002211463D2000F01AFC0B
:101980003D2000F00AFC06B010BD000030380240D7
:101990000000024000040240000802402DE9F0412E
:1019A00004460E4617460025A84694F844008228AF
:1019B00002D10220BDE8F081822084F84400206832
:1019C000056905F01C05208A4FF4784101EAC02022
:1019D0000543481100EA8610054325F0020545F04D
:1019E00001052068056100F023FB804612E000F04D
:1019F0001FFBA0EB0800B0F5803F09D3012084F85D
:101A0000440000BF002084F8450000BF0320D1E758
:101A10002068056905F001000028E8D120684069C8
:101A200080B23860012084F844000020C2E710B57D
:101A3000044600BF94F84500012801D1022010BDE2
:101A4000012084F8450000BF022084F844002046AD
:101A5000FFF7F4FA2046FFF7DDFA2046FFF756F9C4
:101A60002046FFF748F92046FFF73AF9012084F8AD
:101A7000440000BF002084F8450000BF00BFDEE73F
:101A800070B5024600230025002400BF92F84500EF
:101A9000012801D1022070BD012082F8450000BF5D
:101AA000022082F8440049B9012082F8440000BFB6
:101AB000002082F8450000BF0120ECE7D06A0068F2
:101AC00000F0004048B1122082F8440000BF00201E
:101AD00082F8450000BF0120DDE740F2F45081426A
:101AE00008D9B1FBF0F3B1FBF0F600FB161010B112
:101AF0005B1C00E00123012B13D1D06A006840F089
:101B00004050D66A3060C1F30C00D66A7060D06A6B
:101B1000006840F00040D66A3060D06AC068D06289
:101B200032E000242EE0D06A006820F04050D66AEF
:101B300030602CB9D06A006840F08050D66A3060BE
:101B400040F2F450D66A7060581EA04210D1D06A9C
:101B5000006840F00050D66A3060581EC0EBC010DC
:101B600000EB4000A1EB8005C5F30C00D66A706065
:101B7000D06A006840F00040D66A3060D06AC06821
:101B8000D062641C9C42CED3106800F5805040693E
:101B900000F0040048B10426106800F5805046614A
:101BA0000026106800F580504660012082F844004D
:101BB00000BF002082F8450000BF00BF6BE72DE9A1
:101BC000F04104460E4617460025A84694F8440006
:101BD000422802D10220BDE8F081422084F844006E
:101BE0002068056905F01C05208A4FF4784101EA58
:101BF000C0200543481100EA8610054345F0020560
:101C000045F00105B8B2216848612068056100F01F
:101C10000FFA804612E000F00BFAA0EB0800B0F5D6
:101C2000803F09D3012084F8440000BF002084F8DD
:101C3000450000BF0320CEE72068056905F00100DC
:101C40000028E8D1012084F844000020C3E7000008
:101C50002DE9F04104460E460127002500BF264825
:101C6000007E012802D10220BDE8F0810120224936
:101C7000087600BF4CF25030FFF76EFB0746002F8E
:101C800032D1401E30602068012810D1207C61686C
:101C9000FFF78AFA4CF25030FFF75EFB0746174811
:101CA000006848F204018843144908601AE0A568F6
:101CB00012E0217C2846FFF705FA4CF25030FFF77E
:101CC0004BFB07460D48006820F0FA000B490860FE
:101CD0000FB1356005E06D1CD4E902100844A8423C
:101CE000E7D800BFFFF724FA00BF002002490876BA
:101CF00000BF3846B8E70000B4020020103C0240A4
:101D00000348006840F00040014908600020704727
:101D1000103C02402DE9F04106460F4614461D4690
:101D20004FF0010800BF1F48007E012802D10220A9
:101D3000BDE8F08101201B49087600BF4CF250300D
:101D4000FFF70AFB8046B8F1000F23D126B9E1B2B4
:101D50003846FFF757FA12E0012E04D1A1B23846F7
:101D6000FFF778FA0BE0022E04D121463846FFF740
:101D700085FA04E022462B463846FFF755FA4CF226
:101D80005030FFF7E9FA80460748006820F001006C
:101D90000549086000BF00200249087600BF4046A0
:101DA000C6E70000B4020020103C0240074800686B
:101DB00000F0004030B1064804490C39086005487D
:101DC000086001E0012070470020FCE7103C024061
:101DD00023016745AB89EFCD08B50021009100BF15
:101DE00008BD000010B5044604480068204020B13A
:101DF000024804602046FFF7EFFF10BD143C01408D
:101E0000F8B502460B460025002400200021E6E03C
:101E1000012606FA01F51E6806EA0504AC4273D1F4
:101E20005E68022E02D05E68122E13D1CF0802F136
:101E3000200656F827004E07F70E0F26BE40B04387
:101E40004F07FF0E1E69BE403043CF0802F1200647
:101E500046F8270010684F000326BE40B0431E79A5
:101E600006F003064F00BE40304310605E68012E4E
:101E700008D05E68022E05D05E68112E02D05E6822
:101E8000122E13D190684F000326BE40B0434F007E
:101E9000DE68BE4030439060506801268E40B043FB
:101EA0001E79C6F300168E4030435060D0684F0054
:101EB0000326BE40B0434F009E68BE403043D06012
:101EC0005E6806F08056B6F1805FA8D100BF00269C
:101ED0000096454E366846F48046434F3E603E4687
:101EE000366806F48046009600BF00BF3F4E8F085C
:101EF00056F827008E07370F0F26BE40B0433C4EE2
:101F0000B24202D100262EE068E03A4EB24201D140
:101F1000012628E0384EB24201D1022623E0374E96
:101F2000B24201D103261EE0354EB24201D1042651
:101F300019E0344EB24201D1052614E0324EB242CD
:101F400001D106260FE0314EB24201D107260AE048
:101F50002F4EB24201D1082605E02E4EB24201D1E9
:101F6000092600E00A268F073F0FBE4030431F4E70
:101F70008F0846F82700284E3068A0435E6806F4B4
:101F80008036B6F5803F00D12043234E3060361DA9
:101F90003068A0435E6806F40036B6F5003F00D115
:101FA00020431D4E361D3060361D3068A0435E68EC
:101FB00006F48016B6F5801F00D12043164E083671
:101FC0003060361D3068A0435E6806F40016B6F532
:101FD000001F00D12043104E0C363060491C1029E0
:101FE000FFF416AFF8BD0000443802400838014045
:101FF000000002400004024000080240000C0240C1
:10200000001002400014024000180240001C024070
:102010000020024000240240003C014042694A4046
:10202000426170470AB1816101E00B04836170472E
:102030000148006870470000D800002010B5044631
:102040000CB9012010BD607B20B900202073204610
:1020500000F01AF80220607345F2555021680860BC
:102060002068406820F007006168084321684860E4
:10207000206880686FF30B00A168084321688860BE
:10208000012060730020DDE7704770B5044600252D
:1020900000BF207B012801D1022070BD01202073E8
:1020A00000BF02206073FFF7C3FF05460DE0FFF796
:1020B000BFFF401BB0F57A7F07D90320607300BFD4
:1020C0000020207300BF0320E7E72068C068C0F34A
:1020D00040000028EBD14AF6AA20216808600120C0
:1020E000607300BF0020207300BF00BFD5E701462A
:1020F00000BF087B012801D102207047012008732E
:1021000000BF022048734CF6CC400A6810604AF6C3
:10211000AA200A6810600120487300BF00200873DD
:1021200000BF00BFE9E7000002480068401C014909
:1021300008607047D800002010B50D48006840F4D2
:1021400000700B4908600846006840F48060086031
:102150000846006840F480700860052000F068F8C8
:102160000F2000F007F800F017F8002010BD000065
:10217000003C024070B5044600F018FA4FF47A7142
:10218000B0FBF1F5284600F0CBFC00222146501EA2
:1021900000F010F8002070BD704700BF00F01F0273
:1021A000012191404209920002F1E022C2F800119F
:1021B00000BF70472DE9F05F80460D4616460027A8
:1021C00000F09AFF074639462A46334601F00700D9
:1021D000C0F1070ABAF1040F02D94FF0040A01E076
:1021E000C0F1070AD14600F1040ABAF1070F02D282
:1021F0004FF0000A01E0A0F1030AD4464FF0010AB3
:102200000AFA09FAAAF1010A0AEA020A0AFA0CFA17
:102210004FF0010B0BFA0CFBABF1010B0BEA030BBC
:102220004AEA0B042146404600F06EFFBDE8F09FED
:1022300000BF00F00702064B19684FF6FF03194074
:10224000044B0B4343EA0221014B196000BF704766
:102250000CED00E00000FA0538B5002400BF0020B6
:1022600000902348006840F08050214908600846EB
:10227000006800F08050009000BF00BF0120010402
:1022800091FAA1F1B1FA81F11A4A42F82100FFF75F
:10229000CFFE044607E0FFF7CBFE001BB0F57A7FC8
:1022A00001D9032038BD1448406800F48030B0F5EF
:1022B000803FF0D10120410491FAA1F1B1FA81F1FE
:1022C0000C4A42F82100FFF7B3FE044607E0FFF78F
:1022D000AFFE001BB0F57A7F01D90320E2E7064884
:1022E000406800F40030B0F5003FF0D10020D9E79D
:1022F0004038024000000E420070004070B50446B5
:102300000E460025A748006800F00F00B0426FD2CB
:10231000A4490E700846006800F00F00B04201D0DA
:10232000012070BD207800F00200022807D19E48ED
:10233000006820F0F000A16808439B4908602078FD
:1023400000F0010000283ED06068012807D19648BF
:1023500008380068C0F34040B8B90120E1E7606880
:10236000022802D06068032807D18F480838006827
:10237000C0F3406048B90120D3E78B4808380068B3
:10238000C0F3400008B90120CBE78748006820F07F
:1023900003006168084384490860FFF749FE054669
:1023A0006068012810D108E0FFF742FE401B41F2AF
:1023B0008831884201D90320B3E77B48006800F0E8
:1023C0000C000428F0D1CDE06068022811D108E0AB
:1023D000FFF72EFE401B41F28831884201D90320CD
:1023E0009FE77148006800F00C000828F0D1B9E0C0
:1023F00024E06068032810D108E0FFF719FE401BB5
:1024000041F28831884201D903208AE76648006892
:1024100000F00C000328F0D1A4E008E0FFF708FE6C
:10242000401B41F28831884201D9032079E75E4898
:10243000006800F00C000028F0D193E0207800F054
:102440000200022807D15848006820F0F000A16877
:10245000084355490860207800F00100002877D033
:102460006068012807D1504808380068C0F3404030
:10247000B8B9012055E76068022802D060680328D7
:1024800007D1494808380068C0F3406048B90120C6
:1024900047E7454808380068C0F3400008B9012004
:1024A0003FE74148006820F00300616808433E4967
:1024B0000860FFF7BDFD05466068012810D108E0FF
:1024C000FFF7B6FD401B41F28831884201D9032055
:1024D00027E73548006800F00C000428F0D137E009
:1024E0006068022810D108E0FFF7A2FD401B41F20E
:1024F0008831884201D9032013E72B48006800F097
:102500000C000828F0D123E06068032810D108E00F
:10251000FFF78EFD401B41F28831884201D903202C
:10252000FFE62148006800F00C000328F0D10FE01E
:1025300008E0FFF77DFD401B41F28831884201D958
:102540000320EEE61848006800F00C000028F0D1E7
:1025500014490E700846006800F00F00B04201D028
:102560000120DEE6207800F00400042807D10E48A0
:10257000006820F4E050E16808430B4908602078C7
:1025800000F00800082808D10748006820F46040DF
:10259000216940EAC100044908600F20FFF7EAFD05
:1025A0000020BEE6003C02400838024010B500F0B2
:1025B00045F80949096801F0F001F02292FAA2F207
:1025C000B2FA82F2D140054A515CC8400449086021
:1025D0000846006810BD000008380240E8090208FB
:1025E0001000002010B5FFF7E1FF0749096801F46A
:1025F000E0514FF4E05292FAA2F2B2FA82F2D140E4
:10260000024A515CC84010BD08380240E80902087F
:1026100010B5FFF7CBFF0749096801F460414FF49B
:10262000604292FAA2F2B2FA82F2D140024A515CBE
:10263000C84010BD08380240E809020870B5002102
:10264000002200230020274C246804F00C0424B14D
:10265000042C04D0082C41D103E0234840E0234857
:102660003EE0204C241F246804F03F011D4C241F31
:10267000246804F4800484B11C4CB4FBF1F5194CBB
:10268000241F246847F6C076344096FAA6F6B6FAB8
:1026900086F6F44005FB04F20FE0134CB4FBF1F5B1
:1026A000104C241F246847F6C076344096FAA6F6EC
:1026B000B6FA86F6F44005FB04F20A4C241F24689F
:1026C00004F440344FF4403595FAA5F5B5FA85F594
:1026D000EC40641C6300B2FBF3F001E0024800BF71
:1026E00000BF70BD083802400024F40040787D012E
:1026F00038B504460025207800F00100002866D097
:10270000F748006800F00C0004280DD0F448006879
:1027100000F00C00082813D1F148001F006800F4F5
:102720008000B0F5800F0BD1ED4808380068C0F389
:10273000404000284BD06068002848D1012038BDB7
:102740000020E749891F0870FFF772FC054608E082
:10275000FFF76EFC401B41F28831884201D903200B
:10276000EDE7DF4808380068C0F340400028EFD1AB
:102770002079DB49891F08706068A0B1FFF758FC19
:10278000054608E0FFF754FC401B41F288318842BF
:1027900001D90320D3E7D24808380068C0F340408D
:1027A0000028EFD013E0FFF743FC054608E0FFF7F1
:1027B0003FFC401B41F28831884201D90320BEE72B
:1027C000C74808380068C0F340400028EFD120789F
:1027D00000F00200022869D1C148006800F00C0036
:1027E00058B1BF48006800F00C00082821D1BC484F
:1027F000001F006800F48000D8B9B94808380068A4
:10280000C0F3400020B1E068012801D0012096E724
:10281000B3480838006820F0F800F82292FAA2F2D3
:10282000B2FA82F2216991400843AD490839086043
:102830003CE0E06828B30120AA490860FFF7F8FBF4
:10284000054606E0FFF7F4FB401B642801D903208E
:1028500075E7A34808380068C0F340000028F1D0AD
:102860009F480838006820F0F800F82292FAA2F297
:10287000B2FA82F221699140084399490839086007
:1028800014E0002097490860FFF7D2FB054606E0F8
:10289000FFF7CEFB401B642801D903204FE7904887
:1028A00008380068C0F340000028F1D1207800F01B
:1028B000080008282CD16069A8B101208A49086065
:1028C000FFF7B6FB054606E0FFF7B2FB401B6428A6
:1028D00001D9032033E782486C300068C0F3400020
:1028E0000028F1D014E000207F490860FFF7A0FB2A
:1028F000054606E0FFF79CFB401B642801D9032036
:102900001DE777486C300068C0F340000028F1D123
:10291000207800F0040004286FD100BF0020009050
:102920006F483830006840F080506D493831086099
:102930000846006800F08050009000BF00BF6B4860
:10294000006840F4807069490860FFF771FB054634
:1029500006E0FFF76DFB401B642801D90320EEE67B
:102960006248006800F480700028F2D000205C49C2
:1029700068310870FFF75CFB054608E0FFF758FB7D
:10298000401B41F28831884201D90320D7E65448E0
:1029900068300068C0F340000028EFD1207A504929
:1029A00068310870A068A0B1FFF742FB054608E057
:1029B000FFF73EFB401B41F28831884201D90320DA
:1029C000BDE6474868300068C0F340000028EFD0FB
:1029D00013E0FFF72DFB054608E0FFF729FB401B3E
:1029E00041F28831884201D90320A8E63C4868308A
:1029F0000068C0F340000028EFD1A069F0B3384868
:102A0000006800F00C00082872D0A069022850D19C
:102A1000002034490866FFF70BFB054606E0FFF788
:102A200007FB401B642801D9032088E62C4808389E
:102A30000068C0F340600028F1D1D4E907010843E1
:102A400047F6C07292FAA2F2B2FA82F2616A91403B
:102A500008430122A16AC2EB51014FF4403292FABD
:102A6000A2F2B2FA82F2914008434FF0706292FAF9
:102A7000A2F2B2FA82F2E16A914000E03AE0084341
:102A80001749091F0860012016490866FFF7D0FAA8
:102A9000054606E0FFF7CCFA401B642801D9032065
:102AA0004DE60F4808380068C0F340600028F1D0B8
:102AB00020E000200B490866FFF7BAFA054606E059
:102AC000FFF7B6FA401B642801D9032037E6044813
:102AD00008380068C0F340600028F1D10AE007E040
:102AE0000838024000004742800E47420070004014
:102AF000012024E6002022E6042808D14FF0E0213E
:102B0000096941F004014FF0E022116107E04FF044
:102B1000E021096921F004014FF0E02211617047C2
:102B200070B504462546681EB0F1807F01D30120B0
:102B30000FE0681E4FF0E02148610F214FF0FF3099
:102B400000F0E2FA00204FF0E021886107200861E0
:102B5000002070BD7047704710B504460CB90120C5
:102B600010BD94F8390028B9002084F838002046B8
:102B700000F00CF8022084F83900211D206800F0D4
:102B80004DFF012084F839000020E9E738B50446FC
:102B900000BF002000901748006840F0020015496F
:102BA00008600846006800F00200009000BF00BF07
:102BB000002201211D20FFF7FDFA1D20FFF7EDFA8D
:102BC00000BF002000900B48006840F01000094949
:102BD00008600846006800F01000009000BF00BFC9
:102BE000012202213620FFF7E5FA3620FFF7D5FA59
:102BF00038BD00004038024001460868C06840F017
:102C000001000A68D0600868006840F001000A68A6
:102C1000106000207047704710B5044620680069B6
:102C2000C0F34000D8B12068C068C0F34000B0B124
:102C30006FF0020021680861012020762068806919
:102C400000F0030018B12046FFF7E5FF05E020463D
:102C500000F0ADF8204600F0ABF8002020762068A8
:102C60000069C0F38000D8B12068C068C0F380005C
:102C7000B0B16FF00400216808610220207620685E
:102C8000806900F4407018B12046FFF7C4FF05E0EA
:102C9000204600F08CF8204600F08AF800202076CC
:102CA00020680069C0F3C000D8B12068C068C0F3D4
:102CB000C000B0B16FF008002168086104202076E0
:102CC0002068C06900F0030018B12046FFF7A3FF99
:102CD00005E0204600F06BF8204600F069F800207F
:102CE000207620680069C0F30010D8B12068C06861
:102CF000C0F30010B0B16FF0100021680861082027
:102D000020762068C06900F4407018B12046FFF7B3
:102D100082FF05E0204600F04AF8204600F048F81F
:102D2000002020762068006900F0010058B120687A
:102D3000C06800F0010030B16FF001002168086147
:102D4000204600F037F820680069C0F3C01058B181
:102D50002068C068C0F3C01030B16FF080002168F7
:102D600008612046FFF7F6FE20680069C0F3801076
:102D700058B12068C068C0F3801030B16FF04000D7
:102D800021680861204600F031F820680069C0F32E
:102D9000401058B12068C068C0F3401030B16FF0E7
:102DA0002000216808612046FFF7D5FE10BD70475E
:102DB0007047000010B504460848844205D1084811
:102DC00000680A300649086007E00648844204D1DA
:102DD00007F0BDFB01200449087010BD5C03002012
:102DE0001C0100209803002028000020704710B527
:102DF00004460CB9012010BDA06900B100E000BF7D
:102E000094F8390028B9002084F83800204600F0F2
:102E100025F8022084F839002068C06820F40050AA
:102E20002168C860204600F06BFE2068006920F42D
:102E30009040216808612068406920F02A002168DC
:102E400048612068C06840F400502168C8600020D4
:102E5000E063012084F839000020CCE710B586B08B
:102E600004461F492068884237D100BF00200090E7
:102E70001C48006840F010001A49086008460068C5
:102E800000F01000009000BF00BF00BF00200090C5
:102E900014481438006840F00200124914390860E0
:102EA0000846006800F00200009000BF00BFC0208C
:102EB000019002200290012003900220049007203C
:102EC000059001A90848FEF79BFF00221146252026
:102ED000FFF770F92520FFF760F906B010BD00007C
:102EE0000010014044380240000402402DE9F04740
:102EF00004460D46164699464FF0000894F839806E
:102F0000B8F1010F02D0B8F1220F65D105B116B9A1
:102F10000120BDE8F08700BF94F83800012801D1F6
:102F20000220F6E7012084F8380000BF0020E063AB
:102F300094F83900222803D1322084F8390002E0C5
:102F4000122084F83900A684E68428E0E08C401E34
:102F5000E084A068B0F5805F14D14B460022802148
:102F6000204600F0DFFE08B10320D2E72F46388864
:102F7000C0F3080021684860206908B9AD1C0EE064
:102F80006D1C0CE04B4600228021204600F0CAFE5A
:102F900008B10320BDE715F8010B21684860E08CFB
:102FA0000028D3DC4B4600224021204600F0BAFE28
:102FB00008B10320ADE794F83900322803D122206C
:102FC00084F8390002E0012084F8390000BF0020B5
:102FD00084F8380000BF9CE702209AE700BFFEE7B4
:102FE00010B50248FFF751F810BD0000D4030020CF
:102FF00070B504460D460648064908600846446018
:103000008560FFF71BF80348FFF771F870BD0000FB
:1030100000300040D40300201CB5FDF7D2F8002298
:1030200008212248FEF7FEFF642004F0B3FC0122D1
:1030300008211E48FEF7F6FF642004F0ABFCFDF704
:10304000C2F81B4800788DF80000194840788DF8C8
:103050000100174880788DF802001548C0788DF877
:103060000300134800798DF80400114840798DF869
:1030700005001048104908600120486081030E488F
:103080008160C910C16000210182C0F814D0012103
:1030900081610021C1614FF400010162FEF7A6FACF
:1030A00008B900201CBD0120FCE700000000024020
:1030B00000AD012000800240140300201CB5002058
:1030C0000090019008480949086048F69F40486010
:1030D00000210648816040F2F311C160FFF73CFD1A
:1030E0000248FFF789FD1CBD001000409803002036
:1030F00000BFFEE77047000002480068C0F30220EE
:10310000704700000CED00E010B5002807DA0A0750
:10311000140E054A00F00F031B1FD45403E00A07E6
:10312000130E024A135410BD18ED00E000E400E055
:1031300000BF00BF00BFBFF34F8F00BF00BF00BF85
:103140000948006800F4E06008490843001D06498A
:10315000086000BF00BF00BFBFF34F8F00BF00BFBC
:1031600000BF00BF00BFFDE70CED00E00000FA0566
:103170007047000010B5A8B0A0216846FDF784F89C
:10318000282269460A4800F0F7FA9DED1E0B09480F
:1031900080ED000B9DED200B80ED020B9DED220BD1
:1031A00080ED040B9DF87040204628B010BD000053
:1031B000000006083800002010B5A8B00446A02181
:1031C0006846FDF761F8282269460D4800F0D4FAF8
:1031D0000C4880F868400C4890ED000B8DED1E0BFC
:1031E00090ED020B8DED200B90ED040B8DED220B7D
:1031F00028226946024800F0F7FA28B010BD000006
:1032000000000608F80100203800002000B5ABB02F
:10321000A02102A8FDF738F8282202A9AE4800F044
:10322000ABFA882204A9AD48FDF715F800BF0420C9
:10323000012806D0022818D003282AD0042850D10B
:103240003BE0A7A002F028FEA44890ED060B8DED10
:10325000000B90ED041BB0EE410AF0EE610A53EC56
:10326000102BA2A002F018FE4FE0A6A002F014FE60
:103270009A4890ED060B8DED000B90ED041BB0EE1F
:10328000410AF0EE610A53EC102B98A002F004FE04
:103290003BE09EA002F000FE904890ED060B8DED05
:1032A000000B90ED041BB0EE410AF0EE610A53EC06
:1032B000102B8EA002F0F0FD27E096A002F0ECFDAE
:1032C000864890ED060B8DED000B90ED041BB0EEE3
:1032D000410AF0EE610A53EC102B84A002F0DCFDF1
:1032E00013E08FA002F0D8FD7C4890ED060B8DED29
:1032F000000B90ED041BB0EE410AF0EE610A53ECB6
:10330000102B7AA002F0C8FD00BF00BF00BF00BFB5
:103310000420012806D0022818D003282AD0042827
:1033200050D13BE06EA002F0B7FD6C4890ED0E0B63
:103330008DED000B90ED0C1BB0EE410AF0EE610A32
:1033400053EC102B7AA002F0A7FD4FE06DA002F025
:10335000A3FD624890ED0E0B8DED000B90ED0C1B64
:10336000B0EE410AF0EE610A53EC102B70A002F0AF
:1033700093FD3BE065A002F08FFD584890ED0E0BE9
:103380008DED000B90ED0C1BB0EE410AF0EE610AE2
:1033900053EC102B66A002F07FFD27E05DA002F049
:1033A0007BFD4E4890ED0E0B8DED000B90ED0C1B50
:1033B000B0EE410AF0EE610A53EC102B5CA002F073
:1033C0006BFD13E056A002F067FD444890ED0E0B34
:1033D0008DED000B90ED0C1BB0EE410AF0EE610A92
:1033E00053EC102B52A002F057FD00BF00BF00BFEE
:1033F00000BF0420012806D0022818D003282AD0B4
:10340000042850D13BE036A002F046FD334890ED51
:10341000160B8DED000B90ED141BB0EE410AF0EE93
:10342000610A53EC102B48A002F036FD4FE035A0A6
:1034300002F032FD294890ED160B8DED000B90ED5A
:10344000141BB0EE410AF0EE610A53EC102B3EA0C3
:1034500002F022FD3BE02DA002F01EFD1F4890ED82
:10346000160B8DED000B90ED141BB0EE410AF0EE43
:10347000610A53EC102B34A002F00EFD27E025A0CA
:1034800002F00AFD154890ED160B8DED000B90ED46
:10349000141BB0EE410AF0EE610A53EC102B2AA087
:1034A00002F0FAFC13E01EA002F0F6FC0B4890EDCF
:1034B000160B8DED000B90ED141BB0EE410AF0EEF3
:1034C000610A53EC102B20A002F0E6FC00BF00BF05
:1034D00000BF2BB000BD000000000608F80100206E
:1034E0005B4572726F725D3A00000000415F484FA9
:1034F0006666203D2025662C2042203D2025660D55
:103500000A0000005B5741524E5D3A005B494E464F
:103510004F5D3A005B44454255475D3A000000006C
:103520005B556E6B6E6F776E204D73675D3A000072
:10353000415F4C4F6666203D2025662C2042203D91
:103540002025660D0A000000415F524F6666203D4F
:103550002025662C2042203D2025660D0A00000013
:1035600001463A48814201D20020704738488142E2
:1035700001D20120F9E73748814201D20220F4E765
:103580003548814201D20320EFE73448814201D21D
:103590000420EAE73248814201D20520E5E73148BC
:1035A000814201D20620E0E72F48814201D2072064
:1035B000DBE72E48814201D20820D6E72C48814221
:1035C00001D20920D1E72B48814201D20A20CCE761
:1035D000B1F1016F01D20B20C7E72748814201D228
:1035E0000C20C2E72548814201D20D20BDE72448C6
:1035F000814201D20E20B8E72248814201D20F2039
:10360000B3E72148814201D21020AEE71F48814232
:1036100001D21120A9E71E48814201D21220A4E75D
:103620001C48814201D213209FE71B48814201D2EE
:1036300014209AE71948814201D2152095E71848CD
:10364000814201D2162090E717208EE70040000843
:103650000080000800C00008000001080000020807
:1036600000000408000006080000080800000A081E
:1036700000000C0800000E08004010080080100830
:1036800000C0100800001108000012080000140813
:10369000000016080000180800001A0800001C08A6
:1036A00000001E0800B5A9B0A0216846FCF7ECFD9B
:1036B00028226946074800F05FF82022064904A83E
:1036C000FCF7C9FD28226946024800F08DF829B0B0
:1036D00000BD0000000006080002002000B5A9B0EF
:1036E000A0216846FCF7D0FD28226946074800F073
:1036F00043F8202206490CA8FCF7ADFD28226946B4
:10370000024800F071F829B000BD00000000060872
:103710002002002000B5A9B0A0216846FCF7B4FD46
:1037200028226946054800F027F80E2224A90448FB
:10373000FCF791FD0248007829B000BD00000608A2
:1037400010AE01200FB5A9B0A0216846FCF79CFD82
:1037500028226946074800F00FF80E2229A924A85C
:10376000FCF779FD28226946024800F03DF82DB0AB
:1037700000BD0000000006082DE9F04107460D4697
:103780001646012003F083FC002406E0384600F0D2
:103790000BF845F824003F1D641CB442F6D300200A
:1037A00003F075FCBDE8F081014608687047000031
:1037B00000B5A9B0A0216846FCF766FD282269463D
:1037C0000748FFF7D9FF2022064914A8FCF743FD5C
:1037D00028226946024800F007F829B000BD000021
:1037E00000000608400200202DE9F04387B004469F
:1037F0000E461746012003F04AFC4FF00009002056
:10380000019000258046B4F1006F02D304F003005C
:1038100010B107B0BDE8F083FEF7C8FA254604EB07
:103820008708204885421DD219E02846FFF7BCFFD3
:10383000401C78B1002002902846FFF791FE0490CA
:10384000012005900220069001A902A8FEF700FAC7
:1038500008B106E02D1D4CF25030FDF77DFD4545C9
:10386000E3D300BF4CF25030FDF776FD8146B9F14D
:10387000000F0FD10BE0D6F800C0624600232146AE
:103880000220FEF747FA00B103E0241D361D44452F
:10389000F1D300BFFEF734FA002003F0F8FB00BFBD
:1038A000B7E700000000FF1F704700002DE9F0415E
:1038B00092B00546884616461F46002400BF0020E9
:1038C00000902648006840F080502449086008466F
:1038D000006800F08050009000BF00BF00BF0020D3
:1038E00000901F48006840F440401D4908600846A9
:1038F000006800F44040009000BF00BF0120069027
:10390000079002200C9041050D91CDF838800F955D
:103910001096119706A8FEF7EBFE04460CB100BF07
:10392000FEE7FEF799FC04460CB100BFFEE70F204E
:10393000019002200290002003904FF4A0500490C8
:103940004FF480500590052101A8FEF7D7FC0446EE
:103950000CB100BFFEE712B0BDE8F0814038024074
:103960000070004010B5FEF7DFFB10BD1448006882
:1039700040F47000124908601248006840F00100ED
:103980001049086000200F49083108600D480068A0
:103990000D4908400B4908600C48091D0860081FC4
:1039A000006820F48020091F0860002005490C31C0
:1039B00008604FF0006002498039086070470000DD
:1039C00088ED00E000380240FFFFF6FE10300024D2
:1039D00010B50248FFF720F910BD00005C0300207D
:1039E00070B505460C46074807490860084644601C
:1039F00000218160C5600161FFF7AEF80248FFF762
:103A0000FBF870BD000400405C03002010B50248C4
:103A1000FFF702F910BD00009803002000220268A1
:103A20002C4B98420ED0B0F1804F0BD02A4B9842CD
:103A300008D02A4B984205D0294B984202D0294BF6
:103A4000984201D1012300E000231BB122F0700253
:103A50004B681A431F4B984220D0B0F1804F1DD0C5
:103A60001D4B98421AD01D4B984217D01C4B9842C0
:103A700014D01C4B984211D01B4B98420ED01B4BBC
:103A800098420BD01A4B984208D01A4B984205D056
:103A9000194B984202D0194B984201D1012300E002
:103AA00000231BB122F44072CB681A4302608B687A
:103AB000C3620B688362074B984202D0094B98425D
:103AC00001D1012300E000230BB10B690363012343
:103AD00043617047000001400004004000080040BE
:103AE000000C00400004014000400140004401403F
:103AF0000048014000180040001C00400020004029
:103B00002DE9F041044600252068056925F440555B
:103B1000E0680543206805612068C56849F20C60CB
:103B200085432169A068084361690843E169084346
:103B300005432068C5602068456925F44075A06983
:103B4000054320684561E069B0F5004F72D17349C3
:103B50002068884203D072492068884234D1FEF739
:103B600057FD00EBC00101EB001061684900B0FB9C
:103B7000F1F06421B0FBF1F6FEF74AFD00EBC00165
:103B800001EB001061684900B0FBF1F7FEF740FD62
:103B900000EBC00101EB001061684900B0FBF1F0DF
:103BA0006421B0FBF1F000EBC00101EB0010A7EBCA
:103BB0008000322101EB00106421B0FBF1F066F3CC
:103BC0001F1021688860A6E0FEF70CFD00EBC00125
:103BD00001EB001061684900B0FBF1F06421B0FB1B
:103BE000F1F6FEF7FFFC00EBC00101EB001061688D
:103BF0004900B0FBF1F7FEF7F5FC00EBC00101EB6B
:103C0000001061684900B0FBF1F06421B0FBF1F0F5
:103C100000EBC00101EB0010A7EB8000322101EBAB
:103C200000106421B0FBF1F066F31F10216888607A
:103C300071E0FFE739492068884203D0384920689D
:103C4000884234D1FEF7E4FC00EBC00101EB001028
:103C500061688900B0FBF1F06421B0FBF1F6FEF77A
:103C6000D7FC00EBC00101EB001061688900B0FBDC
:103C7000F1F7FEF7CDFC00EBC00101EB001061682D
:103C80008900B0FBF1F06421B0FBF1F000EBC00162
:103C900001EB0010A7EB8000322101EB0010642142
:103CA000B0FBF1F066F31F102168886033E0FEF787
:103CB00099FC00EBC00101EB001061688900B0FBCA
:103CC000F1F06421B0FBF1F6FEF78CFC00EBC001D3
:103CD00001EB001061688900B0FBF1F7FEF782FC90
:103CE00000EBC00101EB001061688900B0FBF1F04E
:103CF0006421B0FBF1F000EBC00101EB0010A7EB79
:103D00008000322101EB00106421B0FBF1F066F37A
:103D10001F1021688860BDE8F0810000001001409C
:103D2000001401402DE9F04104460E4617461D4699
:103D30004FF00008FEF77CF980469FBB2BE0681C23
:103D400048B32DB1FEF774F9A0EB0800A84222D9C0
:103D50002068C06820F080002168C8602068C068C2
:103D600020F020002168C8602068C06820F48070BE
:103D70002168C8602068406920F00100216848611E
:103D8000012084F8390000BF002084F8380000BF0B
:103D90000320BDE8F081206800683040B04202D1C5
:103DA000012001E003E000200028C8D035E02AE02F
:103DB000681C40B32DB1FEF73BF9A0EB0800A84208
:103DC00021D92068C06820F080002168C860206880
:103DD000C06820F020002168C8602068C06820F416
:103DE00080702168C8602068406920F00100216867
:103DF0004861012084F8390000BF002084F83800B1
:103E000000BF0320C5E7206800683040B04201D100
:103E1000012000E000200028CAD10020B9E70000FE
:103E20002DE9F04F8DB0002400200A900B900C90EB
:103E3000079008900990814683460390049005906E
:103E40000690002701900290002500268246F3A1EB
:103E5000F648FCF724FA0646002E16D00A22F4494A
:103E6000F44800680CF0C6F901F058FF00BFF2A258
:103E7000D221FBA002F010F8EE4800680CF0D2FA54
:103E8000012003F007F9FFF753F90026FDA1E748E9
:103E9000FCF705FA0646002E7ED00A22E449E548E2
:103EA00000680CF0A7F906F10E0500BF04200128F8
:103EB00006D002280CD0032812D0042820D117E005
:103EC000F4A001F0E9FF2946F5A001F0E5FF1FE0AD
:103ED000F5A001F0E1FF2946F1A001F0DDFF17E0B8
:103EE000F3A001F0D9FF2946EDA001F0D5FF0FE0C6
:103EF000F1A001F0D1FF2946E9A001F0CDFF07E0D4
:103F0000F0A001F0C9FF2946E5A001F0C5FF00BF00
:103F100000BF00BF0024A0468BE015F808002C2845
:103F200003D015F808002E287DD107A901F80480D8
:103F3000012C1DDB042C1BDC00200A900B900C9044
:103F400007A8035D601E8C461CF80000181A421E6C
:103F5000601E07AB185C2844411C0AA8FCF77BF9DB
:103F60000AA8FCF7C2F9C2B2601E0DF10D010A5495
:103F7000052C1CD100200A900B900C9007A8035D23
:103F8000601E0DF11C0C1CF80000181A421E601E69
:103F900007AB185C284400E06CE0411C0AA8FCF761
:103FA0005AF90AA8FCF7A1F980B2ADF81200062C64
:103FB0001DDB092C1BDC00200A900B900C9007A83D
:103FC000035D601E0DF11C0C1CF80000181A421E47
:103FD000601E07AB185C2844411C0AA8FCF73BF99B
:103FE0000AA8FCF782F9C2B2A01F05A90A540A2C3C
:103FF0001CD100200A900B900C9007A8035D601E56
:104000000DF11C0C1CF80000181A421E601E07ABB4
:10401000185C2844411C0AA8FCF71DF90AA8FCF703
:1040200064F980B200E002E0ADF81800641C08F109
:1040300001082846FCF745F940453FF66EAF0120E0
:104040008DF80C0003A80FC8FFF77CFB5146002039
:1040500007F0F8FA00BF78A24FF4827180A001F057
:104060001BFF744800680CF0DDF9012003F012F822
:10407000FFF75EF8002697A16C48FCF710F906469A
:10408000002E7DD00A226A496A4800680CF0B2F816
:1040900006F10E0500BF0420012806D002280CD02E
:1040A000032812D0042820D117E07AA001F0F4FEF2
:1040B00029467BA001F0F0FE1FE07BA001F0ECFEA2
:1040C000294677A001F0E8FE17E079A001F0E4FEB0
:1040D000294673A001F0E0FE0FE077A001F0DCFEBE
:1040E00029466FA001F0D8FE07E076A001F0D4FECB
:1040F00029466BA001F0D0FE00BF00BF00BF002426
:10410000A04669E015F808002C2863D107A901F83A
:104110000480012C1BD100200A900B900C9007A862
:10412000035D601E8C461CF80000181A421E601EBB
:1041300007AB185C2844411C0AA8FCF78CF80AA8B5
:10414000FCF7D3F80090FCF765FA664A03C2022C2C
:104150001FD100200A900B900C9007A8035D601EF1
:104160000DF11C0C1CF80000181A421E601E07AB53
:10417000185C2844411C0AA8FCF76DF80AA800E066
:1041800032E0FCF7B2F80090FCF744FA554AC2E975
:104190000201032C1DD100200A900B900C9007A85F
:1041A000035D601E0DF11C0C1CF80000181A421E65
:1041B000601E07AB185C2844411C0AA8FCF74BF8AA
:1041C0000AA8FCF792F80090FCF724FA454AC2E9E5
:1041D0000401641C08F101082846FCF772F8404508
:1041E00090D80120FEF7E8FF00263FA10F48FCF71A
:1041F00056F80646002E7FD00A220D490D48006869
:104200000BF0F8FF06F10E0500BF0420012879D05D
:10421000022873D0032872D0042871E048442D523C
:104220006F626F742D436D643D31000048AD012015
:1042300026010020300100202E2E5C4C5749505C96
:104240006C7769705F6170705C7564705F64656DD8
:104250006F5C7564705F64656D6F2E6300000000B5
:104260000D0A5265626F6F7420646576696365201C
:104270006174206C696E6520256420696E20257349
:104280000D0A000048442D526F626F742D436D6417
:104290003D322C005B4572726F725D3A0000000087
:1042A00025730D0A000000005B5741524E5D3A0035
:1042B0005B494E464F5D3A005B44454255475D3A87
:1042C000000000005B556E6B6E6F776E204D73675C
:1042D0005D3A000048442D526F626F742D436D6447
:1042E0003D332C003800002048442D526F626F741B
:1042F0002D436D643D342C0026E203E00CE015E014
:1043000028D11DE0AFF2740001F0C6FD2946AFF2DE
:10431000700001F0C1FD27E0AFF2740001F0BCFDB8
:104320002946AFF2840001F0B7FD1DE0AFF2800036
:1043300001F0B2FD2946AFF2980001F0ADFD13E0A7
:10434000AFF28C0001F0A8FD2946AFF2AC0001F0FD
:10435000A3FD09E0AFF2940001F09EFD2946AFF203
:10436000C00001F099FD00BF00BF00BF0024A046BF
:10437000E1E115F808002C287ED107A901F8048096
:10438000012C57D100200A900B900C9007A8035DD8
:10439000601E8C461CF80000181A421E601E07ABF7
:1043A000185C2844411C0AA8FBF755FF0AA8FBF734
:1043B0009CFFFE49087000BF0420012806D0022897
:1043C0000ED0032816D0042828D11DE0AFF23C10EF
:1043D00001F062FDF5480178F5A001F05DFD27E0F0
:1043E000AFF23C1001F058FDF0480178F0A001F068
:1043F00053FD1DE0AFF2481001F04EFDEB4801788F
:10440000EBA001F049FD13E0AFF2541001F044FDC0
:10441000E6480178E6A001F03FFD09E0AFF25C104C
:1044200001F03AFDE1480178E1A001F035FD00BF5F
:1044300000BF00BF022C7FD100200A900B900C908F
:1044400007A8035D601E0DF11C0C1CF80000181A73
:10445000421E601E07AB185C2844411C0AA8FBF7EB
:10446000FAFE0AA8FBF741FF0090FCF7D3F8CF4A09
:1044700009321060516000E05BE100BF04200128B8
:1044800006D0022814D0032822D0042840D12FE0DF
:10449000AFF2002001F000FDC44909310868496805
:1044A00041EC100B53EC102BC6A001F0F5FC3FE0E3
:1044B000AFF20C2001F0F0FCBC49093108684968F2
:1044C00041EC100B53EC102BBEA001F0E5FC2FE0EB
:1044D000AFF2242001F0E0FCB449093108684968D2
:1044E00041EC100B53EC102BB6A001F0D5FC1FE0F3
:1044F000AFF23C2001F0D0FCAC49093108684968B2
:1045000041EC100B53EC102BAEA001F0C5FC0FE0FA
:10451000AFF2502001F0C0FCA44909310868496895
:1045200041EC100B53EC102BA6A001F0B5FC00BF22
:1045300000BF00E000E000BF032C7BD100200A9008
:104540000B900C9007A8035D601E0DF11C0C1CF86D
:104550000000181A421E601E07AB185C2844411C5C
:104560000AA8FBF778FE0AA8FBF7BFFE0090FCF74D
:1045700051F88E4A11321060516000BF04200128AA
:1045800006D0022814D0032822D0042840D12FE0DE
:10459000AFF2003001F080FC8449113108684968AD
:1045A00041EC100B53EC102B8DA001F075FC3FE09B
:1045B000AFF20C3001F070FC7C4911310868496899
:1045C00041EC100B53EC102B85A001F065FC2FE0A3
:1045D000AFF2243001F060FC744911310868496879
:1045E00041EC100B53EC102B7DA001F055FC1FE0AB
:1045F000AFF23C3001F050FC6C4911310868496859
:1046000041EC100B53EC102B75A001F045FC0FE0B2
:10461000AFF2503001F040FC64491131086849683C
:1046200041EC100B53EC102B6DA001F035FC00BFDA
:1046300000BF00BF042C7BD100200A900B900C908F
:1046400007A8035D601E0DF11C0C1CF80000181A71
:10465000421E601E07AB185C2844411C0AA8FBF7E9
:10466000FAFD0AA8FBF741FE0090FBF7D3FF4F4A83
:10467000521C1060516000BF0420012806D002289F
:1046800014D0032822D0042840D12FE0AFF2FC3010
:1046900001F002FC4549491C0868496841EC100BCF
:1046A00053EC102B55A001F0F7FB3FE0AFF20840B0
:1046B00001F0F2FB3D49491C0868496841EC100BC8
:1046C00053EC102B4DA001F0E7FB2FE0AFF22040A0
:1046D00001F0E2FB3549491C0868496841EC100BC0
:1046E00053EC102B45A001F0D7FB1FE0AFF2384090
:1046F00001F0D2FB2D49491C0868496841EC100BB8
:1047000053EC102B3DA001F0C7FB0FE0AFF24C4083
:1047100001F0C2FB2549491C0868496841EC100BAF
:1047200053EC102B35A001F0B7FB00BF00BF00BF5A
:10473000641C08F101082846FBF7C3FD40453FF61D
:1047400018AE012033490870002633A13348FBF727
:10475000A6FD0646002E7CD01921002006F084FF1D
:104760000746002F76D019213846FBF78DFD002033
:1047700001900290192231463846FBF76CFD27481C
:10478000016801918088ADF8080097F80290B9F1AE
:10479000010F4DD0B9F1020F75D0B9F1030F73D0ED
:1047A000B9F1FE0F71D1B7F8170039E09902002076
:1047B000466F6C6C6F774D6F6465203D2025640DEE
:1047C0000A000000415F7374616E646172645F642B
:1047D000697374616E6365203D2025660D0A0000D3
:1047E000425F7374616E646172645F646973746163
:1047F0006E6365203D2025660D0A00007374616EAE
:10480000646172645F616E676C65203D2025660D92
:104810000A0000000E0000204844000048AD0120BE
:1048200044F22521884202D1384600F047F907E1D9
:10483000BDF8070044F22521884253D100BF04206F
:10484000012808D002280ED0032814D0042825D12E
:104850001CE0FAE0F5E0AFF2C45001F01DFB7DA0D2
:1048600001F01AFB22E0AFF2C05001F015FB79A075
:1048700001F012FB1AE0AFF2C85001F00DFB75A079
:1048800001F00AFB12E02EE083E0D8E0AFF2D8504E
:1048900001F002FB6FA001F0FFFA07E0AFF2DC507D
:1048A00001F0FAFA6BA001F0F7FA00BF00BF00BFF9
:1048B0006C4800210160017144F248406949088058
:1048C00044F22520A1F80300012088700A226649DD
:1048D000664800680BF08EFC052262496348006858
:1048E0000BF08AFBACE0BDF8070044F225218842BA
:1048F0004ED100BF0420012806D002280CD0032886
:1049000012D0042820D117E0AFF2786001F0C4FA89
:1049100057A001F0C1FA1FE0AFF2746001F0BCFAD9
:1049200053A001F0B9FA17E0AFF27C6001F0B4FADD
:104930004FA001F0B1FA0FE0AFF2846001F0ACFAE1
:104940004BA001F0A9FA07E0AFF2886001F0A4FAE9
:1049500047A001F0A1FA00BF00BF00BF41480021FD
:104960000160017144F248403E49088044F225202C
:10497000A1F80300022088700A223B493B480068E6
:104980000BF038FC05223749384800680BF034FB3F
:1049900056E0BDF8070044F2252188424ED100BF01
:1049A0000420012806D002280CD0032812D00428A5
:1049B00020D117E0AFF2247001F06EFA30A001F0C0
:1049C0006BFA1FE0AFF2207001F066FA2CA001F044
:1049D00063FA17E0AFF2287001F05EFA28A001F048
:1049E0005BFA0FE0AFF2307001F056FA24A001F04C
:1049F00053FA07E0AFF2347001F04EFA20A001F054
:104A00004BFA00BF00BF00BF1648002101600171D2
:104A100044F248401349088044F22520A1F80300DD
:104A2000032088700A221049104800680BF0E2FB4E
:104A300005220C490D4800680BF0DEFA00E000BFCB
:104A400000BF3946002006F0FDFD0BF08FFB0DB0D6
:104A5000BDE8F08F204168656164466F6C6C6F77CC
:104A60000D0A00003B01002026010020300100203B
:104A70004C656674466F6C6C6F770D0A0000000021
:104A80005269676874466F6C6C6F770D0A0000009E
:104A90002DE9F04104460D4600262746A846A2B25D
:104AA000731E41460448FEF721FA064616B101205E
:104AB000BDE8F0810020FBE7D402002001B5B8B0CA
:104AC00014212DA8FBF7E0FB282123A8FBF7DCFB32
:104AD000002022909FEDFA0B8DED200B9FEDF80B3F
:104AE0008DED1E0B1D901C901B901A909FEDF60AE9
:104AF0008DED190A9FEDF40A8DED180A9FEDF20A6B
:104B00008DED170A9FEDF00A8DED160A9FEDEE0A66
:104B10008DED150AED48006850B1ED48006838B1D8
:104B2000EA480068EB490860E9480068EA4908601B
:104B30003898D0F80500E54908603898D0F80A00A0
:104B4000E3490860E1480068E2490968401A1390A7
:104B5000002801DB139801E01398404240F2DC5139
:104B600088420FDCDA480068DB490968401A149073
:104B7000002801DB149801E01498404240F2DC5117
:104B8000884204DD0020D1490860D149086000BF97
:104B90000420012806D002280FD0032818D00428AA
:104BA0002CD120E0CDA001F077F9C9480268C748B0
:104BB0000168CDA001F070F92BE0D2A001F06CF9F2
:104BC000C3480268C1480168C7A001F065F920E048
:104BD000CEA001F061F9BE480268BC480168C2A0DD
:104BE00001F05AF915E0CBA001F056F9B848026877
:104BF000B6480168BCA001F04FF90AE0C8A001F076
:104C00004BF9B3480268B1480168B7A001F044F914
:104C100000BF00BF00BFC6480078012878D100BFA0
:104C20000420012806D002280BD0032810D0042825
:104C30001CD114E0A9A001F02FF9BEA001F02CF9BD
:104C40001BE0B0A001F028F9BAA001F025F914E0AA
:104C5000AEA001F021F9B7A001F01EF90DE0ADA062
:104C600001F01AF9B3A001F017F906E0ACA001F0C9
:104C700013F9B0A001F010F900BF00BF00BF9348C6
:104C80000068F0B192480068D8B190480068AE4919
:104C9000884216D28E480068884212D2AB4800681B
:104CA000401CAA490860AA48006888490968084465
:104CB000A7490860A7480068854909680844A549CC
:104CC0000860A24800681428A8D1002098490870FC
:104CD0009E4908609E4800681421B0FBF1F09E498F
:104CE00008609C4800681421B0FBF1F09B49086003
:104CF0000020974908609749086000BF04200128F8
:104D000007D002280ED0032815D0042825D11BE097
:104D1000CCE272A001F0C0F88F48016890A001F0C9
:104D2000BBF823E077A001F0B7F88B4801688CA0AE
:104D300001F0B2F81AE075A001F0AEF886480168FB
:104D400087A001F0A9F811E072A001F0A5F882484F
:104D5000016883A001F0A0F808E071A001F09CF8C0
:104D60007D4801687EA001F097F800BF00BF00BF3A
:104D700000BF0420012806D002280DD0032814D03B
:104D8000042824D11AE055A001F086F87348016880
:104D90007AA001F081F823E05AA001F07DF86F4875
:104DA000016876A001F078F81AE058A001F074F8D4
:104DB0006A48016871A001F06FF811E055A001F098
:104DC0006BF8664801686DA001F066F808E054A031
:104DD00001F062F86148016868A001F05DF800BF69
:104DE00000BF00BF5C480068FBF725FCCDE912015D
:104DF000694908684968CDE910019DED100B53EC35
:104E0000102B9DED120B51EC100BFBF71FFBCDE9A6
:104E1000200152480068FBF70EFCCDE912015E4903
:104E2000083108684968CDE910019DED100B53EC7D
:104E3000102B9DED120B51EC100BFBF707FBCDE98E
:104E40001E019FED560B53EC102B9DED200B51ECEA
:104E5000100BFBF729FC0AD39FED500B53EC102BE2
:104E60009DED1E0B51EC100BFBF71EFC12D22821FE
:104E700023A8FBF709FA4BA123A801F01DF823A8EA
:104E8000FBF71FFA024623A914904F4800680BF065
:104E9000B1F906E240480938007801280AD100BF7C
:104EA0000420012807D0022806D0032805D00428B2
:104EB00004D1A3E0D0E089E090E097E0A6E0000014
:104EC000000000000000000000000000C8000020FA
:104ED000CC000020D0000020D40000205B4572727E
:104EE0006F725D3A00000000415F646973203D20ED
:104EF00025642C20425F646973203D2025640D0ADF
:104F0000000000005B5741524E5D3A005B494E463F
:104F10004F5D3A005B44454255475D3A0000000052
:104F20005B556E6B6E6F776E204D73675D3A000058
:104F30000E00002063616C6962726174696F6E209B
:104F40006D6F64650D0A0000A0860100B8000020A6
:104F50005000002054000020C0000020C4000020A9
:104F6000415F64697374616E63655F436865636B19
:104F700054656D70203D2025640D0A00425F646910
:104F80007374616E63655F436865636B54656D70D0
:104F9000203D2025640D0A00A20200200000000030
:104FA00000407F404572722C415F64697374616E8A
:104FB00063655F4F666673657456616C7565203E08
:104FC000203530300D0A000030010020AFF2F4002F
:104FD00000F062FFFEA000F05FFF1FE0AFF2DC0018
:104FE00000F05AFFFAA000F057FF17E0AFF2E4001C
:104FF00000F052FFF6A000F04FFF0FE0AFF2EC0020
:1050000000F04AFFF2A000F047FF07E0AFF2F00027
:1050100000F042FFEEA000F03FFF00BF00BF00BF66
:105020000120EF490872EF4890ED000B8DED120B57
:105030009DED120B51EC100BFBF74EFB179001216D
:10504000E74841729DED200B80ED040B9DED1E0B9A
:1050500080ED060BFEF726FBE3480078022852D1CC
:1050600000BF0420012806D002280CD0032812D04B
:10507000042820D117E0AFF29C1000F00DFFDBA058
:1050800000F00AFF1FE0AFF2841000F005FFD7A088
:1050900000F002FF17E0AFF28C1000F0FDFED3A08D
:1050A00000F0FAFE0FE0AFF2941000F0F5FECFA092
:1050B00000F0F2FE07E0AFF2981000F0EDFECBA09A
:1050C00000F0EAFE00BF00BF00BF0121C44880F825
:1050D0002810C44890ED020B8DED120B9DED120BC4
:1050E00051EC100BFBF7F8FA17900221BC4880F83E
:1050F00029109DED200B80ED0C0B9DED1E0B80ED1E
:105100000E0BFEF7EBFAB8480078032852D100BF27
:105110000420012806D002280CD0032812D004282D
:1051200020D117E0AFF24C2000F0B6FEB2A000F0A4
:10513000B3FE1FE0AFF2342000F0AEFEAEA000F0F0
:10514000ABFE17E0AFF23C2000F0A6FEAAA000F0F4
:10515000A3FE0FE0AFF2442000F09EFEA6A000F0F8
:105160009BFE07E0AFF2482000F096FEA2A000F000
:1051700093FE00BF00BF00BF0121994880F848108E
:10518000984890ED040B8DED120B9DED120B51EC38
:10519000100BFBF7A1FA17900321914880F84910F2
:1051A0009DED200B80ED140B9DED1E0B80ED160B7D
:1051B000FEF7FEFA282123A8FBF766F800BF0420BB
:1051C000012806D0022814D0032822D0042840D178
:1051D0002FE0AFF2F82000F05FFE9DED1E0B8DED8D
:1051E000000B9DED200B53EC102B87A000F054FE1C
:1051F0003FE0AFF2F02000F04FFE9DED1E0B8DED75
:10520000000B9DED200B53EC102B7FA000F044FE13
:105210002FE0AFF2083000F03FFE9DED1E0B8DED4C
:10522000000B9DED200B53EC102B77A000F034FE0B
:105230001FE0AFF2203000F02FFE9DED1E0B8DED34
:10524000000B9DED200B53EC102B6FA000F024FE03
:105250000FE0AFF2343000F01FFE9DED1E0B8DED20
:10526000000B9DED200B53EC102B67A000F014FEFB
:1052700000BF00BF00BF9DED1E0B8DED000B9DED2F
:10528000200B53EC102B60A123A800F015FE23A8DF
:10529000FBF717F8024623A91490634800680AF048
:1052A000A9FF0020614908606149086000214C485D
:1052B000817280F82A1080F84A105E4880780128B0
:1052C00059D14748807AE8BB5B480068FBF7B3F9DF
:1052D000CDE91001424890ED040B8DED0E0B9DEDD4
:1052E0000E0B53EC102B9DED100B51EC100BFBF73C
:1052F00009F8CDE912019DED120B51EC100BFBF7F3
:10530000EBF919904D480068FBF795F9CDE91001CC
:10531000334890ED060B8DED0E0B9DED0E0B53EC0F
:10532000102B9DED100B51EC100BFAF7EBFFCDE9B4
:1053300012019DED120B51EC100BFBF7CDF91890FB
:10534000284800E017E090ED000B8DED120B9DED6D
:10535000120B51EC100BFBF7BFF91790204890EDA2
:10536000080B8DED120B9DED120B51EC100BFBF7A2
:10537000B3F9159010E22F48807801287ED11848A3
:10538000807A01287AD12D480068FBF754F9CDE9DD
:105390001001134890ED060B8DED0E0B9DED0E0BDD
:1053A00053EC102B9DED100B51EC100BFAF7AAFFEC
:1053B000CDE912019DED120B51EC100BFBF78CF9AE
:1053C00019901D480068FBF736F9CDE9100137E068
:1053D0006168656164206D6F64650D0A00000000FE
:1053E000F801002038000020990200206C656674E6
:1053F000206D6F64650D0A007269676874206D6FB7
:1054000064650D0A00000000415F6F666673657495
:10541000203D2025662C20425F6F666673657420F0
:105420003D2025660D0A000030010020C00000204C
:10543000C40000203B010020C8000020CC00002058
:10544000FE4890ED040B8DED0E0B9DED0E0B53EC15
:10545000102B9DED100B51EC100BFAF753FFCDE91B
:1054600012019DED120B51EC100BFBF735F9189062
:10547000F34890ED000B8DED120B00E013E09DED75
:10548000120B51EC100BFBF727F91790EB4890ED3E
:10549000080B8DED120B9DED120B51EC100BFBF771
:1054A0001BF9159078E1E748807802285AD1E34843
:1054B00090F82A00E8BBE4480068FBF7BCF8CDE9A7
:1054C0001001DE4890ED0C0B8DED0E0B9DED0E0BDB
:1054D00053EC102B9DED100B51EC100BFAF712FF53
:1054E000CDE912019DED120B51EC100BFBF7F4F816
:1054F0001990D6480068FBF79EF8CDE91001CF4817
:1055000090ED0E0B8DED0E0B9DED0E0B53EC102B55
:105510009DED100B51EC100BFAF7F4FECDE91201E2
:105520009DED120B51EC100BFBF7D6F81890C44808
:1055300000E017E090ED020B8DED120B9DED120BCC
:1055400051EC100BFBF7C8F81790BC4890ED100B0E
:105550008DED120B9DED120B51EC100BFBF7BCF80F
:10556000159019E1B7488078022859D1B34890F8CE
:105570002A00012854D1B5480068FBF75CF8CDE952
:105580001001AE4890ED0E0B8DED0E0B9DED0E0B48
:1055900053EC102B9DED100B51EC100BFAF7B2FEF3
:1055A000CDE912019DED120B51EC100BFBF794F8B5
:1055B0001990A5480068FBF73EF8CDE910019F4817
:1055C00090ED0C0B8DED0E0B9DED0E0B53EC102B97
:1055D0009DED100B51EC100BFAF794FECDE9120182
:1055E0009DED120B51EC100BFBF776F818909448D8
:1055F00090ED020B8DED120B9DED120B51EC100B8B
:10560000FBF76AF817908D4890ED100B8DED120B9B
:105610009DED120B51EC100BFBF75EF81590BBE003
:105620008848807803285AD1844890F84A00E8BB1B
:1056300085480068FAF7FFFFCDE910017F4890ED3B
:10564000140B8DED0E0B9DED0E0B53EC102B9DED01
:10565000100B51EC100BFAF755FECDE912019DED40
:10566000120B51EC100BFBF737F8199077480068D4
:10567000FAF7E1FFCDE91001704890ED160B8DEDC2
:105680000E0B9DED0E0B53EC102B9DED100B51EC02
:10569000100BFAF737FECDE912019DED120B51EC1C
:1056A000100BFBF719F81890654800E017E090ED33
:1056B000040B8DED120B9DED120B51EC100BFBF753
:1056C0000BF817905D4890ED180B8DED120B9DEDCA
:1056D000120B51EC100BFAF7FFFF15905CE05948E4
:1056E0008078032858D1554890F84A00012853D1B2
:1056F00056480068FAF79FFFCDE910014F4890ED3A
:10570000160B8DED0E0B9DED0E0B53EC102B9DED3E
:10571000100B51EC100BFAF7F5FDCDE912019DEDE0
:10572000120B51EC100BFAF7D7FF1990464800689E
:10573000FAF781FFCDE91001404890ED140B8DED93
:105740000E0B9DED0E0B53EC102B9DED100B51EC41
:10575000100BFAF7D7FDCDE912019DED120B51ECBC
:10576000100BFAF7B9FF1890354890ED040B8DED4A
:10577000120B9DED120B51EC100BFAF7ADFF1790C9
:105780002E4890ED180B8DED120B9DED120B51EC88
:10579000100BFAF7A1FF1590182132A8FAF774FD43
:1057A0003898C0788DF8CA00389800798DF8CB0009
:1057B0003898407A8DF8D000224880788DF8D9004A
:1057C0003898807D8DF8DA0044F24840ADF8C80082
:1057D00044F22520ADF8DB009DED190ADDED180A35
:1057E00070EE200A9DED170AF4EEC00AF1EE10FAF1
:1057F0007DDD9DED190ADDED170A70EE200A9DEDA5
:10580000180AF4EEC00AF1EE10FAF1DD9DED180A67
:10581000DDED170A70EE200A9DED190AF4EEC00ABC
:10582000F1EE10FAE4DD9DED190AF0EE000A60EEEB
:10583000200A9DED170A20EE800A09E0F8010020F9
:10584000380000203B010020C8000020CC000020D0
:105850008DED090A0998FAF7FBFECDE90C011898BD
:10586000FAF7F6FE9FEDDA1BCDE904019DED040B7E
:1058700000F0FEFC8DED080B1798FAF7E9FE9FED9E
:10588000D41BCDE900019DED000B00F0F1FC8DED86
:10589000040B1998FAF7DCFE9FEDCD1BCDE9000152
:1058A0009DED000B00F0E4FC8DED020B9DED040B73
:1058B00053EC102B9DED020B51EC100BFAF722FD6F
:1058C000CDE906019DED080B53EC102B9DED060B69
:1058D00051EC100BFAF7B7FDCDE90A019DED0C0B69
:1058E00053EC102B9DED0A0B51EC100B00E0E7E0A0
:1058F000FAF721FECDE90E019DED0E0B00F00CFB39
:105900008DED100B9FEDB40B53EC102B9DED100B98
:1059100051EC100BFAF79DFDCDE912019DED120B34
:1059200051EC100BFAF7D8FE169000BF04200128A6
:1059300006D0022827D0032848D004287DD168E06B
:10594000AFF6682000F0A8FA1898FAF781FECDE9C2
:1059500012011998FAF77CFECDE910011698FAF7B2
:1059600077FECDE90E01DDE91201CDE90201DDE9A5
:105970001001CDE900019DED0E0B53EC102B98A00A
:1059800000F08AFA8DE0AFF6842000F085FA1898CE
:10599000FAF75EFECDE912011998FAF759FECDE942
:1059A00010011698FAF754FECDE90E01DDE9120157
:1059B000CDE90201DDE91001CDE900019DED0E0BFD
:1059C00053EC102B86A000F067FA6AE0AFF6C42013
:1059D00000F062FA1898FAF73BFECDE91201199827
:1059E000FAF736FECDE910011698FAF731FECDE947
:1059F0000E01DDE91201CDE90201DDE91001CDE979
:105A000000019DED0E0B53EC102B75A000F044FA35
:105A100047E0AFF6003000F03FFA1898FAF718FEAA
:105A2000CDE912011998FAF713FECDE91001169885
:105A3000FAF70EFECDE90E0100E00FE0DDE91201FC
:105A4000CDE90201DDE91001CDE900019DED0E0B6C
:105A500053EC102B62A000F01FFA22E0AFF64030AA
:105A600000F01AFA1898FAF7F3FDCDE91201199827
:105A7000FAF7EEFDCDE910011698FAF7E9FDCDE948
:105A80000E01DDE91201CDE90201DDE91001CDE9E8
:105A900000019DED0E0B53EC102B51A000F0FCF912
:105AA00000BF00BF00BF9DED160ADFED530A20EED8
:105AB000200ABCEEC00A10EE100ACDF8D50037E07F
:105AC0000020CDF8D50000BF0420012806D0022810
:105AD0000CD0032812D0042820D117E0AFF60440E0
