:020000040801F1
:1000000030B30120D1010108353001081D2F01084E
:1000100031300108730B0108E14A010800000000BB
:10002000000000000000000000000000C1340108D2
:10003000770B010800000000B13001087D35010890
:10004000EB010108EB010108EB010108EB010108DC
:10005000EB010108EB010108EB010108EB010108CC
:10006000EB010108EB010108EB010108EB010108BC
:10007000EB010108EB010108EB010108EB010108AC
:10008000EB010108EB010108EB010108EB0101089C
:10009000EB010108EB010108EB010108F90F010870
:1000A000EB010108EB010108EB010108EB0101087C
:1000B000EB010108E9350108EB010108EB0101083A
:1000C000EB010108EB010108EB010108EB0101085C
:1000D000EB010108EB010108EB010108EB0101084C
:1000E000EB010108EB010108EB010108EB0101083C
:1000F000EB010108EB010108EB010108EB0101082C
:10010000EB010108EB010108EB010108EB0101081B
:10011000EB010108EB01010825360108EB0101089C
:10012000EB010108EB010108EB010108EB010108FB
:10013000EB010108A90C0108EB010108EB01010822
:10014000EB010108EB010108EB010108EB010108DB
:10015000EB010108EB010108EB010108EB010108CB
:10016000EB010108EB010108EB010108EB010108BB
:10017000EB010108EB010108EB01010800000000A0
:10018000EB010108EB010108EB010108EB0101089B
:10019000EB010108EB010108EB010108EB0101088B
:1001A000EB010108EB010108EB010108DFF80CD0BD
:1001B00000F0F0FB00480047A992010830B301208D
:1001C00030BF72B6704762B6704780F308887047D8
:1001D0000648804706480047FEE7FEE7FEE7FEE7E1
:1001E000FEE7FEE7FEE7FEE7FEE7FEE785350108EE
:1001F000AD0101082DE9F05F0546002092469B46BF
:1002000088460646814640241BE02846414647462C
:10021000224600F0A2FA53465A46C01A914110D322
:1002200011461846224600F089FA2D1A67EB01089C
:100230004F4622460120002100F080FA17EB00090A
:100240004E41201EA4F10104DFDC484631462A4617
:100250004346BDE8F09F40EA01039B0703D009E055
:1002600008C9121F08C0042AFAD203E011F8013BA2
:1002700000F8013B521EF9D27047D2B201E000F8FB
:10028000012B491EFBD270470022F6E710B513463A
:100290000A4604461946FFF7F0FF204610BD30B568
:1002A00005462A460B4612F8010B13F8014B08B11C
:1002B000A042F8D01CB1002802D06D1CF1E72846FE
:1002C00030BD421C10F8011B0029FBD1801A704779
:1002D00030B504460020034600E05B1C934203D285
:1002E000E05CCD5C401BF8D030BD70B5064604F034
:1002F0007DFC046805460A220021304600F04FFAD2
:100300002C6070BD2DE9FE4F804681EA0300C00FCE
:100310000C46009021F0004123F00045B8EB0200AC
:10032000A94105D24046214690461C460B4602464E
:1003300023F00040104347D0270DC7F30A00C3F352
:100340000A510290401A019040286BDAC3F313005F
:1003500040F4801B0098924620B10023D2EB030AA0
:1003600063EB0B0B01985946C0F14002504600F078
:10037000E5F906460D4650465946019A00F0FDF94A
:1003800010EB08006141002487EA115284EAE77308
:100390001A4340D0009A62B3019A012A4FEA0752E9
:1003A00015DC001B61EB02014FF0004202EA07522C
:1003B000CDE90042001C41F5801132462B4600F089
:1003C0006CFA03B0BDE8F08F40462146F9E7001B08
:1003D00061EB0201001C41F5801300185B412018FD
:1003E000A2F5001747EB030140EAD570B6196D413D
:1003F00011E06D084FEA360645EAC0754FEA07522C
:10040000001B61EB0201001C41F5801149084FEA15
:1004100030000019514132462B4603B0BDE8F04F81
:1004200000F02CBA0098012240000023D0EB020219
:1004300063EBE073009821464FEAE074B8EB0000EC
:1004400061EB0401E9E783F000435BE781F00041E1
:1004500058E72DE9FE4F81EA030404F0004421F03F
:10046000004100944FF0000B23F0004350EA0104D8
:100470005ED052EA03045BD0C3F30A54C1F30A55B9
:100480002C44A4F2F3340194A0FB0254C1F31301F1
:1004900041F48011C3F3130343F4801301FB0244BE
:1004A00000FB034E840A970A44EA815447EA8357C3
:1004B000A4FB076802958D0A05FB07854FEA932C7C
:1004C00004FB0C542705029D4FEA065847EA1637ED
:1004D000B5EB08056EEB070C870E920E47EA811705
:1004E00042EA8312A7FB0201B6EB0B0164EB0004A6
:1004F0002B0D43EA0C335E1844EB1C50DA46514690
:10050000E7FB0201C5F313044FEA0B3343EA14532C
:100510004FEA0432019C43EA0603A4F10C0402945E
:10052000009CCDE900B400F0B8F903B0BDE8F08F4D
:1005300000200146F9E72DE9F04D81EA030404F0BB
:10054000004B21F0004514464FF0000A23F0004113
:1005500050EA050220D054EA01021DD0C5F30A5723
:100560000246C5F31303C1F31300C1F30A5640F466
:10057000801543F48013A7EB0608101BD64608F23B
:10058000FD3873EB050002D308F1010801E0921871
:100590005B41B8F1000F03DA00200146BDE8F08DA1
:1005A00000204FF48011064684460EE0171B73EBC3
:1005B000050705D3121B63EB050306434CEA010C48
:1005C00049084FEA300092185B4150EA0107EDD12B
:1005D00052EA030012D082EA040083EA05010843CC
:1005E00005D0101BAB4106D20122002306E00022F9
:1005F0004FF0004302E06FF0010253101AEB0600C7
:100600004CEB085110EB0A0041EB0B01BDE8F04D3B
:1006100000F034B90EB5C10F80EAE0700844CA0793
:10062000002140F233438DE80E000A460B4600F0ED
:1006300034F903B000BD0EB540F233410291002100
:10064000CDE900110A460B4600F027F903B000BDC2
:1006500000F0004230F000400AD0C10D01F5607199
:10066000C0F3160042EA0151C20840071143704727
:10067000002001467047000030B5041E71F10004EF
:1006800004DB4FF00044404264EB0101141E73F19F
:10069000000405DB1C464FF00043524263EB0403A9
:1006A0008B4208BF824230BD30B5041E71F1000498
:1006B00004DB4FF00044404264EB0101141E73F16F
:1006C000000405DB1C464FF00043524263EB040379
:1006D000994208BF904230BD01F0004330B421F090
:1006E000004150EA010206D00A0DA2F56072C1F382
:1006F0001301002A02DC30BC00207047440F44EA9A
:10070000C104C100E01830BC00EBC25000F07FB85B
:1007100030B50B46014600202022012409E021FAD1
:1007200002F59D4205D303FA02F5491B04FA02F5CE
:100730002844151EA2F10102F1DC30BD202A04DBA1
:10074000203A00FA02F1002070479140C2F12003E4
:1007500020FA03F3194390407047202A04DB203A23
:1007600021FA02F00021704721FA02F3D040C2F1D1
:1007700020029140084319467047202A06DBCB1718
:10078000203A41FA02F043EAE07306E041FA02F34C
:10079000D040C2F1200291400843194670472DE92C
:1007A000F04791460F4680460446002614F8015B48
:1007B0002DB100F001F90068405DC007F6D12B2D86
:1007C00002D02D2D18D0641E4A463946204600F02E
:1007D000F7F827B13968A14201D1C7F80080710547
:1007E0004FF002040BD54042002803DD04F0FEF96F
:1007F0000460A007BDE8F08746F48066E4E70028BF
:10080000F8DA04F0F3F904606FF00040F2E7002931
:10081000A8BF7047401C490008BF20F00100704786
:1008200010B4B0FA80FC00FA0CF050EA010404BFE6
:1008300010BC704749B1CCF1200421FA04F411FA3C
:100840000CF118BF012121430843A3EB0C01CB1D80
:100850004FEA00614FEA102042BF002010BC7047F1
:1008600000EBC35010440029A4BF10BC7047401CCB
:10087000490008BF20F0010010BC704710B5141EDD
:1008800073F1000408DA401C41F1000192185B4149
:100890001A4301D120F0010010BD2DE9F04D924620
:1008A0009B4611B1B1FA81F202E0B0FA80F2203237
:1008B0009046FFF743FF04460F4640EA0A0041EA2C
:1008C0000B0153465A46084313D0114653EA010020
:1008D00019D0C8F140025046FFF73FFF05460E46CB
:1008E000504659464246FFF729FF084305D00120EC
:1008F00004E020463946BDE8F08D0020054346EA75
:10090000E0762C4337430A986305E40AA0EB08001D
:100910000022FD0A44EA47540A3002D5002001466D
:10092000E9E7010510196941DDE908450019694148
:10093000BDE8F04DA2E770B521F0004303430CD0B1
:10094000C1F30A550024D5EB040564EB0403D61764
:10095000AD1AB34102DB0020014670BD201841EB07
:10096000025170BDC1F30A52C1F3130140F2FF33CB
:1009700041F480119A4202DA00200146704740F2A9
:1009800033439A42A2F2334202DC5242FFF7E5BE01
:10099000FFF7D4BE064C074D06E0E06840F00103C7
:1009A00094E8070098471034AC42F6D3FFF702FCF6
:1009B0006CF401088CF401080048704754F30108F6
:1009C0002DE9F05F82460078002715468B460AF134
:1009D0000104B946302801D09DB113E014F8010B91
:1009E0000127782803D0582801D045B10AE00DB17D
:1009F000102D07D10027102514F8010B02E008255F
:100A000000E00A250026B0460EE005FB080005FBC5
:100A100006F1012701EB10461FFA80F8B6F5803F7A
:100A200000D3B94614F8010B294600F069F80028F4
:100A3000EBDABBF1000F05D00FB1641E00E05446A5
:100A4000CBF80040B9F1000F06D004F0CFF8022136
:100A50000160C81EBDE8F09F48EA0640FAE72DE9AC
:100A6000F04D00231A461B1A8A4103DB0020014681
:100A7000BDE8F08DC1F30A52C1F3130141F48015B2
:100A80004FF0000BD10702D100186D41521E002714
:100A9000044640F2FF11384601EB620A3E468046AA
:100AA000024600204FF48011FFF757FEC219714132
:100AB000BB1846EB0100B4EB030C75EB000C04D340
:100AC000E41A65EB000517460E46241908F10100EB
:100AD0006D4180463428E3DDF91946EB0600091B19
:100AE000A84103D24FF0FF32134601E00022134623
:100AF0001BEB070046EB0A51BDE8F04DFFF7BEBE09
:100B00003A2800D2303820F02002412A01D3A2F145
:100B10003700884201D34FF0FF30704770B58C1812
:100B200010F8015B15F0070301D110F8013B2A1101
:100B300006D110F8012B03E010F8016B01F8016BEE
:100B40005B1EF9D12B0705D40023521E0DD401F8EA
:100B5000013BFAE710F8013BCB1A921C03E013F8B3
:100B6000015B01F8015B521EF9D5A142D8D30020E8
:100B700070BD00BFFEE7704710B50C480C49086017
:100B80004FF4E1304860002109488160C160016193
:100B90000C21416100218161C16102F0C8F818B1E6
:100BA000192104A003F09EFF10BD000000100140B9
:100BB000D40200202E2E5C53595354454D5C75735E
:100BC0006172745C75736172742E630000201EE0A4
:100BD0000022104901EB40110A700E4901EB40114F
:100BE0008A709FED0D0B0B4901EB401181ED060B57
:100BF0009FED090B074901EB401181ED020B9FEDC1
:100C0000060B044901EB401181ED040B401C042844
:100C1000DEDB704700020020000000000000000042
:100C2000016801F58051896941F00202016801F50E
:100C300080518A617047016801F58051896941F4EA
:100C40000052016801F580518A61704738B5044649
:100C500000200090206800F58050806940F48011E9
:100C6000206800F580508161206800F5805080691F
:100C70000090012000F06CFB0099206800F5805086
:100C8000816138BD014600200A6802F0004252B975
:100C90000A6802F4004232B90A6802F4807212B1A2
:100CA0000A68C2F30D40704710B501E008F0C4FABD
:100CB0000949886AFFF7E6FF0028F7D14FF4803131
:100CC0000548006800F580504161402102480068F5
:100CD00000F58050416110BD1403002030B503467B
:100CE0001479557944EA0520084C0C442064D478E2
:100CF0002406957844EA0544557844EA0524157895
:100D000044EA0500014C0C44606430BD00800240A0
:100D100070B5AEB004460E46002526B14FF4006112
:100D2000E160C900A160002011901290139014900E
:100D300015901690E06918B94FF48060179001E0A3
:100D4000002017904FF400701890002019901A900E
:100D50001B901C901D9040201E9000201F90209002
:100D600021902290239024902590269080202790F7
:100D70000020289029902A902B902C902D9020686C
:100D8000056871480540DDE91101084313990843DE
:100D900014990843A1680843159908431699084314
:100DA000E1680843179908431899084319990843BB
:100DB0001A9908431B990843054320680560206879
:100DC0000568012000F0C4FA20680560DDE91C0117
:100DD00008431E9908431F99084320990843219905
:100DE00008432299084323990843216848602068F2
:100DF0004568012000F0ACFA20684560249821681D
:100E0000886025982168C860206885694FF6417020
:100E10000540DDE9261040EA014028990843299958
:100E200008432A9908432B990843054320688561A4
:100E300020688569012000F08BFA20688561DDE972
:100E40002C0108432168C8612068C569012000F0B1
:100E50007FFA2068C561002001904FF00070029079
:100E6000002003904FF4001004900020059006909D
:100E70000790089004200990C0050A9040120B903A
:100E800080010C9040120D9080200E9000200F9059
:100E90001090206800F5805085692C480540DDE9F8
:100EA000010108430399084304990843059908433D
:100EB0000699084307990843089908430999084384
:100EC0000543206800F580508561206800F580505A
:100ED0008569012000F03CFA206800F580508561AA
:100EE000DDE90A0108430C9908430D9908430E995E
:100EF00008430F9940EA81001099084340F400012B
:100F0000206800F580500160206800F58050056879
:100F1000012000F01DFA206800F580500560A069EE
:100F2000012809D1206800F58050C06908490843AC
:100F3000216801F58051C861002120466269FFF7F0
:100F4000CDFE2EB070BD00000F8120FF233FDEF8E4
:100F50004000010038B50446002000902068006879
:100F600040F00400216808602068006800900120BB
:100F700000F0EEF900982168086038BD38B50446E5
:100F8000002000902068006840F008002168086098
:100F9000206800680090012000F0DAF900982168CC
:100FA000086038BD10B54FF4A071002008F05EFF56
:100FB0000D490860A021002008F058FF0B49086087
:100FC00043F68831002008F051FF0949086041F6D6
:100FD000C451002008F04AFF0649086000BF00BF66
:100FE00000BF00BF002010BDE0000020E400002092
:100FF000E8000020EC00002010B54FF4007000F075
:1010000091FE10BD10B5002201B909E0012901D1FE
:101010000A0205E0022901D10A0201E04FF4407200
:101020000B2800D9001D114B1B6823F440730F4C93
:10103000236023461B681343236023461B6823F069
:10104000F803236023461B68F82494FAA4F4B4FA46
:1010500084F400FA04F444F002042343034C2360B4
:1010600023461B6843F48033236010BD103C0240CC
:101070001C48006800F40070B0B11A48006820F401
:1010800000701849086000BF0846006840F400601E
:1010900008600846006820F40060086000BF084649
:1010A000006840F4007008600E48006800F480603A
:1010B000B0B10C48006820F480600A49086000BFA5
:1010C0000846006840F4805008600846006820F434
:1010D0008050086000BF0846006840F480600860E7
:1010E00070470000003C024010B502460020144B3F
:1010F0001B6823F44073124C236023461B68034390
:101100002360032906D123461B68E41323430C4CB8
:1011100023600EE0012906D1094B1B6843F004034C
:10112000074C236005E0064B1B6843F40043044C66
:101130002360034B1B6843F48033014C236010BDD4
:10114000103C0240074A126822F44072054B1A60B4
:101150001A4612681A601A46126842F001021A60B2
:1011600001707047103C024010B50949096821F42C
:101170004071074C21602146096841F440712160AB
:101180002146096841F0010121600260436010BD01
:10119000103C0240084A126822F44072064B1A6062
:1011A0001A46126842F480721A601A46126842F0B7
:1011B00001021A6001807047103C0240084A126820
:1011C00022F44072064B1A601A46126842F400720A
:1011D0001A601A46126842F001021A6001607047F4
:1011E000103C02402A480068C0F3001040B1294872
:1011F000C06940F010002749C861102024490860E8
:1012000023480068C0F3401040B12248C06940F054
:1012100008002049C86120201D4908601C4800685A
:10122000C0F3801040B11B48C06940F00400194968
:10123000C86140201649086015480068C0F3C01016
:1012400040B11448C06940F002001249C8618020D2
:101250000F4908600E480068C0F3002048B10D48EF
:10126000C06940F001000B49C8614FF48070084923
:10127000086007480068C0F3400040B10548C069F5
:1012800040F020000349C86102200149086070470E
:101290000C3C0240B402002070B50446002500203A
:1012A0001749C86100F064FE054609E0601C38B1CA
:1012B00024B100F05DFE401BA04201D9032070BDA7
:1012C00010480068C0F300400028EFD10D480068C6
:1012D00000F0010010B101200A49086009480068C7
:1012E00000F4F970B0F5F97F01D1012000E0002091
:1012F00018B1FFF777FF0120E1E70020DFE70000EA
:10130000B40200200C3C024000B587B000BF0020B2
:1013100001900D48006840F010000B490860084635
:10132000006800F01000019000BF00BF082002908C
:101330000120039000200490059002A9034800F0CA
:10134000FFFC07B000BD0000303802400010024032
:1013500031B5002400F00CFE044600BF00F008FE8A
:10136000001B00998842F9D338BD70B504460D467C
:101370001646002200BF94F84500012801D1022042
:1013800070BD012084F8450000BF022084F84400AD
:10139000A56200221FE005EB42114FF000400860FB
:1013A00044F2F4504860C2EBC21000EB400006EB80
:1013B00080008860A069012803D1486820F00040BF
:1013C0004860581E904204D905EB42102030C86096
:1013D00000E0CD60521C9A42DDD3206800F58050B9
:1013E000C560012084F8440000BF002084F8450057
:1013F00000BF00BFC4E770B504460D461646002284
:1014000000BF94F84500012801D1022070BD0120E1
:1014100084F8450000BF022084F84400E562002201
:101420001BE005EB42114FF480100860C2EBC210C4
:1014300000EB400006EB80008860E06918B908689E
:1014400040F440000860581E904204D905EB421059
:101450002030C86000E0CD60521C9A42E1D3206881
:1014600000F580500561012084F8440000BF002091
:1014700084F8450000BF00BFC8E70146002200BF56
:1014800091F84500012801D102207047012081F820
:10149000450000BF022081F84400886A006800F01F
:1014A0000040002838D1886A006800F48070F0B1EC
:1014B000886B401C8863886B012801D1886A0863A7
:1014C0008B6A4B63886A0068C0F30D40021FCA63D1
:1014D000086B83680B64886AC0688862012081F8A1
:1014E000440000BF002081F8450000BFCDE7886AB6
:1014F000006800F4007048B1886A086300234B63F9
:1015000001238B63886AC068886205E0886B401C91
:101510008863886AC0688862012081F8440000BF3F
:10152000002081F8450000BF0120AEE72DE9FC4115
:101530000446002500200190924E0027804614B9F1
:101540000120BDE8FC8194F8440028B9002084F80B
:101550004500204600F024F900BF002000908A4892
:10156000006840F48040884908600846006800F43C
:101570008040009000BF00BF8448006820F4000055
:101580008249086008460068216A08437F4908606C
:10159000206800F58050006840F00101206800F5E7
:1015A0008050016000BF206800F58050006800F0A6
:1015B00001000028F7D12068056925F01C0500F01E
:1015C00095FF06467248864205D37248864202D28B
:1015D00045F008051AE06F48864205D369488642FF
:1015E00002D245F00C0511E06648864203D36A48F2
:1015F000864200D20AE06848864205D367488642A0
:1016000002D245F0040501E045F0100520680561AF
:101610004FF400420021204600F071FA48B14FF02B
:10162000010841462046FFF773FB012084F844007F
:1016300087E7FF20FFF78CFE606800287ED000F06F
:1016400097FC074600BF01AA0121204600F046F999
:1016500000F08EFCC01BB0F5FA6F0FD94FF00108F7
:1016600041462046FFF754FB012084F8440000BFA8
:10167000002084F8450000BF032062E7019800F0D5
:1016800004000428DFD182020021204600F037FA4E
:1016900048B14FF0010841462046FFF739FB0120D1
:1016A00084F844004DE700F063FC074600BF01AA40
:1016B0000121204600F012F900F05AFCC01BB0F5E1
:1016C0007A7F0FD94FF0010841462046FFF720FBF3
:1016D000012084F8440000BF002084F8450000BFCA
:1016E00003202EE7019800F020002028DFD101AA76
:1016F0001F21204600F0F2F848B14FF001084146A2
:101700002046FFF705FB012084F8440019E7019803
:1017100000F0100020B14FF40061E16002E00DE044
:101720000021E160019800F00400042802D10021AA
:10173000A1601DE04FF48041A16019E0E068C0F3B2
:10174000CF00A168C1F34F0140EA01020021204609
:1017500000F0D5F948B14FF0010841462046FFF7A7
:10176000D7FA012084F84400EBE6FF20FFF7F0FDF4
:1017700041462046FFF7CCFA012084F844000020BF
:10178000DFE600000087930344380240043801403C
:10179000002D3101C00E160200E1F50580D1F008E0
:1017A00010B586B0044600BF00BF00200090474837
:1017B000006840F00070454908600846006800F085
:1017C0000070009000BF00BF00BF002000900846DE
:1017D000006840F0806008600846006800F08060A3
:1017E000009000BF00BF00BF0020009008460068C6
:1017F00040F0006008600846006800F0006000905B
:1018000000BF00BF00BF00BF002000900846006876
:1018100040F0010008600846006800F001000090F8
:1018200000BF00BF00BF002000900846006840F0E5
:10183000020008600846006800F00200009000BF47
:1018400000BF00BF002000900846006840F0040080
:1018500008600846006800F00400009000BF00BF68
:10186000082001900120029003900320049001A918
:10187000174800F065FA01220821154800F072FBB4
:101880008620019002200290002003900320049003
:101890000B20059001A90E4800F052FA4FF4605059
:1018A000019001A90B4800F04BFA3220019001A9E8
:1018B000094800F045FA002211463D2000F01AFCCC
:1018C0003D2000F00AFC06B010BD00003038024098
:1018D0000000024000040240000802402DE9F041EF
:1018E00004460E4617460025A84694F84400822870
:1018F00002D10220BDE8F081822084F844002068F3
:10190000056905F01C05208A4FF4784101EAC020E2
:101910000543481100EA8610054325F0020545F00D
:1019200001052068056100F023FB804612E000F00D
:101930001FFBA0EB0800B0F5803F09D3012084F81D
:10194000440000BF002084F8450000BF0320D1E719
:101950002068056905F001000028E8D12068406989
:1019600080B23860012084F844000020C2E710B53E
:10197000044600BF94F84500012801D1022010BDA3
:10198000012084F8450000BF022084F8440020466E
:10199000FFF7F4FA2046FFF7DDFA2046FFF756F985
:1019A0002046FFF748F92046FFF73AF9012084F86E
:1019B000440000BF002084F8450000BF00BFDEE700
:1019C00070B5024600230025002400BF92F84500B0
:1019D000012801D1022070BD012082F8450000BF1E
:1019E000022082F8440049B9012082F8440000BF77
:1019F000002082F8450000BF0120ECE7D06A0068B3
:101A000000F0004048B1122082F8440000BF0020DE
:101A100082F8450000BF0120DDE740F2F45081422A
:101A200008D9B1FBF0F3B1FBF0F600FB161010B1D2
:101A30005B1C00E00123012B13D1D06A006840F049
:101A40004050D66A3060C1F30C00D66A7060D06A2C
:101A5000006840F00040D66A3060D06AC068D0624A
:101A600032E000242EE0D06A006820F04050D66AB0
:101A700030602CB9D06A006840F08050D66A30607F
:101A800040F2F450D66A7060581EA04210D1D06A5D
:101A9000006840F00050D66A3060581EC0EBC0109D
:101AA00000EB4000A1EB8005C5F30C00D66A706026
:101AB000D06A006840F00040D66A3060D06AC068E2
:101AC000D062641C9C42CED3106800F580504069FF
:101AD00000F0040048B10426106800F5805046610B
:101AE0000026106800F580504660012082F844000E
:101AF00000BF002082F8450000BF00BF6BE72DE962
:101B0000F04104460E4617460025A84694F84400C6
:101B1000422802D10220BDE8F081422084F844002E
:101B20002068056905F01C05208A4FF4784101EA18
:101B3000C0200543481100EA8610054345F0020520
:101B400045F00105B8B2216848612068056100F0E0
:101B50000FFA804612E000F00BFAA0EB0800B0F597
:101B6000803F09D3012084F8440000BF002084F89E
:101B7000450000BF0320CEE72068056905F001009D
:101B80000028E8D1012084F844000020C3E70000C9
:101B90002DE9F04104460E460127002500BF2648E6
:101BA000007E012802D10220BDE8F08101202249F7
:101BB000087600BF4CF25030FFF76EFB0746002F4F
:101BC00032D1401E30602068012810D1207C61682D
:101BD000FFF78AFA4CF25030FFF75EFB07461748D2
:101BE000006848F204018843144908601AE0A568B7
:101BF00012E0217C2846FFF705FA4CF25030FFF73F
:101C00004BFB07460D48006820F0FA000B490860BE
:101C10000FB1356005E06D1CD4E902100844A842FC
:101C2000E7D800BFFFF724FA00BF0020024908767A
:101C300000BF3846B8E70000B4020020103C024064
:101C40000348006840F000400149086000207047E8
:101C5000103C02402DE9F04106460F4614461D4651
:101C60004FF0010800BF1F48007E012802D102206A
:101C7000BDE8F08101201B49087600BF4CF25030CE
:101C8000FFF70AFB8046B8F1000F23D126B9E1B275
:101C90003846FFF757FA12E0012E04D1A1B23846B8
:101CA000FFF778FA0BE0022E04D121463846FFF701
:101CB00085FA04E022462B463846FFF755FA4CF2E7
:101CC0005030FFF7E9FA80460748006820F001002D
:101CD0000549086000BF00200249087600BF404661
:101CE000C6E70000B4020020103C0240074800682C
:101CF00000F0004030B1064804490C39086005483E
:101D0000086001E0012070470020FCE7103C024021
:101D100023016745AB89EFCD08B50021009100BFD5
:101D200008BD000010B5044604480068204020B1FA
:101D3000024804602046FFF7EFFF10BD143C01404D
:101D4000F8B502460B460025002400200021E6E0FD
:101D5000012606FA01F51E6806EA0504AC4273D1B5
:101D60005E68022E02D05E68122E13D1CF0802F1F7
:101D7000200656F827004E07F70E0F26BE40B04348
:101D80004F07FF0E1E69BE403043CF0802F1200608
:101D900046F8270010684F000326BE40B0431E7966
:101DA00006F003064F00BE40304310605E68012E0F
:101DB00008D05E68022E05D05E68112E02D05E68E3
:101DC000122E13D190684F000326BE40B0434F003F
:101DD000DE68BE4030439060506801268E40B043BC
:101DE0001E79C6F300168E4030435060D0684F0015
:101DF0000326BE40B0434F009E68BE403043D060D3
:101E00005E6806F08056B6F1805FA8D100BF00265C
:101E10000096454E366846F48046434F3E603E4647
:101E2000366806F48046009600BF00BF3F4E8F081C
:101E300056F827008E07370F0F26BE40B0433C4EA2
:101E4000B24202D100262EE068E03A4EB24201D101
:101E5000012628E0384EB24201D1022623E0374E57
:101E6000B24201D103261EE0354EB24201D1042612
:101E700019E0344EB24201D1052614E0324EB2428E
:101E800001D106260FE0314EB24201D107260AE009
:101E90002F4EB24201D1082605E02E4EB24201D1AA
:101EA000092600E00A268F073F0FBE4030431F4E31
:101EB0008F0846F82700284E3068A0435E6806F475
:101EC0008036B6F5803F00D12043234E3060361D6A
:101ED0003068A0435E6806F40036B6F5003F00D1D6
:101EE00020431D4E361D3060361D3068A0435E68AD
:101EF00006F48016B6F5801F00D12043164E083632
:101F00003060361D3068A0435E6806F40016B6F5F2
:101F1000001F00D12043104E0C363060491C1029A0
:101F2000FFF416AFF8BD0000443802400838014005
:101F3000000002400004024000080240000C024081
:101F4000001002400014024000180240001C024031
:101F50000020024000240240003C014042694A4007
:101F6000426170470AB1816101E00B0483617047EF
:101F70000148006870470000D800002010B50446F2
:101F80000CB9012010BD607B20B9002020732046D1
:101F900000F01AF80220607345F25550216808607D
:101FA0002068406820F007006168084321684860A5
:101FB000206880686FF30B00A1680843216888607F
:101FC000012060730020DDE7704770B504460025EE
:101FD00000BF207B012801D1022070BD01202073A9
:101FE00000BF02206073FFF7C3FF05460DE0FFF757
:101FF000BFFF401BB0F57A7F07D90320607300BF95
:102000000020207300BF0320E7E72068C068C0F30A
:1020100040000028EBD14AF6AA2021680860012080
:10202000607300BF0020207300BF00BFD5E70146EA
:1020300000BF087B012801D10220704701200873EE
:1020400000BF022048734CF6CC400A6810604AF684
:10205000AA200A6810600120487300BF002008739E
:1020600000BF00BFE9E7000002480068401C0149CA
:1020700008607047D800002010B50D48006840F493
:1020800000700B4908600846006840F480600860F2
:102090000846006840F480700860052000F068F889
:1020A0000F2000F007F800F017F8002010BD000026
:1020B000003C024070B5044600F018FA4FF47A7103
:1020C000B0FBF1F5284600F0CBFC00222146501E63
:1020D00000F010F8002070BD704700BF00F01F0234
:1020E000012191404209920002F1E022C2F8001160
:1020F00000BF70472DE9F05F80460D461646002769
:1021000000F09AFF074639462A46334601F0070099
:10211000C0F1070ABAF1040F02D94FF0040A01E036
:10212000C0F1070AD14600F1040ABAF1070F02D242
:102130004FF0000A01E0A0F1030AD4464FF0010A73
:102140000AFA09FAAAF1010A0AEA020A0AFA0CFAD8
:102150004FF0010B0BFA0CFBABF1010B0BEA030B7D
:102160004AEA0B042146404600F06EFFBDE8F09FAE
:1021700000BF00F00702064B19684FF6FF03194035
:10218000044B0B4343EA0221014B196000BF704727
:102190000CED00E00000FA0538B5002400BF002077
:1021A00000902348006840F08050214908600846AC
:1021B000006800F08050009000BF00BF01200104C3
:1021C00091FAA1F1B1FA81F11A4A42F82100FFF720
:1021D000CFFE044607E0FFF7CBFE001BB0F57A7F89
:1021E00001D9032038BD1448406800F48030B0F5B0
:1021F000803FF0D10120410491FAA1F1B1FA81F1BF
:102200000C4A42F82100FFF7B3FE044607E0FFF74F
:10221000AFFE001BB0F57A7F01D90320E2E7064844
:10222000406800F40030B0F5003FF0D10020D9E75D
:102230004038024000000E420070004070B5044675
:102240000E460025A748006800F00F00B0426FD28C
:10225000A4490E700846006800F00F00B04201D09B
:10226000012070BD207800F00200022807D19E48AE
:10227000006820F0F000A16808439B4908602078BE
:1022800000F0010000283ED06068012807D1964880
:1022900008380068C0F34040B8B90120E1E7606841
:1022A000022802D06068032807D18F4808380068E8
:1022B000C0F3406048B90120D3E78B480838006874
:1022C000C0F3400008B90120CBE78748006820F040
:1022D00003006168084384490860FFF749FE05462A
:1022E0006068012810D108E0FFF742FE401B41F270
:1022F0008831884201D90320B3E77B48006800F0A9
:102300000C000428F0D1CDE06068022811D108E06B
:10231000FFF72EFE401B41F28831884201D903208D
:102320009FE77148006800F00C000828F0D1B9E080
:1023300024E06068032810D108E0FFF719FE401B75
:1023400041F28831884201D903208AE76648006853
:1023500000F00C000328F0D1A4E008E0FFF708FE2D
:10236000401B41F28831884201D9032079E75E4859
:10237000006800F00C000028F0D193E0207800F015
:102380000200022807D15848006820F0F000A16838
:10239000084355490860207800F00100002877D0F4
:1023A0006068012807D1504808380068C0F34040F1
:1023B000B8B9012055E76068022802D06068032898
:1023C00007D1494808380068C0F3406048B9012087
:1023D00047E7454808380068C0F3400008B90120C5
:1023E0003FE74148006820F00300616808433E4928
:1023F0000860FFF7BDFD05466068012810D108E0C0
:10240000FFF7B6FD401B41F28831884201D9032015
:1024100027E73548006800F00C000428F0D137E0C9
:102420006068022810D108E0FFF7A2FD401B41F2CE
:102430008831884201D9032013E72B48006800F057
:102440000C000828F0D123E06068032810D108E0D0
:10245000FFF78EFD401B41F28831884201D90320ED
:10246000FFE62148006800F00C000328F0D10FE0DF
:1024700008E0FFF77DFD401B41F28831884201D919
:102480000320EEE61848006800F00C000028F0D1A8
:1024900014490E700846006800F00F00B04201D0E9
:1024A0000120DEE6207800F00400042807D10E4861
:1024B000006820F4E050E16808430B490860207888
:1024C00000F00800082808D10748006820F46040A0
:1024D000216940EAC100044908600F20FFF7EAFDC6
:1024E0000020BEE6003C02400838024010B500F073
:1024F00045F80949096801F0F001F02292FAA2F2C8
:10250000B2FA82F2D140054A515CC84004490860E1
:102510000846006810BD00000838024030F101088C
:102520001000002010B5FFF7E1FF0749096801F42A
:10253000E0514FF4E05292FAA2F2B2FA82F2D140A4
:10254000024A515CC84010BD0838024030F1010811
:1025500010B5FFF7CBFF0749096801F460414FF45C
:10256000604292FAA2F2B2FA82F2D140024A515C7F
:10257000C84010BD0838024030F1010870B5002194
:10258000002200230020274C246804F00C0424B10E
:10259000042C04D0082C41D103E0234840E0234818
:1025A0003EE0204C241F246804F03F011D4C241FF2
:1025B000246804F4800484B11C4CB4FBF1F5194C7C
:1025C000241F246847F6C076344096FAA6F6B6FA79
:1025D00086F6F44005FB04F20FE0134CB4FBF1F572
:1025E000104C241F246847F6C076344096FAA6F6AD
:1025F000B6FA86F6F44005FB04F20A4C241F246860
:1026000004F440344FF4403595FAA5F5B5FA85F554
:10261000EC40641C6300B2FBF3F001E0024800BF31
:1026200000BF70BD083802400024F40040787D01EE
:1026300038B504460025207800F00100002866D057
:10264000F748006800F00C0004280DD0F44800683A
:1026500000F00C00082813D1F148001F006800F4B6
:102660008000B0F5800F0BD1ED4808380068C0F34A
:10267000404000284BD06068002848D1012038BD78
:102680000020E749891F0870FFF772FC054608E043
:10269000FFF76EFC401B41F28831884201D90320CC
:1026A000EDE7DF4808380068C0F340400028EFD16C
:1026B0002079DB49891F08706068A0B1FFF758FCDA
:1026C000054608E0FFF754FC401B41F28831884280
:1026D00001D90320D3E7D24808380068C0F340404E
:1026E0000028EFD013E0FFF743FC054608E0FFF7B2
:1026F0003FFC401B41F28831884201D90320BEE7EC
:10270000C74808380068C0F340400028EFD120785F
:1027100000F00200022869D1C148006800F00C00F6
:1027200058B1BF48006800F00C00082821D1BC480F
:10273000001F006800F48000D8B9B9480838006864
:10274000C0F3400020B1E068012801D0012096E7E5
:10275000B3480838006820F0F800F82292FAA2F294
:10276000B2FA82F2216991400843AD490839086004
:102770003CE0E06828B30120AA490860FFF7F8FBB5
:10278000054606E0FFF7F4FB401B642801D903204F
:1027900075E7A34808380068C0F340000028F1D06E
:1027A0009F480838006820F0F800F82292FAA2F258
:1027B000B2FA82F2216991400843994908390860C8
:1027C00014E0002097490860FFF7D2FB054606E0B9
:1027D000FFF7CEFB401B642801D903204FE7904848
:1027E00008380068C0F340000028F1D1207800F0DC
:1027F000080008282CD16069A8B101208A49086026
:10280000FFF7B6FB054606E0FFF7B2FB401B642866
:1028100001D9032033E782486C300068C0F34000E0
:102820000028F1D014E000207F490860FFF7A0FBEA
:10283000054606E0FFF79CFB401B642801D90320F6
:102840001DE777486C300068C0F340000028F1D1E4
:10285000207800F0040004286FD100BF0020009011
:102860006F483830006840F080506D49383108605A
:102870000846006800F08050009000BF00BF6B4821
:10288000006840F4807069490860FFF771FB0546F5
:1028900006E0FFF76DFB401B642801D90320EEE63C
:1028A0006248006800F480700028F2D000205C4983
:1028B00068310870FFF75CFB054608E0FFF758FB3E
:1028C000401B41F28831884201D90320D7E65448A1
:1028D00068300068C0F340000028EFD1207A5049EA
:1028E00068310870A068A0B1FFF742FB054608E018
:1028F000FFF73EFB401B41F28831884201D903209B
:10290000BDE6474868300068C0F340000028EFD0BB
:1029100013E0FFF72DFB054608E0FFF729FB401BFE
:1029200041F28831884201D90320A8E63C4868304A
:102930000068C0F340000028EFD1A069F0B3384828
:10294000006800F00C00082872D0A069022850D15D
:10295000002034490866FFF70BFB054606E0FFF749
:1029600007FB401B642801D9032088E62C4808385F
:102970000068C0F340600028F1D1D4E907010843A2
:1029800047F6C07292FAA2F2B2FA82F2616A9140FC
:1029900008430122A16AC2EB51014FF4403292FA7E
:1029A000A2F2B2FA82F2914008434FF0706292FABA
:1029B000A2F2B2FA82F2E16A914000E03AE0084302
:1029C0001749091F0860012016490866FFF7D0FA69
:1029D000054606E0FFF7CCFA401B642801D9032026
:1029E0004DE60F4808380068C0F340600028F1D079
:1029F00020E000200B490866FFF7BAFA054606E01A
:102A0000FFF7B6FA401B642801D9032037E60448D3
:102A100008380068C0F340600028F1D10AE007E000
:102A20000838024000004742800E474200700040D4
:102A3000012024E6002022E6042808D14FF0E021FE
:102A4000096941F004014FF0E022116107E04FF005
:102A5000E021096921F004014FF0E0221161704783
:102A600070B504462546681EB0F1807F01D3012071
:102A70000FE0681E4FF0E02148610F214FF0FF305A
:102A800000F0E2FA00204FF0E021886107200861A1
:102A9000002070BD7047704710B504460CB9012086
:102AA00010BD94F8390028B9002084F83800204679
:102AB00000F00CF8022084F83900211D206800F095
:102AC000B9FD012084F839000020E9E738B5044653
:102AD00000BF002000901748006840F00200154930
:102AE00008600846006800F00200009000BF00BFC8
:102AF000002201211D20FFF7FDFA1D20FFF7EDFA4E
:102B000000BF002000900B48006840F01000094909
:102B100008600846006800F01000009000BF00BF89
:102B2000012202213620FFF7E5FA3620FFF7D5FA19
:102B300038BD00004038024001460868C06840F0D7
:102B400001000A68D0600868006840F001000A6867
:102B5000106000207047704710B504462068006977
:102B6000C0F34000D8B12068C068C0F34000B0B1E5
:102B70006FF00200216808610120207620688069DA
:102B800000F0030018B12046FFF7E5FF05E02046FE
:102B900000F0ADF8204600F0ABF800202076206869
:102BA0000069C0F38000D8B12068C068C0F380001D
:102BB000B0B16FF00400216808610220207620681F
:102BC000806900F4407018B12046FFF7C4FF05E0AB
:102BD000204600F08CF8204600F08AF8002020768D
:102BE00020680069C0F3C000D8B12068C068C0F395
:102BF000C000B0B16FF008002168086104202076A1
:102C00002068C06900F0030018B12046FFF7A3FF59
:102C100005E0204600F06BF8204600F069F800203F
:102C2000207620680069C0F30010D8B12068C06821
:102C3000C0F30010B0B16FF01000216808610820E7
:102C400020762068C06900F4407018B12046FFF774
:102C500082FF05E0204600F04AF8204600F048F8E0
:102C6000002020762068006900F0010058B120683B
:102C7000C06800F0010030B16FF001002168086108
:102C8000204600F037F820680069C0F3C01058B142
:102C90002068C068C0F3C01030B16FF080002168B8
:102CA00008612046FFF7F6FE20680069C0F3801037
:102CB00058B12068C068C0F3801030B16FF0400098
:102CC00021680861204600F031F820680069C0F3EF
:102CD000401058B12068C068C0F3401030B16FF0A8
:102CE0002000216808612046FFF7D5FE10BD70471F
:102CF0007047000010B504460848844205D10848D2
:102D000000680A300649086007E00648844204D19A
:102D100006F08DFA01200449087010BD5C03002004
:102D20001C0100209803002028000020704710B5E7
:102D300004460CB9012010BDA06900B100E000BF3D
:102D400094F8390028B9002084F83800204600F0B3
:102D500025F8022084F839002068C06820F400506B
:102D60002168C860204600F0D7FC2068006920F484
:102D70009040216808612068406920F02A0021689D
:102D800048612068C06840F400502168C860002095
:102D9000E063012084F839000020CCE710B586B04C
:102DA00004461F492068884237D100BF00200090A8
:102DB0001C48006840F010001A4908600846006886
:102DC00000F01000009000BF00BF00BF0020009086
:102DD00014481438006840F00200124914390860A1
:102DE0000846006800F00200009000BF00BFC0204D
:102DF00001900220029001200390022004900720FD
:102E0000059001A90848FEF79BFF002211462520E6
:102E1000FFF770F92520FFF760F906B010BD00003C
:102E20000010014044380240000402402DE9F04700
:102E300004460D46164699464FF0000894F839802E
:102E4000B8F1010F02D0B8F1220F65D105B116B962
:102E50000120BDE8F08700BF94F83800012801D1B7
:102E60000220F6E7012084F8380000BF0020E0636C
:102E700094F83900222803D1322084F8390002E086
:102E8000122084F83900A684E68428E0E08C401EF5
:102E9000E084A068B0F5805F14D14B460022802109
:102EA000204600F04BFD08B10320D2E72F463888BA
:102EB000C0F3080021684860206908B9AD1C0EE025
:102EC0006D1C0CE04B4600228021204600F036FDB0
:102ED00008B10320BDE715F8010B21684860E08CBC
:102EE0000028D3DC4B4600224021204600F026FD7E
:102EF00008B10320ADE794F83900322803D122202D
:102F000084F8390002E0012084F8390000BF002075
:102F100084F8380000BF9CE702209AE700BFFEE774
:102F200010B50248FFF751F810BD0000D40300208F
:102F300070B504460D4606480649086008464460D8
:102F40008560FFF71BF80348FFF771F870BD0000BC
:102F500000300040D40300201CB5FDF732F90022F8
:102F600008212248FEF7FEFF642003F083FB0122C4
:102F700008211E48FEF7F6FF642003F07BFBFDF7F7
:102F800022F91B4800788DF80000194840788DF828
:102F90000100174880788DF802001548C0788DF838
:102FA0000300134800798DF80400114840798DF82A
:102FB00005001048104908600120486081030E4850
:102FC0008160C910C16000210182C0F814D00121C4
:102FD00081610021C1614FF400010162FEF7A6FA90
:102FE00008B900201CBD0120FCE7000000000240E1
:102FF00000AD012000800240140300201CB5002019
:103000000090019008480949086048F69F404860D0
:1030100000210648816040F2F311C160FFF73CFDDA
:103020000248FFF789FD1CBD0010004098030020F6
:1030300000BFFEE77047000002480068C0F30220AE
:10304000704700000CED00E010B5002807DA0A0711
:10305000140E054A00F00F031B1FD45403E00A07A7
:10306000130E024A135410BD18ED00E000E400E016
:1030700000BF00BF00BFBFF34F8F00BF00BF00BF46
:103080000948006800F4E06008490843001D06494B
:10309000086000BF00BF00BFBFF34F8F00BF00BF7D
:1030A00000BF00BF00BFFDE70CED00E00000FA0527
:1030B0007047000010B5A8B0A0216846FDF7E4F8FD
:1030C000282269460A4800F063F99DED1E0B094865
:1030D00080ED000B9DED200B80ED020B9DED220B92
:1030E00080ED040B9DF87040204628B010BD000014
:1030F000000006083800002010B5A8B00446A02142
:103100006846FDF7C1F8282269460D4800F040F9ED
:103110000C4880F868400C4890ED000B8DED1E0BBC
:1031200090ED020B8DED200B90ED040B8DED220B3D
:1031300028226946024800F063F928B010BD00005B
:1031400000000608F80100203800002000B5A9B0F2
:10315000A0216846FDF798F828226946044800F047
:1031600017F9882202A90348FDF775F829B000BDB8
:1031700000000608F801002001463A48814201D2C9
:10318000002070473848814201D20120F9E73748D2
:10319000814201D20220F4E73548814201D2032066
:1031A000EFE73448814201D20420EAE73248814205
:1031B00001D20520E5E73148814201D20620E0E74F
:1031C0002F48814201D20720DBE72E48814201D2FD
:1031D0000820D6E72C48814201D20920D1E72B48AC
:1031E000814201D20A20CCE7B1F1016F01D20B205C
:1031F000C7E72748814201D20C20C2E72548814217
:1032000001D20D20BDE72448814201D20E20B8E74B
:103210002248814201D20F20B3E72148814201D2E6
:103220001020AEE71F48814201D21120A9E71E48B5
:10323000814201D21220A4E71C48814201D213200E
:103240009FE71B48814201D214209AE71948814226
:1032500001D2152095E71848814201D2162090E747
:1032600017208EE7004000080080000800C000081A
:103270000000010800000208000004080000060821
:103280000000080800000A0800000C0800000E08F2
:10329000004010080080100800C01008000011084D
:1032A00000001208000014080000160800001808AA
:1032B00000001A0800001C0800001E0800B5A9B094
:1032C000A0216846FCF7E0FF28226946074800F085
:1032D0005FF82022064904A8FCF7BDFF28226946B2
:1032E000024800F08DF829B000BD0000000006087B
:1032F0000002002000B5A9B0A0216846FCF7C4FF79
:1033000028226946074800F043F8202206490CA805
:10331000FCF7A1FF28226946024800F071F829B0A5
:1033200000BD0000000006082002002000B5A9B082
:10333000A0216846FCF7A8FF28226946054800F04E
:1033400027F80E2224A90448FCF785FF02480078DC
:1033500029B000BD0000060810AE01200FB5A9B0CD
:10336000A0216846FCF790FF28226946074800F034
:103370000FF80E2229A924A8FCF76DFF2822694620
:10338000024800F03DF82DB000BD00000000060826
:103390002DE9F04107460D461646012002F0E7FCF4
:1033A000002406E0384600F00BF845F824003F1DE5
:1033B000641CB442F6D3002002F0D9FCBDE8F081D1
:1033C000014608687047000000B5A9B0A021684612
:1033D000FCF75AFF282269460748FFF7D9FF202249
:1033E000064914A8FCF737FF28226946024800F076
:1033F00007F829B000BD00000000060840020020C8
:103400002DE9F04387B004460E461746012002F02E
:10341000AEFC4FF000090020019000258046B4F179
:10342000006F02D304F0030010B107B0BDE8F083D1
:10343000FEF75CFC254604EB8708204885421DD238
:1034400019E02846FFF7BCFF401C78B1002002902D
:103450002846FFF791FE0490012005900220069077
:1034600001A902A8FEF794FB08B106E02D1D4CF25D
:103470005030FDF711FF4545E3D300BF4CF250300B
:10348000FDF70AFF8146B9F1000F0FD10BE0D6F826
:1034900000C06246002321460220FEF7DBFB00B19C
:1034A00003E0241D361D4445F1D300BFFEF7C8FBE1
:1034B000002002F05CFC00BFB7E700000000FF1F27
:1034C000704700002DE9F04192B005468846164647
:1034D0001F46002400BF002000902648006840F0EE
:1034E0008050244908600846006800F08050009031
:1034F00000BF00BF00BF002000901F48006840F4DC
:1035000040401D4908600846006800F440400090B3
:1035100000BF00BF01200690079002200C904105DB
:103520000D91CDF838800F951096119706A8FFF7EA
:103530007FF804460CB100BFFEE7FEF72DFE0446FF
:103540000CB100BFFEE70F20019002200290002086
:1035500003904FF4A05004904FF480500590052143
:1035600001A8FEF76BFE04460CB100BFFEE712B0E7
:10357000BDE8F081403802400070004010B5FEF711
:1035800073FD10BD1448006840F4700012490860D3
:103590001248006840F001001049086000200F49FF
:1035A000083108600D4800680D4908400B49086063
:1035B0000C48091D0860081F006820F48020091FBE
:1035C0000860002005490C3108604FF00060024996
:1035D000803908607047000088ED00E00038024044
:1035E000FFFFF6FE1030002410B50248FFF7B4FAD2
:1035F00010BD00005C03002070B505460C4607486E
:10360000074908600846446000218160C560016187
:10361000FFF742FA0248FFF78FFA70BD000400403E
:103620005C03002010B50248FFF796FA10BD0000B9
:1036300098030020002202682C4B98420ED0B0F173
:10364000804F0BD02A4B984208D02A4B984205D085
:10365000294B984202D0294B984201D1012300E026
:1036600000231BB122F070024B681A431F4B984293
:1036700020D0B0F1804F1DD01D4B98421AD01D4B69
:10368000984217D01C4B984214D01C4B984211D032
:103690001B4B98420ED01B4B98420BD01A4B9842B2
:1036A00008D01A4B984205D0194B984202D0194BBA
:1036B000984201D1012300E000231BB122F44072A3
:1036C000CB681A4302608B68C3620B688362074B46
:1036D000984202D0094B984201D1012300E0002317
:1036E0000BB10B6903630123436170470000014084
:1036F0000004004000080040000C004000040140AD
:1037000000400140004401400048014000180040D2
:10371000001C0040002000402DE9F0410446002537
:103720002068056925F44055E06805432068056177
:103730002068C56849F20C6085432169A068084388
:1037400061690843E169084305432068C560206852
:10375000456925F44075A069054320684561E06925
:10376000B0F5004F72D173492068884203D0724986
:103770002068884234D1FEF7EBFE00EBC00101EB7C
:10378000001061684900B0FBF1F06421B0FBF1F674
:10379000FEF7DEFE00EBC00101EB0010616849009E
:1037A000B0FBF1F7FEF7D4FE00EBC00101EB001017
:1037B00061684900B0FBF1F06421B0FBF1F000EB6F
:1037C000C00101EB0010A7EB8000322101EB0010DB
:1037D0006421B0FBF1F066F31F1021688860A6E059
:1037E000FEF7A0FE00EBC00101EB0010616849008C
:1037F000B0FBF1F06421B0FBF1F6FEF793FE00EBB5
:10380000C00101EB001061684900B0FBF1F7FEF761
:1038100089FE00EBC00101EB001061684900B0FBBC
:10382000F1F06421B0FBF1F000EBC00101EB0010FE
:10383000A7EB8000322101EB00106421B0FBF1F016
:1038400066F31F102168886071E0FFE7394920683E
:10385000884203D038492068884234D1FEF778FE88
:1038600000EBC00101EB001061688900B0FBF1F0D2
:103870006421B0FBF1F6FEF76BFE00EBC00101EB3B
:10388000001061688900B0FBF1F7FEF761FE00EB04
:10389000C00101EB001061688900B0FBF1F0642108
:1038A000B0FBF1F000EBC00101EB0010A7EB8000D2
:1038B000322101EB00106421B0FBF1F066F31F1020
:1038C0002168886033E0FEF72DFE00EBC00101EBBC
:1038D000001061688900B0FBF1F06421B0FBF1F6E3
:1038E000FEF720FE00EBC00101EB001061688900CB
:1038F000B0FBF1F7FEF716FE00EBC00101EB001084
:1039000061688900B0FBF1F06421B0FBF1F000EBDD
:10391000C00101EB0010A7EB8000322101EB001089
:103920006421B0FBF1F066F31F1021688860BDE8E8
:10393000F081000000100140001401402DE9F04129
:1039400004460E4617461D464FF00008FEF710FBD2
:1039500080469FBB2BE0681C48B32DB1FEF708FBE7
:10396000A0EB0800A84222D92068C06820F080009F
:103970002168C8602068C06820F020002168C86005
:103980002068C06820F480702168C86020684069A1
:1039900020F0010021684861012084F8390000BF4F
:1039A000002084F8380000BF0320BDE8F0812068C3
:1039B00000683040B04202D1012001E003E0002065
:1039C0000028C8D035E02AE0681C40B32DB1FEF7CE
:1039D000CFFAA0EB0800A84221D92068C06820F0E7
:1039E00080002168C8602068C06820F0200021683D
:1039F000C8602068C06820F480702168C8602068B2
:103A0000406920F0010021684861012084F83900F4
:103A100000BF002084F8380000BF0320C5E72068FD
:103A200000683040B04201D1012000E000200028B1
:103A3000CAD10020B9E700002DE9F04F8DB0002475
:103A400000200A900B900C900790089009908146F6
:103A50008346039004900590069000270190029001
:103A6000002500268246F4A1F748FCF718FC06461C
:103A7000002E16D00A22F549F54800680AF05EFFCC
:103A800001F016F800BFF3A2D221FCA001F072F8F9
:103A9000EF4800680BF06AF8012002F06BF9FFF7BD
:103AA000E7FA0026FEA1E848FCF7F9FB0646002EDF
:103AB0007ED00A22E549E64800680AF03FFF06F199
:103AC0000E050024A0468AE015F808002C2803D033
:103AD00015F808002E286CD107A901F80480012CE4
:103AE0001DDB042C1BDC00200A900B900C9007A817
:103AF000035D601E8C461CF80000181A421E601EF2
:103B000007AB185C2844411C0AA8FCF7A4FB0AA8D0
:103B1000FCF7EBFBC2B2611E0DF10D004254052C07
:103B20001AD100200A900B900C9007A8035D601E2C
:103B30000DF11C0C1CF80000181A421E601E07AB89
:103B4000185C2844411C0AA8FCF785FB0AA8FCF76E
:103B5000CCFB80B2ADF81200062C1DDB092C1BDC5F
:103B600000200A900B900C9007A8035D601E0DF1D9
:103B70001C0C1CF80000181A421E601E07AB185CD3
:103B80002844411C0AA8FCF766FB0AA8FCF7ADFB19
:103B9000C2B2A01F05A90A540A2C1DD100200A9008
:103BA0000B900C9007A8035D601E0DF11C0C01E04A
:103BB00036E012E01CF80000181A421E601E07AB27
:103BC000185C2844411C0AA8FCF745FB0AA8FCF72E
:103BD0008CFB80B2ADF81800641C08F1010828467F
:103BE000FCF76FFB40453FF66FAF01208DF80C00EE
:103BF00003A80FC8FFF7B2FB5146002006F024F9D6
:103C000000BF94A24FF482719CA000F0B3FF9048D3
:103C100000680AF0ABFF012002F0ACF8FFF728FAC9
:103C20000026A3A18848FCF73AFB0646002E7AD06E
:103C30000A228649864800680AF080FE06F10E05D1
:103C40000024A04667E015F808002C2861D107A9D8
:103C500001F80480012C1BD100200A900B900C90DD
:103C600007A8035D601E8C461CF80000181A421E4F
:103C7000601E07AB185C2844411C0AA8FCF7EBFA4D
:103C80000AA8FCF732FB0090FCF7C4FC8C4A03C284
:103C9000022C1DD100200A900B900C9007A8035D08
:103CA000601E0DF11C0C1CF80000181A421E601E4C
:103CB00007AB185C2844411C0AA8FCF7CCFA0AA8F8
:103CC000FCF713FB0090FCF7A5FC7D4AC2E902015A
:103CD000032C1DD100200A900B900C9007A8035DC7
:103CE000601E0DF11C0C1CF80000181A421E601E0C
:103CF00007AB185C2844411C0AA8FCF7ACFA0AA8D8
:103D0000FCF7F3FA0090FCF785FC6D4AC2E9040168
:103D1000641C08F101082846FCF7D3FA404592D804
:103D20000120FFF7E9F9002666A14748FCF7B7FA3A
:103D30000646002E7ED00A224449454800680AF013
:103D4000FDFD06F10E050024A046D9E015F8080097
:103D50002C2870D107A901F80480012C18D100206B
:103D60000A900B900C9007A8035D601E8C461CF80F
:103D70000000181A421E601E07AB185C2844411C44
:103D80000AA8FCF768FA0AA8FCF7AFFA51490870CC
:103D9000022C1ED100200A900B900C9007A8035D06
:103DA000601E0DF11C0C1CF80000181A421E601E4B
:103DB00007AB185C2844411C0AA8FCF74CFA0AA877
:103DC000FCF793FA0090FCF725FC424A0932106098
:103DD0005160032C1ED100200A900B900C9007A874
:103DE000035D601E0DF11C0C1CF80000181A421E29
:103DF000601E07AB185C2844411C0AA8FCF72BFA8C
:103E00000AA8FCF772FA0090FCF704FC314A113260
:103E100010605160042C70D100200A900B900C901F
:103E200007A8035D601E0DF11C0C1CF80000181A99
:103E3000421E51E06DE061E048442D526F626F74A4
:103E40002D436D643D31000048AD01202601002066
:103E5000300100202E2E5C4C5749505C6C77697005
:103E60005F6170705C7564705F64656D6F5C7564D4
:103E7000705F64656D6F2E63000000000D0A52656F
:103E8000626F6F7420646576696365206174206C6D
:103E9000696E6520256420696E2025730D0A000077
:103EA00048442D526F626F742D436D643D322C0077
:103EB00048442D526F626F742D436D643D332C0066
:103EC0003800002048442D526F626F742D436D649A
:103ED0003D342C0099020020601E07AB185C28447A
:103EE000411C0AA8FCF7B7F90AA8FCF7FEF90090F4
:103EF000FCF790FB5C4A10605160641C08F10108FB
:103F00002846FCF7DEF940453FF620AF012057492F
:103F10000870002656A15748FCF7C1F90646002E46
:103F200072D01921002005F0A1FF0746002F6CD0A8
:103F300019213846FCF7A8F90020019002901922B7
:103F400031463846FCF787F94A4801680191808874
:103F5000ADF8080097F80290B9F1010F12D0B9F14D
:103F6000020F30D0B9F1030F50D0B9F1FE0F6FD16D
:103F7000B7F8170044F22521884202D1384600F0F4
:103F800097F866E0BDF8070044F22521884219D170
:103F9000394800210160017144F2484036490880E7
:103FA00044F22520A1F80300012088700A22334939
:103FB000334800680AF0C2FC05222F4930480068E7
:103FC0000AF01CFC45E0BDF8070044F225218842B8
:103FD00019D1294800210160017144F24840264965
:103FE000088044F22520A1F80300022088700A22EC
:103FF0002249234800680AF0A1FC05221E492048F6
:1040000000680AF0FBFB24E028E023E0BDF807008D
:1040100044F22521884219D117480021016001711D
:1040200044F248401449088044F22520A1F80300D6
:10403000032088700A221149114800680AF07EFCAA
:1040400005220D490E4800680AF0D8FB01E0FFE7A1
:1040500000BF00BF3946002005F0F6FE0AF02AFC3A
:104060000DB0BDE8F08F00009A0200200E00002085
:104070004844000048AD01203B01002026010020FB
:10408000300100202DE9F04104460D460026274668
:10409000A846A2B2731E41460448FEF7C7FE064674
:1040A00016B10120BDE8F0810020FBE7D40200201A
:1040B0002DE9F0472DED108BA2B00446142117A86E
:1040C000FCF7E2F828210DA8FCF7DEF800259FEDAB
:1040D000FE0BB0EE40AAF0EE60AA9FEDFB0BB0EE37
:1040E00040BAF0EE60BA00260027A846A9469FED28
:1040F000F80AB0EE408A9FEDF60AF0EE408A9FED96
:10410000F40AB0EE409A9FEDF20AF0EE409A9FED6D
:10411000F00A8DED0C0AEF480068EF490860EF489F
:104120000068EF490860D4F80500EA490860D4F84F
:104130000A00EA490860E74A1268E74B1B68D11A8F
:10414000002901DB0A4600E04A4240F2DC539A4271
:104150000DDCE24A1268E24B1B68D01A002801DB32
:10416000024600E0424240F2DC539A420BDDDA4A5A
:10417000126842B1DA4A12682AB1002022B0BDECBE
:10418000108BBDE8F087D748007801287DD1D14851
:104190000068F0B1D1480068D8B1CE480068D24973
:1041A000884216D2CD480068884212D2CF480068B3
:1041B000401CCE490860CE480068C64909680844DA
:1041C000CB490860CB480068C44909680844C9491C
:1041D0000860C64800681428D8D10020C14908707A
:1041E000C2490860C24800681421B0FBF1F0C2491E
:1041F0000860C04800681421B0FBF1F0BF490860B6
:104200000020BB490860BB490860BB480068FCF758
:1042100012FA41EC1C0BBA490868496841EC100BD2
:1042200053EC102B51EC1C0BFCF710F941EC1A0B62
:10423000B2480068FCF7FFF941EC1C0BB0490831AB
:104240000868496841EC100B53EC102B51EC1C0B27
:10425000FCF7FCF841EC1B0B9FEDAA0B53EC102B69
:1042600051EC1A0BFCF720FA08D39FEDA60B53EC88
:10427000102B51EC1B0BFCF717FA14D228210DA8B8
:10428000FCF702F8A1A10DA800E084E000F082FC98
:104290000DA8FCF716F8824652460DA9A4480068FE
:1042A0000AF04CFB72E0964809380078012817D1D3
:1042B000A0490872A04890ED001BB0EE410AF0EE54
:1042C000610A51EC100BFCF707FA09EE100A012104
:1042D0009848417280ED04AB80ED06BBFEF7EEFF1F
:1042E00087480938007802281AD10121914880F8BE
:1042F0002810914890ED021BB0EE410AF0EE610AE1
:1043000051EC100BFCF7E8F909EE100A022189487C
:1043100080F8291080ED0CAB80ED0EBBFEF7EAFFB4
:1043200077480938007803281AD10121814880F89C
:104330004810814890ED041BB0EE410AF0EE610A8E
:1043400051EC100BFCF7C8F909EE100A032179486B
:1043500080F8491080ED14AB80ED16BBFFF734F800
:1043600028210DA8FBF790FF8DED00BB53EC1A2B15
:1043700072A10DA800F00EFC0DA8FBF7A2FF82466B
:1043800052460DA96A4800680AF0D8FA00205A4936
:1043900008605A49086000216648817280F82A1036
:1043A00080F84A106D488078012850D16148807AA1
:1043B000E8BB48480068FCF73EF941EC1D0B5D483E
:1043C00090ED041BB0EE410AF0EE610A53EC102BA5
:1043D00051EC1D0BFBF796FF41EC1C0BFCF77CF935
:1043E00008EE100A3D480068FCF725F941EC1D0B6A
:1043F000504890ED061BB0EE410AF0EE610A53EC16
:10440000102B51EC1D0BFBF77DFF41EC1C0BFCF757
:1044100063F908EE900A484890ED001BB0EE410A9F
:10442000F0EE610A51EC100BFCF756F900E00EE0DB
:1044300009EE100A3F4890ED081BB0EE410AF0EE7D
:10444000610A51EC100BFCF747F90C90F7E1434877
:104450008078012836D13748807A012832D11F4828
:104460000068FCF7E8F841EC1D0B324890ED061BA4
:10447000B0EE410AF0EE610A53EC102B51EC1D0B2B
:10448000FBF740FF41EC1C0BFCF726F908EE100A85
:1044900010480068FCF7CFF841EC1D0B254890ED63
:1044A000041BB0EE410AF0EE610A53EC102B51EC04
:1044B0001D0BFBF727FF41EC1C0BFCF70DF908EE79
:1044C000900A4DE066E000000000000000000000DF
:1044D00000000000C8000020D0000020CC00002018
:1044E000D40000200E000020A0860100B8000020AB
:1044F0005000002054000020C0000020C400002014
:10450000A20200200000000000407F404572722C93
:10451000415F64697374616E63655F4F666673655E
:104520007456616C7565203E203530300D0A0000F0
:1045300030010020F801002038000020415F6F6644
:1045400066736574203D2025662C20425F6F666689
:10455000736574203D2025660D0A00003B01002094
:10456000FE4890ED001BB0EE410AF0EE610A51ECFE
:10457000100BFCF7B1F809EE100AF94890ED081B92
:10458000B0EE410AF0EE610A51EC100BFCF7A4F812
:104590000C9054E1F3488078022851D1F04890F80B
:1045A0002A00E8BBF0480068FCF745F841EC1D0B19
:1045B000EB4890ED0C1BB0EE410AF0EE610A53ECB3
:1045C000102B51EC1D0BFBF79DFE41EC1C0BFCF777
:1045D00083F808EE100AE5480068FCF72CF841EC77
:1045E0001D0BDF4890ED0E1BB0EE410AF0EE610AA4
:1045F00053EC102B51EC1D0BFBF784FE41EC1C0B14
:10460000FCF76AF808EE900AD44890ED021BB0EE71
:10461000410AF0EE610A51EC100BFCF75DF800E086
:104620000EE009EE100ACE4890ED101BB0EE410AE4
:10463000F0EE610A51EC100BFCF74EF80C90FEE026
:10464000C8488078022850D1C54890F82A0001282F
:104650004BD1C6480068FBF7EEFF41EC1D0BC0488C
:1046600090ED0E1BB0EE410AF0EE610A53EC102BF8
:1046700051EC1D0BFBF746FE41EC1C0BFCF72CF834
:1046800008EE100AB8480068FBF7D5FF41EC1D0B97
:10469000B34890ED0C1BB0EE410AF0EE610A53EC0A
:1046A000102B51EC1D0BFBF72DFE41EC1C0BFCF706
:1046B00013F808EE900AA94890ED021BB0EE410AEB
:1046C000F0EE610A51EC100BFCF706F809EE100A47
:1046D000A34890ED101BB0EE410AF0EE610A51ECD8
:1046E000100BFBF7F9FF0C90A9E09E488078032897
:1046F00051D19B4890F84A00E8BB9B480068FBF703
:104700009AFF41EC1D0B964890ED141BB0EE410A48
:10471000F0EE610A53EC102B51EC1D0BFBF7F2FD90
:1047200041EC1C0BFBF7D8FF08EE100A8F4800681D
:10473000FBF781FF41EC1D0B894890ED161BB0EE95
:10474000410AF0EE610A53EC102B51EC1D0BFBF704
:10475000D9FD41EC1C0BFBF7BFFF08EE900A7F4828
:1047600090ED041BB0EE410AF0EE610A51EC100B23
:10477000FBF7B2FF00E00EE009EE100A784890ED7A
:10478000181BB0EE410AF0EE610A51EC100BFBF77A
:10479000A3FF0C9053E07348807803284FD17048F2
:1047A00090F84A0001284AD170480068FBF743FF9F
:1047B00041EC1D0B6A4890ED161BB0EE410AF0EE7D
:1047C000610A53EC102B51EC1D0BFBF79BFD41ECE8
:1047D0001C0BFBF781FF08EE100A63480068FBF72B
:1047E0002AFF41EC1D0B5E4890ED141BB0EE410A10
:1047F000F0EE610A53EC102B51EC1D0BFBF782FD20
:1048000041EC1C0BFBF768FF08EE900A534890ED53
:10481000041BB0EE410AF0EE610A51EC100BFBF7FD
:104820005BFF09EE100A4E4890ED181BB0EE410AEE
:10483000F0EE610A51EC100BFBF74EFF0C901821C3
:104840001CA8FBF721FDE0788DF8720020798DF827
:104850007300607A8DF87800424880788DF8810086
:10486000A07D8DF8820044F24840ADF8700044F21B
:104870002520ADF8830038EE280AB4EEC90AF1EE1F
:1048800010FA79DD38EE090AB4EEE80AF1EE10FA12
:1048900072DD38EE890AB4EEC80AF1EE10FA6BDD6B
:1048A000B0EE000A28EE000A20EE090A10EE101AF7
:1048B0000846FBF7CDFECDE9060118EE900AFBF79E
:1048C000C7FE41EC1D0B9FED2A1BB0EE4D0AF0EE2A
:1048D0006D0A00F03DFB8DED020B19EE100AFBF79F
:1048E000B7FE41EC1E0B9FED221BB0EE4E0AF0EE20
:1048F0006E0A00F02DFBB0EE40DAF0EE60DA18EE52
:10490000100AFBF7A5FE41EC1E0B9FED191BB0EE44
:104910004E0AF0EE6E0A00F01BFBB0EE40FAF0EE2D
:1049200060FA53EC1D2B51EC1F0BFBF7EBFCCDE9B0
:1049300000019DED020B53EC102B9DED000B51EC93
:10494000100BFBF780FDCDE904019DED060B53EC48
:10495000102B9DED040B51EC100B0EE038000020E5
:10496000F80100203B010020C8000020CC000020FE
:1049700000000000000000402AE0FBF7DCFD41ECF5
:104980001C0BB0EE4C0AF0EE6C0A00F035F98DED20
:10499000080B9FED330B53EC102B9DED080B51ECE6
:1049A000100BFBF756FDCDE90A019DED0A0B51EC0A
:1049B000100BFBF791FE09EE900A9FED2B0A29EEF2
:1049C000800ABCEEC00A10EE100ACDF87D0002E0AD
:1049D0000020CDF87D0025480068B8B12448006863
:1049E000A0B1B5EEC08AF1EE10FA0FDDB5EEC08AC7
:1049F000F1EE10FA0ADDBCEEC80A8DED1D0ABCEE20
:104A0000E80A10EE100ACDF8790005E00020CDF894
:104A10007D001D90CDF8790015221CA917A8FBF781
:104A20001AFC4FF0000A0AE017A911F80A200DA994
:104A300001EB4A000FA100F0ADF80AF1010ABAF14A
:104A4000150FF1D30DA92A20FFF71CFB2A220DA96F
:104A50000A48006809F072FF0120FFF78FBB0000D1
:104A6000F8C1631ADCA54C4000007A44C80000205D
:104A7000CC000020253032780000000030010020FA
:104A800000B5A9B0A0216846FBF7FEFB28226946C5
:104A90000648FEF77DFC00208DF8000028226946BC
:104AA0000248FEF7ADFC29B000BD0000000006087A
:104AB00000B5A9B0A0216846FBF7E6FB28226946AD
:104AC0000648FEF765FC24208DF800002822694680
:104AD0000248FEF795FC29B000BD00000000060862
:104AE00000BFFEE700BF15A2712116A000F042F83A
:104AF0001D4800680AF03AF8012080F3108800BFD2
:104B000000BF00BF00BF00BF00BFBFF34F8F00BF9B
:104B100000BF00BF1548006800F4E0601449084376
:104B2000001D1249086000BF00BF00BFBFF34F8FD8
:104B300000BF00BF00BF00BF00BFFDE76D61696E31
:104B40002E6300000D0A5265626F6F7420646576F3
:104B5000696365206174206C696E65202564206935
:104B60006E2025730D0A0000300100200CED00E0DE
:104B70000000FA050FB4054B10B503A9044A0298CA
:104B800001F0C4F910BC5DF814FB00006577010862
:104B9000DC0100200FB4084B10B504A902AA039849
:104BA00001F0B4F9044602A9002001F046FD2046B8
:104BB00010BC5DF814FB00003B66010803B40198CB
:104BC0004100009850EAC12018BF04204A0D18BFC8
:104BD00040F0010040F2FF72B2EB515F08BF40F0BD
:104BE0000200012808BF052002B070470048704746
:104BF000E00100200000000010B5B94A2DED020BC5
:104C00002DED0C8B82B00F9921F000409FEDB6CBBB
:104C100090422CDBA0F140530E9AA3F17F631A431C
:104C20000FD0B349884202DC16D10E98A0B19DED99
:104C30000E0B02B0BDEC0C8B02B0BDE8104001F0D1
:104C400043B80029C1BF9FEDAC0B02B0BDEC0C8B8B
:104C500002B0C8BF10BD16E0012001F08FF802B00D
:104C6000BDEC0C8B02B0BDE8104001F041B8A44A85
:104C70009FEDA59B9FEDA6AB90425EDAA6499FED06
:104C8000A8CB814208DBB0EE4C0AF0EE6C0A02B011
:104C9000BDEC0C8B02B010BD9DED0E0B53EC102B38
:104CA00051EC100BFBF7D5FB41EC180B9E4806218D
:104CB000B0EE480AF0EE680A784400F071FF53EC59
:104CC000182B51EC100BFBF7C4FB41EC1B0B974866
:104CD000B0EE480AF0EE680A0421784400F060FF64
:104CE00053EC182B51EC100BFBF7B3FB53EC192BC7
:104CF000FBF708FB41EC100B51EC1B0B53EC102B9A
:104D0000FBF719FC41EC100B53EC102B9DED0E0B37
:104D100051EC100BFBF79DFB53EC1A2BFBF796FBAA
:104D20009DED0E1B53EC112BFBF790FB53EC1C2B52
:104D3000FBF78CFB41EC100BA9E79FED7D8B9FED02
:104D40007EBB9DED0E0B002953EC192B51EC100B83
:104D500052DAFBF7D7FA53EC182BFBF77AFB41EC4E
:104D6000180B77480621B0EE480AF0EE680A78443E
:104D700000F016FF53EC182B51EC100BFBF769FBFE
:104D800041EC1D0B6F48B0EE480AF0EE680A0421B2
:104D9000784400F005FF53EC182B51EC100BFBF797
:104DA00058FB53EC192BFBF7ADFA41EC190B51EC06
:104DB000180B06F0DFF941EC180B53EC192B51ECF2
:104DC0001D0BFBF7B8FB53EC182BFBF742FB53EC26
:104DD0001A2BFBF738FB41EC100B51EC180B53EC82
:104DE000102BFBF78FFA53EC1B2BFBF732FB53EC2A
:104DF0001C2BFBF72BFB6DE0FBF728FB53EC182B70
:104E0000FBF727FB41EC180B06F0B4F941EC1A0B49
:104E100000208DED00AB00909DED000B51EC1A0BC6
:104E200053EC102BFBF76EFA9DED000B41EC1C0BC5
:104E300053EC102B51EC100BFBF70BFB53EC182B26
:104E4000FBF704FB53EC1C2BFBF775FB41EC1C0B35
:104E50003D48B0EE480AF0EE680A0621784400F0BA
:104E60009FFE53EC182B51EC100BFBF7F2FA41ECC0
:104E70001D0B3648B0EE480AF0EE680A042178446B
:104E800000F08EFE53EC182B51EC100BFBF7E1FAFF
:104E900053EC192BFBF736FA41EC100B51EC1D0BC0
:104EA00053EC102BFBF747FB53EC1A2BFBF7D1FA13
:104EB00053EC1C2BFBF726FA41EC100B53EC102B98
:104EC0009DED000B51EC100BFBF71CFA53EC1B2B68
:104ED000FBF7BFFA41EC100BD9E600000000000020
:104EE0000000F03F00000000182D4454FB21094051
:104EF0000000F07F00000000000000000000000043
:104F00000000E03F00000000000000000000F03F53
:104F1000075C143326A6913C0000603C00000000B2
:104F2000182D4454FB21F93F34A5000042A5000090
:104F3000000000000000E03F000000000000004012
:104F40007EA400008CA4000090A300009EA300009B
:104F50002DE9F04D2DED040B2DED0E8B96B0DDE916
:104F60002550279CDDF890A025F0004624F000484D
:104F7000BAF1000F14BF0121002101EB4502FC49E9
:104F800053184A1093422AD3002814BF0123002348
:104F900003EB44030B44F7498B4220D358EA00014A
:104FA0009FEDF59B76D0DFF8D8B35D4503D1BAF11C
:104FB000000F05D188E0BAF1000F08BF002100D032
:104FC000012101EB450111F5001F08D8002814BF8D
:104FD0000121002101EB440111F5001F0BD99DEDCA
:104FE000261B9DED240B16B0BDEC0E8B04B0BDE866
:104FF000F04D00F073BE0027002DBCBFE14988458D
:1050000021DAE1498845A8BF02271CDAC3451ADC2A
:10501000DE4901EB2851142908DDC1F1340220FAE0
:1050200002F101FA02F282420DD108E058B9C1F151
:10503000140228FA02F101FA02F2424503D101F00A
:105040000101C1F1020756EA0A0124D1002C22DA3B
:10505000002D18BF022F01D0012F0AD0022000F02E
:105060008DFE16B0BDEC0E8B04B0BDE8F04D00F027
:1050700013BE022000F082FE00F00EFE51EC100B79
:1050800081F0004141EC100B16B0BDEC0E8B04B06A
:10509000BDE8F08D18E09FEDBEAB9FEDBF8B002803
:1050A00071D1B848804522D105F1804010F58010BB
:1050B00008BFBAF1000F07D0B3450ADC002CA8BF27
:1050C0009DED260BE0DA0DE0B0EE490AF0EE690A3C
:1050D000DAE7002C06DA9DED260B51EC100B81F07F
:1050E00000416FE0AE48784490ED000BCCE7D84526
:1050F0004DD1002C48DA2EB186423AD1BAF1000FD8
:1051000042D126E0BAF1000F13D0022000F036FEA3
:1051100000F0FEFD8DED020B9DED240B8DED000BDF
:1051200010EE900A039961F31E0003909DED020BAF
:10513000AAE78DED02AB9DED240B1AEE901A10EE4E
:10514000900A8DED000B61F31E0003909DED020BA4
:105150009AE78DED028B9DED240B18EE901A10EE60
:10516000900A8DED000B61F31E0003909DED020B84
:105170008AE709DA9DED240B51EC190B53EC102B47
:10518000FBF7D9F91EE020E09DED240B7CE7864279
:105190001BDAB4F1804F0DD0A4F10050B0F1FF50F4
:1051A00013D1002D11DB9DED240B51EC100B05F0FC
:1051B000E1FF07E09DED240B53EC102B51EC100B9D
:1051C00000F0C2BC41EC100B5EE79DED240B51ECEE
:1051D000100B02F0BBFABAF1000FCDE90E0142D17B
:1051E0009FED710B46B3A6F1E040B0F17F600CD0AB
:1051F0005E4538D1002D00DAA7B3022F0CBF012085
:105200004FF0FF30FBF706FADCE7002D01DD002C44
:105210000DDA002D01DD002C1FDB002D16DA002C2D
:1052200014DB012F08BF9FED620B3FF42DAFB0EEF2
:105230004A0AF0EE6A0A27E7022F18BF002D0CD0A9
:10524000012F0AD1002DFFF61FAF06E0002DB8BFD9
:10525000002C08DA012F3FF417AFB0EE480AF0EE49
:10526000680A11E71BE0012000EBE57050EA070136
:1052700015D0791EB0EE498AF0EE698A084308BF5E
:105280009FED4D8B4E480025804570DD4D494E48C1
:10529000884514DDB0420DDB002C19DB2FE0012026
:1052A00000F06CFD16B0BDEC0E8B04B0BDE8F04D07
:1052B00000F01EBDB34502DC002C09DC1FE0864275
:1052C00002DA002C1BDA03E05E452BDD002C16DD34
:1052D000022000F053FD00F01BFD8DED020B53EC9E
:1052E0001A2B51EC180BFBF7B4F8CDE90001039928
:1052F000019861F31E0003909DED020BC4E60220AD
:1053000000F03CFD00F014FD10EE901A18EE900A2B
:105310008DED020B8DED008B61F31E0003909DED72
:10532000020BB1E69DED0E0B53EC192B51EC100B5B
:10533000FBF789F89FED260BCDE9080153EC102B04
:105340009DED080B51EC100BFBF783F89FED221B32
:1053500053EC112BFBF77AF89DED081B53EC112B46
:10536000FBF777F89FED1E1B53EC112B3CE08CE014
:10537000FFFF1F00FFFF0F00000000000000F03FD4
:105380000000F03F0000F07F0000404301FCFFFF01
:10539000000000000000F07F00000000000000009E
:1053A000DEA10000000000000000000000000080FE
:1053B000000000000000F0FF000000000000F0BF4F
:1053C0000000E0410000F043FFFFEF3F000000005D
:1053D000000000000000D03F555555555555D53FAC
:1053E000000000000000E03FFBF730F89DED080BE7
:1053F00041EC1A0B53EC102B51EC100BFBF729F876
:1054000053EC1A2BFBF725F841EC1A0B9FEDFE0B22
:1054100053EC102B9DED080B51EC100BFBF719F81A
:1054200041EC1B0B9FEDFA0B51EC1A0B53EC102BBC
:10543000FBF70FF841EC1A0B9FEDF70B53EC102B19
:105440009DED080B51EC100BFBF703F853EC1A2BF6
:10545000FAF7F9FF41EC1A0B51EC1B0B53EC1A2B2A
:10546000FAF750FF0690CDE906519DED060B53EC7F
:105470001B2B51EC100BFAF7E6FF53EC1A2BFAF743
:10548000E5FF41EC100B00F0A1B90020B6F5801F3C
:105490000EDA9FEDE30B53EC102B9DED0E0B51EC50
:1054A000100BFAF7D6FFCDE90E016FF034000E466F
:1054B00000EB2650A0F2FF37C6F31300DA4940F0A4
:1054C0007F6646F040568842D8BF002408DDD749A1
:1054D0008142C8BF012403DC0024A6F580167F1C8E
:1054E000D348784400EBC4000F9690ED00CB9DEDBF
:1054F0000E0B53EC1C2B51EC100BFAF7A4FF9DED97
:105500000E0B41EC1B0B53EC1C2B51EC100BFAF760
:10551000F9FE41EC100B51EC190B53EC102BFBF77F
:105520000AF841EC1D0B51EC1B0B53EC1D2BFAF749
:1055300090FF41EC1A0BBF488DED10AB78441095ED
:1055400090ED000B4FF0005040EA660000EB844005
:105550008DED080B00F5002009909DED080B53EC34
:105560001C2B51EC100BFAF76EFF9DED0E1B53EC4C
:10557000112BFAF76BFF41EC100B53EC102B9DED48
:10558000100B51EC100BFAF764FF9DED080B41EC8A
:105590001C0B53EC102B9DED100B51EC100BFAF77C
:1055A00058FF53EC1B2BFAF751FF53EC1C2BFAF767
:1055B0004AFF53EC1D2BFAF74CFF41EC1C0B53EC4C
:1055C0001A2B51EC1A0BFAF744FF41EC1B0B9A48CB
:1055D0000621B0EE4B0AF0EE6B0A784400F0E0FAD8
:1055E000B0EE401AF0EE601AB0EE41DAF0EE61DA99
:1055F00053EC1B2B51EC1B0BFAF72BFF53EC1D2B21
:10560000FAF727FF9DED100B41EC1B0B53EC1A2B07
:1056100051EC100BFAF776FE53EC1C2BFAF719FF3E
:1056200053EC1B2BFAF76EFE9DED100B41EC1B0BA0
:1056300053EC102B51EC100BFAF70BFF41EC1D0B48
:105640009FED7FEB53EC1E2BFAF75CFE53EC1B2B0C
:10565000FAF758FE0890CDE908519DED080B53EC80
:105660001E2B51EC100BFAF7EEFE53EC1D2BFAF744
:10567000EAFE53EC1B2BFAF7E9FE9DED080B41EC1B
:105680001D0B53EC102B9DED100B51EC100BFAF78A
:10569000E0FE41EC1B0B53EC1A2B51EC1D0BFAF7FF
:1056A000D8FE9DED080B41EC1A0B53EC102B51EC7E
:1056B0001C0BFAF7CEFE53EC1A2BFAF723FE41EC43
:1056C0001A0B51EC1B0B53EC1A2BFAF71BFE0C9028
:1056D000CDE90C519DED0C0B53EC1B2B51EC100B39
:1056E000FAF7B1FE53EC1A2BFAF7B0FE41EC1B0BA4
:1056F0009FED550B53EC102B9DED0C0B51EC100B4B
:10570000FAF7A7FE41EC1A0B9FED510B51EC1B0B66
:1057100053EC102BFAF79DFE41EC1B0B9FED4E0B4B
:1057200053EC102B9DED0C0B51EC100BFAF791FE86
:1057300053EC1B2BFAF7E6FD41EC100B484878447C
:1057400000EBC40090ED001B51EC100B53EC112B3F
:10575000FAF7D8FD41EC1B0B3846FAF75BFFCDE9B1
:10576000080153EC1B2B51EC1A0BFAF7CBFD41EC63
:10577000100B3C48784400EBC40090ED00CB51EC9A
:10578000100B53EC1C2BFAF7BDFD9DED081B53ECE1
:10579000112BFAF7B7FD0690CDE906519DED080BE8
:1057A00053EC102B9DED060B51EC100BFAF74BFE52
:1057B00053EC1C2BFAF747FE53EC1A2BFAF743FE77
:1057C00053EC1B2BFAF742FE41EC100B9DED261B10
:1057D00053EC102B8DED001B00959DED260B51EC2D
:1057E000100BFAF736FE9DED000B41EC1A0B53EC53
:1057F000102B9DED260B51EC100BFAF724FE9DEDBE
:10580000061B53EC112B2FE0000000604715F73FFB
:10581000FE822B654715F73F44DF5DF80BAE543E23
:1058200000000000000040438E9803007AB60B0091
:105830005A9D0000889D0000929C0000000000001E
:105840000000000000000840000000E009C7EE3F33
:10585000FD033ADC09C7EE3FF5015B14E02F3EBEC5
:105860001E9B0000D89A0000FAF7F3FD53EC1A2BA8
:10587000FAF748FD9DED060B41EC1A0B53EC102B8B
:105880009DED000B51EC100BFAF7E3FDCDE90C0197
:105890009DED0C0B51EC1A0B53EC102BFAF732FD6B
:1058A000CDE902010C46AA498C422FDB611A08435C
:1058B00018D19DED0C0B53EC102B9DED020B51EC10
:1058C000100BFAF7C0FD41EC1B0B9FEDA30B51EC45
:1058D0001A0B53EC102BFAF715FD53EC1B2BFAF7B0
:1058E000E3FE2DD2022000F049FA00F011FA10EE8A
:1058F000901A18EE900A8DED020B8DED008B61F37E
:105900001E0003909DED020BFFF7BEBB944A24F0EE
:105910000041914214D39349214408437FF4EFACF2
:105920009DED0C0B53EC102B9DED020B51EC100B6D
:10593000FAF789FD53EC1A2BFAF7B6FE7FF6DFACC7
:1059400024F000408849894A002601EB2051824218
:105950002BDA481C4FF4801121FA00F02044844ACD
:10596000C0F30A517A44A1F2FF3192ED000B814A53
:105970008DED080BCA4020EA0202C0F3130040F488
:105980008010C1F1140120FA01F60992002CB8BF71
:1059900076429DED080B53EC102B9DED0C0B51EC5A
:1059A000100BFAF750FDCDE90C019DED0C0B51ECFD
:1059B0001A0B53EC102BFAF7A5FC9FED6F0B089018
:1059C000CDE9085153EC102B9DED080B51EC100B59
:1059D000FAF73FFD41EC1B0B9FED690B53EC102BCD
:1059E0009DED080B51EC100BFAF733FD9DED0C0B00
:1059F00041EC1C0B53EC102B9DED080B51EC100BE4
:105A0000FAF721FD53EC1A2BFAF720FD9FED5E1BF0
:105A100053EC112BFAF71DFD53EC1C2BFAF772FC1B
:105A200041EC1A0B51EC1B0B53EC1A2BFAF76AFCE6
:105A3000CDE902019DED020B53EC1B2B51EC100B39
:105A4000FAF701FD53EC1A2BFAF700FD9DED020B5E
:105A500041EC1A0B53EC102B51EC100BFAF7F9FC3C
:105A6000CDE908014A489DED080B0521784400F076
:105A700097F89DED081B51EC100B53EC112BFAF726
:105A8000E8FC9DED021B53EC112BFAF7DFFCCDE98E
:105A900006019DED020B53EC1A2B51EC100BFAF79B
:105AA000D8FC53EC1A2BFAF72DFC9FED3B0B41EC85
:105AB0001A0B53EC102B9DED060B51EC100BFAF763
:105AC000C2FC9DED060B41EC1B0B53EC102B9DED26
:105AD000020B51EC100BFAF7BCFC53EC1B2BFAF742
