:020000040800F2
:10000000C8BD0220D501000881320008D5310008A2
:100010007D320008AD040008414B000800000000DC
:100020000000000000000000000000004136000851
:100030003905000800000000DB320008FD3600082A
:10004000EF010008EF010008EF010008EF010008D0
:10005000EF010008EF010008EF010008EF010008C0
:10006000EF010008EF010008EF010008EF010008B0
:10007000EF010008EF010008EF010008EF010008A0
:10008000EF010008EF010008EF010008EF01000890
:10009000EF010008EF010008EF01000869090008FE
:1000A000EF010008EF010008EF010008EF01000870
:1000B000EF01000869370008EF010008EF010008B0
:1000C000EF010008EF010008EF010008EF01000850
:1000D000EF010008EF010008EF010008EF01000840
:1000E000EF010008EF010008EF010008EF01000830
:1000F000EF010008EF010008EF010008EF01000820
:10010000EF010008EF010008EF010008EF0100080F
:10011000EF010008EF010008A5370008EF01000813
:10012000EF010008EF010008EF010008EF010008EF
:10013000EF01000819060008EF010008EF010008B0
:10014000EF010008EF010008EF010008EF010008CF
:10015000EF010008EF010008EF010008EF010008BF
:10016000EF010008EF010008EF010008EF010008AF
:10017000EF010008EF010008EF0100080000000097
:10018000EF010008EF010008EF010008EF0100088F
:10019000EF010008EF010008EF010008EF0100087F
:1001A000EF010008EF010008EF010008DFF80CD0B4
:1001B00000F0A4F800480047E9810008C8BD02200B
:1001C00080F308887047000030BF72B6704762B68F
:1001D000704700000648804706480047FEE7FEE7F4
:1001E000FEE7FEE7FEE7FEE7FEE7FEE7FEE7FEE7E7
:1001F00005370008AD0100082DE9F05F0546002035
:1002000092469B4688460646814640241BE0284687
:1002100041464746224600F060F853465A46C01A07
:10022000914110D311461846224600F047F82D1A86
:1002300067EB01084F4622460120002100F03EF8FE
:1002400017EB00094E41201EA4F10104DFDC4846F3
:1002500031462A464346BDE8F09F40EA01039B072A
:1002600003D009E008C9121F08C0042AFAD203E02B
:1002700011F8013B00F8013B521EF9D27047D2B28F
:1002800001E000F8012B491EFBD270470022F6E77F
:1002900010B513460A4604461946FFF7F0FF2046FC
:1002A00010BD30B504460020034600E05B1C9342BD
:1002B00003D2E05CCD5C401BF8D030BD202A04DBCB
:1002C000203A00FA02F1002070479140C2F1200369
:1002D00020FA03F3194390407047202A04DB203AA8
:1002E00021FA02F00021704721FA02F3D040C2F156
:1002F000200291400843194670470000064C074D04
:1003000006E0E06840F0010394E8070098471034E5
:10031000AC42F6D3FFF74EFF98E50008B8E50008B9
:1003200070B58C1810F8015B15F0070301D110F8B7
:10033000013B2A1106D110F8012B03E010F8016BE4
:1003400001F8016B5B1EF9D12B0705D40023521E67
:100350000DD401F8013BFAE710F8013BCB1A921CCF
:1003600003E013F8015B01F8015B521EF9D5A142CD
:10037000D8D3002070BD000010B5044600BF042093
:10038000012806D002280BD0032810D004281CD145
:1003900014E02CA004F018FC2DA004F015FC1BE0C8
:1003A00034A004F011FC2AA004F00EFC14E033A0E9
:1003B00004F00AFC26A004F007FC0DE031A004F0D4
:1003C00003FC23A004F000FC06E031A004F0FCFBD9
:1003D0001FA004F0F9FB00BF00BF00BF3048006859
:1003E00020F010002E490860C0212E4801F028F9A5
:1003F000252001F07DFB2A48001F006820F0020044
:100400002749091F08601D2001F072FB2448001FC6
:10041000006820F010002249091F0860362001F012
:1004200067FB3D2001F064FB012080F3108800BFD2
:1004300060681D4908602068FFF7C2FE1A4800681E
:10044000804710BD5B4572726F725D3A000000001C
:10045000426F6F744C6F6164206A756D7020746FA9
:10046000204170706C69636174696F6E202E2E2E4E
:100470000D0A00005B5741524E5D3A005B494E4603
:100480004F5D3A005B44454255475D3A000000002D
:100490005B556E6B6E6F776E204D73675D3A000033
:1004A00044380240000402409000002000BFFEE7F4
:1004B00010B50E480E4908604FF482704860002164
:1004C0000B488160C160016141614FF4007181613D
:1004D0002021C16100210162416281620A21C16261
:1004E00001F0C4FF642000F0C7FB10BD00340140E0
:1004F000E00A002010B50E480E4908604FF48270E3
:10050000486000210B488160C160016141614FF486
:10051000007181610821C161002101624162816233
:100520000A21C16201F0A2FF642000F0A5FB10BD0A
:1005300000340140E00A00207047000010B50C486C
:100540000C4908604FF4E13048600021094881609F
:10055000C16001610C21416100218161C16102F032
:1005600042FD18B1192104A004F0ECFA10BD0000FE
:1005700000100140E00900202E2E5C5359535445D1
:100580004D5C75736172745C75736172742E630077
:10059000016801F58051896941F00202016801F5A5
:1005A00080518A617047016801F58051896941F481
:1005B0000052016801F580518A61704738B50446E0
:1005C00000200090206800F58050806940F4801180
:1005D000206800F580508161206800F580508069B6
:1005E0000090012000F048FB0099206800F5805041
:1005F000816138BD014600200A6802F0004252B90C
:100600000A6802F4004232B90A6802F4807212B138
:100610000A68C2F30D40704710B501E007F0ACFD69
:100620000949886AFFF7E6FF0028F7D14FF48031C7
:100630000548006800F5805041614021024800688B
:1006400000F58050416110BD200A002030B50346FE
:100650001479557944EA0520084C0C442064D47878
:100660002406957844EA0544557844EA052415782B
:1006700044EA0500014C0C44606430BD0080024037
:1006800070B5AEB004460E46002526B14FF40061A9
:10069000E160C900A16000201190129013901490A5
:1006A00015901690E06918B94FF48060179001E03A
:1006B000002017904FF400701890002019901A90A5
:1006C0001B901C901D9040201E9000201F90209099
:1006D000219022902390249025902690802027908E
:1006E0000020289029902A902B902C902D90206803
:1006F000056871480540DDE9110108431399084375
:1007000014990843A16808431599084316990843AA
:10071000E168084317990843189908431999084351
:100720001A9908431B99084305432068056020680F
:100730000568012000F0A0FA20680560DDE91C01D1
:1007400008431E9908431F9908432099084321999B
:100750000843229908432399084321684860206888
:100760004568012000F088FA2068456024982168D7
:10077000886025982168C860206885694FF64170B7
:100780000540DDE9261040EA0140289908432999EF
:1007900008432A9908432B9908430543206885613B
:1007A00020688569012000F067FA20688561DDE92D
:1007B0002C0108432168C8612068C569012000F048
:1007C0005BFA2068C561002001904FF00070029034
:1007D000002003904FF40010049000200590069034
:1007E0000790089004200990C0050A9040120B90D1
:1007F00080010C9040120D9080200E9000200F90F0
:100800001090206800F5805085692C480540DDE98E
:1008100001010843039908430499084305990843D3
:10082000069908430799084308990843099908431A
:100830000543206800F580508561206800F58050F0
:100840008569012000F018FA206800F58050856164
:10085000DDE90A0108430C9908430D9908430E99F4
:1008600008430F9940EA81001099084340F40001C1
:10087000206800F580500160206800F58050056810
:10088000012000F0F9F9206800F580500560A069AA
:10089000012809D1206800F58050C0690849084343
:1008A000216801F58051C861002120466269FFF787
:1008B000CDFE2EB070BD00000F8120FF233FDEF87B
:1008C0004000010038B50446002000902068006810
:1008D00040F0040021680860206800680090012052
:1008E00000F0CAF900982168086038BD38B50446A0
:1008F000002000902068006840F00800216808602F
:10090000206800680090012000F0B6F90098216886
:10091000086038BD10B54FF4A071002008F09CFBB2
:100920000D490860A021002008F096FB0B490860E3
:1009300043F68831002008F08FFB0949086041F632
:10094000C451002008F088FB0649086000BF00BFC2
:1009500000BF00BF002010BDA0000020A4000020A8
:10096000A8000020AC00002010B54FF4007000F08B
:1009700043FF10BD10B5002201B909E0012901D1E2
:100980000A0205E0022901D10A0201E04FF4407297
:100990000B2800D9001D114B1B6823F440730F4C2A
:1009A000236023461B681343236023461B6823F000
:1009B000F803236023461B68F82494FAA4F4B4FADD
:1009C00084F400FA04F444F002042343034C23604B
:1009D00023461B6843F48033236010BD103C024063
:1009E0001C48006800F40070B0B11A48006820F498
:1009F00000701849086000BF0846006840F40060B5
:100A000008600846006820F40060086000BF0846DF
:100A1000006840F4007008600E48006800F48060D0
:100A2000B0B10C48006820F480600A49086000BF3B
:100A30000846006840F4805008600846006820F4CA
:100A40008050086000BF0846006840F4806008607D
:100A500070470000003C024010B502460020144BD5
:100A60001B6823F44073124C236023461B68034326
:100A70002360032906D123461B68E41323430C4C4F
:100A800023600EE0012906D1094B1B6843F00403E3
:100A9000074C236005E0064B1B6843F40043044CFD
:100AA0002360034B1B6843F48033014C236010BD6B
:100AB000103C0240074A126822F44072054B1A604B
:100AC0001A4612681A601A46126842F001021A6049
:100AD00001707047103C024010B50949096821F4C3
:100AE0004071074C21602146096841F44071216042
:100AF0002146096841F0010121600260436010BD98
:100B0000103C0240084A126822F44072064B1A60F8
:100B10001A46126842F480721A601A46126842F04D
:100B200001021A6001807047103C0240084A1268B6
:100B300022F44072064B1A601A46126842F40072A0
:100B40001A601A46126842F001021A60016070478A
:100B5000103C02402A480068C0F3001040B1294808
:100B6000C06940F010002749C8611020244908607E
:100B700023480068C0F3401040B12248C06940F0EB
:100B800008002049C86120201D4908601C480068F1
:100B9000C0F3801040B11B48C06940F004001949FF
:100BA000C86140201649086015480068C0F3C010AD
:100BB00040B11448C06940F002001249C861802069
:100BC0000F4908600E480068C0F3002048B10D4886
:100BD000C06940F001000B49C8614FF480700849BA
:100BE000086007480068C0F3400040B10548C0698C
:100BF00040F020000349C8610220014908607047A5
:100C00000C3C0240C009002070B5044600250020BD
:100C10001749C86100F01EFF054609E0601C38B1A5
:100C200024B100F017FF401BA04201D9032070BD82
:100C300010480068C0F300400028EFD10D4800685C
:100C400000F0010010B101200A490860094800685D
:100C500000F4F970B0F5F97F01D1012000E0002027
:100C600018B1FFF777FF0120E1E70020DFE7000080
:100C7000C00900200C3C024031B5002400F0EAFE1F
:100C8000044600BF00F0E6FE001B00998842F9D33D
:100C900038BD70B504460D461646002200BF94F8D4
:100CA0004500012801D1022070BD012084F84500D3
:100CB00000BF022084F84400A56200221FE005EB7B
:100CC00042114FF00040086044F2F4504860C2EB1B
:100CD000C21000EB400006EB80008860A06901288C
:100CE00003D1486820F000404860581E904204D963
:100CF00005EB42102030C86000E0CD60521C9A42E3
:100D0000DDD3206800F58050C560012084F84400E0
:100D100000BF002084F8450000BF00BFC4E770B5E5
:100D200004460D461646002200BF94F845000128EF
:100D300001D1022070BD012084F8450000BF0220CF
:100D400084F84400E56200221BE005EB42114FF4F9
:100D500080100860C2EBC21000EB400006EB800080
:100D60008860E06918B9086840F440000860581EBF
:100D7000904204D905EB42102030C86000E0CD60FD
:100D8000521C9A42E1D3206800F580500561012091
:100D900084F8440000BF002084F8450000BF00BF75
:100DA000C8E70146002200BF91F84500012801D1A3
:100DB00002207047012081F8450000BF022081F821
:100DC0004400886A006800F00040002838D1886A32
:100DD000006800F48070F0B1886B401C8863886BF9
:100DE000012801D1886A08638B6A4B63886A0068AE
:100DF000C0F30D40021FCA63086B83680B64886AE6
:100E0000C0688862012081F8440000BF002081F89A
:100E1000450000BFCDE7886A006800F4007048B163
:100E2000886A086300234B6301238B63886AC06868
:100E3000886205E0886B401C8863886AC0688862A5
:100E4000012081F8440000BF002081F8450000BF68
:100E50000120AEE72DE9FC41044600250020019069
:100E6000924E0027804614B90120BDE8FC8194F819
:100E7000440028B9002084F84500204600F024F9F9
:100E800000BF002000908A48006840F480408849F4
:100E900008600846006800F48040009000BF00BF72
:100EA0008448006820F40000824908600846006811
:100EB000216A08437F490860206800F58050006877
:100EC00040F00101206800F58050016000BF2068FB
:100ED00000F58050006800F001000028F7D120687C
:100EE000056925F01C0501F01BF80646724886428C
:100EF00005D37248864202D245F008051AE06F48D1
:100F0000864205D36948864202D245F00C0511E0BD
:100F10006648864203D36A48864200D20AE068489F
:100F2000864205D36748864202D245F0040501E0B7
:100F300045F01005206805614FF40042002120466D
:100F400000F071FA48B14FF0010841462046FFF722
:100F500097FB012084F8440087E7FF20FFF78CFE11
:100F6000606800287ED000F075FD074600BF01AA2A
:100F70000121204600F046F900F06CFDC01BB0F5E1
:100F8000FA6F0FD94FF0010841462046FFF778FB72
:100F9000012084F8440000BF002084F8450000BF11
:100FA000032062E7019800F004000428DFD18202E8
:100FB0000021204600F037FA48B14FF001084146C1
:100FC0002046FFF75DFB012084F844004DE700F068
:100FD00041FD074600BF01AA0121204600F012F999
:100FE00000F038FDC01BB0F57A7F0FD94FF0010833
:100FF00041462046FFF744FB012084F8440000BF2F
:10100000002084F8450000BF03202EE7019800F07F
:1010100020002028DFD101AA1F21204600F0F2F88D
:1010200048B14FF0010841462046FFF729FB012057
:1010300084F8440019E7019800F0100020B14FF443
:101040000061E16002E00DE00021E160019800F044
:101050000400042802D10021A1601DE04FF480416A
:10106000A16019E0E068C0F3CF00A168C1F34F01AF
:1010700040EA01020021204600F0D5F948B14FF0C6
:10108000010841462046FFF7FBFA012084F844009E
:10109000EBE6FF20FFF7F0FD41462046FFF7F0FAB0
:1010A000012084F844000020DFE60000008793035D
:1010B0004438024004380140002D3101C00E1602B0
:1010C00000E1F50580D1F00810B586B0044600BFF8
:1010D00000BF002000904748006840F0007045497C
:1010E00008600846006800F00070009000BF00BF74
:1010F00000BF002000900846006840F08060086053
:101100000846006800F08060009000BF00BF00BF8C
:10111000002000900846006840F000600860084623
:10112000006800F00060009000BF00BF00BF00BF7B
:10113000002000900846006840F001000860084662
:10114000006800F00100009000BF00BF00BF002059
:1011500000900846006840F00200086008460068F9
:1011600000F00200009000BF00BF00BF0020009010
:101170000846006840F0040008600846006800F077
:101180000400009000BF00BF0820019001200290E1
:1011900003900320049001A9174800F03BFB0122B3
:1011A0000821154800F050FC862001900220029092
:1011B00000200390032004900B20059001A90E4805
:1011C00000F028FB4FF46050019001A90B4800F09B
:1011D00021FB3220019001A9094800F01BFB0022ED
:1011E00001213D2000F09FFC3D2000F08FFC06B067
:1011F00010BD0000303802400000024000040240F0
:10120000000802402DE9F04104460E46174600252D
:10121000A84694F84400822802D10220BDE8F0815B
:10122000822084F844002068056905F01C05208AA6
:101230004FF4784101EAC0200543481100EA8610C6
:10124000054325F0020545F001052068056100F021
:1012500001FC804612E000F0FDFBA0EB0800B0F5B9
:10126000803F09D3012084F8440000BF002084F8A7
:10127000450000BF0320D1E72068056905F00100A3
:101280000028E8D12068406980B23860012084F8E5
:1012900044000020C2E710B5044600BF94F84500A2
:1012A000012801D1022010BD012084F8450000BFB3
:1012B000022084F844002046FFF718FB2046FFF781
:1012C00001FB2046FFF77AF92046FFF76CF920462C
:1012D000FFF75EF9012084F8440000BF002084F885
:1012E000450000BF00BFDEE770B5024600230025C1
:1012F000002400BF92F84500012801D1022070BDF2
:10130000012082F8450000BF022082F8440049B95C
:10131000012082F8440000BF002082F8450000BF91
:101320000120ECE7D06A006800F0004048B11220CC
:1013300082F8440000BF002082F8450000BF012071
:10134000DDE740F2F450814208D9B1FBF0F3B1FB84
:10135000F0F600FB161010B15B1C00E00123012B1E
:1013600013D1D06A006840F04050D66A3060C1F3B3
:101370000C00D66A7060D06A006840F00040D66AFF
:101380003060D06AC068D06232E000242EE0D06ABB
:10139000006820F04050D66A30602CB9D06A0068EE
:1013A00040F08050D66A306040F2F450D66A7060E7
:1013B000581EA04210D1D06A006840F00050D66A92
:1013C0003060581EC0EBC01000EB4000A1EB800560
:1013D000C5F30C00D66A7060D06A006840F0004027
:1013E000D66A3060D06AC068D062641C9C42CED39A
:1013F000106800F58050406900F0040048B10426F0
:10140000106800F5805046610026106800F5805095
:101410004660012082F8440000BF002082F84500A9
:1014200000BF00BF6BE72DE9F04104460E461746AA
:101430000025A84694F84400422802D10220BDE8C5
:10144000F081422084F844002068056905F01C05FD
:10145000208A4FF4784101EAC0200543481100EA90
:101460008610054345F0020545F00105B8B2216834
:1014700048612068056100F0EDFA804612E000F056
:10148000E9FAA0EB0800B0F5803F09D3012084F809
:10149000440000BF002084F8450000BF0320CEE7D1
:1014A0002068056905F001000028E8D1012084F8D2
:1014B00044000020C3E700002DE9F04104460E4639
:1014C0000127002500BF2648007E012802D1022006
:1014D000BDE8F08101202249087600BF4CF250306F
:1014E000FFF792FB0746002F32D1401E3060206884
:1014F000012810D1207C6168FFF7AEFA4CF2503021
:10150000FFF782FB07461748006848F2040188434A
:10151000144908601AE0A56812E0217C2846FFF70C
:1015200029FA4CF25030FFF76FFB07460D48006870
:1015300020F0FA000B4908600FB1356005E06D1C22
:10154000D4E902100844A842E7D800BFFFF748FAE0
:1015500000BF00200249087600BF3846B8E7000007
:10156000C0090020103C02400348006840F00040E1
:101570000149086000207047103C02402DE9F0410D
:1015800006460F4614461D464FF0010800BF1F488F
:10159000007E012802D10220BDE8F08101201B4914
:1015A000087600BF4CF25030FFF72EFB8046B8F1B2
:1015B000000F23D126B9E1B23846FFF77BFA12E0DB
:1015C000012E04D1A1B23846FFF79CFA0BE0022E9F
:1015D00004D121463846FFF7A9FA04E022462B46FB
:1015E0003846FFF779FA4CF25030FFF70DFB804692
:1015F0000748006820F001000549086000BF00208E
:101600000249087600BF4046C6E70000C009002036
:10161000103C02400748006800F0004030B1064826
:1016200004490C3908600548086001E00120704752
:101630000020FCE7103C024023016745AB89EFCD59
:10164000F0B50C4600250022002300219CE0012675
:1016500006FA01F504EA0502AA427DD106684FEABE
:10166000410C032707FA0CF7BE430660CF0800F1D0
:10167000200656F827604F074FEAD76C0F2707FA66
:101680000CF7BE434FEAD10C00F1200747F82C605D
:1016900086684FEA410C032707FA0CF7BE438660C1
:1016A000476801268E40B7434760C6684FEA410C41
:1016B000032707FA0CF7BE43C660354E8F0856F86D
:1016C00027308E07370F0F26BE403340314EB042D1
:1016D00001D100262DE0304EB04201D1012628E094
:1016E0002E4EB04201D1022623E02D4EB04201D150
:1016F00003261EE02B4EB04201D1042619E02A4EEB
:10170000B04201D1052614E0284EB04201D1062690
:101710000FE0274EB04201D107260AE0254EB04225
:1017200001D1082605E0244EB04201D1092600E08F
:101730000A268F073F0FBE409E4224D18E07370FE7
:101740000F2606FA07F3124E8F0856F827609E43BD
:101750000F4F4FEA910C00E015E047F82C60174E50
:1017600036689643154F3E603E1D366896433F1DD2
:101770003E603E1D366896433F1D3E603E1D366806
:1017800096433F1D3E60491C1029FFF460AFF0BD39
:1017900008380140000002400004024000080240F6
:1017A000000C0240001002400014024000180240E9
:1017B000001C02400020024000240240003C014086
:1017C00010B50446B4F5807F0FD0B4F5007F0DD17D
:1017D00000BF0848006803F043FD03F06BFC0028DD
:1017E000F7D1172000F076F901E000E000BF00BF5C
:1017F00010BD00008801002010B5044604480068B0
:10180000204020B1024804602046FFF7D9FF10BDF8
:10181000143C0140F8B502460B4600250024002088
:101820000021E6E0012606FA01F51E6806EA050435
:10183000AC4273D15E68022E02D05E68122E13D1C4
:10184000CF0802F1200656F827004E07F70E0F26A4
:10185000BE40B0434F07FF0E1E69BE403043CF0865
:1018600002F1200646F8270010684F000326BE400C
:10187000B0431E7906F003064F00BE4030431060AF
:101880005E68012E08D05E68022E05D05E68112EBB
:1018900002D05E68122E13D190684F000326BE401E
:1018A000B0434F00DE68BE40304390605068012670
:1018B0008E40B0431E79C6F300168E403043506010
:1018C000D0684F000326BE40B0434F009E68BE4024
:1018D0003043D0605E6806F08056B6F1805FA8D1D4
:1018E00000BF00260096454E366846F48046434FBA
:1018F0003E603E46366806F48046009600BF00BF54
:101900003F4E8F0856F827008E07370F0F26BE4030
:10191000B0433C4EB24202D100262EE068E03A4E7F
:10192000B24201D1012628E0384EB24201D102264E
:1019300023E0374EB24201D103261EE0354EB242BB
:1019400001D1042619E0344EB24201D1052614E03B
:10195000324EB24201D106260FE0314EB24201D1E1
:1019600007260AE02F4EB24201D1082605E02E4E8E
:10197000B24201D1092600E00A268F073F0FBE4080
:1019800030431F4E8F0846F82700284E3068A0438A
:101990005E6806F48036B6F5803F00D12043234EC2
:1019A0003060361D3068A0435E6806F40036B6F538
:1019B000003F00D120431D4E361D3060361D30687B
:1019C000A0435E6806F48016B6F5801F00D1204360
:1019D000164E08363060361D3068A0435E6806F447
:1019E0000016B6F5001F00D12043104E0C363060B3
:1019F000491C1029FFF416AFF8BD0000443802401E
:101A00000838014000000240000402400008024083
:101A1000000C024000100240001402400018024076
:101A2000001C02400020024000240240003C014013
:101A3000024613690B400BB1012000E00020704703
:101A400042694A40426170470AB1816101E00B047A
:101A500083617047014800687047000098000020CB
:101A600002480068401C0149086070479800002047
:101A700010B50D48006840F400700B490860084636
:101A8000006840F4806008600846006840F4807098
:101A90000860052000F086F80F2000F007F800F03D
:101AA00017F8002010BD0000003C024070B504464D
:101AB00000F036FA4FF47A71B0FBF1F5284601F0E8
:101AC0002FF900222146501E00F02DF8002070BD95
:101AD0007047000000BF00F01F0201219140034A3F
:101AE000430942F8231000BF7047000080E200E085
:101AF00000BF00F01F0201219140034A430942F850
:101B0000231000BF7047000080E100E000BF00F03C
:101B10001F02012191404209920002F1E022C2F825
:101B2000001100BF70472DE9F05F80460D46164654
:101B3000002701F0A7FB074639462A46334601F045
:101B40000700C0F1070ABAF1040F02D94FF0040AE6
:101B500001E0C0F1070AD14600F1040ABAF1070F0B
:101B600002D24FF0000A01E0A0F1030AD4464FF080
:101B7000010A0AFA09FAAAF1010A0AEA020A0AFAA9
:101B80000CFA4FF0010B0BFA0CFBABF1010B0BEA5B
:101B9000030B4AEA0B042146404601F07BFBBDE8FB
:101BA000F09F000000BF00F00702064B19684FF6D7
:101BB000FF031940044B0B4343EA0221014B196018
:101BC00000BF70470CED00E00000FA0538B50024B6
:101BD00000BF002000902348006840F08050214959
:101BE00008600846006800F08050009000BF00BF09
:101BF0000120010491FAA1F1B1FA81F11A4A42F8E7
:101C00002100FFF727FF044607E0FFF723FF001B33
:101C1000B0F57A7F01D9032038BD1448406800F43C
:101C20008030B0F5803FF0D10120410491FAA1F15C
:101C3000B1FA81F10C4A42F82100FFF70BFF04468C
:101C400007E0FFF707FF001BB0F57A7F01D90320FB
:101C5000E2E70648406800F40030B0F5003FF0D1FC
:101C60000020D9E74038024000000E4200700040DA
:101C700070B504460E460025A748006800F00F0026
:101C8000B0426FD2A4490E700846006800F00F0001
:101C9000B04201D0012070BD207800F0020002287F
:101CA00007D19E48006820F0F000A16808439B49D6
:101CB0000860207800F0010000283ED0606801280C
:101CC00007D1964808380068C0F34040B8B90120F1
:101CD000E1E76068022802D06068032807D18F48D6
:101CE00008380068C0F3406048B90120D3E78B484A
:101CF00008380068C0F3400008B90120CBE78748E6
:101D0000006820F003006168084384490860FFF719
:101D1000A1FE05466068012810D108E0FFF79AFE91
:101D2000401B41F28831884201D90320B3E77B4848
:101D3000006800F00C000428F0D1CDE060680228B3
:101D400011D108E0FFF786FE401B41F2883188423E
:101D500001D903209FE77148006800F00C000828B3
:101D6000F0D1B9E024E06068032810D108E0FFF763
:101D700071FE401B41F28831884201D903208AE775
:101D80006648006800F00C000328F0D1A4E008E0E9
:101D9000FFF760FE401B41F28831884201D90320E1
:101DA00079E75E48006800F00C000028F0D193E06D
:101DB000207800F00200022807D15848006820F07F
:101DC000F000A168084355490860207800F0010040
:101DD000002877D06068012807D15048083800688B
:101DE000C0F34040B8B9012055E76068022802D02E
:101DF0006068032807D1494808380068C0F340608C
:101E000048B9012047E7454808380068C0F340005A
:101E100008B901203FE74148006820F003006168ED
:101E200008433E490860FFF715FE05466068012833
:101E300010D108E0FFF70EFE401B41F288318842C6
:101E400001D9032027E73548006800F00C0004287A
:101E5000F0D137E06068022810D108E0FFF7FAFD02
:101E6000401B41F28831884201D9032013E72B48F7
:101E7000006800F00C000828F0D123E06068032817
:101E800010D108E0FFF7E6FD401B41F2883188429F
:101E900001D90320FFE62148006800F00C00032868
:101EA000F0D10FE008E0FFF7D5FD401B41F288318B
:101EB000884201D90320EEE61848006800F00C00C3
:101EC0000028F0D114490E700846006800F00F0099
:101ED000B04201D00120DEE6207800F004000428A2
:101EE00007D10E48006820F4E050E16808430B4930
:101EF0000860207800F00800082808D1074800682A
:101F000020F46040216940EAC100044908600F20C4
:101F1000FFF7CCFD0020BEE6003C0240083802403E
:101F200010B500F045F80949096801F0F001F02208
:101F300092FAA2F2B2FA82F2D140054A515CC8404C
:101F4000044908600846006810BD000008380240D7
:101F50009CE300080C00002010B5FFF7E1FF0749E3
:101F6000096801F4E0514FF4E05292FAA2F2B2FA99
:101F700082F2D140024A515CC84010BD083802408C
:101F80009CE3000810B5FFF7CBFF0749096801F48F
:101F900060414FF4604292FAA2F2B2FA82F2D1406A
:101FA000024A515CC84010BD083802409CE300085A
:101FB00070B50021002200230020274C246804F083
:101FC0000C0424B1042C04D0082C41D103E0234894
:101FD00040E023483EE0204C241F246804F03F01E9
:101FE0001D4C241F246804F4800484B11C4CB4FBF1
:101FF000F1F5194C241F246847F6C076344096FA50
:10200000A6F6B6FA86F6F44005FB04F20FE0134C90
:10201000B4FBF1F5104C241F246847F6C076344019
:1020200096FAA6F6B6FA86F6F44005FB04F20A4CD8
:10203000241F246804F440344FF4403595FAA5F584
:10204000B5FA85F5EC40641C6300B2FBF3F001E0E7
:10205000024800BF00BF70BD083802400024F400F1
:1020600040787D0138B504460025207800F0010055
:10207000002866D0F748006800F00C0004280DD056
:10208000F448006800F00C00082813D1F148001F44
:10209000006800F48000B0F5800F0BD1ED480838DF
:1020A0000068C0F3404000284BD06068002848D149
:1020B000012038BD0020E749891F0870FFF7CAFCDE
:1020C000054608E0FFF7C6FC401B41F28831884214
:1020D00001D90320EDE7DF4808380068C0F340402D
:1020E0000028EFD12079DB49891F08706068A0B112
:1020F000FFF7B0FC054608E0FFF7ACFC401B41F2DF
:102100008831884201D90320D3E7D24808380068D3
:10211000C0F340400028EFD013E0FFF79BFC0546DA
:1021200008E0FFF797FC401B41F28831884201D953
:102130000320BEE7C74808380068C0F340400028C5
:10214000EFD1207800F00200022869D1C148006870
:1021500000F00C0058B1BF48006800F00C000828DF
:1021600021D1BC48001F006800F48000D8B9B948EC
:1021700008380068C0F3400020B1E068012801D0B1
:10218000012096E7B3480838006820F0F800F822EC
:1021900092FAA2F2B2FA82F2216991400843AD4963
:1021A000083908603CE0E06828B30120AA490860CB
:1021B000FFF750FC054606E0FFF74CFC401B642887
:1021C00001D9032075E7A34808380068C0F3400030
:1021D0000028F1D09F480838006820F0F800F82265
:1021E00092FAA2F2B2FA82F2216991400843994927
:1021F0000839086014E0002097490860FFF72AFCBE
:10220000054606E0FFF726FC401B642801D90320A1
:102210004FE7904808380068C0F340000028F1D12B
:10222000207800F0080008282CD16069A8B10120AE
:102230008A490860FFF70EFC054606E0FFF70AFC36
:10224000401B642801D9032033E782486C300068C2
:10225000C0F340000028F1D014E000207F4908605E
:10226000FFF7F8FB054606E0FFF7F4FB401B642888
:1022700001D903201DE777486C300068C0F34000A7
:102280000028F1D1207800F0040004286FD100BFAD
:10229000002000906F483830006840F080506D4951
:1022A000383108600846006800F08050009000BF98
:1022B00000BF6B48006840F4807069490860FFF710
:1022C000C9FB054606E0FFF7C5FB401B642801D9A2
:1022D0000320EEE66248006800F480700028F2D027
:1022E00000205C4968310870FFF7B4FB054608E040
:1022F000FFF7B0FB401B41F28831884201D903202F
:10230000D7E6544868300068C0F340000028EFD199
:10231000207A504968310870A068A0B1FFF79AFB95
:10232000054608E0FFF796FB401B41F288318842E2
:1023300001D90320BDE6474868300068C0F340007B
:102340000028EFD013E0FFF785FB054608E0FFF714
:1023500081FB401B41F28831884201D90320A8E665
:102360003C4868300068C0F340000028EFD1A06905
:10237000F0B33848006800F00C00082872D0A0695B
:10238000022850D1002034490866FFF763FB054658
:1023900006E0FFF75FFB401B642801D9032088E6B5
:1023A0002C4808380068C0F340600028F1D1D4E917
:1023B0000701084347F6C07292FAA2F2B2FA82F21B
:1023C000616A914008430122A16AC2EB51014FF4B6
:1023D000403292FAA2F2B2FA82F2914008434FF0F0
:1023E000706292FAA2F2B2FA82F2E16A914000E0DF
:1023F0003AE008431749091F08600120164908669A
:10240000FFF728FB054606E0FFF724FB401B642886
:1024100001D903204DE60F4808380068C0F340603A
:102420000028F1D020E000200B490866FFF712FBDE
:10243000054606E0FFF70EFB401B642801D9032088
:1024400037E6044808380068C0F340600028F1D13E
:102450000AE007E00838024000004742800E474289
:1024600000700040012024E6002022E610B504465A
:102470000CB9012010BD94F8510028B9002084F84F
:102480005000204600F036F8022084F85100206801
:10249000006820F0400021680860D4E90101084389
:1024A000E16808432169084361690843218B01F40D
:1024B00000710843E1690843216A0843A16A08439F
:1024C000216808600421A06901EA1040616A08439C
:1024D000216848602168E06A08612068C06920F4CA
:1024E00000602168C86100206065012084F8510007
:1024F0000020BFE710B586B004462849206888420E
:1025000049D100BF002000902548006840F40050E9
:10251000234908600846006800F40050009000BF9E
:1025200000BF00BF002000901D481438006840F034
:1025300010001B49143908600846006800F01000BC
:10254000009000BF00BF881401900220029000207C
:102550000390032004900520059001A91148FFF77E
:1025600059F94FF40050019001A90E48FFF752F9B4
:102570004FF48040019001A90A48FFF74BF94FF44E
:10258000006001900120029000200390049001A9B6
:102590000448FFF73FF906B010BD000000340140C9
:1025A00044380240001002402DE9FC4104460E462A
:1025B00015461F464FF0000894F8510001287AD1C3
:1025C00006B115B90120BDE8FC8100BF94F85000A8
:1025D000012801D10220F6E7012084F8500000BF55
:1025E000222084F8510000206065A663A587E58756
:1025F000A064E064A086E086A068B0F5004F05D135
:102600002068006820F4804021680860A06AB0F566
:10261000005F0DD100BF2068006820F400502168E1
:1026200008602068006840F400502168086000BF1E
:102630006068B0F5827F0ED1A06860B900BF00204D
:1026400084F8500000BF2B463246314620460097A2
:1026500000F0A9F9B7E72068006800F040004028C2
:1026600005D02068006840F0400021680860E068FC
:1026700010BB12E03B4600220121204600F02EFE56
:1026800008B103209FE72068C068C1B2A26B501C4C
:10269000A0631170E08F401EE087E08F0128E9DC25
:1026A000A06AB0F5005F28D12068006840F480502F
:1026B0002168086021E093E012E03B4600220121FE
:1026C000204600F00BFE08B103207CE72068C068BC
:1026D000A16B0880A06B801CA063E08F401EE08788
:1026E000E08F0128E9DCA06AB0F5005F05D1206821
:1026F000006840F48050216808603B4600220121B8
:10270000204600F0EBFD08B103205CE7E06838B933
:102710002068C068C1B2A26B501CA063117006E0B3
:102720002068C068A16B0880A06B801CA063E08F4C
:10273000401EE087A06AB0F5005F12D13B46002240
:102740000121204600F0CAFD28B1606D40F0020072
:102750006065032037E72068C06880B20190BDF84B
:1027600004006068B0F5827F0DD1A068B0F5004F1D
:1027700003D0A068B0F5806F05D12068006820F014
:10278000400021680860012084F8510020688068BA
:10279000C0F30018A06AB0F5005F1BD1B8F1000FBC
:1027A00018D0606D40F00200606500BF20680068CE
:1027B00020F40050216808602068006840F4005050
:1027C0002168086000BF00BF002084F8500000BFEF
:1027D0000120F8E600BF002084F8500000BFF2E6B8
:1027E0000220F0E6F8B504460E4615461F4694F85A
:1027F0005100012873D106B10DB90120F8BD00BF09
:1028000094F85000012801D10220F7E7012084F854
:10281000500000BF122084F851000020606526633C
:10282000A586E586E064A064A087E087A06AB0F58D
:10283000005F0DD100BF2068006820F400502168BF
:1028400008602068006840F400502168086000BFFC
:10285000A068B0F5004F05D12068006840F48040C2
:10286000216808602068006800F04000402805D01A
:102870002068006840F0400021680860E06878BB8C
:10288000606810B1E08E012808D1216B481C2063DC
:1028900008782168C860E08E401EE08611E03B4663
:1028A00000220221204600F019FD08B10320A5E70F
:1028B000216B481C206308782168C860E08E401EA8
:1028C000E086E08E0028EADCA06AB0F5005F38D12F
:1028D0002068006840F480502168086031E060E0C2
:1028E000FFE7606810B1E08E012809D1206B0088F5
:1028F0002168C860206B801C2063E08E401EE0864B
:1029000012E03B4600220221204600F0E7FC08B11D
:10291000032073E7206B00882168C860206B801C4F
:102920002063E08E401EE086E08E0028E9DCA06A8D
:10293000B0F5005F05D12068006840F48050216840
:1029400008603B4600220221204600F0C7FC28B167
:10295000606D40F02000606503204FE73B46012298
:102960008021204600F0BAFC28B1606D40F02000C4
:102970006065032042E7A06850B900BF00200090C6
:102980002068C068009020688068009000BF00BF89
:10299000012084F8510000BF002084F8500000BFDF
:1029A0002CE702202AE72DE9F84F04460E46174689
:1029B0001D46DDF828904FF00008C24694F851807B
:1029C000B8F1010F02D0B8F1220F76D10EB107B1E4
:1029D00015B90120BDE8F88F00BF94F85000012818
:1029E00001D10220F6E7012084F8500000BF94F8DE
:1029F0005100012802D1322084F851000020606586
:102A0000A763A587E5872663A586E586A064E064BD
:102A1000A06AB0F5005F0DD100BF2068006820F407
:102A20000050216808602068006840F40050216868
:102A3000086000BF2068006800F04000402805D012
:102A40002068006840F0400021680860E068B0F548
:102A5000006F75D1606830B16068B0F5827F0CD1CD
:102A6000E08E012809D1206B00882168C860206BA6
:102A7000801C2063E08E401EE086E08EF0B9A06AE4
:102A8000B0F5005F05D12068006840F480502168EF
:102A900008604B4600220121204600F01FFC08B1CF
:102AA000032097E72068C068A16B0880A06B801C9A
:102AB000A063E08F401EE087C7E01BE131E04B469A
:102AC00000220221204600F009FC08B1032081E722
:102AD000206B00882168C860206B801C2063E08E1A
:102AE000401EE086E08E48B9A06AB0F5005F05D1CF
:102AF0002068006840F48050216808604B4600223E
:102B00000121204600F0EAFB08B1032062E72068BB
:102B1000C068A16B0880A06B801CA063E08F401E82
:102B2000E087E08E0028CADC60680028C4D14B46EC
:102B300000220121204600F0D1FB10B1032049E71B
:102B40000AE02068C068A16B0880A06B801CA063AD
:102B5000E08F401EE08778E0606830B16068B0F5D3
:102B6000827F0BD1E08E012808D1216B481C2063A5
:102B700008782168C860E08E401EE086E08ED0B9FB
:102B8000A06AB0F5005F05D12068006840F480506D
:102B9000216808604B4600220121204600F09EFB80
:102BA00008B1032016E72068C068A16B0870E08FA9
:102BB000401EE08749E030E04B46002202212046DB
:102BC00000F08CFB08B1032004E7216B481C206354
:102BD00008782168C860E08E401EE086E08E48B923
:102BE000A06AB0F5005F05D12068006840F480500D
:102BF000216808604B4600220121204600F06EFB50
:102C000008B10320E6E62068C068C1B2A26B501C80
:102C1000A0631170E08F401EE087E08E0028CBDCBF
:102C2000606890B94B4600220121204600F056FB17
:102C300008B10320CEE62068C068C1B2A26B501C68
:102C4000A0631170E08F401EE087A06AB0F5005FBE
:102C500012D14B4600220121204600F03FFB28B153
:102C6000606D40F0020060650320B3E62068C06834
:102C700080B20090BDF800004B4601228021204622
:102C800000F02CFB28B1606D40F02000606503204F
:102C9000A0E6012084F8510020688068C0F3001A83
:102CA000A06AB0F5005F1FD1BAF1000F1CD0606DB3
:102CB00040F002006065A06AB0F5005F0DD100BF72
:102CC0002068006820F400502168086020680068CF
:102CD00040F400502168086000BF00BF002084F865
:102CE000500000BF012075E600BF002084F85000AE
:102CF00000BF6FE602206DE6042808D14FF0E02106
:102D0000096941F004014FF0E022116107E04FF042
:102D1000E021096921F004014FF0E02211617047C0
:102D200070B504462546681EB0F1807F01D30120AE
:102D30000FE0681E4FF0E02148610F214FF0FF3097
:102D400000F0A8FA00204FF0E02188610720086118
:102D5000002070BD7047704710B504460CB90120C3
:102D600010BD94F8390028B9002084F838002046B6
:102D700000F00CF8022084F83900211D206800F0D2
:102D800019FD012084F839000020E9E738B5044630
:102D900000BF002000901748006840F0020015496D
:102DA00008600846006800F00200009000BF00BF05
:102DB000012211461D20FEF7B6FE1D20FEF7A6FEDD
:102DC00000BF002000900B48006840F01000094947
:102DD00008600846006800F01000009000BF00BFC7
:102DE000012211463620FEF79EFE3620FEF78EFEAB
:102DF00038BD00004038024001460868C06840F015
:102E000001000A68D0600868006840F001000A68A4
:102E1000106000207047704710B5044620680069B4
:102E2000C0F34000D8B12068C068C0F34000B0B122
:102E30006FF0020021680861012020762068806917
:102E400000F0030018B12046FFF7E5FF05E020463B
:102E500000F0ADF8204600F0ABF8002020762068A6
:102E60000069C0F38000D8B12068C068C0F380005A
:102E7000B0B16FF00400216808610220207620685C
:102E8000806900F4407018B12046FFF7C4FF05E0E8
:102E9000204600F08CF8204600F08AF800202076CA
:102EA00020680069C0F3C000D8B12068C068C0F3D2
:102EB000C000B0B16FF008002168086104202076DE
:102EC0002068C06900F0030018B12046FFF7A3FF97
:102ED00005E0204600F06BF8204600F069F800207D
:102EE000207620680069C0F30010D8B12068C0685F
:102EF000C0F30010B0B16FF0100021680861082025
:102F000020762068C06900F4407018B12046FFF7B1
:102F100082FF05E0204600F04AF8204600F048F81D
:102F2000002020762068006900F0010058B1206878
:102F3000C06800F0010030B16FF001002168086145
:102F4000204600F037F820680069C0F3C01058B17F
:102F50002068C068C0F3C01030B16FF080002168F5
:102F600008612046FFF7F6FE20680069C0F3801074
:102F700058B12068C068C0F3801030B16FF04000D5
:102F800021680861204600F02DF820680069C0F330
:102F9000401058B12068C068C0F3401030B16FF0E5
:102FA0002000216808612046FFF7D5FE10BD70475C
:102FB000704700000749884205D1074909680A316E
:102FC000054A116005E00549884202D10121044A01
:102FD00011707047680A0020DC000020A40A00205D
:102FE00020000020704710B504460CB9012010BD28
:102FF000A06900B100E000BF94F8390028B90020B2
:1030000084F83800204600F025F8022084F83900C2
:103010002068C06820F400502168C860204600F095
:103020003BFC2068006920F490402168086120681A
:10303000406920F02A00216848612068C06840F497
:1030400000502168C8600020E063012084F8390046
:103050000020CCE710B586B004461F49206888429E
:1030600037D100BF002000901C48006840F01000DD
:103070001A4908600846006800F01000009000BF80
:1030800000BF00BF0020009014481438006840F0D2
:1030900002001249143908600846006800F0020076
:1030A000009000BF00BFC0200190022002900120CC
:1030B0000390022004900720059001A90848FEF71C
:1030C000A9FB002211462520FEF72DFD2520FEF745
:1030D0001DFD06B010BD0000001001404438024044
:1030E000000402402DE9F04704460D461646994675
:1030F0004FF0000894F83980B8F1010F02D0B8F110
:10310000220F65D105B116B90120BDE8F08700BFD7
:1031100094F83800012801D10220F6E7012084F854
:10312000380000BF0020E06394F83900222803D162
:10313000322084F8390002E0122084F83900A68495
:10314000E68428E0E08C401EE084A068B0F5805F53
:1031500014D14B4600228021204600F0AFFC08B17C
:103160000320D2E72F463888C0F308002168486062
:10317000206908B9AD1C0EE06D1C0CE04B46002226
:103180008021204600F09AFC08B10320BDE715F825
:10319000010B21684860E08C0028D3DC4B460022FC
:1031A0004021204600F08AFC08B10320ADE794F8E6
:1031B0003900322803D1222084F8390002E00120AE
:1031C00084F8390000BF002084F8380000BF9CE775
:1031D00002209AE700BFFEE71CB5FCF7F6FF0022CD
:1031E00008212248FEF730FC642001F077FF01221D
:1031F00008211E48FEF728FC642001F06FFFFCF751
:10320000E6FF1B4800788DF80000194840788DF8DB
:103210000100174880788DF802001548C0788DF8B5
:103220000300134800798DF80400114840798DF8A7
:1032300005001048104908600120486081030E48CD
:103240008160C910C16000210182C0F814D0012141
:1032500081610021C1614FF400010162FDF7FAFDB7
:1032600008B900201CBD0120FCE70000000002405E
:1032700040B3022000800240200A002000BFFEE789
:103280007047000002480068C0F302207047000049
:103290000CED00E010B5002807DA0A07140E054A05
:1032A00000F00F031B1FD45403E00A07130E024A59
:1032B000135410BD18ED00E000E400E070B50446C2
:1032C000002000BF06E00D7800EB8326A555491CC1
:1032D000451CA8B29042F6DB70BD70472DE9F04165
:1032E00004460E4617461D464FF00008FEF7B2FB97
:1032F0008046002F3ED132E0681C78B32DB1FEF736
:10330000A9FBA0EB0800A84229D92068406820F05A
:10331000E000216848602068006820F040002168D3
:103320000860A06AB0F5005F0DD100BF206800689A
:1033300020F40050216808602068006840F40050C4
:103340002168086000BF012084F8510000BF002000
:1033500084F8500000BF0320BDE8F081FFE720683B
:1033600080683040B04201D1012000E000200028F8
:10337000C2D03BE030E0681C70B32DB1FEF76AFBB1
:10338000A0EB0800A84227D92068406820F0E000A0
:10339000216848602068006820F0400021680860CB
:1033A000A06AB0F5005F0DD100BF2068006820F46E
:1033B0000050216808602068006840F400502168CF
:1033C000086000BF012084F8510000BF002084F88D
:1033D000500000BF0320BFE7206880683040B04243
:1033E00001D1012000E000200028C4D10020B3E773
:1033F00001463A48814201D2002070473848814254
:1034000001D20120F9E73748814201D20220F4E7D6
:103410003548814201D20320EFE73448814201D28E
:103420000420EAE73248814201D20520E5E731482D
:10343000814201D20620E0E72F48814201D20720D5
:10344000DBE72E48814201D20820D6E72C48814292
:1034500001D20920D1E72B48814201D20A20CCE7D2
:10346000B1F1016F01D20B20C7E72748814201D299
:103470000C20C2E72548814201D20D20BDE7244837
:10348000814201D20E20B8E72248814201D20F20AA
:10349000B3E72148814201D21020AEE71F488142A4
:1034A00001D21120A9E71E48814201D21220A4E7CF
:1034B0001C48814201D213209FE71B48814201D260
:1034C00014209AE71948814201D2152095E718483F
:1034D000814201D2162090E717208EE700400008B5
:1034E0000080000800C00008000001080000020879
:1034F00000000408000006080000080800000A0890
:1035000000000C0800000E080040100800801008A1
:1035100000C0100800001108000012080000140884
:10352000000016080000180800001A0800001C0817
:1035300000001E0800B5A9B0A0216846FCF7A6FE51
:1035400028226946054800F00DF80E2224A90448F7
:10355000FCF783FE0248007829B000BD0000060891
:1035600038B8022030B503460C461546002206E066
:10357000184600F007F844F822001B1D521CAA420E
:10358000F6D330BD01460868704700002DE9F043CE
:1035900087B004460E4617464FF000090020019000
:1035A00000258046B4F1006F02D304F0030010B18F
:1035B00007B0BDE8F083FEF72DF8254604EB870839
:1035C0001E4885421DD219E02846FFF7DBFF401C4C
:1035D00078B1002002902846FFF70AFF04900120EE
:1035E00005900220069001A902A8FDF765FF08B129
:1035F00006E02D1D4CF25030FDF706FB4545E3D3A8
:1036000000BF4CF25030FDF7FFFA8146B9F1000FD0
:103610000FD10BE0D6F800C06246002321460220FD
:10362000FDF7ACFF00B103E0241D361D4445F1D386
:1036300000BFFDF799FF00BFBAE700000000FF1FC1
:10364000704700002DE9F04192B0054688461646C5
:103650001F46002400BF002000902648006840F06C
:103660008050244908600846006800F080500090AF
:1036700000BF00BF00BF002000901F48006840F45A
:1036800040401D4908600846006800F44040009032
:1036900000BF00BF01200690079002200C9041055A
:1036A0000D91CDF838800F951096119706A8FEF76A
:1036B000D9FC04460CB100BFFEE7FEF787FA0446CA
:1036C0000CB100BFFEE70F20019002200290002005
:1036D00003904FF4A05004904FF4805005900521C2
:1036E00001A8FEF7C5FA04460CB100BFFEE712B010
:1036F000BDE8F081403802400070004010B5FEF790
:10370000AFF910BD1448006840F470001249086019
:103710001248006840F001001049086000200F497D
:10372000083108600D4800680D4908400B490860E1
:103730000C48091D0860081F006820F48020091F3C
:103740000860002005490C3108604FF00060024914
:10375000803908607047000088ED00E000380240C2
:10376000FFFFF6FE1030002410B50248FFF754FBAF
:1037700010BD0000680A002070B505460C460748D9
:10378000074908600846446000218160C560016106
:10379000FFF7E2FA0248FFF72FFB70BD000400407C
:1037A000680A002010B50248FFF736FB10BD000084
:1037B000A40A0020002202682C4B98420ED0B0F1DF
:1037C000804F0BD02A4B984208D02A4B984205D004
:1037D000294B984202D0294B984201D1012300E0A5
:1037E00000231BB122F070024B681A431F4B984212
:1037F00020D0B0F1804F1DD01D4B98421AD01D4BE8
:10380000984217D01C4B984214D01C4B984211D0B0
:103810001B4B98420ED01B4B98420BD01A4B984230
:1038200008D01A4B984205D0194B984202D0194B38
:10383000984201D1012300E000231BB122F4407221
:10384000CB681A4302608B68C3620B688362074BC4
:10385000984202D0094B984201D1012300E0002395
:103860000BB10B6903630123436170470000014002
:103870000004004000080040000C0040000401402B
:103880000040014000440140004801400018004051
:10389000001C0040002000402DE9F04104460025B6
:1038A0002068056925F44055E068054320680561F6
:1038B0002068C56849F20C6085432169A068084307
:1038C00061690843E169084305432068C5602068D1
:1038D000456925F44075A069054320684561E069A4
:1038E000B0F5004F72D173492068884203D0724905
:1038F0002068884234D1FEF745FB00EBC00101EBA4
:10390000001061684900B0FBF1F06421B0FBF1F6F2
:10391000FEF738FB00EBC00101EB001061684900C5
:10392000B0FBF1F7FEF72EFB00EBC00101EB00103E
:1039300061684900B0FBF1F06421B0FBF1F000EBED
:10394000C00101EB0010A7EB8000322101EB001059
:103950006421B0FBF1F066F31F1021688860A6E0D7
:10396000FEF7FAFA00EBC00101EB001061684900B4
:10397000B0FBF1F06421B0FBF1F6FEF7EDFA00EBDD
:10398000C00101EB001061684900B0FBF1F7FEF7E0
:10399000E3FA00EBC00101EB001061684900B0FBE5
:1039A000F1F06421B0FBF1F000EBC00101EB00107D
:1039B000A7EB8000322101EB00106421B0FBF1F095
:1039C00066F31F102168886071E0FFE739492068BD
:1039D000884203D038492068884234D1FEF7D2FAB1
:1039E00000EBC00101EB001061688900B0FBF1F051
:1039F0006421B0FBF1F6FEF7C5FA00EBC00101EB64
:103A0000001061688900B0FBF1F7FEF7BBFA00EB2C
:103A1000C00101EB001061688900B0FBF1F0642186
:103A2000B0FBF1F000EBC00101EB0010A7EB800050
:103A3000322101EB00106421B0FBF1F066F31F109E
:103A40002168886033E0FEF787FA00EBC00101EBE4
:103A5000001061688900B0FBF1F06421B0FBF1F661
:103A6000FEF77AFA00EBC00101EB001061688900F3
:103A7000B0FBF1F7FEF770FA00EBC00101EB0010AC
:103A800061688900B0FBF1F06421B0FBF1F000EB5C
:103A9000C00101EB0010A7EB8000322101EB001008
:103AA0006421B0FBF1F066F31F1021688860BDE867
:103AB000F081000000100140001401402DE9F041A8
:103AC00004460E4617461D464FF00008FDF7C2FF9C
:103AD00080469FBB2BE0681C48B32DB1FDF7BAFFB1
:103AE000A0EB0800A84222D92068C06820F080001E
:103AF0002168C8602068C06820F020002168C86084
:103B00002068C06820F480702168C860206840691F
:103B100020F0010021684861012084F8390000BFCD
:103B2000002084F8380000BF0320BDE8F081206841
:103B300000683040B04202D1012001E003E00020E3
:103B40000028C8D035E02AE0681C40B32DB1FDF74D
:103B500081FFA0EB0800A84221D92068C06820F0AE
:103B600080002168C8602068C06820F020002168BB
:103B7000C8602068C06820F480702168C860206830
:103B8000406920F0010021684861012084F8390073
:103B900000BF002084F8380000BF0320C5E720687C
:103BA00000683040B04201D1012000E00020002830
:103BB000CAD10020B9E700002DE9F0414FF000081C
:103BC00000270026002500241D21002005F044FACE
:103BD0000546002D00F06884FD480078242809D1AE
:103BE000FB484078242805D11D22F9492846FCF7D6
:103BF00034FB03E01D212846FCF748FB95F80A80BA
:103C00002E89B8F1880F74D0B8F1C10F40F0158437
:103C10001721E81C00F0BCFE0746A87EB84269D117
:103C2000D5F80B00EB49C1F80600D5F80F00C1F834
:103C30000A00E87C887300BF0420012806D002280F
:103C40000ED0032816D0042828D11DE0E2A000F0F1
:103C5000BBFFE048D0F80610E2A000F0B5FF27E077
:103C6000E7A000F0B1FFDB48D0F80610DDA000F0BF
:103C7000ABFF1DE0E4A000F0A7FFD648D0F8061087
:103C8000D8A000F0A1FF13E0E1A000F09DFFD14813
:103C9000D0F80610D3A000F097FF09E0DFA000F0F5
:103CA00093FFCC48D0F80610CEA000F08DFF00BFE7
:103CB00000BF00BF00BF0420012806D002280ED09C
:103CC000032818D004282AD11FE0C3A000F07CFFED
:103CD000C048D0F80A10D5A000F076FF29E0C8A0AF
:103CE00000F072FFBB48D0F80A10D0A000F06CFFC3
:103CF0001FE02EE1FCE0C4A000F066FFB548D0F85C
:103D00000A10CAA000F060FF13E0C1A000F05CFF41
:103D1000B048D0F80A10C5A000F056FF09E0BFA0D7
:103D200000F052FFAB48D0F80A10C0A000F04CFFE2
:103D300000BF00BF00BF00BF0420012806D002283A
:103D40000DD0032814D0042824D11AE0A2A000F03A
:103D50003BFFA048817BBCA000F036FF23E0A8A079
:103D600000F032FF9B48817BB7A000F02DFF1AE0E6
:103D7000A5A000F029FF9748817BB3A000F024FFA5
:103D800011E0A3A000F020FF9248817BAEA000F0DC
:103D90001BFF08E0A1A000F017FF8E48817BAAA0BE
:103DA00000F012FF00BF00BF00BF8A48D0F80A1021
:103DB000002005F051F9AA4908600846006800286B
:103DC0002FD000BF0420012806D002280BD00328E2
:103DD00010D004281CD114E07FA000F0F5FEA1A0B3
:103DE00000F0F2FE1BE086A000F0EEFE9DA000F0C9
:103DF000EBFE14E084A000F0E7FE9AA000F0E4FEE1
:103E00000DE083A000F0E0FE96A000F0DDFE06E0ED
:103E100082A000F0D9FE93A000F0D6FE00BF00BF44
:103E20002FE000BF0420012806D002280BD0032871
:103E300010D004281CD114E067A000F0C5FE91A0AA
:103E400000F0C2FE1BE06EA000F0BEFE8DA000F0F0
:103E5000BBFE14E06CA000F0B7FE8AA000F0B4FE38
:103E60000DE06BA000F0B0FE86A000F0ADFE06E015
:103E70006AA000F0A9FE83A000F0A6FE00BF00BF6C
:103E800000BF642001F02AF98648007800F0B4FBF6
:103E900000BF0420012806D002280BD0032810D030
:103EA00004281CD114E04CA000F08EFE7EA000F08F
:103EB0008BFE1BE052A000F087FE7BA000F084FE8A
:103EC00014E051A000F080FE77A000F07DFE0DE030
:103ED0004FA000F079FE74A000F076FE06E04FA03F
:103EE00000F072FE70A000F06FFE00BF00BF2FE078
:103EF00000BF0420012806D002280BD0032810D0D0
:103F000004281CD114E034A000F05EFE6BA000F089
:103F10005BFE1BE03AA000F057FE68A000F054FEE4
:103F200014E039A000F050FE64A000F04DFE0DE05A
:103F300037A000F049FE61A000F046FE06E037A081
:103F400000F042FE5DA000F03FFE00BF00BF00BFDA
:103F5000A9E200BF0420012806D002280BD00328C4
:103F600010D004281CD114E01BA000F02DFE58A096
:103F700000F02AFE1BE022A000F026FE54A000F074
:103F800023FE14E020A000F01FFE51A000F01CFE54
:103F90000DE01FA000F018FE4DA000F015FE06E099
:103FA0001EA000F011FE4AA000F00EFE00BF00BFF0
:103FB00000BF40F20E41002005F04EF80446002CF0
:103FC00005D040F20E412046FCF760F98AE07BE123
:103FD00088B30220B00100205B4572726F725D3AB7
:103FE000000000005570677261646546696C655F2A
:103FF000546F74616C203D2025640D0A00000000A0
:104000005B5741524E5D3A005B494E464F5D3A0068
:104010005B44454255475D3A000000005B556E6BBE
:104020006E6F776E204D73675D3A00005570677252
:1040300061646546696C655F4279746573203D20F3
:1040400025640D0A0000000043616C6962726174AE
:10405000696F6E56616C7565203D2025640D0A0000
:10406000880000205570677261646546696C65421E
:104070007566206D616C6C6F632073756363657327
:10408000730D0A005570677261646546696C65421C
:104090007566206D616C6C6F63206661696C0D0ADA
:1040A0000000000084000020436D645F557067725B
:1040B00061646553746172740D0A000043616C6938
:1040C00062726174696F6E206661696C0D0A00002E
:1040D000436D645F557067726164655061636B65C1
:1040E000740D0A0040F20E42F8492046FCF7B5F87C
:1040F00006F10801E01C00F04BFC074600BF04205D
:10410000012806D002280FD0032818D004282CD16B
:1041100020E0AFF23C1000F057FD94F80B14AFF222
:10412000D80000F051FD2BE0AFF22C1000F04CFD58
:1041300094F80B14AFF2F00000F046FD20E0AFF26F
:10414000381000F041FD94F80B14AFF2041000F0A9
:104150003BFD15E0AFF2481000F036FD94F80B146B
:10416000AFF21C1000F030FD0AE0AFF2501000F08A
:104170002BFD94F80B14AFF2301000F025FD00BFBA
:1041800000BF00BF00BF0420012806D0022810D0C5
:1041900003281AD0042830D123E0AFF2C41000F075
:1041A00013FD06F10B00C94A115CC9A000F00CFD1B
:1041B0002FE0AFF2B41000F007FD06F10B00C34A88
:1041C000115CC3A000F000FD23E0AFF2C41000F0CA
:1041D000FBFC06F10B00BD4A115CBDA000F0F4FC35
:1041E00017E0AFF2D41000F0EFFC06F10B00B74A75
:1041F000115CB7A000F0E8FC0BE0AFF2E01000F0BB
:10420000E3FC06F10B00B14A115CB1A000F0DCFC4C
:1042100000BF00BF00BF94F80B04B84205D006F100
:104220000B00AA49085CB8424DD100BF0420012808
:1042300006D002280FD0032818D004282CD120E063
:10424000AFF26C2000F0C0FC3246A9480178A9A06A
:1042500000F0BAFC2BE0AFF2582000F0B5FC32467B
:10426000A3480178A3A000F0AFFC20E0AFF26820E3
:1042700000F0AAFC32469E4801789EA000F0A4FC03
:1042800015E0AFF2742000F09FFC324698480178A8
:1042900098A000F099FC0AE0AFF2802000F094FCB6
:1042A00032469348017893A000F08EFC00BF00BF17
:1042B00000BF8F480378324604F10B019448006830
:1042C000FEF7FCFF35E0EEE000BF0420012806D039
:1042D00002280CD0032812D0042820D117E0AFF216
:1042E000083000F071FC8BA000F06EFC1FE0AFF214
:1042F000F02000F069FC87A000F066FC17E0AFF248
:10430000F82000F061FC83A000F05EFC0FE0AFF24B
:10431000003000F059FC7FA000F056FC07E0AFF23F
:10432000043000F051FC7BA000F04EFC00BF00BF49
:1043300000BF6F480078401C6D4908707E48D0F877
:1043400006000978884204D96948007800F054F9D9
:104350006EE07948D0F8060065490978884266D150
:104360007548D0F80A106A48006800F011FB07464B
:104370007148807BB84253D15D48007800F03CF929
:1043800000BF0420012806D002280CD0032812D038
:10439000042820D117E0AFF2C03000F015FC67A070
:1043A00000F012FC1FE0AFF2A83000F00DFC63A09B
:1043B00000F00AFC17E0AFF2B03000F005FC5FA09F
:1043C00000F002FC0FE0AFF2B83000F0FDFB5BA0A4
:1043D00000F0FAFB07E0AFF2BC3000F0F5FB57A0AD
:1043E00000F0F2FB00BF00BF00BF5348D0F80A2026
:1043F000474801685A4802F033F92946002004F082
:1044000019FE43480168002004F014FE21460020F4
:1044100004F010FE0020364908700120BDE8F0814C
:1044200033490978491CC8B200F0E6F800E000BF43
:104430002146002004F0FEFD35E000BF04200128E5
:1044400006D002280CD0032812D0042820D117E06F
:10445000AFF27C4000F0B8FB42A000F0B5FB1FE0DB
:10446000AFF2644000F0B0FB3EA000F0ADFB17E0FF
:10447000AFF26C4000F0A8FB3AA000F0A5FB0FE003
:10448000AFF2744000F0A0FB36A000F09DFB07E007
:10449000AFF2784000F098FB32A000F095FB00BF2F
:1044A00000BF00BF00BFA0E000BF012030B902285C
:1044B00075D003287CD0042870D182E0AFF2E840A8
:1044C00000F082FB2BA000F07FFB8CE088B3022081
:1044D0007265637662756643616C69627261746964
:1044E0006F6E56616C7565203D2025640D0A0000D5
:1044F000840000205061636B6574204E756D3A5BDB
:1045000025645D2C206C656E203D2025640D0A001D
:10451000880000205570677261646550636B657434
:10452000446174615F53747275206D616C6C6F636C
:10453000206661696C0D0A00B0010020557064614D
:104540007461205375636365737365642057726982
:10455000746520746F20466C6173680D0A0000005A
:1045600000000108496E76616C69642064617461C1
:104570000D0A000055706772616465526573706F53
:104580006E73655F53747275206D616C6C6F632020
:104590006661696C0D0A000001E009E01AE0AFF203
:1045A000A05000F011FBAFF2340000F00DFB1AE058
:1045B000AFF2AC5000F008FBAFF2480000F004FB93
:1045C00011E0AFF2B45000F0FFFAAFF2580000F083
:1045D000FBFA08E0AFF2BC5000F0F6FAAFF26C0064
:1045E00000F0F2FA00BF00BF00BF2946002004F02F
:1045F00021FD002012E7000070B5054600241021BF
:10460000002004F029FD0446002C37D01421204658
:10461000FBF73CFE2420207042F2014000F034FD04
:10462000A4F801002F49086800F034FDC4F8030025
:104630001020E071082020818820A072A4F80B507F
:104640000A21E01C00F0A4F9607343F2355000F039
:104650001BFDE081102221462348006809F060FA22
:104660002248007800F0400028B12048007820F06F
:1046700040001E49087003F07AFD2EE000BF0120C3
:1046800030B902280BD0032810D004281CD114E024
:1046900017A000F099FA19A000F096FA1BE020A0EC
:1046A00000F092FA15A000F08FFA14E01EA000F0BE
:1046B0008BFA12A000F088FA0DE01DA000F084FA39
:1046C0000EA000F081FA06E01CA000F07DFA0BA01D
:1046D00000F07AFA00BF00BF00BF2146002004F0BE
:1046E000A9FC70BD107AFF1FE4000020EC00002040
:1046F0005B4572726F725D3A000000005570677220
:104700006164655061636B65745F53747275206D8D
:10471000616C6C6F63206661696C0D0A00000000BB
:104720005B5741524E5D3A005B494E464F5D3A0041
:104730005B44454255475D3A000000005B556E6B97
:104740006E6F776E204D73675D3A00002DE9F04182
:104750000026002700241421002004F07DFC0446DC
:10476000002C76D014212046FBF790FD24202070E9
:1047700042F2014000F088FCA4F801006748076895
:104780000146086800F086FCC4F803001020E071C0
:10479000082000F079FC2081C020A0720120E07286
:1047A00000212173012161730020A0730021E173B6
:1047B000012121740E21E01C00F0EAF8607443F23C
:1047C000355000F061FC608200BF0420012806D053
:1047D00002280BD0032810D004281CD114E050A0CC
:1047E00000F0F2F951A000F0EFF91BE051A000F049
:1047F000EBF94EA000F0E8F914E050A000F0E4F965
:104800004AA000F0E1F90DE04EA000F0DDF947A06C
:1048100000F0DAF906E04EA000F0D6F943A000F06F
:10482000D3F900BF00BF00BF2646002504E0715D3C
:104830004BA000F0C9F96D1C1D2DF8D900BF042054
:10484000012807D002280CD0032811D004281DD13C
:1048500015E02DE032A000F0B7F943A000F0B4F964
:104860001BE034A000F0B0F93FA000F0ADF914E077
:1048700032A000F0A9F93CA000F0A6F90DE031A0AB
:1048800000F0A2F938A000F09FF906E030A000F097
:104890009BF935A000F098F900BF00BF00BF1422BB
:1048A00021463248006809F03BF903F060FC2EE035
:1048B00000BF012030B902280BD0032810D00428F3
:1048C0001CD114E016A000F07FF929A000F07CF9BB
:1048D0001BE018A000F078F925A000F075F914E0AD
:1048E00016A000F071F922A000F06EF90DE015A0FD
:1048F00000F06AF91EA000F067F906E014A000F0CD
:1049000063F91BA000F060F900BF00BF00BF2146A3
:10491000002004F08FFBBDE8F0810000107AFF1F3B
:104920005B4572726F725D3A0000000072656376DB
:10493000320D0A005B5741524E5D3A005B494E46CC
:104940004F5D3A005B44454255475D3A0000000028
:104950005B556E6B6E6F776E204D73675D3A00002E
:1049600025303278000000000D0A0000E40000202D
:10497000557067726164655265715F53747275201A
:104980006D616C6C6F63206661696C0D0A000000DC
:104990002DE9F04104460F46002500262578012622
:1049A00003E0A05D2844C5B2761CBE42F9D300BF27
:1049B0000420012806D002280CD0032812D0042895
:1049C00020D117E016A000F0FFF8294617A000F04C
:1049D000FBF81FE01BA000F0F7F8294613A000F039
:1049E000F3F817E019A000F0EFF829460FA000F047
:1049F000EBF80FE017A000F0E7F829460BA000F055
:104A0000E3F807E016A000F0DFF8294607A000F061
:104A1000DBF800BF00BF00BF2846BDE8F081000002
:104A20005B4572726F725D3A000000000D0A586FAC
:104A300072436865636B5F56616C7565203D202528
:104A4000780D0A005B5741524E5D3A005B494E4675
:104A50004F5D3A005B44454255475D3A0000000017
:104A60005B556E6B6E6F776E204D73675D3A00001D
:104A700000B5A9B0A0216846FBF708FC28226946CA
:104A80001B48FEF76FFD00BF0420012806D0022856
:104A90000BD0032810D004281CD114E015A000F07E
:104AA00093F817A000F090F81BE01AA000F08CF823
:104AB00013A000F089F814E018A000F085F810A009
:104AC00000F082F80DE017A000F07EF80CA000F0D6
:104AD0007BF806E016A000F077F809A000F074F863
:104AE00000BF00BF00BF9DF8000029B000BD00005E
:104AF000000006085B4572726F725D3A00000000AC
:104B0000726561642055706772616465466C6167A7
:104B10000D0A00005B5741524E5D3A005B494E461C
:104B20004F5D3A005B44454255475D3A0000000046
:104B30005B556E6B6E6F776E204D73675D3A00004C
:104B400000BFFEE700BF13A2622114A000F03CF8F2
:104B5000012080F3108800BF00BF00BF00BF00BF6E
:104B600000BFBFF34F8F00BF00BF00BF14480068F5
:104B700000F4E06013490843001D1149086000BFBC
:104B800000BF00BFBFF34F8F00BF00BF00BF00BF1B
:104B900000BFFDE76D61696E2E6300000D0A52656E
:104BA000626F6F7420646576696365206174206C40
:104BB000696E6520256420696E2025730D0A00004A
:104BC0000CED00E00000FA050FB4054B10B503A989
:104BD000044A029800F018F810BC5DF814FB0000BD
:104BE00021660008AC01002002E008C8121F08C1BD
:104BF000002AFAD170477047002001E001C1121F5E
:104C0000002AFBD1704700002DE9FF4F8DB00F4601
:104C10000546002606E025280BD0DDE90F12904757
:104C20006D1C761C28780028F5D111B03046BDE8FF
:104C3000F08F0024A246A1460122EC4900E0044383
:104C400015F8013F203B02FA03F00842F7D128781B
:104C50002A2810D06FF02F022878A0F130010929FE
:104C600014D80AEB8A0102EB410144F0020400EB84
:104C7000010A6D1CF0E701CF5FEA000A03D544F496
:104C80000054CAF1000A44F002046D1C28782E2852
:104C900017D115F8010F44F004042A280ED06FF044
:104CA0002F022878A0F1300109290AD809EB8901DF
:104CB00002EB410100EB01096D1CF2E757F8049B80
:104CC0006D1C28786C280FD006DC4C2817D068287B
:104CD0000DD06A2814D104E0742810D07A280FD19E
:104CE0000DE044F400140AE044F4801401E044F4BC
:104CF00040146978814202D104F580146D1C6D1C4A
:104D00002A786E2A1FD00CDC632A31D004DC002AFA
:104D10008BD0582A11D1A3E0642A68D0692A0CD11B
:104D200065E0732A2ED004DC6F2A73D0702A04D178
:104D30009BE0752A6FD0782A6ED01046DDE90F12FD
:104D40009047761C50E1C4F30250022806D0032895
:104D500009D0042801CF09D0066045E101CFF11741
:104D6000C0E9006140E101CF06803DE106703BE112
:104D700017F8040B8DF8000000208DF80100EB46B9
:104D8000012003E057F804BB4FF0FF3061074FF0FC
:104D9000000102D40DE008F10101884649450FDA0F
:104DA0008045F8DB1BF808100029F4D108E008F171
:104DB000010188468142FADB1BF808100029F6D170
:104DC000DDE90F23AAEB08008146214600F036F901
:104DD000304400EB080604E0DDE90F121BF8010B7C
:104DE0009047B8F10108F7D221464846F7E00A217A
:104DF000C4F302534FF0000B0891022B04D001CFF3
:104E0000C117032B09D00AE0FF1D27F00707F7E8B9
:104E1000020108E032E01FE020E000B2C117042BDD
:104E200001D140B2C117031E71F1000307DA4FF040
:104E3000000CD0EB0C006CEB01012D2302E02305EC
:104E400004D52B238DF82430012303E0E30701D0A0
:104E50002023F7E7984658E00A2110E010210EE0E1
:104E600010204FF0000B08900CE010214FF0000BC9
:104E700044F004044FF00809089103E008214FF0C2
:104E8000000B0891C4F30253022B04D001CF002180
:104E9000032B06D006E0FF1D27F00707F7E8020105
:104EA00003E080B2042B00D1C0B24FF0000823070A
:104EB0002BD5702A07D0DDF820C08CF0100C5CEAEE
:104EC0000B0C05D00EE040238DF82430012308E0C0
:104ED00050EA010306D030238DF824308DF82520C8
:104EE00002239846DDF820C08CF0080C5CEA0B0C1D
:104EF0000BD150EA010301D1630706D530238DF8A9
:104F000024304FF00108A9F10109582A04D038A231
:104F10000B9208AA0A920BE03AA2F9E75B46089ABC
:104F2000FBF76AF90B9B9B5C0A9A521E0A9213705C
:104F300050EA0102F2D10A98ADEB000000F1200B1B
:104F4000600702D524F4803401E04FF00109D9450F
:104F500002DDA9EB0B0000E0002000EB0B01414457
:104F60000890AAEB010AE00306D4DDE90F232146ED
:104F7000504600F063F806444FF0000908E009A924
:104F800011F80900DDE90F12904709F10109761CBB
:104F9000C145F4DBE0030CD5DDE90F232146504683
:104FA00000F04CF8064404E0DDE90F123020904791
:104FB000761C0899481E08900029F5DC08E00A983C
:104FC0000A990078491C0A91DDE90F129047761C76
:104FD000BBF10001ABF1010BF1DC21465046DDE9EC
:104FE0000F2300F019F806446D1C1BE60928010088
:104FF000303132333435363738396162636465664F
:105000000000000030313233343536373839414210
:1050100043444546000000002DE9F04104460025C8
:105020001E461746880404D405E039462020B047C0
:105030006D1C641EF9D52846BDE8F0812DE9F041CC
:10504000044600251E469046C80301D5302700E0DF
:105050002027880404D505E041463846B0476D1C3A
:10506000641EF9D52846BDE8F081000010B504465D
:1050700001F0E2F80022034941F2883005F05EFABF
:1050800010BD00006D5000080146081240EA0120E2
:1050900080B2704701464FF0FF2000EA01204FF038
:1050A000FF1202EA112240EA0201080C40EA014024
:1050B0007047000010B54FF400710248FCF7B8FCCF
:1050C00010BD00000010024010B504460420FDF79A
:1050D00013FE0148046010BD9C00002030B504465A
:1050E000002504E04FF47A7000F004F86D1CA5422E
:1050F000F8D330BD70B5034600224FF0E026756945
:105100000D4E366803FB06F44FF0E026B16910E05F
:105110004FF0E026B06988420BD0884202D20E1AC6
:10512000324402E02E1A0E4432440146A24200D319
:1051300000E0EDE700BF70BD9C00002070B50546A3
:105140000C462046FBF798FD70BD704738B5044605
:105150000020C4F81D0084F82100052004F11D037F
:1051600000220F210090204600F0C2F938BD38B56A
:10517000044601230D22052104F11D0005F01AF952
:1051800001230A22052104F11D0005F013F9012372
:105190001222052104F11D0005F00CF901230C2257
:1051A000052104F11D0005F005F901230F22052159
:1051B00004F11D0005F0FEF801230E22052104F183
:1051C0001D0005F0F7F801231022052104F11D0050
:1051D00005F0F0F8052004F11D0300220F210090D6
:1051E000204600F085F938BD38B5044601230A226F
:1051F000052104F11D0005F0DDF8052004F11D0373
:1052000000220F210090204600F072F938BD38B519
:10521000044601230422052104F11D0005F0CAF80B
:1052200001230522114604F11D0005F0C3F80123F6
:105230000622052104F11D0005F0BCF80123072218
:10524000052104F11D0005F0B5F8052004F11D034A
:1052500000220F210090204600F04AF938BD0000DE
:1052600010B50446204600F0FEF8204600F080F815
:1052700028B13248006810B13048006880472046A5
:1052800000F0DBF838B1E06B28B12046E16B8847CD
:105290002046FFF7BCFF204600F0C6F840B1284882
:1052A000006828B12648006880472046FFF79CFF29
:1052B000204600F086F890B12248006878B1214875
:1052C000006880472046FFF752FF94F8300088B30B
:1052D000204600F0BBF8204600F046F92AE02046C0
:1052E00000F099F888B1606C78B12046616C88470D
:1052F0002046FFF73CFF94F83000D8B1204600F07C
:10530000A5F8204600F030F914E0204600F046F8F9
:1053100080B1206C70B12046216C88472046FFF791
:1053200026FF94F8300028B1204600F08FF8204680
:1053300000F01AF92046FFF709FF10BDA001002078
:10534000A8010020A401002038B504460020A06078
:10535000207A40F04000207200202073042004F1E5
:10536000080300220D210090204600F0C1F838BD4E
:1053700070B504461922052104F11D0001F060F901
:1053800005461822052104F11D0001F059F90646D1
:1053900005B90EB1012070BD0020FCE710B5044630
:1053A00094F82F0030B10E22052104F11D0001F008
:1053B00047F910BD0D22052104F11D0001F040F94F
:1053C000F7E72DE9F04104461222052104F11D0002
:1053D00001F036F905460F22052104F11D0001F008
:1053E0002FF906460C22052104F11D0001F028F9D1
:1053F00007461022052104F11D0001F021F9804625
:1054000025B91EB917B9B8F1000F02D00120BDE8C7
:10541000F0810020FBE710B504461122052104F1BC
:105420001D0001F00DF910BD10B504460A2205213A
:1054300004F11D0001F004F910BD10B50446072267
:10544000052104F11D0001F0FBF810BD10B5044664
:105450002046FFF779FF0020A0602046FFF787FE77
:105460000120207310BD38B50446052004F11D034A
:1054700000220F210090204600F001F838BD2DE9F0
:10548000FC4705460E4614461F46DDF828800020DE
:1054900001904FF0010906F03F008DF80400DCB1E7
:1054A0009DF8040040F040008DF8040004F07F00F7
:1054B0008DF80500E4094FF002096CB19DF8050074
:1054C00040F080008DF805009DF80600E1B2084329
:1054D0008DF806004FF00309CDF8008028683B46A0
:1054E0004A4601A9D0F800C02846E047BDE8FC873D
:1054F0002DE9FC4705460E4614461F46DDF8288078
:10550000002001904FF0010906F03F008DF80400E3
:105510009DF8040040F080008DF80400C4B19DF8AF
:10552000040040F040008DF8040004F07F008DF886
:105530000500E4094FF0020954B19DF8050040F060
:1055400080008DF80500E0B28DF806004FF00309E9
:10555000CDF8008028683B464A4601A9D0F804C02F
:105560002846E047BDE8FC8738B5044694F82F008C
:1055700008B9012000E0002003460022042104F1C4
:10558000080004F017FF01230822042104F1080099
:1055900004F010FF042004F1080300220D21009004
:1055A0002046FFF7A5FF38BD2DE9FC470546884694
:1055B000164600BF55B900BF47A340F2BB2250A119
:1055C00053A0FFF701FB00BFBDE8FC8700BF708957
:1055D0002A2803DA304604F04FFBF5E7776807F135
:1055E0000E042088B0F5807F08D12079062805D1E7
:1055F0006079042802D16088082803D0304604F07E
:105600003BFBE1E7D4F80E000190A0690090281D53
:1056100008B1686810B94FF0000907E000986968A0
:10562000884201D1012000E000208146B9F1000F3D
:1056300001D0012000E00220034604F1080201A984
:10564000284600F03FFEE088B0F5807F03D0B0F53B
:10565000007F3AD138E0B9F1000F33D0022002F0D8
:1056600066FDE080D4F80E00A0616868C4F80E0002
:1056700000BF95F82200062808D000BF16A340F20C
:1056800011322E4922A0FFF79FFA00BF00BFA06889
:10569000C4F81200A089E082A0683860A089B880B0
:1056A000D8F80000A060B8F80400A081D8F8000085
:1056B000C7F80600B8F80400788131462846AA6980
:1056C000904700E000BF01E000E000BF00BF3046AF
:1056D00004F0D2FA00BF77E72E2E5C4C5749505C9D
:1056E0006C7769702D312E342E315C7372635C6E71
:1056F000657469665C6574686172702E6300000091
:105700006E6574696620213D204E554C4C000000AA
:10571000417373657274696F6E202225732220664F
:1057200061696C6564206174206C696E6520256414
:1057300020696E2025730D0A0000000084E4000833
:105740002DE9FE4F064688464FF00A09CA460A2749
:105750000024002002900190BB46009000BF6BE047
:1057600004EB84006F4901EB8000857C0A2F02D195
:105770000DB967B25EE0002D5CD000BF012D0AD0EC
:10578000022D08DA00BF68A340F22B1270A180A09E
:10579000FFF71AFA00BF00BF5EB104EB8401614A53
:1057A00002EB810130684968884202D160B2BDE8ED
:1057B000FE8F012D2AD104EB84005A4951F82000B4
:1057C00088B104EB840001EB8000C17C0098814229
:1057D00030DB4FFA84FB04EB8400524901EB80007C
:1057E000C07C009026E004EB84004E4901EB800071
:1057F000C17C029881421DDB4FFA84F904EB8400DE
:10580000484901EB8000C07C029013E0022D11DBBF
:1058100004EB8400434901EB8000C17C0198814284
:1058200008DB4FFA84FA04EB84003E4901EB800068
:10583000C07C0190601CC4B20A2C91DB08F002000D
:1058400020B90A2F05D108F0010010B94FF0FF3040
:10585000ADE70A2F01DAFCB234E0BAF10A0F12DA2E
:105860000AF0FF0400BF04EB84002E4951F8200029
:1058700040B100BF2CA340F2711250A144A0FFF729
:10588000A3F900BF0EE0B9F10A0F02DA09F0FF0434
:1058900008E0BBF10A0F02DA0BF0FF0402E04FF060
:1058A000FF3084E700BF0A2C08DB00BF1EA340F2D4
:1058B000831248A136A0FFF787F900BF00BF20463A
:1058C00000F0A8F800BF0A2C08DB00BF16A340F2C6
:1058D000871240A12EA0FFF777F900BF00BF00BFDD
:1058E00004EB84000F4901EB8000807C40B100BFD5
:1058F0000DA34FF4C4723CA125A0FFF765F900BFCA
:1059000000BF36B104EB8401064A02EB8101306826
:105910004860002004EB8401024A02EB8101C87454
:1059200060B244E748B802202E2E5C4C5749505CC8
:105930006C7769702D312E342E315C7372635C6E1E
:10594000657469665C6574686172702E630000003E
:105950007374617465203D3D204554484152505F49
:1059600053544154455F50454E44494E47207C7C3A
:10597000207374617465203E3D2045544841525067
:105980005F53544154455F535441424C450000001D
:10599000417373657274696F6E20222573222066CD
:1059A00061696C6564206174206C696E6520256492
:1059B00020696E2025730D0A000000006172705F7F
:1059C0007461626C655B695D2E71203D3D204E55B2
:1059D0004C4C000069203C204152505F5441424CE5
:1059E000455F53495A4500006172705F7461626C93
:1059F000655B695D2E7374617465203D3D2045547F
:105A0000484152505F53544154455F454D5054599D
:105A10000000000010B5044604EB84000C4951F866
:105A2000200060B104EB8401094A52F8210004F01F
:105A300023F9002004EB8401054A42F821000020EC
:105A400004EB8401024A02EB8101887410BD00005E
:105A500048B802202DE9FC4704460F461546A946E2
:105A600000BF44B900BF59A340F2753261A165A0DF
:105A7000FFF7AAF800BF00BF00BF47B900BF53A39C
:105A800040F276326AA15FA0FFF79EF800BF00BF28
:105A900000BF45B900BF4DA340F2773267A159A0BE
:105AA000FFF792F800BF00BF0E21384604F0B6F9A8
:105AB00018B16FF00100BDE8FC872146286801F0AD
:105AC00055F810B1DFF8848177E0287800F0F00015
:105AD000E02815D101208DF8000000208DF801008C
