:020000040800F2
:10000000D8BE0220D5010008953600083D30000812
:1000100091360008250500085B4700080000000035
:10002000000000000000000000000000F13800089F
:100030002905000800000000EF360008AD3900086F
:10004000EF010008EF010008EF010008EF010008D0
:10005000EF010008EF010008EF010008EF010008C0
:10006000EF010008EF010008EF010008EF010008B0
:10007000EF010008EF010008EF010008EF010008A0
:10008000EF010008EF010008EF010008EF01000890
:10009000EF010008EF010008EF01000895090008D2
:1000A000EF010008EF010008EF010008EF01000870
:1000B000EF010008193A0008EF010008EF010008FD
:1000C000EF010008EF010008EF010008EF01000850
:1000D000EF010008EF010008EF010008EF01000840
:1000E000EF010008EF010008EF010008EF01000830
:1000F000EF010008EF010008EF010008EF01000820
:10010000EF010008EF010008EF010008EF0100080F
:10011000EF010008EF010008553A0008EF01000860
:10012000EF010008EF010008EF010008EF010008EF
:10013000EF01000845060008EF010008EF01000884
:10014000EF010008EF010008EF010008EF010008CF
:10015000EF010008EF010008EF010008EF010008BF
:10016000EF010008EF010008EF010008EF010008AF
:10017000EF010008EF010008EF0100080000000097
:10018000EF010008EF010008EF010008EF0100088F
:10019000EF010008EF010008EF010008EF0100087F
:1001A000EF010008EF010008EF010008DFF80CD0B4
:1001B00000F0A4F800480047C5770008D8BE022028
:1001C00080F308887047000030BF72B6704762B68F
:1001D000704700000648804706480047FEE7FEE7F4
:1001E000FEE7FEE7FEE7FEE7FEE7FEE7FEE7FEE7E7
:1001F000B5390008AD0100082DE9F05F0546002083
:1002000092469B4688460646814640241BE0284687
:1002100041464746224600F060F853465A46C01A07
:10022000914110D311461846224600F047F82D1A86
:1002300067EB01084F4622460120002100F03EF8FE
:1002400017EB00094E41201EA4F10104DFDC4846F3
:1002500031462A464346BDE8F09F40EA01039B072A
:1002600003D009E008C9121F08C0042AFAD203E02B
:1002700011F8013B00F8013B521EF9D27047D2B28F
:1002800001E000F8012B491EFBD270470022F6E77F
:1002900010B513460A4604461946FFF7F0FF2046FC
:1002A00010BD30B504460020034600E05B1C9342BD
:1002B00003D2E05CCD5C401BF8D030BD202A04DBCB
:1002C000203A00FA02F1002070479140C2F1200369
:1002D00020FA03F3194390407047202A04DB203AA8
:1002E00021FA02F00021704721FA02F3D040C2F156
:1002F000200291400843194670470000064C074D04
:1003000006E0E06840F0010394E8070098471034E5
:10031000AC42F6D3FFF74EFF2CDA00084CDA0008A7
:1003200030B58C1810F8012B12F00F0301D110F822
:10033000013B120906D110F8012B03E010F8015B14
:1003400001F8015B5B1EF9D101E001F8013B521E8F
:10035000FBD1A142E6D3002030BD000010B5044619
:10036000606800F07F40B0F1006F63D100BF0420EF
:10037000012806D002280BD0032810D004281CD155
:1003800014E045A004F02EFA46A004F02BFA1BE07E
:100390004DA004F027FA43A004F024FA14E04CA086
:1003A00004F020FA3FA004F01DFA0DE04AA004F08A
:1003B00019FA3CA004F016FA06E04AA004F012FA7A
:1003C00038A004F00FFA00BF00BF00BF4948006822
:1003D00020F0100047490860C021474801F046F965
:1003E000252001F0FBFE3D2001F0F8FE4148001FF2
:1003F000006820F002003F49091F08601D2001F03D
:10040000EDFE3C48001F006820F010003949091F2C
:100410000860362001F0E2FE012080F3108800BF62
:100420006068364908602068FFF7CAFE33480068F4
:1004300080472FE000BF0420012806D002280BD0FF
:10044000032810D004281CD114E013A004F0CAF92A
:100450002BA004F0C7F91BE01BA004F0C3F928A0EF
:1004600004F0C0F914E01AA004F0BCF924A004F0D0
:10047000B9F90DE018A004F0B5F921A004F0B2F923
:1004800006E018A004F0AEF91DA004F0ABF900BF1F
:1004900000BF00BF10BD00005B4572726F725D3A15
:1004A00000000000426F6F744C6F6164206A756DCC
:1004B0007020746F204170706C69636174696F6E35
:1004C000202E2E2E0D0A00005B5741524E5D3A0041
:1004D0005B494E464F5D3A005B44454255475D3AA5
:1004E000000000005B556E6B6E6F776E204D73677A
:1004F0005D3A00004438024000040240240000201D
:10050000426F6F744C6F6164206A756D7020746FF8
:10051000204170706C69636174696F6E20457272FE
:100520000D0A000000BFFEE77047000010B50C4840
:100530000C4908604FF4E1304860002109488160AF
:10054000C16001610C21416100218161C16102F042
:100550007EFC18B1192104A004F002F910BD0000BE
:1005600000100140B40B00202E2E5C53595354450B
:100570004D5C75736172745C75736172742E630087
:1005800010B51B220E21024802F05AFD10BD0000DA
:100590003C0B002010B506223021024802F066FD17
:1005A00010BD00002D00002010B501220A210248D4
:1005B00002F046FD10BD000033000020016801F587
:1005C0008051896941F00202016801F580518A6118
:1005D0007047016801F58051896941F40052016852
:1005E00001F580518A61704738B5044600200090BB
:1005F000206800F58050806940F48011206800F583
:1006000080508161206800F5805080690090012051
:1006100000F048FB0099206800F58050816138BDEA
:10062000014600200A6802F0004252B90A6802F44A
:10063000004232B90A6802F4807212B10A68C2F349
:100640000D40704710B501E007F084F80949886A49
:10065000FFF7E6FF0028F7D14FF480310548006826
:1006600000F58050416140210248006800F580504B
:10067000416110BDF40B002030B503461479557963
:1006800044EA0520084C0C442064D478240695786C
:1006900044EA0544557844EA0524157844EA0500FF
:1006A000014C0C44606430BD0080024070B5AEB0B7
:1006B00004460E46002526B14FF40061E160C900F2
:1006C000A160002011901290139014901590169034
:1006D000E06918B94FF48060179001E0002017908E
:1006E0004FF400701890002019901A901B901C90E5
:1006F0001D9040201E9000201F902090219022905D
:1007000023902490259026908020279000202890E8
:1007100029902A902B902C902D9020680568714884
:100720000540DDE911010843139908431499084372
:10073000A16808431599084316990843E1680843DE
:100740001799084318990843199908431A990843B7
:100750001B9908430543206805602068056801204F
:1007600000F0A0FA20680560DDE91C0108431E992D
:1007700008431F9908432099084321990843229967
:100780000843239908432168486020684568012090
:1007900000F088FA206845602498216888602598D0
:1007A0002168C860206885694FF641700540DDE921
:1007B000261040EA014028990843299908432A99BC
:1007C00008432B99084305432068856120688569A3
:1007D000012000F067FA20688561DDE92C010843FB
:1007E0002168C8612068C569012000F05BFA2068B3
:1007F000C561002001904FF000700290002003902E
:100800004FF4001004900020059006900790089087
:1008100004200990C0050A9040120B9080010C90B2
:1008200040120D9080200E9000200F9010902068B4
:1008300000F5805085692C480540DDE90101084339
:100840000399084304990843059908430699084306
:100850000799084308990843099908430543206804
:1008600000F580508561206800F580508569012081
:1008700000F018FA206800F580508561DDE90A0172
:1008800008430C9908430D9908430E9908430F99A2
:1008900040EA81001099084340F40001206800F507
:1008A00080500160206800F580500568012000F04C
:1008B000F9F9206800F580500560A069012809D188
:1008C000206800F58050C06908490843216801F597
:1008D0008051C861002120466269FFF7CDFE2EB02D
:1008E00070BD00000F8120FF233FDEF840000100B3
:1008F00038B50446002000902068006840F00400ED
:1009000021680860206800680090012000F0CAF9A2
:1009100000982168086038BD38B504460020009072
:100920002068006840F008002168086020680068BE
:100930000090012000F0B6F900982168086038BDE9
:1009400010B54FF4A071002007F074FE0D49086047
:10095000A021002007F06EFE0B49086043F68831A5
:10096000002007F067FE0949086041F6C4510020E5
:1009700007F060FE0649086000BF00BF00BF00BF6F
:10098000002010BD4000002044000020480000204E
:100990004C00002010B54FF4007000F02DFF10BD8A
:1009A00010B5002201B909E0012901D10A0205E0D0
:1009B000022901D10A0201E04FF440720B2800D94C
:1009C000001D114B1B6823F440730F4C236023461A
:1009D0001B681343236023461B6823F0F80323603E
:1009E00023461B68F82494FAA4F4B4FA84F400FAB9
:1009F00004F444F002042343034C236023461B68A1
:100A000043F48033236010BD103C02401C48006852
:100A100000F40070B0B11A48006820F40070184962
:100A2000086000BF0846006840F40060086008469F
:100A3000006820F40060086000BF0846006840F4C9
:100A4000007008600E48006800F48060B0B10C4887
:100A5000006820F480600A49086000BF084600680A
:100A600040F4805008600846006820F48050086018
:100A700000BF0846006840F48060086070470000CE
:100A8000003C024010B502460020144B1B6823F4C2
:100A90004073124C236023461B68034323600329E1
:100AA00006D123461B68E41323430C4C23600EE05D
:100AB000012906D1094B1B6843F00403074C23604E
:100AC00005E0064B1B6843F40043044C2360034BD2
:100AD0001B6843F48033014C236010BD103C02407E
:100AE000074A126822F44072054B1A601A461268CF
:100AF0001A601A46126842F001021A6001707047CB
:100B0000103C024010B50949096821F44071074CB6
:100B100021602146096841F440712160214609683D
:100B200041F0010121600260436010BD103C0240B1
:100B3000084A126822F44072064B1A601A4612687C
:100B400042F480721A601A46126842F001021A607A
:100B500001807047103C0240084A126822F440723B
:100B6000064B1A601A46126842F400721A601A465E
:100B7000126842F001021A6001607047103C0240A6
:100B80002A480068C0F3001040B12948C06940F00D
:100B900010002749C86110202449086023480068D4
:100BA000C0F3401040B12248C06940F0080020491D
:100BB000C86120201D4908601C480068C0F38010EF
:100BC00040B11B48C06940F004001949C861402089
:100BD0001649086015480068C0F3C01040B11448B9
:100BE000C06940F002001249C86180200F490860C6
:100BF0000E480068C0F3002048B10D48C06940F0BD
:100C000001000B49C8614FF480700849086007482B
:100C10000068C0F3400040B10548C06940F02000C2
:100C20000349C86102200149086070470C3C02403A
:100C3000940B002070B50446002500201749C861B8
:100C400000F000FF054609E0601C38B124B100F057
:100C5000F9FE401BA04201D9032070BD1048006876
:100C6000C0F300400028EFD10D48006800F00100FB
:100C700010B101200A4908600948006800F4F970C1
:100C8000B0F5F97F01D1012000E0002018B1FFF795
:100C900077FF0120E1E70020DFE70000940B002050
:100CA0000C3C024031B5002400F0CCFE044600BFED
:100CB00000F0C8FE001B00998842F9D338BD70B51A
:100CC00004460D461646002200BF94F84500012850
:100CD00001D1022070BD012084F8450000BF022030
:100CE00084F84400A56200221FE005EB42114FF09A
:100CF0000040086044F2F4504860C2EBC21000EBC0
:100D0000400006EB80008860A069012803D1486894
:100D100020F000404860581E904204D905EB421074
:100D20002030C86000E0CD60521C9A42DDD32068BC
:100D300000F58050C560012084F8440000BF002009
:100D400084F8450000BF00BFC4E770B504460D46F7
:100D50001646002200BF94F84500012801D1022068
:100D600070BD012084F8450000BF022084F84400D3
:100D7000E56200221BE005EB42114FF48010086091
:100D8000C2EBC21000EB400006EB80008860E06917
:100D900018B9086840F440000860581E904204D911
:100DA00005EB42102030C86000E0CD60521C9A4232
:100DB000E1D3206800F580500561012084F84400EB
:100DC00000BF002084F8450000BF00BFC8E701460F
:100DD000002200BF91F84500012801D10220704790
:100DE000012081F8450000BF022081F84400886A94
:100DF000006800F00040002838D1886A006800F4DC
:100E00008070F0B1886B401C8863886B012801D129
:100E1000886A08638B6A4B63886A0068C0F30D4078
:100E2000021FCA63086B83680B64886AC0688862A3
:100E3000012081F8440000BF002081F8450000BF78
:100E4000CDE7886A006800F4007048B1886A0863DA
:100E500000234B6301238B63886AC068886205E0C6
:100E6000886B401C8863886AC0688862012081F8AA
:100E7000440000BF002081F8450000BF0120AEE71C
:100E80002DE9FC410446002500200190924E0027E8
:100E9000804614B90120BDE8FC8194F8440028B9CB
:100EA000002084F84500204600F024F900BF00200F
:100EB00000908A48006840F48040884908600846ED
:100EC000006800F48040009000BF00BF84480068C4
:100ED00020F400008249086008460068216A08433F
:100EE0007F490860206800F58050006840F00101EB
:100EF000206800F58050016000BF206800F5805038
:100F0000006800F001000028F7D12068056925F08D
:100F10001C0501F07BFB06467248864205D37248E9
:100F2000864202D245F008051AE06F48864205D392
:100F30006948864202D245F00C0511E066488642B7
:100F400003D36A48864200D20AE06848864205D345
:100F50006748864202D245F0040501E045F01005DD
:100F6000206805614FF400420021204600F071FA2C
:100F700048B14FF0010841462046FFF797FB01209A
:100F800084F8440087E7FF20FFF78CFE60680028A4
:100F90007ED000F057FD074600BF01AA0121204680
:100FA00000F046F900F04EFDC01BB0F5FA6F0FD906
:100FB0004FF0010841462046FFF778FB012084F8F6
:100FC000440000BF002084F8450000BF032062E712
:100FD000019800F004000428DFD18202002120469D
:100FE00000F037FA48B14FF0010841462046FFF7BC
:100FF0005DFB012084F844004DE700F023FD074627
:1010000000BF01AA0121204600F012F900F01AFDEC
:10101000C01BB0F57A7F0FD94FF00108414620463A
:10102000FFF744FB012084F8440000BF002084F84F
:10103000450000BF03202EE7019800F02000202883
:10104000DFD101AA1F21204600F0F2F848B14FF08D
:10105000010841462046FFF729FB012084F844009F
:1010600019E7019800F0100020B14FF40061E16031
:1010700002E00DE00021E160019800F00400042886
:1010800002D10021A1601DE04FF48041A16019E070
:10109000E068C0F3CF00A168C1F34F0140EA01024C
:1010A0000021204600F0D5F948B14FF00108414633
:1010B0002046FFF7FBFA012084F84400EBE6FF200E
:1010C000FFF7F0FD41462046FFF7F0FA012084F8D3
:1010D00044000020DFE6000000879303443802400C
:1010E00004380140002D3101C00E160200E1F50563
:1010F00080D1F00810B586B0044600BF00BF0020C4
:1011000000904748006840F0007045490860084674
:10111000006800F00070009000BF00BF00BF00201A
:1011200000900846006840F080600860084600684B
:1011300000F08060009000BF00BF00BF0020009062
:101140000846006840F0006008600846006800F04B
:101150000060009000BF00BF00BF00BF00200090F3
:101160000846006840F0010008600846006800F08A
:101170000100009000BF00BF00BF002000900846A3
:10118000006840F0020008600846006800F00200B5
:10119000009000BF00BF00BF00200090084600681C
:1011A00040F0040008600846006800F00400009069
:1011B00000BF00BF0820019001200290039003208F
:1011C000049001A9174800F025FB012208211548C9
:1011D00000F032FC86200190022002900020039053
:1011E000032004900B20059001A90E4800F012FB8B
:1011F0004FF46050019001A90B4800F00BFB322026
:10120000019001A9094800F005FB002201213D20C1
:1012100000F0FFFF3D2000F0EFFF06B010BD000022
:101220003038024000000240000402400008024042
:101230002DE9F04104460E4617460025A84694F8CD
:101240004400822802D10220BDE8F081822084F887
:1012500044002068056905F01C05208A4FF4784198
:1012600001EAC0200543481100EA8610054325F035
:10127000020545F001052068056100F0E3FB8046AA
:1012800012E000F0DFFBA0EB0800B0F5803F09D3CF
:10129000012084F8440000BF002084F8450000BF0E
:1012A0000320D1E72068056905F001000028E8D196
:1012B0002068406980B23860012084F84400002032
:1012C000C2E710B5044600BF94F84500012801D1DB
:1012D000022010BD012084F8450000BF022084F8E0
:1012E00044002046FFF718FB2046FFF701FB20468D
:1012F000FFF77AF92046FFF76CF92046FFF75EF911
:10130000012084F8440000BF002084F8450000BF9D
:1013100000BFDEE770B5024600230025002400BFB1
:1013200092F84500012801D1022070BD012082F809
:10133000450000BF022082F8440049B9012082F82C
:10134000440000BF002082F8450000BF0120ECE708
:10135000D06A006800F0004048B1122082F84400D2
:1013600000BF002082F8450000BF0120DDE740F209
:10137000F450814208D9B1FBF0F3B1FBF0F600FB69
:10138000161010B15B1C00E00123012B13D1D06AB1
:10139000006840F04050D66A3060C1F30C00D66A55
:1013A0007060D06A006840F00040D66A3060D06A51
:1013B000C068D06232E000242EE0D06A006820F0DD
:1013C0004050D66A30602CB9D06A006840F0805036
:1013D000D66A306040F2F450D66A7060581EA0425F
:1013E00010D1D06A006840F00050D66A3060581EB4
:1013F000C0EBC01000EB4000A1EB8005C5F30C0072
:10140000D66A7060D06A006840F00040D66A3060EA
:10141000D06AC068D062641C9C42CED3106800F5CC
:101420008050406900F0040048B10426106800F5BF
:10143000805046610026106800F58050466001200B
:1014400082F8440000BF002082F8450000BF00BFC2
:101450006BE72DE9F04104460E4617460025A846E5
:1014600094F84400422802D10220BDE8F0814220D5
:1014700084F844002068056905F01C05208A4FF4B3
:10148000784101EAC0200543481100EA861005436F
:1014900045F0020545F00105B8B2216848612068B1
:1014A000056100F0CFFA804612E000F0CBFAA0EB25
:1014B0000800B0F5803F09D3012084F8440000BF44
:1014C000002084F8450000BF0320CEE720680569AE
:1014D00005F001000028E8D1012084F84400002034
:1014E000C3E700002DE9F04104460E460127002520
:1014F00000BF2648007E012802D10220BDE8F0810D
:1015000001202249087600BF4CF25030FFF792FBD1
:101510000746002F32D1401E30602068012810D1CC
:10152000207C6168FFF7AEFA4CF25030FFF782FB87
:1015300007461748006848F20401884314490860C8
:101540001AE0A56812E0217C2846FFF729FA4CF240
:101550005030FFF76FFB07460D48006820F0FA0097
:101560000B4908600FB1356005E06D1CD4E902102D
:101570000844A842E7D800BFFFF748FA00BF0020A0
:101580000249087600BF3846B8E70000940B0020F7
:10159000103C02400348006840F0004001490860E8
:1015A00000207047103C02402DE9F04106460F46EE
:1015B00014461D464FF0010800BF1F48007E012859
:1015C00002D10220BDE8F08101201B49087600BF4E
:1015D0004CF25030FFF72EFB8046B8F1000F23D1BC
:1015E00026B9E1B23846FFF77BFA12E0012E04D1AA
:1015F000A1B23846FFF79CFA0BE0022E04D1214637
:101600003846FFF7A9FA04E022462B463846FFF792
:1016100079FA4CF25030FFF70DFB8046074800681E
:1016200020F001000549086000BF0020024908764B
:1016300000BF4046C6E70000940B0020103C02406B
:101640000748006800F0004030B1064804490C39F2
:1016500008600548086001E0012070470020FCE7B1
:10166000103C024023016745AB89EFCDF0B50C4635
:1016700000250022002300219CE0012606FA01F546
:1016800004EA0502AA427DD106684FEA410C03270D
:1016900007FA0CF7BE430660CF0800F1200656F8A3
:1016A00027604F074FEAD76C0F2707FA0CF7BE43A6
:1016B0004FEAD10C00F1200747F82C6086684FEA0A
:1016C000410C032707FA0CF7BE43866047680126E2
:1016D0008E40B7434760C6684FEA410C032707FABC
:1016E0000CF7BE43C660354E8F0856F827308E077C
:1016F000370F0F26BE403340314EB04201D1002695
:101700002DE0304EB04201D1012628E02E4EB042ED
:1017100001D1022623E02D4EB04201D103261EE066
:101720002B4EB04201D1042619E02A4EB04201D11D
:10173000052614E0284EB04201D106260FE0274EC0
:10174000B04201D107260AE0254EB04201D1082659
:1017500005E0244EB04201D1092600E00A268F0799
:101760003F0FBE409E4224D18E07370F0F2606FA48
:1017700007F3124E8F0856F827609E430F4F4FEA2B
:10178000910C00E015E047F82C60174E3668964340
:10179000154F3E603E1D366896433F1D3E603E1D20
:1017A000366896433F1D3E603E1D366896433F1D9A
:1017B0003E60491C1029FFF460AFF0BD08380140BD
:1017C000000002400004024000080240000C0240F9
:1017D000001002400014024000180240001C0240A9
:1017E0000020024000240240003C014008B50021D6
:1017F000009100BF08BD000010B504460448006811
:10180000204020B1024804602046FFF7EFFF10BDE2
:10181000143C0140F8B502460B4600250024002088
:101820000021E6E0012606FA01F51E6806EA050435
:10183000AC4273D15E68022E02D05E68122E13D1C4
:10184000CF0802F1200656F827004E07F70E0F26A4
:10185000BE40B0434F07FF0E1E69BE403043CF0865
:1018600002F1200646F8270010684F000326BE400C
:10187000B0431E7906F003064F00BE4030431060AF
:101880005E68012E08D05E68022E05D05E68112EBB
:1018900002D05E68122E13D190684F000326BE401E
:1018A000B0434F00DE68BE40304390605068012670
:1018B0008E40B0431E79C6F300168E403043506010
:1018C000D0684F000326BE40B0434F009E68BE4024
:1018D0003043D0605E6806F08056B6F1805FA8D1D4
:1018E00000BF00260096454E366846F48046434FBA
:1018F0003E603E46366806F48046009600BF00BF54
:101900003F4E8F0856F827008E07370F0F26BE4030
:10191000B0433C4EB24202D100262EE068E03A4E7F
:10192000B24201D1012628E0384EB24201D102264E
:1019300023E0374EB24201D103261EE0354EB242BB
:1019400001D1042619E0344EB24201D1052614E03B
:10195000324EB24201D106260FE0314EB24201D1E1
:1019600007260AE02F4EB24201D1082605E02E4E8E
:10197000B24201D1092600E00A268F073F0FBE4080
:1019800030431F4E8F0846F82700284E3068A0438A
:101990005E6806F48036B6F5803F00D12043234EC2
:1019A0003060361D3068A0435E6806F40036B6F538
:1019B000003F00D120431D4E361D3060361D30687B
:1019C000A0435E6806F48016B6F5801F00D1204360
:1019D000164E08363060361D3068A0435E6806F447
:1019E0000016B6F5001F00D12043104E0C363060B3
:1019F000491C1029FFF416AFF8BD0000443802401E
:101A00000838014000000240000402400008024083
:101A1000000C024000100240001402400018024076
:101A2000001C02400020024000240240003C014013
:101A300042694A40426170470AB1816101E00B048A
:101A4000836170470148006870470000380000203B
:101A500010B502460B46002192F83510022903D03A
:101A6000122901D0222901D1022010BD022082F8C2
:101A700035001068006820F00100146820601068CC
:101A8000406A20F01000146860621068406A1843D1
:101A9000146860621068006840F0010014682060FB
:101AA000012082F835000020DFE7014691F835007B
:101AB0007047000070B50446002600250CB90120CF
:101AC00070BD94F8350028B9002084F83400204611
:101AD00000F0ECFA022084F835002068006820F05D
:101AE00001002168086000F0ADFD05463748B5FBF0
:101AF000F0F62068466036496068884201D8701C5C
:101B000007E04FF4967070434FF47A71B0FBF1F038
:101B1000401C216808622E49606888420ED86068BF
:101B20004000B5FBF0F0C0F30B00042801D2042004
:101B30002DE060684000B5FBF0F028E0A06828B90F
:101B4000606800EB4000B5FBF0F008E0606800EB77
:101B5000C00101EB0010B5FBF0F040F48040C0F391
:101B60000B0008B9012012E0A06828B9606800EBFA
:101B70004000B5FBF0F008E0606800EBC00101EB4D
:101B80000010B5FBF0F040F4804040F400402168C4
:101B9000C861D4E90701084321680860D4E903104B
:101BA000084321688860D4E9050108432168C860BA
:101BB0002068006840F00100216808600020A063F0
:101BC000012084F8350000207AE7000040420F0031
:101BD000A08601002DE9FC5F04460E4617461D460F
:101BE0004FF00008C146C246C3460120019094F858
:101BF000350001287ED142F2107301225849204657
:101C000001F0F2FB10B10220BDE8FC9F00BF94F888
:101C10003400012801D10220F6E7012084F83400C5
:101C200000BF2068006820F400602168086002207E
:101C300084F835000020A06300BF2068006840F4ED
:101C40008070216808602B4600224FF00111204669
:101C500001F0CAFB08B10320D6E706F0FE002168B8
:101C60000861FFF7EFFE804620684069C0F3400935
:101C700020684069C0F3802A94F835B013E02DB194
:101C8000FFF7E0FEA0EB0800A84202D9032084F889
:101C9000350020684069C0F3400920684069C0F3FE
:101CA000802A94F835B0B9F1000F05D1BAF1000FD0
:101CB00002D1BBF1030FE2D1012084F83500206886
:101CC0004069C0F3400028B32068006840F4007009
:101CD0002168086000BF00200090206840690090E3
:101CE00020688069009000BF00BF42F2107301229B
:101CF0001B4900E032E0204601F076FB08B10320EA
:101D000082E7012084F8350000BF002084F8340009
:101D100000BF79E72068006840F40070216808601F
:101D20006FF480602168486142F2107301220C490F
:101D3000204601F059FB08B1032065E70198411CDA
:101D40000191B842FFF479AF012084F8350000BF5B
:101D5000002084F8340000BF012055E7022053E73B
:101D6000020010002DE9F84F0446884691469A4635
:101D70000AADE0CD94F83500012870D105B116B94F
:101D80000120BDE8F88F42F21073012281492046FC
:101D900001F02AFB08B10220F3E700BF94F83400F9
:101DA000012801D10220ECE7012084F8340000BFB3
:101DB0002068006820F4006021680860422084F8F0
:101DC00035000020A06353464A464146204600970E
:101DD00001F024FA80B1A06B042806D100BF0020D6
:101DE00084F8340000BF0120CBE700BF002084F856
:101DF000340000BF0320C4E7012E17D1206800681B
:101E000020F480602168086000BF002000902068F6
:101E10004069009020688069009000BF00BF206882
:101E2000006840F400702168086024E0022E17D199
:101E30002068006820F480602168086020680068DD
:101E400040F400602168086000BF00200090206816
:101E50004069009020688069009000BF0BE097E027
:101E600000BF0020009020684069009020688069D1
:101E7000009000BF00BF7FE0032E63DC012E0FD176
:101E80003B4600224449204601F0AEFA08B1032047
:101E900077E72068006905F8010B701E86B26BE0D9
:101EA000022E1CD13B4600223B493C39204601F022
:101EB0009BFA08B1032064E72068006840F40070D2
:101EC000216808602068006905F8010B701E86B261
:101ED0002068006905F8010B701E86B24CE03B4695
:101EE00000222D493C39204601F07EFA08B103203A
:101EF00047E72068006820F4806021680860206857
:101F0000006905F8010B701E86B23B46002222498B
:101F10003C39204601F068FA08B1032031E7206817
:101F2000006840F40070216808602068006905F8C6
:101F3000010B701E86B22068006905F8010B701E47
:101F400086B219E03B4600221349204601F04CFAC4
:101F500008B1032015E72068006905F8010B701E21
:101F600086B220684069C0F3800028B1206800690B
:101F700005F8010B701E86B2002E3FF77DAF0120E1
:101F800084F8350000BF002084F8340000BFF8E674
:101F90000220F6E602001000400001002DE9F84F93
:101FA0000446884691469A460AADE0CD94F835003D
:101FB000012874D105B116B90120BDE8F88F42F2AD
:101FC000107301223749204601F00EFA08B10220B1
:101FD000F3E700BF94F83400012801D10220ECE7B8
:101FE000012084F8340000BF2068006820F40060FD
:101FF00021680860322084F835000020A063534631
:102000004A4641462046009701F094F980B1A06B02
:10201000042806D100BF002084F8340000BF01204E
:10202000CBE700BF002084F8340000BF0320C4E7E2
:102030001AE03B4600221C49204601F0D5F908B1C0
:102040000320BAE715F8010B21680861701E86B2FB
:1020500020684069C0F3800030B12EB115F8010B43
:1020600021680861701E86B2002EE2DC3B46002229
:102070000D49204601F0B8F908B103209DE720681A
:10208000006840F4007021680860012084F8350081
:1020900000BF002084F8340000BF8EE7FFE7022075
:1020A0008BE70000020010008000010010B586B030
:1020B000044600BF002000902948006840F002005C
:1020C000274908600846006800F00200009000BF41
:1020D00000BF00BF002000900846006840F00200EA
:1020E00008600846006800F00200009000BF00BFD2
:1020F00000BF002000901A481030006840F4001023
:102100001749103108600846006800F4001000907C
:1021100000BF00BF8815019012200290002003909C
:10212000022004900420059001A90E48FFF772FBDD
:102130004FF4007001900420059001A90948FFF7B1
:1021400069FB07481038006840F400100449103952
:1021500008600846006820F40010086006B010BD52
:10216000303802400004024002480068401C014927
:10217000086070473800002010B50D48006840F432
:1021800000700B4908600846006840F480600860F1
:102190000846006840F480700860052000F078F878
:1021A0000F2000F007F800F017F8002010BD000025
:1021B000003C024070B5044600F028FA4FF47A71F2
:1021C000B0FBF1F5284600F0DBFC00222146501E52
:1021D00000F01FF8002070BD7047000000BF00F045
:1021E0001F0201219140034A430942F8231000BF16
:1021F0007047000080E100E000BF00F01F020121F5
:1022000091404209920002F1E022C2F8001100BFA1
:1022100070472DE9F05F80460D461646002701F015
:102220003BFA074639462A46334601F00700C0F11B
:10223000070ABAF1040F02D94FF0040A01E0C0F115
:10224000070AD14600F1040ABAF1070F02D24FF093
:10225000000A01E0A0F1030AD4464FF0010A0AFA8D
:1022600009FAAAF1010A0AEA020A0AFA0CFA4FF07C
:10227000010B0BFA0CFBABF1010B0BEA030B4AEA67
:102280000B042146404601F00FFABDE8F09F000024
:1022900000BF00F00702064B19684FF6FF03194014
:1022A000044B0B4343EA0221014B196000BF704706
:1022B0000CED00E00000FA0538B5002400BF002056
:1022C00000902348006840F080502149086008468B
:1022D000006800F08050009000BF00BF01200104A2
:1022E00091FAA1F1B1FA81F11A4A42F82100FFF7FF
:1022F000A9FB044607E0FFF7A5FB001BB0F57A7FBA
:1023000001D9032038BD1448406800F48030B0F58E
:10231000803FF0D10120410491FAA1F1B1FA81F19D
:102320000C4A42F82100FFF78DFB044607E0FFF757
:1023300089FB001BB0F57A7F01D90320E2E706484C
:10234000406800F40030B0F5003FF0D10020D9E73C
:102350004038024000000E420070004070B5044654
:102360000E460025A748006800F00F00B0426FD26B
:10237000A4490E700846006800F00F00B04201D07A
:10238000012070BD207800F00200022807D19E488D
:10239000006820F0F000A16808439B49086020789D
:1023A00000F0010000283ED06068012807D196485F
:1023B00008380068C0F34040B8B90120E1E7606820
:1023C000022802D06068032807D18F4808380068C7
:1023D000C0F3406048B90120D3E78B480838006853
:1023E000C0F3400008B90120CBE78748006820F01F
:1023F00003006168084384490860FFF723FB054632
:102400006068012810D108E0FFF71CFB401B41F277
:102410008831884201D90320B3E77B48006800F087
:102420000C000428F0D1CDE06068022811D108E04A
:10243000FFF708FB401B41F28831884201D9032095
:102440009FE77148006800F00C000828F0D1B9E05F
:1024500024E06068032810D108E0FFF7F3FA401B7E
:1024600041F28831884201D903208AE76648006832
:1024700000F00C000328F0D1A4E008E0FFF7E2FA36
:10248000401B41F28831884201D9032079E75E4838
:10249000006800F00C000028F0D193E0207800F0F4
:1024A0000200022807D15848006820F0F000A16817
:1024B000084355490860207800F00100002877D0D3
:1024C0006068012807D1504808380068C0F34040D0
:1024D000B8B9012055E76068022802D06068032877
:1024E00007D1494808380068C0F3406048B9012066
:1024F00047E7454808380068C0F3400008B90120A4
:102500003FE74148006820F00300616808433E4906
:102510000860FFF797FA05466068012810D108E0C7
:10252000FFF790FA401B41F28831884201D903201D
:1025300027E73548006800F00C000428F0D137E0A8
:102540006068022810D108E0FFF77CFA401B41F2D6
:102550008831884201D9032013E72B48006800F036
:102560000C000828F0D123E06068032810D108E0AF
:10257000FFF768FA401B41F28831884201D90320F5
:10258000FFE62148006800F00C000328F0D10FE0BE
:1025900008E0FFF757FA401B41F28831884201D921
:1025A0000320EEE61848006800F00C000028F0D187
:1025B00014490E700846006800F00F00B04201D0C8
:1025C0000120DEE6207800F00400042807D10E4840
:1025D000006820F4E050E16808430B490860207867
:1025E00000F00800082808D10748006820F460407F
:1025F000216940EAC100044908600F20FFF7DAFDB5
:102600000020BEE6003C02400838024010B500F051
:1026100045F80949096801F0F001F02292FAA2F2A6
:10262000B2FA82F2D140054A515CC84004490860C0
:102630000846006810BD00000838024058D800085D
:102640000400002010B5FFF7E1FF0749096801F415
:10265000E0514FF4E05292FAA2F2B2FA82F2D14083
:10266000024A515CC84010BD0838024058D80008E2
:1026700010B5FFF7CBFF0749096801F460414FF43B
:10268000604292FAA2F2B2FA82F2D140024A515C5E
:10269000C84010BD0838024058D8000870B5002165
:1026A000002200230020274C246804F00C0424B1ED
:1026B000042C04D0082C41D103E0234840E02348F7
:1026C0003EE0204C241F246804F03F011D4C241FD1
:1026D000246804F4800484B11C4CB4FBF1F5194C5B
:1026E000241F246847F6C076344096FAA6F6B6FA58
:1026F00086F6F44005FB04F20FE0134CB4FBF1F551
:10270000104C241F246847F6C076344096FAA6F68B
:10271000B6FA86F6F44005FB04F20A4C241F24683E
:1027200004F440344FF4403595FAA5F5B5FA85F533
:10273000EC40641C6300B2FBF3F001E0024800BF10
:1027400000BF70BD083802400024F40040787D01CD
:1027500038B504460025207800F00100002866D036
:10276000F748006800F00C0004280DD0F448006819
:1027700000F00C00082813D1F148001F006800F495
:102780008000B0F5800F0BD1ED4808380068C0F329
:10279000404000284BD06068002848D1012038BD57
:1027A0000020E749891F0870FFF74CF9054608E04B
:1027B000FFF748F9401B41F28831884201D90320D4
:1027C000EDE7DF4808380068C0F340400028EFD14B
:1027D0002079DB49891F08706068A0B1FFF732F9E2
:1027E000054608E0FFF72EF9401B41F28831884288
:1027F00001D90320D3E7D24808380068C0F340402D
:102800000028EFD013E0FFF71DF9054608E0FFF7B9
:1028100019F9401B41F28831884201D90320BEE7F3
:10282000C74808380068C0F340400028EFD120783E
:1028300000F00200022869D1C148006800F00C00D5
:1028400058B1BF48006800F00C00082821D1BC48EE
:10285000001F006800F48000D8B9B9480838006843
:10286000C0F3400020B1E068012801D0012096E7C4
:10287000B3480838006820F0F800F82292FAA2F273
:10288000B2FA82F2216991400843AD4908390860E3
:102890003CE0E06828B30120AA490860FFF7D2F8BD
:1028A000054606E0FFF7CEF8401B642801D9032057
:1028B00075E7A34808380068C0F340000028F1D04D
:1028C0009F480838006820F0F800F82292FAA2F237
:1028D000B2FA82F2216991400843994908390860A7
:1028E00014E0002097490860FFF7ACF8054606E0C1
:1028F000FFF7A8F8401B642801D903204FE7904850
:1029000008380068C0F340000028F1D1207800F0BA
:10291000080008282CD16069A8B101208A49086004
:10292000FFF790F8054606E0FFF78CF8401B642897
:1029300001D9032033E782486C300068C0F34000BF
:102940000028F1D014E000207F490860FFF77AF8F2
:10295000054606E0FFF776F8401B642801D90320FE
:102960001DE777486C300068C0F340000028F1D1C3
:10297000207800F0040004286FD100BF00200090F0
:102980006F483830006840F080506D493831086039
:102990000846006800F08050009000BF00BF6B4800
:1029A000006840F4807069490860FFF74BF80546FD
:1029B00006E0FFF747F8401B642801D90320EEE644
:1029C0006248006800F480700028F2D000205C4962
:1029D00068310870FFF736F8054608E0FFF732F86F
:1029E000401B41F28831884201D90320D7E6544880
:1029F00068300068C0F340000028EFD1207A5049C9
:102A000068310870A068A0B1FFF71CF8054608E01F
:102A1000FFF718F8401B41F28831884201D90320A2
:102A2000BDE6474868300068C0F340000028EFD09A
:102A300013E0FFF707F8054608E0FFF703F8401B2F
:102A400041F28831884201D90320A8E63C48683029
:102A50000068C0F340000028EFD1A069F0B3384807
:102A6000006800F00C00082872D0A069022850D13C
:102A7000002034490866FEF7E5FF054606E0FEF74C
:102A8000E1FF401B642801D9032088E62C48083860
:102A90000068C0F340600028F1D1D4E90701084381
:102AA00047F6C07292FAA2F2B2FA82F2616A9140DB
:102AB00008430122A16AC2EB51014FF4403292FA5D
:102AC000A2F2B2FA82F2914008434FF0706292FA99
:102AD000A2F2B2FA82F2E16A914000E03AE00843E1
:102AE0001749091F0860012016490866FEF7AAFF6A
:102AF000054606E0FEF7A6FF401B642801D9032027
:102B00004DE60F4808380068C0F340600028F1D057
:102B100020E000200B490866FEF794FF054606E01A
:102B2000FEF790FF401B642801D9032037E60448D4
:102B300008380068C0F340600028F1D10AE007E0DF
:102B40000838024000004742800E474200700040B3
:102B5000012024E6002022E6042808D14FF0E021DD
:102B6000096941F004014FF0E022116107E04FF0E4
:102B7000E021096921F004014FF0E0221161704762
:102B800070B504462546681EB0F1807F01D3012050
:102B90000FE0681E4FF0E02148610F214FF0FF3039
:102BA00000F082FD00204FF0E021886107200861DD
:102BB000002070BD7047704710B504460CB9012065
:102BC00010BD94F8390028B9002084F83800204658
:102BD00000F00CF8022084F83900211D206800F074
:102BE00041FF012084F839000020E9E738B50446A8
:102BF00000BF002000901748006840F0020015490F
:102C000008600846006800F00200009000BF00BFA6
:102C1000012211461D20FFF7FCFA1D20FFF7ECFAF8
:102C200000BF002000900B48006840F010000949E8
:102C300008600846006800F01000009000BF00BF68
:102C4000012211463620FFF7E4FA3620FFF7D4FAC6
:102C500038BD00004038024001460868C06840F0B6
:102C600001000A68D0600868006840F001000A6846
:102C7000106000207047704710B504462068006956
:102C8000C0F34000D8B12068C068C0F34000B0B1C4
:102C90006FF00200216808610120207620688069B9
:102CA00000F0030018B12046FFF7E5FF05E02046DD
:102CB00000F0ADF8204600F0ABF800202076206848
:102CC0000069C0F38000D8B12068C068C0F38000FC
:102CD000B0B16FF0040021680861022020762068FE
:102CE000806900F4407018B12046FFF7C4FF05E08A
:102CF000204600F08CF8204600F08AF8002020766C
:102D000020680069C0F3C000D8B12068C068C0F373
:102D1000C000B0B16FF0080021680861042020767F
:102D20002068C06900F0030018B12046FFF7A3FF38
:102D300005E0204600F06BF8204600F069F800201E
:102D4000207620680069C0F30010D8B12068C06800
:102D5000C0F30010B0B16FF01000216808610820C6
:102D600020762068C06900F4407018B12046FFF753
:102D700082FF05E0204600F04AF8204600F048F8BF
:102D8000002020762068006900F0010058B120681A
:102D9000C06800F0010030B16FF0010021680861E7
:102DA000204600F037F820680069C0F3C01058B121
:102DB0002068C068C0F3C01030B16FF08000216897
:102DC00008612046FFF7F6FE20680069C0F3801016
:102DD00058B12068C068C0F3801030B16FF0400077
:102DE00021680861204600F031F820680069C0F3CE
:102DF000401058B12068C068C0F3401030B16FF087
:102E00002000216808612046FFF7D5FE10BD7047FD
:102E10007047000010B504460848844205D10848B0
:102E200000680A300649086007E00648844204D179
:102E300004F08BFC01200449087010BD3C0C0020FC
:102E400080000020780C002050000020704710B552
:102E500004460CB9012010BDA06900B100E000BF1C
:102E600094F8390028B9002084F83800204600F092
:102E700025F8022084F839002068C06820F400504A
:102E80002168C860204600F05FFE2068006920F4D9
:102E90009040216808612068406920F02A0021687C
:102EA00048612068C06840F400502168C860002074
:102EB000E063012084F839000020CCE710B586B02B
:102EC00004461F492068884237D100BF0020009087
:102ED0001C48006840F010001A4908600846006865
:102EE00000F01000009000BF00BF00BF0020009065
:102EF00014481438006840F0020012491439086080
:102F00000846006800F00200009000BF00BFC0202B
:102F100001900220029001200390022004900720DB
:102F2000059001A90848FEF775FC002211462520EE
:102F3000FFF76FF92520FFF75FF906B010BD00001D
:102F40000010014044380240000402402DE9F047DF
:102F500004460D46164699464FF0000894F839800D
:102F6000B8F1010F02D0B8F1220F65D105B116B941
:102F70000120BDE8F08700BF94F83800012801D196
:102F80000220F6E7012084F8380000BF0020E0634B
:102F900094F83900222803D1322084F8390002E065
:102FA000122084F83900A684E68428E0E08C401ED4
:102FB000E084A068B0F5805F14D14B4600228021E8
:102FC000204600F0D3FE08B10320D2E72F46388810
:102FD000C0F3080021684860206908B9AD1C0EE004
:102FE0006D1C0CE04B4600228021204600F0BEFE06
:102FF00008B10320BDE715F8010B21684860E08C9B
:103000000028D3DC4B4600224021204600F0AEFED3
:1030100008B10320ADE794F83900322803D122200B
:1030200084F8390002E0012084F8390000BF002054
:1030300084F8380000BF9CE702209AE700BFFEE753
:10304000FEB504460D46164600274FF47A7001235C
:103050002A46A021CDE9004602900348FEF782FEF1
:1030600007463846FEBD0000580B00202DE9F0470A
:1030700007460D4614464FF00008C146C2460026DA
:103080002846E91705EB5171C910A5EBC10101F004
:10309000FF0ACAF10800C6B22046E11704EB5171DD
:1030A000C1F3C708E11704EB5171C910A4EBC101CA
:1030B00001F0FF09BAF1000F22D1B8F1000F05D1DC
:1030C0004A462946384600F05DF854E008E00822F8
:1030D0002946384600F056F805F10800C5B2083711
:1030E000B8F10000A8F1010101F0FF08EFD1B9F13A
:1030F000000F40D04A462946384600F043F83AE0EF
:10310000B8F1000F05D14A462946384600F03AF892
:1031100031E0A01B84B22046E11704EB5171C1F3EA
:10312000C708E11704EB5171C910A4EBC10101F00C
:10313000FF093EB132462946384600F023F8A81967
:10314000C5B2374408E008222946384600F01AF88C
:1031500005F10800C5B20837B8F10000A8F1010177
:1031600001F0FF08EFD1B9F1000F04D04A4629461B
:10317000384600F007F8BDE8F08710B500F02CF8ED
:1031800010BD0000FEB504460D461646002764201B
:1031900001232A46A021CDE9004602900D48FEF702
:1031A000FDFE074600BF0B48FEF77FFC0128FAD161
:1031B00000BF4FF496731A46A0210648FEF70AFD99
:1031C0000328F6D000BF0348FEF76FFC0128FAD1B0
:1031D0003846FEBD580B002010B50D480D4908605B
:1031E00001140C4801610C480A4948600021094853
:1031F00041618160C16101620A21C1600021816178
:10320000FEF758FC00210348FEF722FC10BD000029
:1032100000540040580B0020801A06002DE9F843A6
:1032200004460E4615461F46DDF8208020680068DB
:1032300040F48060216808602068006840F4807075
:1032400021680860434600224FF00111204600F03B
:10325000CBF810B10320BDE8F88306F0FE0021682A
:10326000086142463249204600F02DF930B1A06B8A
:10327000042801D10120EEE70320ECE700BF002085
:10328000009020684069009020688069009000BF2D
:1032900000BF4346002226497E31204600F0A4F8B4
:1032A00008B10320D7E7012F03D1E8B221680861F4
:1032B00010E0C5F3072021680861434600221C493D
:1032C0007E31204600F090F808B10320C3E7E8B251
:1032D000216808614346002215497E31204600F0EE
:1032E00083F808B10320B6E72068006840F48070D6
:1032F00021680860434600224FF00111204600F08B
:1033000073F808B10320A6E7F0B240F0010021688D
:10331000086142460649204600F0D5F830B1A06B5E
:10332000042801D1012096E7032094E7002092E7CA
:10333000020001002DE9F84304460E4615461F46DB
:10334000DDF820802068006840F480702168086003
:10335000434600224FF00111204600F045F810B11D
:103360000320BDE8F88306F0FE00216808614246AC
:103370001C49204600F0A7F830B1A06B042801D109
:103380000120EEE70320ECE700BF0020009020685A
:103390004069009020688069009000BF00BF4346EC
:1033A000002210497E31204600F01EF808B10320AB
:1033B000D7E7012F03D1E8B22168086110E0C5F317
:1033C0000720216808614346002206497E312046D5
:1033D00000F00AF808B10320C3E7E8B221680861E9
:1033E0000020BEE7020001002DE9F04105460C4631
:1033F00017461E464FF00008FEF724FB804687BBA9
:1034000013E0701C88B12EB1FEF71CFBA0EB080086
:10341000B0420AD9012085F8350000BF002085F8A8
:10342000340000BF0320BDE8F081C4F30740012849
:103430000AD128684069A1B20840A1B2884201D1EE
:1034400001200BE0002009E028688069A1B2084053
:10345000A1B2884201D1012000E000200028D0D094
:103460002FE0FFE712E0701C80B12EB1FEF7EAFA00
:10347000A0EB0800B04209D9012085F8350000BF53
:10348000002085F8340000BF0320CCE7C4F30740D8
:1034900001280AD128684069A1B20840A1B2884237
:1034A00001D101200BE0002009E028688069A1B269
:1034B0000840A1B2884201D1012000E0002000288C
:1034C000D1D10020AFE72DE9F04104460D46164664
:1034D0000027FEF7B7FA07462DE020684069C0F3E1
:1034E0008020B0B12068006840F400702168086056
:1034F0006FF48060216848610420A063012084F893
:10350000350000BF002084F8340000BF0120BDE872
:10351000F081701C78B126B1FEF794FAC01BB0425E
:1035200009D9012084F8350000BF002084F8340058
:1035300000BF0320EBE7C5F3074001280AD120684C
:103540004069A9B20840A9B2884201D101200BE02C
:10355000002009E020688069A9B20840A9B2884229
:1035600001D1012000E000200028B6D00020CEE7E5
:103570001CB5FCF72AFE002208212248FEF75CFA5F
:10358000642001F0DDFA012208211E48FEF754FAFA
:10359000642001F0D5FAFCF71AFE1B4800788DF87C
:1035A0000000194840788DF80100174880788DF8A0
:1035B00002001548C0788DF80300134800798DF893
:1035C0000400114840798DF8050010481049086042
:1035D0000120486081030E488160C910C16000214C
:1035E0000182C0F814D0012181610021C1614FF432
:1035F00000010162FDF744FC08B900201CBD012058
:10360000FCE7000000000240E0B40220008002401D
:10361000F40B002000B587B000BF002001900D48DA
:10362000006840F010000B4908600846006800F090
:103630001000019000BF00BF0820029001200390FD
:1036400004900020059002A90348FEF7E3F807B0B4
:1036500000BD000030380240001002401CB50020C0
:103660000090019008480949086048F69F4048606A
:1036700000210648816040F2F311C160FFF79CFA17
:103680000248FFF7E9FA1CBD00100040780C00204A
:1036900000BFFEE77047000002480068C0F3022048
:1036A000704700000CED00E010B5002807DA0A07AB
:1036B000140E054A00F00F031B1FD45403E00A0741
:1036C000130E024A135410BD18ED00E000E400E0B0
:1036D00070B50446002000BF06E00D7800EB83269D
:1036E000A555491C451CA8B29042F6DB70BD704739
:1036F00001463A48814201D2002070473848814251
:1037000001D20120F9E73748814201D20220F4E7D3
:103710003548814201D20320EFE73448814201D28B
:103720000420EAE73248814201D20520E5E731482A
:10373000814201D20620E0E72F48814201D20720D2
:10374000DBE72E48814201D20820D6E72C4881428F
:1037500001D20920D1E72B48814201D20A20CCE7CF
:10376000B1F1016F01D20B20C7E72748814201D296
:103770000C20C2E72548814201D20D20BDE7244834
:10378000814201D20E20B8E72248814201D20F20A7
:10379000B3E72148814201D21020AEE71F488142A1
:1037A00001D21120A9E71E48814201D21220A4E7CC
:1037B0001C48814201D213209FE71B48814201D25D
:1037C00014209AE71948814201D2152095E718483C
:1037D000814201D2162090E717208EE700400008B2
:1037E0000080000800C00008000001080000020876
:1037F00000000408000006080000080800000A088D
:1038000000000C0800000E0800401008008010089E
:1038100000C0100800001108000012080000140881
:10382000000016080000180800001A0800001C0814
:1038300000001E0801460868704700002DE9F043AB
:1038400087B004460E4617464FF00009002001904D
:1038500000258046B4F1006F02D304F0030010B1DC
:1038600007B0BDE8F083FDF7EBFE254604EB8708C3
:103870001E4885421DD219E02846FFF7DBFF401C99
:1038800078B1002002902846FFF732FF0490012013
:1038900005900220069001A902A8FDF723FE08B1B9
:1038A00006E02D1D4CF25030FDF7C4F94545E3D339
:1038B00000BF4CF25030FDF7BDF98146B9F1000F61
:1038C0000FD10BE0D6F800C062460023214602204B
:1038D000FDF76AFE00B103E0241D361D4445F1D317
:1038E00000BFFDF757FE00BFBAE700000000FF1F52
:1038F000704700002DE9F04192B005468846164613
:103900001F46002400BF002000902648006840F0B9
:103910008050244908600846006800F080500090FC
:1039200000BF00BF00BF002000901F48006840F4A7
:1039300040401D4908600846006800F4404000907F
:1039400000BF00BF01200690079002200C904105A7
:103950000D91CDF838800F951096119706A8FEF7B7
:10396000F7FE04460CB100BFFEE7FEF7A5FC0446D7
:103970000CB100BFFEE70F20019002200290002052
:1039800003904FF4A05004904FF48050059005210F
:1039900001A8FEF7E3FC04460CB100BFFEE712B03D
:1039A000BDE8F081403802400070004010B5FEF7DD
:1039B000DBFB10BD1448006840F470001249086039
:1039C0001248006840F001001049086000200F49CB
:1039D000083108600D4800680D4908400B4908602F
:1039E0000C48091D0860081F006820F48020091F8A
:1039F0000860002005490C3108604FF00060024962
:103A0000803908607047000088ED00E0003802400F
:103A1000FFFFF6FE1030002410B50248FFF72CF926
:103A200010BD00003C0C002070B505460C46074850
:103A3000074908600846446000218160C560016153
:103A4000FFF7BAF80248FFF707F970BD000400401D
:103A50003C0C002010B50248FFF70EF910BD000025
:103A6000780C0020002202682C4B98420ED0B0F156
:103A7000804F0BD02A4B984208D02A4B984205D051
:103A8000294B984202D0294B984201D1012300E0F2
:103A900000231BB122F070024B681A431F4B98425F
:103AA00020D0B0F1804F1DD01D4B98421AD01D4B35
:103AB000984217D01C4B984214D01C4B984211D0FE
:103AC0001B4B98420ED01B4B98420BD01A4B98427E
:103AD00008D01A4B984205D0194B984202D0194B86
:103AE000984201D1012300E000231BB122F440726F
:103AF000CB681A4302608B68C3620B688362074B12
:103B0000984202D0094B984201D1012300E00023E2
:103B10000BB10B690363012343617047000001404F
:103B20000004004000080040000C00400004014078
:103B3000004001400044014000480140001800409E
:103B4000001C0040002000402DE9F0410446002503
:103B50002068056925F44055E06805432068056143
:103B60002068C56849F20C6085432169A068084354
:103B700061690843E169084305432068C56020681E
:103B8000456925F44075A069054320684561E069F1
:103B9000B0F5004F72D173492068884203D0724952
:103BA0002068884234D1FEF763FD00EBC00101EBD1
:103BB000001061684900B0FBF1F06421B0FBF1F640
:103BC000FEF756FD00EBC00101EB001061684900F3
:103BD000B0FBF1F7FEF74CFD00EBC00101EB00106C
:103BE00061684900B0FBF1F06421B0FBF1F000EB3B
:103BF000C00101EB0010A7EB8000322101EB0010A7
:103C00006421B0FBF1F066F31F1021688860A6E024
:103C1000FEF718FD00EBC00101EB001061684900E0
:103C2000B0FBF1F06421B0FBF1F6FEF70BFD00EB09
:103C3000C00101EB001061684900B0FBF1F7FEF72D
:103C400001FD00EBC00101EB001061684900B0FB11
:103C5000F1F06421B0FBF1F000EBC00101EB0010CA
:103C6000A7EB8000322101EB00106421B0FBF1F0E2
:103C700066F31F102168886071E0FFE7394920680A
:103C8000884203D038492068884234D1FEF7F0FCDE
:103C900000EBC00101EB001061688900B0FBF1F09E
:103CA0006421B0FBF1F6FEF7E3FC00EBC00101EB91
:103CB000001061688900B0FBF1F7FEF7D9FC00EB5A
:103CC000C00101EB001061688900B0FBF1F06421D4
:103CD000B0FBF1F000EBC00101EB0010A7EB80009E
:103CE000322101EB00106421B0FBF1F066F31F10EC
:103CF0002168886033E0FEF7A5FC00EBC00101EB12
:103D0000001061688900B0FBF1F06421B0FBF1F6AE
:103D1000FEF798FC00EBC00101EB00106168890020
:103D2000B0FBF1F7FEF78EFC00EBC00101EB0010D9
:103D300061688900B0FBF1F06421B0FBF1F000EBA9
:103D4000C00101EB0010A7EB8000322101EB001055
:103D50006421B0FBF1F066F31F1021688860BDE8B4
:103D6000F081000000100140001401402DE9F041F5
:103D700004460E4617461D464FF00008FDF762FE4A
:103D800080469FBB2BE0681C48B32DB1FDF75AFE5F
:103D9000A0EB0800A84222D92068C06820F080006B
:103DA0002168C8602068C06820F020002168C860D1
:103DB0002068C06820F480702168C860206840696D
:103DC00020F0010021684861012084F8390000BF1B
:103DD000002084F8380000BF0320BDE8F08120688F
:103DE00000683040B04202D1012001E003E0002031
:103DF0000028C8D035E02AE0681C40B32DB1FDF79B
:103E000021FEA0EB0800A84221D92068C06820F05C
:103E100080002168C8602068C06820F02000216808
:103E2000C8602068C06820F480702168C86020687D
:103E3000406920F0010021684861012084F83900C0
:103E400000BF002084F8380000BF0320C5E72068C9
:103E500000683040B04201D1012000E0002000287D
:103E6000CAD10020B9E700002DE9F0414FF0000869
:103E700000260027002400251D21002004F0DAFB85
:103E80000446002C76D0F9480078242809D1F74858
:103E90004078242805D11D22F4492046FCF7DDF99D
:103EA00003E01D212046FCF7F1F994F80A802789E8
:103EB000B8F1880F70D0B8F1C10F6ED11721E01C96
:103EC00000F03CFC0646A07EB04267D1D4F80B005F
:103ED000E749C1F80600D4F80F00C1F80A00E07CF9
:103EE0008873E448A18AA0F80310A17D4171B4F859
:103EF00017100180617E8170FCF74CFBDC48D0F824
:103F00000A10002004F096FBDB49086008460068B0
:103F1000002830D000BF0420012806D002280BD092
:103F2000032810D004281CD114E0D4A000F05AFCBF
:103F3000D5A000F057FC1BE0DBA000F053FCD2A0A2
:103F400000F050FC14E0DAA000F04CFCCEA000F031
:103F500049FC0DE0D8A000F045FCCBA000F042FCED
:103F600006E0D8A000F03EFCC7A000F03BFC00BF7C
:103F700000BF32E037E200BF012030B902280ED086
:103F8000032813D004281FD117E0BCA000F02AFC9E
:103F9000D0A000F027FC1EE087E0EEE154E0C2A0D4
:103FA00000F020FCCBA000F01DFC14E0C0A000F04D
:103FB00019FCC8A000F016FC0DE0BFA000F012FC38
:103FC000C4A000F00FFC06E0BEA000F00BFCC1A0F6
:103FD00000F008FC00BF00BF00BF642000F0B0FD8F
:103FE000C448007800F056FA00BF0420012806D02B
:103FF00002280BD0032810D004281CD114E09FA065
:1040000000F0F0FBBCA000F0EDFB1BE0A6A000F070
:10401000E9FBB9A000F0E6FB14E0A5A000F0E2FB8C
:10402000B5A000F0DFFB0DE0A3A000F0DBFBB2A029
:1040300000F0D8FB06E0A3A000F0D4FBAEA000F097
:10404000D1FB00BF00BF2FE000BF0420012806D035
:1040500002280BD0032810D004281CD114E087A01C
:1040600000F0C0FBA9A000F0BDFB1BE08EA000F09B
:10407000B9FBA6A000F0B6FB14E08DA000F0B2FBE7
:10408000A2A000F0AFFB0DE08BA000F0ABFB9FA067
:1040900000F0A8FB06E08BA000F0A4FB9BA000F0C2
:1040A000A1FB00BF00BF00BF9CE140F20E41002019
:1040B00004F0C0FA0546002D64D040F20E412846B7
:1040C000FCF7E4F840F20E4268492846FCF7C5F8D0
:1040D00007F10801E81C00F031FB064695F80B04D7
:1040E000B04205D007F10B006049085CB04248D1EE
:1040F00000BF0420012806D002280ED0032816D0C5
:10410000042828D11DE05DA000F06CFB3A467948F8
:10411000017883A000F066FB27E063A000F062FB5B
:104120003A46744801787EA000F05CFB1DE060A078
:1041300000F058FB3A466F48017879A000F052FB36
:1041400013E05DA000F04EFB3A466A48017874A087
:1041500000F048FB09E05BA000F044FB3A466548EC
:1041600001786FA000F03EFB00BF00BF00BF6148B8
:1041700003783A4605F10B013F480068FFF7A8FABB
:104180002FE02FE100BF012030B902280BD0032817
:1041900010D004281CD114E038A000F023FB67A045
:1041A00000F020FB1BE040A000F01CFB63A000F02F
:1041B00019FB14E03EA000F015FB60A000F012FB1C
:1041C0000DE03DA000F00EFB5CA000F00BFB06E054
:1041D0003CA000F007FB59A000F004FB00BF00BFAB
:1041E00000BF44480078401C424908702048D0F87D
:1041F00006000978884204D93E48007800F04AF960
:10420000B6E01B48D0F806003A49097888422AD11E
:104210001748D0F80A101848006800F08FFA0646D0
:104220001348807BB0421FD13248007800F032F949
:104230000F48D0F80A2010480168494801F0FCFCFA
:104240002146002004F0E4F90B480168002004F046
:10425000DFF92946002004F0DBF900202549087029
:104260000120BDE8F08183E07CE0000028B5022059
:104270002C0100202D0000201C0000205B457272E4
:104280006F725D3A000000005570677261646546A8
:10429000696C65427566206D616C6C6F6320737527
:1042A00063636573730D0A005B5741524E5D3A00BC
:1042B0005B494E464F5D3A005B44454255475D3A87
:1042C000000000005B556E6B6E6F776E204D73675C
:1042D0005D3A00005570677261646546696C6542BD
:1042E0007566206D616C6C6F63206661696C0D0A88
:1042F0000000000018000020436D645F5570677275
:1043000061646553746172740D0A000043616C69E5
:1043100062726174696F6E206661696C0D0A0000DB
:104320005061636B6574204E756D3A5B25645D2C3E
:10433000206C656E203D2025640D0A005570677263
:1043400061646550636B6574446174615F5374723A
:1043500075206D616C6C6F63206661696C0D0A007D
:10436000000001083D490978491CC8B200F092F8E4
:104370002946002004F04CF934E000BF012030B998
:1043800002280CD0032812D0042820D117E0AFF265
:10439000141000F027FA32A000F024FA1FE0AFF268
:1043A000F80000F01FFA2EA000F01CFA17E0AFF2A0
:1043B000001000F017FA2AA000F014FA0FE0AFF294
:1043C000081000F00FFA26A000F00CFA07E0AFF298
:1043D0000C1000F007FA22A000F004FA00BF00BFA2
:1043E00000BF00BF33E000BF012030B902280CD06D
:1043F000032812D0042820D117E0AFF2801000F07B
:10440000F1F91BA000F0EEF91FE0AFF2641000F02C
:10441000E9F917A000F0E6F917E0AFF26C1000F030
:10442000E1F913A000F0DEF90FE0AFF2741000F034
:10443000D9F90FA000F0D6F907E0AFF2781000F03C
:10444000D1F90BA000F0CEF900BF00BF00BF21469C
:10445000002004F0DDF80020BDE8F0811800002005
:10446000496E76616C696420646174610D0A0000B4
:1044700055706772616465526573706F6E73655FC6
:1044800053747275206D616C6C6F63206661696C2A
:104490000D0A000070B5054600241021002004F02C
:1044A000C9F80446002C37D014212046FBF7EEFE55
:1044B0002420207042F2014000F022FBA4F8010009
:1044C0002F49086800F022FBC4F803001020E071B7
:1044D000082020818820A072A4F80B500A21E01C3B
:1044E00000F02CF9607343F2355000F009FBE081D5
:1044F000102221462348006808F06CFD224800780D
:1045000000F0400028B12048007820F040001E490B
:10451000087003F01AF92EE000BF012030B902281C
:104520000BD0032810D004281CD114E017A000F0F1
:1045300059F919A000F056F91BE020A000F052F93B
:1045400015A000F04FF914E01EA000F04BF912A0E6
:1045500000F048F90DE01DA000F044F90EA000F0B5
:1045600041F906E01CA000F03DF90BA000F03AF97B
:1045700000BF00BF00BF2146002004F049F870BD15
:10458000107AFF1F840000208C0000205B457272AF
:104590006F725D3A0000000055706772616465508B
:1045A00061636B65745F53747275206D616C6C6FC1
:1045B00063206661696C0D0A000000005B57415280
:1045C0004E5D3A005B494E464F5D3A005B444542C2
:1045D00055475D3A000000005B556E6B6E6F776E5D
:1045E000204D73675D3A000070B500250026002459
:1045F0001421002004F01EF80446002C3AD01421A7
:104600002046FBF743FE2420207042F2014000F0D8
:1046100077FAA4F80100314806680146086800F0FE
:1046200075FAC4F803001020E071082000F068FA61
:104630002081C020A0720120E0720021217301219D
:1046400061730020A0730021E173012121740E2108
:10465000E01C00F073F8607443F2355000F050FA3B
:104660006082142221461E48006808F0B3FC03F063
:104670006CF82EE000BF012030B902280BD00328CF
:1046800010D004281CD114E016A000F0ABF818A03C
:1046900000F0A8F81BE01EA000F0A4F814A000F0A1
:1046A000A1F814E01CA000F09DF811A000F09AF809
:1046B0000DE01BA000F096F80DA000F093F806E0C6
:1046C0001AA000F08FF80AA000F08CF800BF00BF1D
:1046D00000BF2146002003F09BFF70BD107AFF1F32
:1046E000840000205B4572726F725D3A000000002A
:1046F000557067726164655265715F53747275209D
:104700006D616C6C6F63206661696C0D0A0000005E
:104710005B5741524E5D3A005B494E464F5D3A0051
:104720005B44454255475D3A000000005B556E6BA7
:104730006E6F776E204D73675D3A000010B50246CC
:104740000B46002000211078012103E0545C044452
:10475000E0B2491C9942F9D310BD00BFFEE700004A
:1047600000BF13A2732114A000F03CF8012080F3D5
:10477000108800BF00BF00BF00BF00BF00BFBFF375
:104780004F8F00BF00BF00BF1448006800F4E06016
:1047900013490843001D1149086000BF00BF00BF56
:1047A000BFF34F8F00BF00BF00BF00BF00BFFDE7DA
:1047B0006D61696E2E6300000D0A5265626F6F7441
:1047C00020646576696365206174206C696E65207C
:1047D000256420696E2025730D0A00000CED00E0B1
:1047E0000000FA050FB4054B10B503A9044A02985E
:1047F00000F018F810BC5DF814FB0000195C00080C
:104800002801002002E008C8121F08C1002AFAD1BE
:1048100070477047002001E001C1121F002AFBD140
:10482000704700002DE9FF4F8DB09B460F460446B0
:10483000002606E025280BD05A460F999047641CA5
:10484000761C20780028F5D111B03046BDE8F08FF5
:104850000025A8460122984900E0054314F8013FCD
:10486000203B02FA03F00842F7D120782E2817D116
:1048700014F8010F45F004052A280ED06FF02F021E
:104880002078A0F1300109290AD808EB880102EB51
:10489000410100EB0108641CF2E757F8048B641C2B
:1048A00020786C280DD004DC4C2812D06A2811D155
:1048B00004E074280DD07A280CD10AE045F40015E4
:1048C00007E0617845F48015814202D1641C05F54A
:1048D0008015641C2278692A45D008DC002AB3D0F0
:1048E000582A69D0632A10D0642A08D13BE0702A84
:1048F00067D0732A13D0752A5CD0782A5CD0104612
:104900005A460F999047761CD3E017F8040B8DF8A0
:10491000000000208DF80100E946012003E057F86F
:10492000049B4FF0FF3069074FF0000501D40AE007
:104930006D1C45450DDA8542FADB19F80510002992
:10494000F6D106E06D1C8542FCDB19F80510002944
:10495000F8D12E4404E019F8010B5A460F999047FC
:104960006D1EF8D2A5E00A200021CDE90801C5F3AB
:10497000025002280DD001CFC117031E71F10003B0
:104980000DDA4FF0000CD0EB0C006CEB01012D2385
:1049900008E0FF1D27F00707F7E80201EDE72B0508
:1049A00004D52B238DF8283001233BE0EB0739D0C9
:1049B0002023F7E70A2000E010200021CDE90801BC
:1049C00007E01020002145F00405CDE908014FF073
:1049D0000808C5F3025002280FD001CF00214FF084
:1049E000000A2B071FD5702A0DD0DDE908C38CF013
:1049F000100C5CEA030C0CD015E0FF1D27F0070734
:104A0000F7E80201EBE740228DF828204FF0010A79
:104A10000BE050EA010306D030238DF828308DF8E2
:104A2000292002239A46582A04D024A20DF12009F5
:104A30000B9209E026A2F9E7DDE90823FBF7DCFB8E
:104A40000B9B9B5C09F8013D50EA0102F4D1ADEBF0
:104A5000090020300890680701D44FF00108089938
:104A6000884502DDA8EB010000E00020804600251B
:104A700006E00AA85A46405D0F9990476D1C761CC7
:104A80005545F6DB04E030205A460F999047761CD6
:104A9000B8F10001A8F10108F5DC05E019F8010BF7
:104AA0005A460F999047761C0899481E089000298D
:104AB000F4DC641CC5E60000092801003031323303
:104AC000343536373839616263646566000000004A
:104AD0003031323334353637383941424344454634
:104AE0000000000010B5044600F0A2FE00220349B9
:104AF00041F2883004F05AFF10BD0000E54A00087A
:104B00000146081240EA012080B2704701464FF08A
:104B1000FF2000EA01204FF0FF1202EA112240EAD2
:104B20000201080C40EA01407047000010B504463D
:104B30000420FEF711F80148046010BD3C0000207D
:104B400030B50446002504E04FF47A7000F004F814
:104B50006D1CA542F8D330BD70B5034600224FF05E
:104B6000E02675690D4E366803FB06F44FF0E0262B
:104B7000B16910E04FF0E026B06988420BD088425E
:104B800002D20E1A324402E02E1A0E44324401467A
:104B9000A24200D300E0EDE700BF70BD3C00002062
:104BA0002DE9FC4705468846164600BF55B900BFAB
:104BB00047A340F2BB2250A153A0FFF713FE00BF52
:104BC000BDE8FC8700BF70892A2803DA304604F06C
:104BD00041FBF5E7776807F10E042088B0F5807F88
:104BE00008D12079062805D16079042802D160888F
:104BF000082803D0304604F02DFBE1E7D4F80E007E
:104C00000190A0690090281D08B1686810B94FF0A4
:104C1000000907E000986968884201D1012000E09E
:104C200000208146B9F1000F01D0012000E00220F0
:104C3000034604F1080201A9284600F03FFEE0887F
:104C4000B0F5807F03D0B0F5007F3AD138E0B9F1FC
:104C5000000F33D0022002F058FDE080D4F80E009F
:104C6000A0616868C4F80E0000BF95F8220006280D
:104C700008D000BF16A340F211322E4922A0FFF740
:104C8000B1FD00BF00BFA068C4F81200A089E08297
:104C9000A0683860A089B880D8F80000A060B8F893
:104CA0000400A081D8F80000C7F80600B8F8040096
:104CB000788131462846AA69904700E000BF01E0AC
:104CC00000E000BF00BF304604F0C4FA00BF77E741
:104CD0002E2E5C4C5749505C6C7769702D312E3408
:104CE0002E315C7372635C6E657469665C657468B2
:104CF0006172702E630000006E6574696620213D4C
:104D0000204E554C4C000000417373657274696FFE
:104D10006E2022257322206661696C6564206174AF
:104D2000206C696E6520256420696E2025730D0A4C
:104D30000000000018D900082DE9FE4F06468846FD
:104D40004FF00A09CA460A27002400200290019069
:104D5000BB46009000BF6BE004EB84006F4901EBA1
:104D60008000857C0A2F02D10DB967B25EE0002D6C
:104D70005CD000BF012D0AD0022D08DA00BF68A365
:104D800040F22B1270A180A0FFF72CFD00BF00BFE6
:104D90005EB104EB8401614A02EB8101306849682D
:104DA000884202D160B2BDE8FE8F012D2AD104EB0A
:104DB00084005A4951F8200088B104EB840001EBCB
:104DC0008000C17C0098814230DB4FFA84FB04EB09
:104DD0008400524901EB8000C07C009026E004EB87
:104DE00084004E4901EB8000C17C029881421DDBAA
:104DF0004FFA84F904EB8400484901EB8000C07C41
:104E0000029013E0022D11DB04EB8400434901EB17
:104E10008000C17C0198814208DB4FFA84FA04EBE0
:104E200084003E4901EB8000C07C0190601CC4B24C
:104E30000A2C91DB08F0020020B90A2F05D108F0F6
:104E4000010010B94FF0FF30ADE70A2F01DAFCB2D4
:104E500034E0BAF10A0F12DA0AF0FF0400BF04EBE3
:104E600084002E4951F8200040B100BF2CA340F22D
:104E7000711250A144A0FFF7B5FC00BF0EE0B9F1DC
:104E80000A0F02DA09F0FF0408E0BBF10A0F02DAA8
:104E90000BF0FF0402E04FF0FF3084E700BF0A2C64
:104EA00008DB00BF1EA340F2831248A136A0FFF723
:104EB00099FC00BF00BF204600F0A8F800BF0A2CF4
:104EC00008DB00BF16A340F2871240A12EA0FFF717
:104ED00089FC00BF00BF00BF04EB84000F4901EB59
:104EE0008000807C40B100BF0DA34FF4C4723CA190
:104EF00025A0FFF777FC00BF00BF36B104EB8401AB
:104F0000064A02EB810130684860002004EB84010E
:104F1000024A02EB8101C87460B244E7D8B90220AA
:104F20002E2E5C4C5749505C6C7769702D312E34B5
:104F30002E315C7372635C6E657469665C6574685F
:104F40006172702E630000007374617465203D3DD2
:104F5000204554484152505F53544154455F504599
:104F60004E44494E47207C7C207374617465203E1A
:104F70003D204554484152505F53544154455F537E
:104F80005441424C45000000417373657274696F6F
:104F90006E2022257322206661696C65642061742D
:104FA000206C696E6520256420696E2025730D0ACA
:104FB000000000006172705F7461626C655B695D26
:104FC0002E71203D3D204E554C4C000069203C2068
:104FD0004152505F5441424C455F53495A4500008D
:104FE0006172705F7461626C655B695D2E73746180
:104FF0007465203D3D204554484152505F53544113
:1050000054455F454D5054590000000010B504460A
:1050100004EB84000C4951F8200060B104EB8401DA
:10502000094A52F8210004F015F9002004EB84012C
:10503000054A42F82100002004EB8401024A02EBF9
:105040008101887410BD0000D8B902202DE9FC4709
:1050500004460F461546A94600BF44B900BF59A3F0
:1050600040F2753261A165A0FFF7BCFB00BF00BF35
:1050700000BF47B900BF53A340F276326AA15FA0D8
:10508000FFF7B0FB00BF00BF00BF45B900BF4DA395
:1050900040F2773267A159A0FFF7A4FB00BF00BF21
:1050A0000E21384604F0A8F918B16FF00100BDE8F0
:1050B000FC872146286801F045F810B1DFF88481AB
:1050C00077E0287800F0F000E02815D101208DF875
:1050D000000000208DF801005E208DF80200687845
:1050E00000F07F008DF80300A8788DF80400E878C0
:1050F0008DF80500E8465BE02868A1680840D4E91F
:1051000001121140884210D0288880B24FF6A96160
:1051100088420AD004F10C0020B1E06810B104F11B
:105120000C0902E06FF00300C1E74748007800EB8C
:105130008000464901EB8000807C022812DB424956
:10514000097801EB8101414A02EB8101D9F80000A5
:105150004968884206D13C4802783946204600F02A
:1051600077F8A4E700261BE006EB8600374901EB41
:105170008000807C022811DB06EB8601334A02EBBB
:105180008101D9F800004968884207D12E490E7084
:10519000F2B23946204600F05BF888E7701C46B250
:1051A0000A2EE1DB3A464946204600F0DBF87EE76E
:1051B00000BF434604F123023946204600F0E2FADC
:1051C00075E700002E2E5C4C5749505C6C77697077
:1051D0002D312E342E315C7372635C6E657469669A
:1051E0005C6574686172702E630000006E6574699E
:1051F0006620213D204E554C4C00000041737365E4
:105200007274696F6E2022257322206661696C6555
:1052100064206174206C696E6520256420696E20AD
:1052200025730D0A000000007120213D204E554CD1
:105230004C00000069706164647220213D204E556D
:105240004C4C00008CD800088E000020D8B90220F9
:1052500070B505460E46144600BF04EB84001F4996
:1052600001EB8000807C022808DA00BF1CA34FF409
:10527000537225A130A0FFF7B5FA00BF00BF04EBC1
:105280008400164901EB8000807C022817D104EBD2
:10529000840001EB8000C07CE42810DB04EB840078
:1052A0000A4602EB8000011D284600F055FA30B98D
:1052B000032004EB8401094A02EB8101887404EBAA
:1052C0008400064901EB800000F10C0305F1230284
:1052D0003146284600F056FA70BD0000D8B90220C9
:1052E0002E2E5C4C5749505C6C7769702D312E34F2
:1052F0002E315C7372635C6E657469665C6574689C
:105300006172702E630000006172705F7461626C84
:10531000655B6172705F6964785D2E73746174653A
:10532000203E3D204554484152505F53544154451E
:105330005F535441424C4500417373657274696F09
:105340006E2022257322206661696C656420617479
:10535000206C696E6520256420696E2025730D0A16
:10536000000000002DE9F05F80460F46164608F168
:1053700023094FF0FF3A4146386800F0E3FE38B9A0
:10538000387800F0F000E02802D00FB1386818B982
:105390006FF00D00BDE8F09F01213846FFF7CCFC0F
:1053A0000446002C01DA2046F4E704EB84005A4955
:1053B00001EB8000807C30B9012004EB8401564A67
:1053C00002EB8101887400BF04EB8400524901EBB9
:1053D0008000807C01280FD004EB840001EB80006A
:1053E000807C022808DA00BF4CA340F2194255A184
:1053F0005EA0FFF7F7F900BF00BF04EB8400464949
:1054000001EB8000807C012800D03EB9394640463F
:1054100000F0A2F982460EB95046BBE700BF46B97C
:1054200000BF3EA340F22D425BA150A0FFF7DAF986
:1054300000BF00BF04EB8400374901EB8000807C93
:1054400002280FDB57490C7004EB8400324901EB52
:10545000800000F10C034A463146404600F092F9C4
:10546000824657E004EB84002B4901EB8000807CEE
:1054700001284FD14FF0000B354617E000BF688977
:10548000298988420AD1286840B100BF23A340F28D
:105490003E4245A135A0FFF7A5F900BF00BF287B1C
:1054A000012802D04FF0010B02E02D68002DE5D15C
:1054B00000BFBBF1000F10D029890022032003F0A8
:1054C000CBF905466DB13146284603F005FD40B1E4
:1054D000284603F0BFFE002503E03546284604F0C9
:1054E00013F9A5B104EB84000B4951F8200030B149
:1054F00004EB8401084A52F8210003F0ABFE04EBF0
:105500008400054941F820504FF0000A01E04FF0B7
:10551000FF3A00BF50463DE7D8B902202E2E5C4C22
:105520005749505C6C7769702D312E342E315C7385
:1055300072635C6E657469665C6574686172702E16
:10554000630000006172705F7461626C655B695D2D
:105550002E7374617465203D3D2050454E44494E84
:1055600047206F7220535441424C4500417373658C
:105570007274696F6E2022257322206661696C65E2
:1055800064206174206C696E6520256420696E203A
:1055900025730D0A000000007120213D204E554C5E
:1055A0004C0000008E0000206E6F207061636B6500
:1055B000742071756575657320616C6C6F776564B7
:1055C000210000002DE9F84F0746884691469A468B
:1055D000DDF828B00020009000BF47B900BF37A316
:1055E00040F2A5423FA143A0FFF7FCF800BF00BF77
:1055F00000222A21032003F02FF905461DB94FF0A0
:10560000FF30BDE8F88F00BF68892A2808DA00BF9C
:105610002AA34FF4966242A136A0FFF7E3F800BF39
:1056200000BF6E6806F10E040D9802F06EF8E0807F
:1056300000BF97F82200062808D000BF1FA34FF430
:10564000976244492BA0FFF7CDF800BF00BFDAF8FE
:105650000000A060BAF80400A0810B980168C4F8AB
:1056600012108088E082D9F800003060B9F8040098
:10567000B080D8F80000C6F80600B8F804007081C1
:10568000DBF80000C4F80E000C980068A0614FF42D
:1056900080702080082060800620207104206071C6
:1056A0004FF4C160B08129463846BA6990470090EE
:1056B000284603F0CFFD00250098A2E72E2E5C4C73
:1056C0005749505C6C7769702D312E342E315C73E4
:1056D00072635C6E657469665C6574686172702E75
:1056E000630000006E6574696620213D204E554CB4
:1056F0004C000000417373657274696F6E2022253F
:105700007322206661696C6564206174206C696E27
:105710006520256420696E2025730D0A00000000B5
:10572000636865636B207468617420666972737462
:1057300020706275662063616E20686F6C642073F0
:105740007472756374206574686172705F686472E6
:105750000000000018D900087FB504460D4601215D
:10576000064A201D04F123038DE825000391044A15
:1057700019462046FFF726FF04B070BD92D80008F6
:105780008CD800082DE9F04104460E46174698468D
:10579000756800BF94F82200062808D000BF0EA349
:1057A00040F2A312164917A0FFF71CF800BF00BF74
:1057B000D8F800002860B8F80400A8803868C5F858
:1057C0000600B88868810820A88131462046A26971
:1057D0009047BDE8F08100002E2E5C4C5749505C8C
:1057E0006C7769702D312E342E315C7372635C6E70
:1057F000657469665C6574686172702E6300000090
:1058000018D90008417373657274696F6E20222580
:105810007322206661696C6564206174206C696E16
:105820006520256420696E2025730D0A00000000A4
:1058300070B500243DE004EB84001F4901EB8000BB
:10584000857C25B304EB840001EB8000C07C401C08
:1058500004EB8401184A02EB8101C87404EB840054
:10586000114601EB8000C07CF0280DDA04EB8400C7
:1058700001EB8000807C01280AD104EB840001EB5D
:105880008000C07C022803DB2046FFF7BFFB0EE050
:1058900004EB8400084901EB8000807C032806D1DA
:1058A000022004EB8401044A02EB81018874601C2D
:1058B000C4B20A2CBFDB70BDD8B902202DE9F04775
:1058C00006460D461746984600BF96F82200062861
:1058D00008D000BF2CA340F2C31235A13EA0FEF7B2
:1058E00081FF00BF00BF5DB1286848B1314628681C
:1058F00000F028FC20B9287800F0F000E02803D15F
:105900006FF00D00BDE8F08741462846FFF714FA16
:105910000446002C01DA2046F4E7022004EB84015F
:10592000384A02EB8101887404EB8400114601EBD4
:105930008000866004EB840001EB80003968C16060
:10594000B9880182002004EB840102EB8101C87454
:1059500004EB8400114651F8200098B104EB840058
:1059600051F82090002004EB840142F821003B46CE
:1059700006F1230249463046FFF704FF484603F08C
:1059800069FC00BF0020BDE72E2E5C4C5749505CDF
:105990006C7769702D312E342E315C7372635C6EBE
:1059A000657469665C6574686172702E63000000DE
:1059B0006E657469662D3E6877616464725F6C65BC
:1059C0006E203D3D204554484152505F4857414468
:1059D00044525F4C454E0000417373657274696FA9
:1059E0006E2022257322206661696C6564206174D3
:1059F000206C696E6520256420696E2025730D0A70
:105A000000000000D8B902202DE9F04104460E46FE
:105A10004FF00E0860890E2800DC52E06568AF89FF
:105A2000287800F00100B0B12878012809D1687801
:105A300088B9A8785E280ED1607B40F010006073B2
:105A400009E0062221492846FAF72BFC18B9607BA9
:105A500040F008006073082F03D0B7F5C16F2BD159
:105A60001DE096F8290000F0200000B929E0C8F1F7
:105A7000000001B2204603F0BFFC58B100BF00BFD8
:105A800013A340F24F521CA124A0FEF7ABFE00BFAF
:105A900000BF16E03146204600F0E6FC0DE096F827
:105AA000290000F0200000B90BE0224606F1230196
:105AB0003046FFF775F800E003E000BF0020BDE8C6
:105AC000F081204603F0C6FB0020F8E78CD80008E0
:105AD0002E2E5C4C5749505C6C7769702D312E34FA
