:020000040800F2
:1000000038C00220D5010008853F0008A939000842
:10001000813F000841050008055900080000000064
:100020000000000000000000000000004543000840
:10003000CD050008000000000F4000080144000842
:10004000EF010008EF010008EF010008EF010008D0
:10005000EF010008EF010008EF010008EF010008C0
:10006000EF010008EF010008EF010008EF010008B0
:10007000EF010008EF010008EF010008EF010008A0
:10008000EF010008EF010008EF010008EF01000890
:10009000EF010008EF010008EF010008250A000841
:1000A000EF010008EF010008EF010008EF01000870
:1000B000EF0100086D440008EF010008EF0100089F
:1000C000EF010008EF010008EF010008EF01000850
:1000D000EF010008EF010008EF010008EF01000840
:1000E000EF010008EF010008EF010008EF01000830
:1000F000EF010008EF010008EF010008EF01000820
:10010000EF010008EF010008EF010008EF0100080F
:10011000EF010008EF010008A9440008EF01000802
:10012000EF010008EF010008EF010008EF010008EF
:10013000EF010008D5060008EF010008EF010008F4
:10014000EF010008EF010008EF010008EF010008CF
:10015000EF010008EF010008EF010008EF010008BF
:10016000EF010008EF010008EF010008EF010008AF
:10017000EF010008EF010008EF0100080000000097
:10018000EF010008EF010008EF010008EF0100088F
:10019000EF010008EF010008EF010008EF0100087F
:1001A000EF010008EF010008EF010008DFF80CD0B4
:1001B00000F0A4F800480047B18F000838C00220C2
:1001C00080F308887047000030BF72B6704762B68F
:1001D000704700000648804706480047FEE7FEE7F4
:1001E000FEE7FEE7FEE7FEE7FEE7FEE7FEE7FEE7E7
:1001F00009440008AD0100082DE9F05F0546002024
:1002000092469B4688460646814640241BE0284687
:1002100041464746224600F060F853465A46C01A07
:10022000914110D311461846224600F047F82D1A86
:1002300067EB01084F4622460120002100F03EF8FE
:1002400017EB00094E41201EA4F10104DFDC4846F3
:1002500031462A464346BDE8F09F40EA01039B072A
:1002600003D009E008C9121F08C0042AFAD203E02B
:1002700011F8013B00F8013B521EF9D27047D2B28F
:1002800001E000F8012B491EFBD270470022F6E77F
:1002900010B513460A4604461946FFF7F0FF2046FC
:1002A00010BD30B504460020034600E05B1C9342BD
:1002B00003D2E05CCD5C401BF8D030BD202A04DBCB
:1002C000203A00FA02F1002070479140C2F1200369
:1002D00020FA03F3194390407047202A04DB203AA8
:1002E00021FA02F00021704721FA02F3D040C2F156
:1002F000200291400843194670470000064C074D04
:1003000006E0E06840F0010394E8070098471034E5
:10031000AC42F6D3FFF74EFF1CF300083CF3000895
:1003200070B58C1810F8015B15F0070301D110F8B7
:10033000013B2A1106D110F8012B03E010F8016BE4
:1003400001F8016B5B1EF9D12B0705D40023521E67
:100350000DD401F8013BFAE710F8013BCB1A921CCF
:1003600003E013F8015B01F8015B521EF9D5A142CD
:10037000D8D3002070BD000010B50446606800F0BE
:100380007F40B0F1006F63D100BF0420012806D088
:1003900002280BD0032810D004281CD114E045A05B
:1003A00005F0F4FA46A005F0F1FA1BE04DA005F0C7
:1003B000EDFA43A005F0EAFA14E04CA005F0E6FAE5
:1003C0003FA005F0E3FA0DE04AA005F0DFFA3CA0FB
:1003D00005F0DCFA06E04AA005F0D8FA38A005F0EE
:1003E000D5FA00BF00BF00BF4948006820F01000E8
:1003F00047490860C021474801F080F9252001F0F5
:1004000061FF3D2001F05EFF4148001F006820F0C1
:1004100002003F49091F08601D2001F053FF3C48BE
:10042000001F006820F010003949091F08603620BD
:1004300001F048FF012080F3108800BF6068364952
:1004400008602068FFF7BCFE3348006880472FE053
:1004500000BF0420012806D002280BD0032810D0AA
:1004600004281CD114E013A005F090FA2BA005F08D
:100470008DFA1BE01BA005F089FA28A005F086FA8A
:1004800014E01AA005F082FA24A005F07FFA0DE02E
:1004900018A005F07BFA21A005F078FA06E018A074
:1004A00005F074FA1DA005F071FA00BF00BF00BF8F
:1004B00010BD00005B4572726F725D3A0000000073
:1004C000426F6F744C6F6164206A756D7020746F39
:1004D000204170706C69636174696F6E202E2E2EDE
:1004E0000D0A00005B5741524E5D3A005B494E4693
:1004F0004F5D3A005B44454255475D3A00000000BD
:100500005B556E6B6E6F776E204D73675D3A0000C2
:10051000443802400004024084000020426F6F749F
:100520004C6F6164206A756D7020746F204170702B
:100530006C69636174696F6E204572720D0A000008
:1005400000BFFEE710B50E480E4908604FF48270F8
:10055000486000210B488160C160016141614FF436
:10056000007181612021C1610021016241628162CB
:100570000A21C16202F064FB642000F0DBFB10BDC5
:1005800000340140380D002010B50E480E490860B7
:100590004FF48270486000210B488160C1600161A6
:1005A00041614FF4007181610821C1610021016244
:1005B000416281620A21C16202F042FB642000F0C4
:1005C000B9FB10BD00340140380D00207047000019
:1005D00010B50C480C4908604FF4E1304860002128
:1005E00009488160C16001610C2141610021816184
:1005F000C16103F0E2F818B1192104A005F084F9F3
:1006000010BD000000100140380C00202E2E5C535D
:10061000595354454D5C75736172745C75736172A6
:10062000742E630010B506223021024803F0D4F97D
:1006300010BD00008D00002010B501220A210248E3
:1006400003F0B4F910BD000093000020016801F52B
:100650008051896941F00202016801F580518A6187
:100660007047016801F58051896941F400520168C1
:1006700001F580518A61704738B50446002000902A
:10068000206800F58050806940F48011206800F5F2
:1006900080508161206800F58050806900900120C1
:1006A00000F048FB0099206800F58050816138BD5A
:1006B000014600200A6802F0004252B90A6802F4BA
:1006C000004232B90A6802F4807212B10A68C2F3B9
:1006D0000D40704710B501E008F032FC0949886A06
:1006E000FFF7E6FF0028F7D14FF480310548006896
:1006F00000F58050416140210248006800F58050BB
:10070000416110BD780C002030B50346147955794D
:1007100044EA0520084C0C442064D47824069578DB
:1007200044EA0544557844EA0524157844EA05006E
:10073000014C0C44606430BD0080024070B5AEB026
:1007400004460E46002526B14FF40061E160C90061
:10075000A1600020119012901390149015901690A3
:10076000E06918B94FF48060179001E000201790FD
:100770004FF400701890002019901A901B901C9054
:100780001D9040201E9000201F90209021902290CC
:100790002390249025902690802027900020289058
:1007A00029902A902B902C902D90206805687148F4
:1007B0000540DDE9110108431399084314990843E2
:1007C000A16808431599084316990843E16808434E
:1007D0001799084318990843199908431A99084327
:1007E0001B990843054320680560206805680120BF
:1007F00000F0A0FA20680560DDE91C0108431E999D
:1008000008431F99084320990843219908432299D6
:1008100008432399084321684860206845680120FF
:1008200000F088FA2068456024982168886025983F
:100830002168C860206885694FF641700540DDE990
:10084000261040EA014028990843299908432A992B
:1008500008432B9908430543206885612068856912
:10086000012000F067FA20688561DDE92C0108436A
:100870002168C8612068C569012000F05BFA206822
:10088000C561002001904FF000700290002003909D
:100890004FF40010049000200590069007900890F7
:1008A00004200990C0050A9040120B9080010C9022
:1008B00040120D9080200E9000200F901090206824
:1008C00000F5805085692C480540DDE901010843A9
:1008D0000399084304990843059908430699084376
:1008E0000799084308990843099908430543206874
:1008F00000F580508561206800F5805085690120F1
:1009000000F018FA206800F580508561DDE90A01E1
:1009100008430C9908430D9908430E9908430F9911
:1009200040EA81001099084340F40001206800F576
:1009300080500160206800F580500568012000F0BB
:10094000F9F9206800F580500560A069012809D1F7
:10095000206800F58050C06908490843216801F506
:100960008051C861002120466269FFF7CDFE2EB09C
:1009700070BD00000F8120FF233FDEF84000010022
:1009800038B50446002000902068006840F004005C
:1009900021680860206800680090012000F0CAF912
:1009A00000982168086038BD38B5044600200090E2
:1009B0002068006840F0080021680860206800682E
:1009C0000090012000F0B6F900982168086038BD59
:1009D00010B54FF4A071002009F0DAF90D49086054
:1009E000A021002009F0D4F90B49086043F68831B2
:1009F000002009F0CDF90949086041F6C4510020F2
:100A000009F0C6F90649086000BF00BF00BF00BF7B
:100A1000002010BDA0000020A4000020A80000209D
:100A2000AC00002010B54FF4007000F043FF10BD83
:100A300010B5002201B909E0012901D10A0205E03F
:100A4000022901D10A0201E04FF440720B2800D9BB
:100A5000001D114B1B6823F440730F4C2360234689
:100A60001B681343236023461B6823F0F8032360AD
:100A700023461B68F82494FAA4F4B4FA84F400FA28
:100A800004F444F002042343034C236023461B6810
:100A900043F48033236010BD103C02401C480068C2
:100AA00000F40070B0B11A48006820F400701849D2
:100AB000086000BF0846006840F40060086008460F
:100AC000006820F40060086000BF0846006840F439
:100AD000007008600E48006800F48060B0B10C48F7
:100AE000006820F480600A49086000BF084600687A
:100AF00040F4805008600846006820F48050086088
:100B000000BF0846006840F480600860704700003D
:100B1000003C024010B502460020144B1B6823F431
:100B20004073124C236023461B6803432360032950
:100B300006D123461B68E41323430C4C23600EE0CC
:100B4000012906D1094B1B6843F00403074C2360BD
:100B500005E0064B1B6843F40043044C2360034B41
:100B60001B6843F48033014C236010BD103C0240ED
:100B7000074A126822F44072054B1A601A4612683E
:100B80001A601A46126842F001021A60017070473A
:100B9000103C024010B50949096821F44071074C26
:100BA00021602146096841F44071216021460968AD
:100BB00041F0010121600260436010BD103C024021
:100BC000084A126822F44072064B1A601A461268EC
:100BD00042F480721A601A46126842F001021A60EA
:100BE00001807047103C0240084A126822F44072AB
:100BF000064B1A601A46126842F400721A601A46CE
:100C0000126842F001021A6001607047103C024015
:100C10002A480068C0F3001040B12948C06940F07C
:100C200010002749C8611020244908602348006843
:100C3000C0F3401040B12248C06940F0080020498C
:100C4000C86120201D4908601C480068C0F380105E
:100C500040B11B48C06940F004001949C8614020F8
:100C60001649086015480068C0F3C01040B1144828
:100C7000C06940F002001249C86180200F49086035
:100C80000E480068C0F3002048B10D48C06940F02C
:100C900001000B49C8614FF480700849086007489B
:100CA0000068C0F3400040B10548C06940F0200032
:100CB0000349C86102200149086070470C3C0240AA
:100CC000180C002070B50446002500201749C861A3
:100CD00000F01EFF054609E0601C38B124B100F0A9
:100CE00017FF401BA04201D9032070BD10480068C7
:100CF000C0F300400028EFD10D48006800F001006B
:100D000010B101200A4908600948006800F4F97030
:100D1000B0F5F97F01D1012000E0002018B1FFF704
:100D200077FF0120E1E70020DFE70000180C00203A
:100D30000C3C024031B5002400F0EAFE044600BF3E
:100D400000F0E6FE001B00998842F9D338BD70B56B
:100D500004460D461646002200BF94F845000128BF
:100D600001D1022070BD012084F8450000BF02209F
:100D700084F84400A56200221FE005EB42114FF009
:100D80000040086044F2F4504860C2EBC21000EB2F
:100D9000400006EB80008860A069012803D1486804
:100DA00020F000404860581E904204D905EB4210E4
:100DB0002030C86000E0CD60521C9A42DDD320682C
:100DC00000F58050C560012084F8440000BF002079
:100DD00084F8450000BF00BFC4E770B504460D4667
:100DE0001646002200BF94F84500012801D10220D8
:100DF00070BD012084F8450000BF022084F8440043
:100E0000E56200221BE005EB42114FF48010086000
:100E1000C2EBC21000EB400006EB80008860E06986
:100E200018B9086840F440000860581E904204D980
:100E300005EB42102030C86000E0CD60521C9A42A1
:100E4000E1D3206800F580500561012084F844005A
:100E500000BF002084F8450000BF00BFC8E701467E
:100E6000002200BF91F84500012801D102207047FF
:100E7000012081F8450000BF022081F84400886A03
:100E8000006800F00040002838D1886A006800F44B
:100E90008070F0B1886B401C8863886B012801D199
:100EA000886A08638B6A4B63886A0068C0F30D40E8
:100EB000021FCA63086B83680B64886AC068886213
:100EC000012081F8440000BF002081F8450000BFE8
:100ED000CDE7886A006800F4007048B1886A08634A
:100EE00000234B6301238B63886AC068886205E036
:100EF000886B401C8863886AC0688862012081F81A
:100F0000440000BF002081F8450000BF0120AEE78B
:100F10002DE9FC410446002500200190924E002757
:100F2000804614B90120BDE8FC8194F8440028B93A
:100F3000002084F84500204600F024F900BF00207E
:100F400000908A48006840F480408849086008465C
:100F5000006800F48040009000BF00BF8448006833
:100F600020F400008249086008460068216A0843AE
:100F70007F490860206800F58050006840F001015A
:100F8000206800F58050016000BF206800F58050A7
:100F9000006800F001000028F7D12068056925F0FD
:100FA0001C0501F0A7FB06467248864205D372482D
:100FB000864202D245F008051AE06F48864205D302
:100FC0006948864202D245F00C0511E06648864227
:100FD00003D36A48864200D20AE06848864205D3B5
:100FE0006748864202D245F0040501E045F010054D
:100FF000206805614FF400420021204600F071FA9C
:1010000048B14FF0010841462046FFF797FB012009
:1010100084F8440087E7FF20FFF78CFE6068002813
:101020007ED000F075FD074600BF01AA01212046D1
:1010300000F046F900F06CFDC01BB0F5FA6F0FD957
:101040004FF0010841462046FFF778FB012084F865
:10105000440000BF002084F8450000BF032062E781
:10106000019800F004000428DFD18202002120460C
:1010700000F037FA48B14FF0010841462046FFF72B
:101080005DFB012084F844004DE700F041FD074678
:1010900000BF01AA0121204600F012F900F038FD3E
:1010A000C01BB0F57A7F0FD94FF0010841462046AA
:1010B000FFF744FB012084F8440000BF002084F8BF
:1010C000450000BF03202EE7019800F020002028F3
:1010D000DFD101AA1F21204600F0F2F848B14FF0FD
:1010E000010841462046FFF729FB012084F844000F
:1010F00019E7019800F0100020B14FF40061E160A1
:1011000002E00DE00021E160019800F004000428F5
:1011100002D10021A1601DE04FF48041A16019E0DF
:10112000E068C0F3CF00A168C1F34F0140EA0102BB
:101130000021204600F0D5F948B14FF001084146A2
:101140002046FFF7FBFA012084F84400EBE6FF207D
:10115000FFF7F0FD41462046FFF7F0FA012084F842
:1011600044000020DFE6000000879303443802407B
:1011700004380140002D3101C00E160200E1F505D2
:1011800080D1F00810B586B0044600BF00BF002033
:1011900000904748006840F00070454908600846E4
:1011A000006800F00070009000BF00BF00BF00208A
:1011B00000900846006840F08060086008460068BB
:1011C00000F08060009000BF00BF00BF00200090D2
:1011D0000846006840F0006008600846006800F0BB
:1011E0000060009000BF00BF00BF00BF0020009063
:1011F0000846006840F0010008600846006800F0FA
:101200000100009000BF00BF00BF00200090084612
:10121000006840F0020008600846006800F0020024
:10122000009000BF00BF00BF00200090084600688B
:1012300040F0040008600846006800F004000090D8
:1012400000BF00BF082001900120029003900320FE
:10125000049001A9174800F03BFB01220821154822
:1012600000F050FC862001900220029000200390A4
:10127000032004900B20059001A90E4800F028FBE4
:101280004FF46050019001A90B4800F021FB32207F
:10129000019001A9094800F01BFB002201213D201B
:1012A00001F02BF83D2001F01BF806B010BD000046
:1012B00030380240000002400004024000080240B2
:1012C0002DE9F04104460E4617460025A84694F83D
:1012D0004400822802D10220BDE8F081822084F8F7
:1012E00044002068056905F01C05208A4FF4784108
:1012F00001EAC0200543481100EA8610054325F0A5
:10130000020545F001052068056100F001FC8046FA
:1013100012E000F0FDFBA0EB0800B0F5803F09D320
:10132000012084F8440000BF002084F8450000BF7D
:101330000320D1E72068056905F001000028E8D105
:101340002068406980B23860012084F844000020A1
:10135000C2E710B5044600BF94F84500012801D14A
:10136000022010BD012084F8450000BF022084F84F
:1013700044002046FFF718FB2046FFF701FB2046FC
:10138000FFF77AF92046FFF76CF92046FFF75EF980
:10139000012084F8440000BF002084F8450000BF0D
:1013A00000BFDEE770B5024600230025002400BF21
:1013B00092F84500012801D1022070BD012082F879
:1013C000450000BF022082F8440049B9012082F89C
:1013D000440000BF002082F8450000BF0120ECE778
:1013E000D06A006800F0004048B1122082F8440042
:1013F00000BF002082F8450000BF0120DDE740F279
:10140000F450814208D9B1FBF0F3B1FBF0F600FBD8
:10141000161010B15B1C00E00123012B13D1D06A20
:10142000006840F04050D66A3060C1F30C00D66AC4
:101430007060D06A006840F00040D66A3060D06AC0
:10144000C068D06232E000242EE0D06A006820F04C
:101450004050D66A30602CB9D06A006840F08050A5
:10146000D66A306040F2F450D66A7060581EA042CE
:1014700010D1D06A006840F00050D66A3060581E23
:10148000C0EBC01000EB4000A1EB8005C5F30C00E1
:10149000D66A7060D06A006840F00040D66A30605A
:1014A000D06AC068D062641C9C42CED3106800F53C
:1014B0008050406900F0040048B10426106800F52F
:1014C000805046610026106800F58050466001207B
:1014D00082F8440000BF002082F8450000BF00BF32
:1014E0006BE72DE9F04104460E4617460025A84655
:1014F00094F84400422802D10220BDE8F081422045
:1015000084F844002068056905F01C05208A4FF422
:10151000784101EAC0200543481100EA86100543DE
:1015200045F0020545F00105B8B221684861206820
:10153000056100F0EDFA804612E000F0E9FAA0EB58
:101540000800B0F5803F09D3012084F8440000BFB3
:10155000002084F8450000BF0320CEE7206805691D
:1015600005F001000028E8D1012084F844000020A3
:10157000C3E700002DE9F04104460E46012700258F
:1015800000BF2648007E012802D10220BDE8F0817C
:1015900001202249087600BF4CF25030FFF792FB41
:1015A0000746002F32D1401E30602068012810D13C
:1015B000207C6168FFF7AEFA4CF25030FFF782FBF7
:1015C00007461748006848F2040188431449086038
:1015D0001AE0A56812E0217C2846FFF729FA4CF2B0
:1015E0005030FFF76FFB07460D48006820F0FA0007
:1015F0000B4908600FB1356005E06D1CD4E902109D
:101600000844A842E7D800BFFFF748FA00BF00200F
:101610000249087600BF3846B8E70000180C0020E1
:10162000103C02400348006840F000400149086057
:1016300000207047103C02402DE9F04106460F465D
:1016400014461D464FF0010800BF1F48007E0128C8
:1016500002D10220BDE8F08101201B49087600BFBD
:101660004CF25030FFF72EFB8046B8F1000F23D12B
:1016700026B9E1B23846FFF77BFA12E0012E04D119
:10168000A1B23846FFF79CFA0BE0022E04D12146A6
:101690003846FFF7A9FA04E022462B463846FFF702
:1016A00079FA4CF25030FFF70DFB8046074800688E
:1016B00020F001000549086000BF002002490876BB
:1016C00000BF4046C6E70000180C0020103C024056
:1016D0000748006800F0004030B1064804490C3962
:1016E00008600548086001E0012070470020FCE721
:1016F000103C024023016745AB89EFCDF0B50C46A5
:1017000000250022002300219CE0012606FA01F5B5
:1017100004EA0502AA427DD106684FEA410C03277C
:1017200007FA0CF7BE430660CF0800F1200656F812
:1017300027604F074FEAD76C0F2707FA0CF7BE4315
:101740004FEAD10C00F1200747F82C6086684FEA79
:10175000410C032707FA0CF7BE4386604768012651
:101760008E40B7434760C6684FEA410C032707FA2B
:101770000CF7BE43C660354E8F0856F827308E07EB
:10178000370F0F26BE403340314EB04201D1002604
:101790002DE0304EB04201D1012628E02E4EB0425D
:1017A00001D1022623E02D4EB04201D103261EE0D6
:1017B0002B4EB04201D1042619E02A4EB04201D18D
:1017C000052614E0284EB04201D106260FE0274E30
:1017D000B04201D107260AE0254EB04201D10826C9
:1017E00005E0244EB04201D1092600E00A268F0709
:1017F0003F0FBE409E4224D18E07370F0F2606FAB8
:1018000007F3124E8F0856F827609E430F4F4FEA9A
:10181000910C00E015E047F82C60174E36689643AF
:10182000154F3E603E1D366896433F1D3E603E1D8F
:10183000366896433F1D3E603E1D366896433F1D09
:101840003E60491C1029FFF460AFF0BD083801402C
:10185000000002400004024000080240000C024068
:10186000001002400014024000180240001C024018
:101870000020024000240240003C014010B5044614
:10188000B4F5807F0FD0B4F5007F0DD100BF0848BC
:10189000006804F0C7FB04F0EFFA0028F7D1172026
:1018A00000F002FD01E000E000BF00BF10BD00003D
:1018B0008801002010B5044604480068204020B18B
:1018C000024804602046FFF7D9FF10BD143C0140D8
:1018D000F8B502460B460025002400200021E6E072
:1018E000012606FA01F51E6806EA0504AC4273D12A
:1018F0005E68022E02D05E68122E13D1CF0802F16C
:10190000200656F827004E07F70E0F26BE40B043BC
:101910004F07FF0E1E69BE403043CF0802F120067C
:1019200046F8270010684F000326BE40B0431E79DA
:1019300006F003064F00BE40304310605E68012E83
:1019400008D05E68022E05D05E68112E02D05E6857
:10195000122E13D190684F000326BE40B0434F00B3
:10196000DE68BE4030439060506801268E40B04330
:101970001E79C6F300168E4030435060D0684F0089
:101980000326BE40B0434F009E68BE403043D06047
:101990005E6806F08056B6F1805FA8D100BF0026D1
:1019A0000096454E366846F48046434F3E603E46BC
:1019B000366806F48046009600BF00BF3F4E8F0891
:1019C00056F827008E07370F0F26BE40B0433C4E17
:1019D000B24202D100262EE068E03A4EB24201D176
:1019E000012628E0384EB24201D1022623E0374ECC
:1019F000B24201D103261EE0354EB24201D1042687
:101A000019E0344EB24201D1052614E0324EB24202
:101A100001D106260FE0314EB24201D107260AE07D
:101A20002F4EB24201D1082605E02E4EB24201D11E
:101A3000092600E00A268F073F0FBE4030431F4EA5
:101A40008F0846F82700284E3068A0435E6806F4E9
:101A50008036B6F5803F00D12043234E3060361DDE
:101A60003068A0435E6806F40036B6F5003F00D14A
:101A700020431D4E361D3060361D3068A0435E6821
:101A800006F48016B6F5801F00D12043164E0836A6
:101A90003060361D3068A0435E6806F40016B6F567
:101AA000001F00D12043104E0C363060491C102915
:101AB000FFF416AFF8BD000044380240083801407A
:101AC000000002400004024000080240000C0240F6
:101AD000001002400014024000180240001C0240A6
:101AE0000020024000240240003C014002461369ED
:101AF0000B400BB1012000E00020704742694A40D2
:101B0000426170470AB1816101E00B048361704753
:101B100001480068704700009800002010B5024698
:101B20000B46002192F83510022903D0122901D06A
:101B3000222901D1022010BD022082F83500106850
:101B4000006820F00100146820601068406A20F0EE
:101B50001000146860621068406A1843146860627C
:101B60001068006840F0010014682060012082F8CD
:101B700035000020DFE7014691F83500704700008E
:101B800070B50446002600250CB9012070BD94F8FC
:101B9000350028B9002084F83400204600F0ECFA23
:101BA000022084F835002068006820F001002168D8
:101BB000086000F0BBFD05463748B5FBF0F620682D
:101BC000466036496068884201D8701C07E04FF4CF
:101BD000967070434FF47A71B0FBF1F0401C2168AD
:101BE00008622E49606888420ED860684000B5FBE4
:101BF000F0F0C0F30B00042801D204202DE060684F
:101C00004000B5FBF0F028E0A06828B9606800EB60
:101C10004000B5FBF0F008E0606800EBC00101EBAC
:101C20000010B5FBF0F040F48040C0F30B0008B9A1
:101C3000012012E0A06828B9606800EB4000B5FB05
:101C4000F0F008E0606800EBC00101EB0010B5FBAC
:101C5000F0F040F4804040F400402168C861D4E9CD
:101C60000701084321680860D4E90310084321688C
:101C70008860D4E9050108432168C86020680068CD
:101C800040F00100216808600020A063012084F872
:101C9000350000207AE7000040420F00A0860100D6
:101CA0002DE9FC5F04460E4617461D464FF000081E
:101CB000C146C246C3460120019094F83500012870
:101CC0007ED142F2107301225849204602F042F8B8
:101CD00010B10220BDE8FC9F00BF94F83400012839
:101CE00001D10220F6E7012084F8340000BF20680B
:101CF000006820F4006021680860022084F8350044
:101D00000020A06300BF2068006840F48070216854
:101D100008602B4600224FF00111204602F01AF80D
:101D200008B10320D6E706F0FE0021680861FFF73E
:101D3000EFFE804620684069C0F340092068406992
:101D4000C0F3802A94F835B013E02DB1FFF7E0FE20
:101D5000A0EB0800A84202D9032084F835002068CF
:101D60004069C0F3400920684069C0F3802A94F8B4
:101D700035B0B9F1000F05D1BAF1000F02D1BBF1B6
:101D8000030FE2D1012084F8350020684069C0F3D8
:101D9000400028B32068006840F4007021680860A3
:101DA00000BF002000902068406900902068806992
:101DB000009000BF00BF42F2107301221B4900E0F7
:101DC00032E0204601F0C6FF08B1032082E701207F
:101DD00084F8350000BF002084F8340000BF79E7A4
:101DE0002068006840F40070216808606FF480602B
:101DF0002168486142F2107301220C49204601F02B
:101E0000A9FF08B1032065E70198411C0191B84280
:101E1000FFF479AF012084F8350000BF002084F87A
:101E2000340000BF012055E7022053E702001000F4
:101E30002DE9F84F0446884691469A460AADE0CD12
:101E400094F83500012870D105B116B90120BDE81C
:101E5000F88F42F2107301228149204601F07AFF87
:101E600008B10220F3E700BF94F83400012801D143
:101E70000220ECE7012084F8340000BF20680068ED
:101E800020F4006021680860422084F835000020BA
:101E9000A06353464A4641462046009701F074FE2F
:101EA00080B1A06B042806D100BF002084F8340064
:101EB00000BF0120CBE700BF002084F8340000BF42
:101EC0000320C4E7012E17D12068006820F4806049
:101ED0002168086000BF00200090206840690090E1
:101EE00020688069009000BF00BF2068006840F44F
:101EF00000702168086024E0022E17D12068006875
:101F000020F48060216808602068006840F4006068
:101F10002168086000BF00200090206840690090A0
:101F200020688069009000BF0BE097E000BF0020B0
:101F3000009020684069009020688069009000BF90
:101F400000BF7FE0032E63DC012E0FD13B46002251
:101F50004449204601F0FEFE08B1032077E72068DF
:101F6000006905F8010B701E86B26BE0022E1CD1D1
:101F70003B4600223B493C39204601F0EBFE08B1CC
:101F8000032064E72068006840F40070216808605E
:101F90002068006905F8010B701E86B22068006990
:101FA00005F8010B701E86B24CE03B4600222D491D
:101FB0003C39204601F0CEFE08B1032047E72068F7
:101FC000006820F48060216808602068006905F8D6
:101FD000010B701E86B23B46002222493C39204646
:101FE00001F0B8FE08B1032031E72068006840F432
:101FF0000070216808602068006905F8010B701EF8
:1020000086B22068006905F8010B701E86B219E0DF
:102010003B4600221349204601F09CFE08B10320F4
:1020200015E72068006905F8010B701E86B220686C
:102030004069C0F3800028B12068006905F8010BF1
:10204000701E86B2002E3FF77DAF012084F8350068
:1020500000BF002084F8340000BFF8E60220F6E656
:1020600002001000400001002DE9F84F04468846A8
:1020700091469A460AADE0CD94F83500012874D116
:1020800005B116B90120BDE8F88F42F210730122A4
:102090003749204601F05EFE08B10220F3E700BF99
:1020A00094F83400012801D10220ECE7012084F8E3
:1020B000340000BF2068006820F4006021680860D8
:1020C000322084F835000020A06353464A4641463A
:1020D0002046009701F0E4FD80B1A06B042806D1F2
:1020E00000BF002084F8340000BF0120CBE700BF10
:1020F000002084F8340000BF0320C4E71AE03B4608
:1021000000221C49204601F025FE08B10320BAE751
:1021100015F8010B21680861701E86B220684069BD
:10212000C0F3800030B12EB115F8010B21680861B1
:10213000701E86B2002EE2DC3B4600220D4920468E
:1021400001F008FE08B103209DE72068006840F414
:10215000007021680860012084F8350000BF00206D
:1021600084F8340000BF8EE7FFE702208BE7000011
:10217000020010008000010010B586B0044600BFC8
:10218000002000902948006840F0020027490860BC
:102190000846006800F00200009000BF00BF00BFCA
:1021A000002000900846006840F0020008600846E1
:1021B000006800F00200009000BF00BF00BF0020D8
:1021C00000901A481030006840F400101749103190
:1021D00008600846006800F40010009000BF00BFCF
:1021E0008815019012200290002003900220049094
:1021F0000420059001A90E48FFF76AFB4FF4007018
:1022000001900420059001A90948FFF761FB0748E8
:102210001038006840F4001004491039086008467E
:10222000006820F40010086006B010BD303802408D
:102230000004024002480068401C014908607047E1
:102240009800002010B50D48006840F400700B495C
:1022500008600846006840F480600860084600682E
:1022600040F480700860052000F086F80F2000F030
:1022700007F800F017F8002010BD0000003C0240F5
:1022800070B5044600F036FA4FF47A71B0FBF1F500
:10229000284601F02FF900222146501E00F02DF8AB
:1022A000002070BD7047000000BF00F01F02012138
:1022B0009140034A430942F8231000BF70470000D1
:1022C00080E200E000BF00F01F0201219140034ABC
:1022D000430942F8231000BF7047000080E100E08E
:1022E00000BF00F01F02012191404209920002F15B
:1022F000E022C2F8001100BF70472DE9F05F804670
:102300000D461646002701F03FFE074639462A468D
:10231000334601F00700C0F1070ABAF1040F02D9F1
:102320004FF0040A01E0C0F1070AD14600F1040AA7
:10233000BAF1070F02D24FF0000A01E0A0F1030A40
:10234000D4464FF0010A0AFA09FAAAF1010A0AEA88
:10235000020A0AFA0CFA4FF0010B0BFA0CFBABF174
:10236000010B0BEA030B4AEA0B042146404601F03D
:1023700013FEBDE8F09F000000BF00F00702064B0F
:1023800019684FF6FF031940044B0B4343EA02213F
:10239000014B196000BF70470CED00E00000FA052A
:1023A00038B5002400BF002000902348006840F0AA
:1023B0008050214908600846006800F08050009075
:1023C00000BF00BF0120010491FAA1F1B1FA81F12F
:1023D0001A4A42F82100FFF79BFB044607E0FFF78B
:1023E00097FB001BB0F57A7F01D9032038BD144854
:1023F000406800F48030B0F5803FF0D10120410406
:1024000091FAA1F1B1FA81F10C4A42F82100FFF7EB
:102410007FFB044607E0FFF77BFB001BB0F57A7FEC
:1024200001D90320E2E70648406800F40030B0F527
:10243000003FF0D10020D9E74038024000000E42B2
:102440000070004070B504460E460025A74800689D
:1024500000F00F00B0426FD2A4490E700846006829
:1024600000F00F00B04201D0012070BD207800F0D4
:102470000200022807D19E48006820F0F000A16801
:1024800008439B490860207800F0010000283ED0F6
:102490006068012807D1964808380068C0F34040BA
:1024A000B8B90120E1E76068022802D0606803281B
:1024B00007D18F4808380068C0F3406048B9012050
:1024C000D3E78B4808380068C0F3400008B9012002
:1024D000CBE78748006820F003006168084384491F
:1024E0000860FFF715FB05466068012810D108E079
:1024F000FFF70EFB401B41F28831884201D90320CF
:10250000B3E77B48006800F00C000428F0D1CDE070
:102510006068022811D108E0FFF7FAFA401B41F287
:102520008831884201D903209FE77148006800F094
:102530000C000828F0D1B9E024E06068032810D12D
:1025400008E0FFF7E5FA401B41F28831884201D9E3
:1025500003208AE76648006800F00C000328F0D1E9
:10256000A4E008E0FFF7D4FA401B41F2883188422A
:1025700001D9032079E75E48006800F00C000028CC
:10258000F0D193E0207800F00200022807D15848EB
:10259000006820F0F000A1680843554908602078E1
:1025A00000F00100002877D06068012807D150486A
:1025B00008380068C0F34040B8B9012055E76068AA
:1025C000022802D06068032807D14948083800680B
:1025D000C0F3406048B9012047E745480838006823
:1025E000C0F3400008B901203FE74148006820F0EF
:1025F0000300616808433E490860FFF789FA054611
:102600006068012810D108E0FFF782FA401B41F210
:102610008831884201D9032027E73548006800F057
:102620000C000428F0D137E06068022810D108E0DF
:10263000FFF76EFA401B41F28831884201D903202E
:1026400013E72B48006800F00C000828F0D123E0C5
:102650006068032810D108E0FFF75AFA401B41F2E6
:102660008831884201D90320FFE62148006800F044
:102670000C000328F0D10FE008E0FFF749FA401BF7
:1026800041F28831884201D90320EEE618480068FB
:1026900000F00C000028F0D114490E7008460068C4
:1026A00000F00F00B04201D00120DEE6207800F0FB
:1026B0000400042807D10E48006820F4E050E168C7
:1026C00008430B490860207800F00800082808D16A
:1026D0000748006820F46040216940EAC1000449CD
:1026E00008600F20FFF7CCFD0020BEE6003C024052
:1026F0000838024010B500F045F80949096801F0B2
:10270000F001F02292FAA2F2B2FA82F2D140054A26
:10271000515CC840044908600846006810BD0000CC
:102720000838024020F100080000002010B5FFF733
:10273000E1FF0749096801F4E0514FF4E05292FAD1
:10274000A2F2B2FA82F2D140024A515CC84010BDF6
:102750000838024020F1000810B5FFF7CBFF074909
:10276000096801F460414FF4604292FAA2F2B2FAB1
:1027700082F2D140024A515CC84010BD0838024084
:1027800020F1000870B50021002200230020274C12
:10279000246804F00C0424B1042C04D0082C41D18A
:1027A00003E0234840E023483EE0204C241F2468F7
:1027B00004F03F011D4C241F246804F4800484B1FC
:1027C0001C4CB4FBF1F5194C241F246847F6C07665
:1027D000344096FAA6F6B6FA86F6F44005FB04F203
:1027E0000FE0134CB4FBF1F5104C241F246847F69E
:1027F000C076344096FAA6F6B6FA86F6F44005FBA3
:1028000004F20A4C241F246804F440344FF4403589
:1028100095FAA5F5B5FA85F5EC40641C6300B2FBAA
:10282000F3F001E0024800BF00BF70BD083802406D
:102830000024F40040787D0138B504460025207856
:1028400000F00100002866D0F748006800F00C0096
:1028500004280DD0F448006800F00C00082813D1BB
:10286000F148001F006800F48000B0F5800F0BD124
:10287000ED4808380068C0F3404000284BD060683D
:10288000002848D1012038BD0020E749891F087081
:10289000FFF73EF9054608E0FFF73AF9401B41F221
:1028A0008831884201D90320EDE7DF480838006805
:1028B000C0F340400028EFD12079DB49891F087020
:1028C0006068A0B1FFF724F9054608E0FFF720F99A
:1028D000401B41F28831884201D90320D3E7D24816
:1028E00008380068C0F340400028EFD013E0FFF73D
:1028F0000FF9054608E0FFF70BF9401B41F288315C
:10290000884201D90320BEE7C74808380068C0F3F1
:1029100040400028EFD1207800F00200022869D161
:10292000C148006800F00C0058B1BF48006800F0D2
:102930000C00082821D1BC48001F006800F480006A
:10294000D8B9B94808380068C0F3400020B1E06841
:10295000012801D0012096E7B3480838006820F02C
:10296000F800F82292FAA2F2B2FA82F221699140BA
:102970000843AD49083908603CE0E06828B301200D
:10298000AA490860FFF7C4F8054606E0FFF7C0F85B
:10299000401B642801D9032075E7A3480838006864
:1029A000C0F340000028F1D09F480838006820F0AC
:1029B000F800F82292FAA2F2B2FA82F2216991406A
:1029C000084399490839086014E0002097490860D5
:1029D000FFF79EF8054606E0FFF79AF8401B6428CB
:1029E00001D903204FE7904808380068C0F3400041
:1029F0000028F1D1207800F0080008282CD1606967
:102A0000A8B101208A490860FFF782F8054606E070
:102A1000FFF77EF8401B642801D9032033E7824882
:102A20006C300068C0F340000028F1D014E00020B2
:102A30007F490860FFF76CF8054606E0FFF768F885
:102A4000401B642801D903201DE777486C300068DB
:102A5000C0F340000028F1D1207800F004000428E1
:102A60006FD100BF002000906F483830006840F000
:102A700080506D49383108600846006800F0805089
:102A8000009000BF00BF6B48006840F48070694947
:102A90000860FFF73DF8054606E0FFF739F8401BF0
:102AA000642801D90320EEE66248006800F48070D3
:102AB0000028F2D000205C4968310870FFF728F840
:102AC000054608E0FFF724F8401B41F288318842B0
:102AD00001D90320D7E6544868300068C0F34000AD
:102AE0000028EFD1207A504968310870A068A0B161
:102AF000FFF70EF8054608E0FFF70AF8401B41F221
:102B00008831884201D90320BDE647486830006813
:102B1000C0F340000028EFD013E0FEF7F9FF0546B0
:102B200008E0FEF7F5FF401B41F28831884201D9E9
:102B30000320A8E63C4868300068C0F34000002845
:102B4000EFD1A069F0B33848006800F00C00082805
:102B500072D0A069022850D1002034490866FEF7DF
:102B6000D7FF054606E0FEF7D3FF401B642801D9D6
:102B7000032088E62C4808380068C0F3406000282D
:102B8000F1D1D4E90701084347F6C07292FAA2F2E4
:102B9000B2FA82F2616A914008430122A16AC2EB53
:102BA00051014FF4403292FAA2F2B2FA82F291400D
:102BB00008434FF0706292FAA2F2B2FA82F2E16A2E
:102BC000914000E03AE008431749091F08600120DE
:102BD00016490866FEF79CFF054606E0FEF798FFDB
:102BE000401B642801D903204DE60F4808380068CF
:102BF000C0F340600028F1D020E000200B490866B7
:102C0000FEF786FF054606E0FEF782FF401B6428BC
:102C100001D9032037E6044808380068C0F3406053
:102C20000028F1D10AE007E00838024000004742DE
:102C3000800E474200700040012024E6002022E67A
:102C400010B504460CB9012010BD94F8510028B904
:102C5000002084F85000204600F036F8022084F866
:102C600051002068006820F0400021680860D4E925
:102C700001010843E1680843216908436169084389
:102C8000218B01F400710843E1690843216A08437C
:102C9000A16A0843216808600421A06901EA104084
:102CA000616A0843216848602168E06A0861206819
:102CB000C06920F400602168C861002060650120BF
:102CC00084F851000020BFE710B586B004462849BB
:102CD0002068884249D100BF002000902548006844
:102CE00040F40050234908600846006800F4005092
:102CF000009000BF00BF00BF002000901D481438A6
:102D0000006840F010001B4914390860084600684C
:102D100000F01000009000BF00BF88140190022056
:102D2000029000200390032004900520059001A943
:102D30001148FEF7CDFD4FF40050019001A90E4857
:102D4000FEF7C6FD4FF48040019001A90A48FEF746
:102D5000BFFD4FF40060019001200290002003901D
:102D6000049001A90448FEF7B3FD06B010BD0000B1
:102D70000034014044380240001002402DE9FC417B
:102D800004460E4615461F464FF0000894F85100C1
:102D900001287AD106B115B90120BDE8FC8100BF38
:102DA00094F85000012801D10220F6E7012084F8B0
:102DB000500000BF222084F8510000206065A66307
:102DC000A587E587A064E064A086E086A068B0F5EA
:102DD000004F05D12068006820F480402168086019
:102DE000A06AB0F5005F0DD100BF2068006820F434
:102DF0000050216808602068006840F40050216895
:102E0000086000BF6068B0F5827F0ED1A06860B92D
:102E100000BF002084F8500000BF2B4632463146E8
:102E20002046009700F0A9F9B7E72068006800F095
:102E30004000402805D02068006840F0400021682C
:102E40000860E06810BB12E03B46002201212046EA
:102E500001F0DEF808B103209FE72068C068C1B226
:102E6000A26B501CA0631170E08F401EE087E08FC2
:102E70000128E9DCA06AB0F5005F28D1206800686D
:102E800040F480502168086021E093E012E03B4666
:102E900000220121204601F0BBF808B103207CE7A5
:102EA0002068C068A16B0880A06B801CA063E08FC5
:102EB000401EE087E08F0128E9DCA06AB0F5005FE2
:102EC00005D12068006840F48050216808603B46C6
:102ED00000220121204601F09BF808B103205CE7A5
:102EE000E06838B92068C068C1B2A26B501CA0630A
:102EF000117006E02068C068A16B0880A06B801C80
:102F0000A063E08F401EE087A06AB0F5005F12D199
:102F10003B4600220121204601F07AF828B1606D7D
:102F200040F002006065032037E72068C06880B287
:102F30000190BDF804006068B0F5827F0DD1A068F3
:102F4000B0F5004F03D0A068B0F5806F05D12068C0
:102F5000006820F0400021680860012084F85100DA
:102F600020688068C0F30018A06AB0F5005F1BD12C
:102F7000B8F1000F18D0606D40F00200606500BF2E
:102F80002068006820F4005021680860206800680C
:102F900040F400502168086000BF00BF002084F8A2
:102FA000500000BF0120F8E600BF002084F8500068
:102FB00000BFF2E60220F0E6F8B504460E461546DC
:102FC0001F4694F85100012873D106B10DB90120B4
:102FD000F8BD00BF94F85000012801D10220F7E7A6
:102FE000012084F8500000BF122084F85100002016
:102FF00060652663A586E586E064A064A087E08717
:10300000A06AB0F5005F0DD100BF2068006820F411
:103010000050216808602068006840F40050216872
:10302000086000BFA068B0F5004F05D120680068B7
:1030300040F48040216808602068006800F040008B
:10304000402805D02068006840F0400021680860F2
:10305000E06878BB606810B1E08E012808D1216B70
:10306000481C206308782168C860E08E401EE08616
:1030700011E03B4600220221204600F0C9FF08B1C2
:103080000320A5E7216B481C206308782168C860ED
:10309000E08E401EE086E08E0028EADCA06AB0F5F3
:1030A000005F38D12068006840F4805021680860D3
:1030B00031E060E0FFE7606810B1E08E012809D1DF
:1030C000206B00882168C860206B801C2063E08E24
:1030D000401EE08612E03B4600220221204600F01E
:1030E00097FF08B1032073E7206B00882168C86050
:1030F000206B801C2063E08E401EE086E08E00285E
:10310000E9DCA06AB0F5005F05D12068006840F4F2
:103110008050216808603B4600220221204600F0D2
:1031200077FF28B1606D40F02000606503204FE715
:103130003B4601228021204600F06AFF28B1606DE5
:1031400040F020006065032042E7A06850B900BF4E
:10315000002000902068C06800902068806800907F
:1031600000BF00BF012084F8510000BF002084F898
:10317000500000BF2CE702202AE72DE9F84F044653
:103180000E4617461D46DDF828904FF00008C2464F
:1031900094F85180B8F1010F02D0B8F1220F76D126
:1031A0000EB107B115B90120BDE8F88F00BF94F842
:1031B0005000012801D10220F6E7012084F85000D8
:1031C00000BF94F85100012802D1322084F8510048
:1031D00000206065A763A587E5872663A586E58649
:1031E000A064E064A06AB0F5005F0DD100BF206864
:1031F000006820F40050216808602068006840F4EE
:1032000000502168086000BF2068006800F040009E
:10321000402805D02068006840F040002168086020
:10322000E068B0F5006F75D1606830B16068B0F5E6
:10323000827F0CD1E08E012809D1206B00882168A3
:10324000C860206B801C2063E08E401EE086E08E0C
:10325000F0B9A06AB0F5005F05D12068006840F4BD
:103260008050216808604B4600220121204600F072
:10327000CFFE08B1032097E72068C068A16B0880E3
:10328000A06B801CA063E08F401EE087C7E01BE1BD
:1032900031E04B4600220221204600F0B9FE08B181
:1032A000032081E7206B00882168C860206B801CA8
:1032B0002063E08E401EE086E08E48B9A06AB0F53B
:1032C000005F05D12068006840F4805021680860E4
:1032D0004B4600220121204600F09AFE08B103204F
:1032E00062E72068C068A16B0880A06B801CA063A7
:1032F000E08F401EE087E08E0028CADC606800286E
:10330000C4D14B4600220121204600F081FE10B1BD
:10331000032049E70AE02068C068A16B0880A06B21
:10332000801CA063E08F401EE08778E0606830B1C9
:103330006068B0F5827F0BD1E08E012808D1216B47
:10334000481C206308782168C860E08E401EE08633
:10335000E08ED0B9A06AB0F5005F05D120680068A2
:1033600040F48050216808604B460022012120462D
:1033700000F04EFE08B1032016E72068C068A16B7C
:103380000870E08F401EE08749E030E04B460022A5
:103390000221204600F03CFE08B1032004E7216B27
:1033A000481C206308782168C860E08E401EE086D3
:1033B000E08E48B9A06AB0F5005F05D120680068CA
:1033C00040F48050216808604B46002201212046CD
:1033D00000F01EFE08B10320E6E62068C068C1B216
:1033E000A26B501CA0631170E08F401EE087E08E3E
:1033F0000028CBDC606890B94B46002201212046B2
:1034000000F006FE08B10320CEE62068C068C1B215
:10341000A26B501CA0631170E08F401EE087A06A71
:10342000B0F5005F12D14B4600220121204600F08A
:10343000EFFD28B1606D40F0020060650320B3E647
:103440002068C06880B20090BDF800004B460122A1
:103450008021204600F0DCFD28B1606D40F02000A6
:1034600060650320A0E6012084F851002068806890
:10347000C0F3001AA06AB0F5005F1FD1BAF1000FC7
:103480001CD0606D40F002006065A06AB0F5005F7E
:103490000DD100BF2068006820F40050216808604A
:1034A0002068006840F400502168086000BF00BF39
:1034B000002084F8500000BF012075E600BF002006
:1034C00084F8500000BF6FE602206DE6042808D1A2
:1034D0004FF0E021096941F004014FF0E022116151
:1034E00007E04FF0E021096921F004014FF0E022EC
:1034F0001161704770B504462546681EB0F1807FA3
:1035000001D301200FE0681E4FF0E02148610F2138
:103510004FF0FF3000F040FD00204FF0E0218861C7
:1035200007200861002070BD7047704710B5044641
:103530000CB9012010BD94F8390028B9002084F896
:103540003800204600F00CF8022084F83900211DD4
:10355000206800F0B1FF012084F839000020E9E77D
:1035600038B5044600BF002000901748006840F0BE
:103570000200154908600846006800F0020000904B
:1035800000BF00BF012211461D20FEF7B6FE1D2020
:10359000FEF7A6FE00BF002000900B48006840F038
:1035A0001000094908600846006800F0100000900B
:1035B00000BF00BF012211463620FEF79EFE3620D6
:1035C000FEF78EFE38BD0000403802400146086814
:1035D000C06840F001000A68D0600868006840F0E8
:1035E00001000A68106000207047704710B504465B
:1035F00020680069C0F34000D8B12068C068C0F3FB
:103600004000B0B16FF0020021680861012020760F
:103610002068806900F0030018B12046FFF7E5FF3D
:1036200005E0204600F0ADF8204600F0ABF80020A1
:10363000207620680069C0F38000D8B12068C06897
:10364000C0F38000B0B16FF004002168086102206F
:1036500020762068806900F4407018B12046FFF79A
:10366000C4FF05E0204600F08CF8204600F08AF800
:103670000020207620680069C0F3C000D8B120681F
:10368000C068C0F3C000B0B16FF0080021680861E5
:10369000042020762068C06900F0030018B120469D
:1036A000FFF7A3FF05E0204600F06BF8204600F08E
:1036B00069F80020207620680069C0F30010D8B1B6
:1036C0002068C068C0F30010B0B16FF0100021682E
:1036D0000861082020762068C06900F4407018B1A5
:1036E0002046FFF782FF05E0204600F04AF820461A
:1036F00000F048F8002020762068006900F0010002
:1037000058B12068C06800F0010030B16FF00100CE
:1037100021680861204600F037F820680069C0F38E
:10372000C01058B12068C068C0F3C01030B16FF04D
:103730008000216808612046FFF7F6FE20680069D6
:10374000C0F3801058B12068C068C0F3801030B159
:103750006FF0400021680861204600F02DF82068D5
:103760000069C0F3401058B12068C068C0F3401031
:1037700030B16FF02000216808612046FFF7D5FEC8
:1037800010BD7047704700000749884205D10749BE
:1037900009680A31054A116005E00549884202D1ED
:1037A0000121044A11707047C00C0020DC00002089
:1037B000FC0C002014000020704710B504460CB922
:1037C000012010BDA06900B100E000BF94F83900ED
:1037D00028B9002084F83800204600F025F802209F
:1037E00084F839002068C06820F400502168C8605F
:1037F000204600F0D3FE2068006920F49040216844
:1038000008612068406920F02A002168486120682A
:10381000C06840F400502168C8600020E0630120C7
:1038200084F839000020CCE710B586B004461F4963
:103830002068884237D100BF002000901C480068F3
:1038400040F010001A4908600846006800F01000B7
:10385000009000BF00BF00BF002000901448143843
:10386000006840F0020012491439086008460068F8
:1038700000F00200009000BF00BFC02001900220B5
:10388000029001200390022004900720059001A9D6
:103890000848FEF71DF8002211462520FEF72DFDF1
:1038A0002520FEF71DFD06B010BD000000100140F0
:1038B00044380240000402402DE9F04704460D461A
:1038C000164699464FF0000894F83980B8F1010F78
:1038D00002D0B8F1220F65D105B116B90120BDE8BB
:1038E000F08700BF94F83800012801D10220F6E7E4
:1038F000012084F8380000BF0020E06394F839000C
:10390000222803D1322084F8390002E0122084F802
:103910003900A684E68428E0E08C401EE084A0689C
:10392000B0F5805F14D14B4600228021204600F084
:1039300047FF08B10320D2E72F463888C0F30800BC
:1039400021684860206908B9AD1C0EE06D1C0CE0D0
:103950004B4600228021204600F032FF08B10320B0
:10396000BDE715F8010B21684860E08C0028D3DC26
:103970004B4600224021204600F022FF08B10320E0
:10398000ADE794F83900322803D1222084F83900B9
:1039900002E0012084F8390000BF002084F83800DC
:1039A00000BF9CE702209AE700BFFEE7FEB5044691
:1039B0000D46164600274FF47A7001232A46A021AF
:1039C000CDE9004602900348FEF732FA0746384632
:1039D000FEBD0000DC0B00202DE9F04707460D4638
:1039E00014464FF00008C146C24600262846E91793
:1039F00005EB5171C910A5EBC10101F0FF0ACAF135
:103A00000800C6B22046E11704EB5171C1F3C708A4
:103A1000E11704EB5171C910A4EBC10101F0FF09DA
:103A2000BAF1000F22D1B8F1000F05D14A4629465C
:103A3000384600F05DF854E008E008222946384690
:103A400000F056F805F10800C5B20837B8F10000DB
:103A5000A8F1010101F0FF08EFD1B9F1000F40D04A
:103A60004A462946384600F043F83AE0B8F1000FDC
:103A700005D14A462946384600F03AF831E0A01B05
:103A800084B22046E11704EB5171C1F3C708E11776
:103A900004EB5171C910A4EBC10101F0FF093EB163
:103AA00032462946384600F023F8A819C5B23744F3
:103AB00008E008222946384600F01AF805F1080007
:103AC000C5B20837B8F10000A8F1010101F0FF0804
:103AD000EFD1B9F1000F04D04A462946384600F02C
:103AE00007F8BDE8F08710B500F02CF810BD000015
:103AF000FEB504460D4616460027642001232A46DB
:103B0000A021CDE9004602900D48FEF7ADFA074628
:103B100000BF0B48FEF72FF80128FAD100BF4FF481
:103B200096731A46A0210648FEF7BAF80328F6D085
:103B300000BF0348FEF71FF80128FAD13846FEBD42
:103B4000DC0B002010B50D480D49086001140C482D
:103B500001610C480A4948600021094841618160BF
:103B6000C16101620A21C16000218161FEF708F88C
:103B700000210348FDF7D2FF10BD000000540040B3
:103B8000DC0B0020801A06002DE9F84304460E469F
:103B900015461F46DDF820802068006840F48060EC
:103BA000216808602068006840F48070216808601F
:103BB000434600224FF00111204600F0CBF810B12F
:103BC0000320BDE8F88306F0FE0021680861424644
:103BD0003249204600F02DF930B1A06B042801D104
:103BE0000120EEE70320ECE700BF002000902068F2
:103BF0004069009020688069009000BF00BF434684
:103C0000002226497E31204600F0A4F808B10320A6
:103C1000D7E7012F03D1E8B22168086110E0C5F3AE
:103C2000072021680861434600221C497E31204656
:103C300000F090F808B10320C3E7E8B221680861FA
:103C40004346002215497E31204600F083F808B132
:103C50000320B6E72068006840F48070216808609F
:103C6000434600224FF00111204600F073F808B1DE
:103C70000320A6E7F0B240F0010021680861424647
:103C80000649204600F0D5F830B1A06B042801D1D8
:103C9000012096E7032094E7002092E7020001004C
:103CA0002DE9F84304460E4615461F46DDF82080F0
:103CB0002068006840F48070216808604346002254
:103CC0004FF00111204600F045F810B10320BDE887
:103CD000F88306F0FE002168086142461C49204630
:103CE00000F0A7F830B1A06B042801D10120EEE765
:103CF0000320ECE700BF002000902068406900909E
:103D000020688069009000BF00BF43460022104930
:103D10007E31204600F01EF808B10320D7E7012FBE
:103D200003D1E8B22168086110E0C5F307202168DB
:103D300008614346002206497E31204600F00AF819
:103D400008B10320C3E7E8B2216808610020BEE79C
:103D5000020001002DE9F04105460C4617461E46BB
:103D60004FF00008FDF7D4FE804687BB13E0701CBF
:103D700088B12EB1FDF7CCFEA0EB0800B0420AD905
:103D8000012085F8350000BF002085F8340000BF11
:103D90000320BDE8F081C4F3074001280AD1286858
:103DA0004069A1B20840A1B2884201D101200BE0D4
:103DB000002009E028688069A1B20840A1B28842C9
:103DC00001D1012000E000200028D0D02FE0FFE743
:103DD00012E0701C80B12EB1FDF79AFEA0EB080036
:103DE000B04209D9012085F8350000BF002085F8D0
:103DF000340000BF0320CCE7C4F3074001280AD1F8
:103E000028684069A1B20840A1B2884201D10120CE
:103E10000BE0002009E028688069A1B20840A1B247
:103E2000884201D1012000E000200028D1D10020EB
:103E3000AFE72DE9F04104460D4616460027FDF791
:103E400067FE07462DE020684069C0F38020B0B1CE
:103E50002068006840F40070216808606FF480609A
:103E6000216848610420A063012084F8350000BF68
:103E7000002084F8340000BF0120BDE8F081701CF0
:103E800078B126B1FDF744FEC01BB04209D901202C
:103E900084F8350000BF002084F8340000BF032000
:103EA000EBE7C5F3074001280AD120684069A9B2B1
:103EB0000840A9B2884201D101200BE0002009E0AE
:103EC00020688069A9B20840A9B2884201D10120C6
:103ED00000E000200028B6D00020CEE71CB5FCF79B
:103EE00074F9002208212248FDF70CFE642001F03D
:103EF000D7FF012208211E48FDF704FE642001F0CF
:103F0000CFFFFCF764F91B4800788DF800001948D2
:103F100040788DF80100174880788DF80200154828
:103F2000C0788DF80300134800798DF8040011481B
:103F300040798DF80500104810490860012048605C
:103F400081030E488160C910C16000210182C0F860
:103F500014D0012181610021C1614FF4000101628F
:103F6000FCF7D6FF08B900201CBD0120FCE70000CB
:103F700000000240C0B5022000800240780C002002
:103F800000BFFEE77047000002480068C0F302204F
:103F9000704700000CED00E010B5002807DA0A07B2
:103FA000140E054A00F00F031B1FD45403E00A0748
:103FB000130E024A135410BD18ED00E000E400E0B7
:103FC00000B58BB0282101A8FCF760F90A2201A9ED
:103FD000054800F049F91B220DF111010348FCF7D7
:103FE0003CF90BB000BD000000000608900D002059
:103FF00070B50446002000BF06E00D7800EB832674
:10400000A555491C451CA8B29042F6DB70BD70470F
:104010002DE9F04104460E4617461D464FF00008B4
:10402000FDF776FD8046002F3ED132E0681C78B364
:104030002DB1FDF76DFDA0EB0800A84229D920683D
:10404000406820F0E000216848602068006820F0A7
:10405000400021680860A06AB0F5005F0DD100BF84
:104060002068006820F4005021680860206800681B
:1040700040F400502168086000BF012084F851001E
:1040800000BF002084F8500000BF0320BDE8F0818D
:10409000FFE7206880683040B04201D1012000E095
:1040A00000200028C2D03BE030E0681C70B32DB186
:1040B000FDF72EFDA0EB0800A84227D92068406834
:1040C00020F0E000216848602068006820F040008F
:1040D00021680860A06AB0F5005F0DD100BF2068BC
:1040E000006820F40050216808602068006840F4EF
:1040F00000502168086000BF012084F8510000BF13
:10410000002084F8500000BF0320BFE720688068CB
:104110003040B04201D1012000E000200028C4D18D
:104120000020B3E701463A48814201D2002070479F
:104130003848814201D20120F9E73748814201D253
:104140000220F4E73548814201D20320EFE73448EA
:10415000814201D20420EAE73248814201D205209F
:10416000E5E73148814201D20620E0E72F4881424D
:1041700001D20720DBE72E48814201D20820D6E792
:104180002C48814201D20920D1E72B48814201D23B
:104190000A20CCE7B1F1016F01D20B20C7E7274815
:1041A000814201D20C20C2E72548814201D20D2074
:1041B000BDE72448814201D20E20B8E7224881425F
:1041C00001D20F20B3E72148814201D21020AEE78F
:1041D0001F48814201D21120A9E71E48814201D225
:1041E0001220A4E71C48814201D213209FE71B48FC
:1041F000814201D214209AE71948814201D2152048
:1042000095E71848814201D2162090E717208EE7E3
:10421000004000080080000800C0000800000108FD
:10422000000002080000040800000608000008085A
:1042300000000A0800000C0800000E0800401008EA
:104240000080100800C010080000110800001208CB
:1042500000001408000016080000180800001A08E2
:1042600000001C0800001E0830B503460C46154629
:10427000002206E0184600F007F844F822001B1D53
:10428000521CAA42F6D330BD0146086870470000B0
:104290002DE9F04387B004460E4617464FF000095B
:1042A0000020019000258046B4F1006F02D304F095
:1042B000030010B107B0BDE8F083FDF709FA254609
:1042C00004EB87081E4885421DD219E02846FFF7F7
:1042D000DBFF401C78B1002002902846FFF722FF48
:1042E0000490012005900220069001A902A8FDF784
:1042F00041F908B106E02D1D4CF25030FCF7E2FC0C
:104300004545E3D300BF4CF25030FCF7DBFC81465F
:10431000B9F1000F0FD10BE0D6F800C062460023C0
:1043200021460220FDF788F900B103E0241D361D67
:104330004445F1D300BFFDF775F900BFBAE70000AF
:104340000000FF1F704700002DE9F04192B00546C4
:10435000884616461F46002400BF002000902648CD
:10436000006840F08050244908600846006800F06A
:104370008050009000BF00BF00BF002000901F4889
:10438000006840F440401D4908600846006800F499
:104390004040009000BF00BF01200690079002201F
:1043A0000C9041050D91CDF838800F95109611971E
:1043B00006A8FEF741FA04460CB100BFFEE7FDF780
:1043C000EFFF04460CB100BFFEE70F200190022072
:1043D0000290002003904FF4A05004904FF48050BE
:1043E0000590052101A8FEF72DF804460CB100BF89
:1043F000FEE712B0BDE8F081403802400070004096
:1044000010B5FDF717FF10BD1448006840F47000A8
:10441000124908601248006840F001001049086025
:1044200000200F49083108600D4800680D49084018
:104430000B4908600C48091D0860081F006820F43B
:104440008020091F0860002005490C3108604FF0EA
:1044500000600249803908607047000088ED00E084
:1044600000380240FFFFF6FE1030002410B502486D
:10447000FFF7BCF810BD0000C00C002070B5054669
:104480000C460748074908600846446000218160DF
:10449000C5600161FFF74AF80248FFF797F870BD61
:1044A00000040040C00C002010B50248FFF79EF841
:1044B00010BD0000FC0C0020002202682C4B98422A
:1044C0000ED0B0F1804F0BD02A4B984208D02A4B27
:1044D000984205D0294B984202D0294B984201D1ED
:1044E000012300E000231BB122F070024B681A4345
:1044F0001F4B984220D0B0F1804F1DD01D4B9842E9
:104500001AD01D4B984217D01C4B984214D01C4B0C
:10451000984211D01B4B98420ED01B4B98420BD0A7
:104520001A4B984208D01A4B984205D0194B984222
:1045300002D0194B984201D1012300E000231BB1A6
:1045400022F44072CB681A4302608B68C3620B6826
:104550008362074B984202D0094B984201D1012354
:1045600000E000230BB10B69036301234361704733
:10457000000001400004004000080040000C004022
:104580000004014000400140004401400048014057
:1045900000180040001C0040002000402DE9F041C0
:1045A000044600252068056925F44055E068054368
:1045B000206805612068C56849F20C60854321695F
:1045C000A068084361690843E1690843054320681E
:1045D000C5602068456925F44075A06905432068D9
:1045E0004561E069B0F5004F72D173492068884297
:1045F00003D072492068884234D1FEF7ADF800EB51
:10460000C00101EB001061684900B0FBF1F06421CA
:10461000B0FBF1F6FEF7A0F800EBC00101EB0010D3
:1046200061684900B0FBF1F7FEF796F800EBC001B6
:1046300001EB001061684900B0FBF1F06421B0FBB0
:10464000F1F000EBC00101EB0010A7EB800032217C
:1046500001EB00106421B0FBF1F066F31F1021683C
:104660008860A6E0FEF762F800EBC00101EB0010E5
:1046700061684900B0FBF1F06421B0FBF1F6FEF790
:1046800055F800EBC00101EB001061684900B0FB78
:10469000F1F7FEF74BF800EBC00101EB0010616889
:1046A0004900B0FBF1F06421B0FBF1F000EBC00178
:1046B00001EB0010A7EB8000322101EB0010642118
:1046C000B0FBF1F066F31F102168886071E0FFE72E
:1046D00039492068884203D038492068884234D15B
:1046E000FEF73AF800EBC00101EB001061688900A9
:1046F000B0FBF1F06421B0FBF1F6FEF72DF800EB12
:10470000C00101EB001061688900B0FBF1F7FEF712
:1047100023F800EBC00101EB001061688900B0FBD9
:10472000F1F06421B0FBF1F000EBC00101EB0010EF
:10473000A7EB8000322101EB00106421B0FBF1F007
:1047400066F31F102168886033E0FDF7EFFF00EB90
:10475000C00101EB001061688900B0FBF1F0642139
:10476000B0FBF1F6FDF7E2FF00EBC00101EB00103A
:1047700061688900B0FBF1F7FDF7D8FF00EBC001DD
:1047800001EB001061688900B0FBF1F06421B0FB1F
:10479000F1F000EBC00101EB0010A7EB800032212B
:1047A00001EB00106421B0FBF1F066F31F102168EB
:1047B0008860BDE8F0810000001001400014014055
:1047C0002DE9F04104460E4617461D464FF00008FD
:1047D000FDF79EF980469FBB2BE0681C48B32DB1C6
:1047E000FDF796F9A0EB0800A84222D92068C0681E
:1047F00020F080002168C8602068C06820F0200098
:104800002168C8602068C06820F480702168C86092
:104810002068406920F0010021684861012084F887
:10482000390000BF002084F8380000BF0320BDE835
:10483000F081206800683040B04202D1012001E0E0
:1048400003E000200028C8D035E02AE0681C40B30F
:104850002DB1FDF75DF9A0EB0800A84221D9206831
:10486000C06820F080002168C8602068C06820F01F
:1048700020002168C8602068C06820F4807021682A
:10488000C8602068406920F001002168486101206B
:1048900084F8390000BF002084F8380000BF0320EE
:1048A000C5E7206800683040B04201D1012000E037
:1048B00000200028CAD10020B9E700002DE9F0410E
:1048C0004FF0000800270026002400251D210020AD
:1048D00005F05EFA0446002C00F06985F84800787F
:1048E00024283FD1F648407824283BD11D22F449A2
:1048F0002046FBF7B2FC00BF0420012806D00228A6
:104900000BD0032810D004281CD114E0EDA001F036
:104910003DF8EFA001F03AF81BE0F0A001F036F806
:10492000EBA001F033F814E0EEA001F02FF8E8A0BE
:1049300001F02CF80DE0EDA001F028F8E4A001F062
:1049400025F806E0ECA001F021F8E1A001F01EF846
:1049500000BF00BF00BF002000E0401CB0F5966F14
:10496000FBD903E01D212046FBF790FC94F80A8058
:104970002689B8F1880F6FD0B8F1C10F40F0E084FC
:104980001621E01C00F04EFF0746A07EB84276D10B
:10499000D4F80B00DC49C1F80600D4F80F00C1F8C8
:1049A0000A00E07C8873D948A18AA0F80310A17D91
:1049B0004171B4F817100180617E817000BF04203E
:1049C000012806D002280DD0032814D0042824D1B1
:1049D0001AE0BCA000F0DAFFCC480178CCA000F0CF
:1049E000D5FF23E0BDA000F0D1FFC8480178C8A0E2
:1049F00000F0CCFF1AE0BBA000F0C8FFC34801786C
:104A0000C3A000F0C3FF11E0B8A000F0BFFFBF4893
:104A10000178BFA000F0BAFF08E0B7A000F0B6FF31
:104A2000BA480178BAA000F0B1FF00BF00BF00BFD4
:104A300000BF0420012806D002280ED0032815D07C
:104A4000042826D11CE09FA000F0A0FFAF484178C9
:104A5000AFA000F09BFF25E057E2A0A000F096FF7A
:104A6000AA484178AAA000F091FF1BE09DA000F0A9
:104A70008DFFA6484178A6A000F088FF12E00EE264
:104A80009AA000F083FFA1484178A1A000F07EFF2A
:104A900008E099A000F07AFF9C4841789CA000F0C3
:104AA00075FF00BF00BF00BF00BF0420012806D073
:104AB00002280DD0032814D0042824D11AE081A0A4
:104AC00000F064FF9148817891A000F05FFF23E03F
:104AD00082A000F05BFF8D4881788DA000F056FF2A
:104AE0001AE080A000F052FF8848817888A000F08A
:104AF0004DFF11E07DA000F049FF8448817884A03B
:104B000000F044FF08E07CA000F040FF7F4881787F
:104B10007FA000F03BFF00BF00BF00BFFBF782FD9E
:104B200000BF0420012806D002280ED0032816D08A
:104B3000042828D11DE063A000F028FF7248D0F8B7
:104B4000061073A000F022FF27E064A000F01EFF13
:104B50006D48D0F806106EA000F018FF1DE061A0AF
:104B600000F014FF6848D0F8061069A000F00EFFAE
:104B700013E05EA000F00AFF6348D0F8061064A0BE
:104B800000F004FF09E05CA000F000FF5E48D0F8F0
:104B900006105FA000F0FAFE00BF00BF00BF00BF1C
:104BA0000420012806D002280ED0032816D004289D
:104BB00028D11DE043A000F0E9FE5348D0F80A10C8
:104BC0005AA000F0E3FE27E044A000F0DFFE4E48CC
:104BD000D0F80A1055A000F0D9FE1DE041A000F069
:104BE000D5FE4948D0F80A1050A000F0CFFE13E0DF
:104BF0003EA000F0CBFE4448D0F80A104BA000F0D5
:104C0000C5FE09E03CA000F0C1FE3F48D0F80A1004
:104C100046A000F0BBFE00BF00BF00BF00BF0420E5
:104C2000012806D002280DD0032814D0042824D14E
:104C30001AE024A000F0AAFE3348817B42A000F0D5
:104C4000A5FE23E025A000F0A1FE2F48817B3EA019
:104C500000F09CFE1AE023A000F098FE2A48817B19
:104C600039A000F093FE11E020A000F08FFE26484E
:104C7000817B35A000F08AFE08E01FA000F086FED0
:104C80002148817B30A000F081FE00BF00BF00BF43
:104C90001D48D0F80A10002005F07AF83049086065
:104CA00008460068002875D000BF0420012859D0AC
:104CB00002285FD0032865D0042875D16CE000007D
:104CC00008B602205B4572726F725D3A0000000008
:104CD000726563725F7564700D0A00005B57415224
:104CE0004E5D3A005B494E464F5D3A005B4445429B
:104CF00055475D3A000000005B556E6B6E6F776E36
:104D0000204D73675D3A0000B00100208D00002047
:104D10005570677261646546696C655F546F746154
:104D20006C203D2025640D0A00000000557067725C
:104D300061646546696C655F4279746573203D20E6
:104D400025640D0A0000000043616C6962726174A1
:104D5000696F6E56616C7565203D2025640D0A00F3
:104D60007C000020AFF2A40000F010FEFEA000F0D6
:104D70000DFE21E0AFF29C0000F008FEFAA000F06A
:104D800005FE19E0AFF2A40000F000FEF6A000F06E
:104D9000FDFD11E012E007E0AFF2B00000F0F6FD1B
:104DA000F1A000F0F3FD07E0AFF2B40000F0EEFD7B
:104DB000EDA000F0EBFD00BF00BF34E000BF042019
:104DC000012806D002280CD0032812D0042820D1B4
:104DD00017E0AFF2101000F0D9FDEBA000F0D6FD07
:104DE0001FE0AFF2081000F0D1FDE7A000F0CEFD0B
:104DF00017E0AFF2101000F0C9FDE3A000F0C6FD0F
:104E00000FE0AFF2181000F0C1FDDFA000F0BEFD12
:104E100007E0AFF21C1000F0B9FDDBA000F0B6FD1A
:104E200000BF00BF00BF642001F03AF8DE48007800
:104E300000F02CFB00BF0420012806D002280CD073
:104E4000032812D0042820D117E0AFF2881000F018
:104E50009DFDD6A000F09AFD1FE0AFF2801000F09B
:104E600095FDD2A000F092FD17E0AFF2881000F09F
:104E70008DFDCEA000F08AFD0FE0AFF2901000F0A3
:104E800085FDCAA000F082FD07E0AFF2941000F0AB
:104E90007DFDC6A000F07AFD00BF00BF34E000BF7A
:104EA0000420012806D002280CD0032812D00428A0
:104EB00020D117E0AFF2F41000F068FDC0A000F0C0
:104EC00065FD1FE0AFF2EC1000F060FDBCA000F04B
:104ED0005DFD17E0AFF2F41000F058FDB8A000F04F
:104EE00055FD0FE0AFF2FC1000F050FDB4A000F053
:104EF0004DFD07E0AFF2002000F048FDB0A000F04B
:104F000045FD00BF00BF00BF50E200BF04200128E4
:104F100006D002280CD0032812D0042820D117E094
:104F2000AFF2602000F032FDAAA000F02FFD1FE0DC
:104F3000AFF2582000F02AFDA6A000F027FD17E0F0
:104F4000AFF2602000F022FDA2A000F01FFD0FE0F4
:104F5000AFF2682000F01AFD9EA000F017FD07E0F8
:104F6000AFF26C2000F012FD9AA000F00FFD00BF20
:104F700000BF00BF40F20E41002004F009FF0546CB
:104F8000002D76D040F20E412846FBF77FF940F223
:104F90000E4295492846FBF760F9F11DE81C00F028
:104FA00041FC074600BF0420012806D002280FD08C
:104FB000032818D004282CD120E0AFF2F82000F00C
:104FC000E5FC95F80B14AFF2802000F0DFFC2BE03D
:104FD000AFF2F82000F0DAFC95F80B14AFF298204D
:104FE00000F0D4FC20E0AFF2043000F0CFFC95F8E4
:104FF0000B14AFF2AC2000F0C9FC15E0AFF2143096
:1050000000F0C4FC95F80B14AFF2C42000F0BEFC15
:105010000AE0AFF21C3000F0B9FC95F80B14AFF2C7
:10502000D82000F0B3FC00BF00BF00BF00BF0420C9
:10503000012806D0022810D003281BD0042831D123
:1050400024E0AFF2803000F0A1FC06F10B00664ACC
:10505000115C66A000F09AFC30E0AFF2803000F006
:1050600095FC06F10B00604A115C60A000F08EFC1C
:1050700024E0E1E0AFF2943000F088FC06F10B0090
:10508000594A115C59A000F081FC17E0AFF2A4303E
:1050900000F07CFC06F10B00534A115C53A000F0B9
:1050A00075FC0BE0AFF2B03000F070FC06F10B00C5
:1050B0004D4A115C4DA000F069FC00BF00BF00BF6D
:1050C00095F80B04B84205D006F10B004649085C80
:1050D000B84247D100BF0420012806D002280FD0D3
:1050E000032818D004282CD120E0AFF2284000F08B
:1050F0004DFC32462C48017844A000F047FC2BE0E0
:10510000AFF2284000F042FC3246274801783FA029
:1051100000F03CFC20E0AFF2344000F037FC3246B7
:105120002148017839A000F031FC15E0AFF244408D
:1051300000F02CFC32461C48017834A000F026FC1C
:105140000AE0AFF24C4000F021FC324616480178EC
:105150002EA000F01BFC00BF00BF00BF1248037868
:10516000324661E067E00000557067726164654631
:10517000696C65427566206D616C6C6F6320737538
:1051800063636573730D0A005570677261646546E9
:10519000696C65427566206D616C6C6F6320666139
:1051A000696C0D0A0000000078000020436D645F08
:1051B0005570677261646553746172740D0A000002
:1051C00043616C6962726174696F6E206661696CBB
:1051D0000D0A0000436D645F55706772616465502D
:1051E00061636B65740D0A0008B602207265637610
:1051F00062756643616C6962726174696F6E566153
:105200006C7565203D2025640D0A00005061636BBC
:105210006574204E756D3A5B25645D2C206C656E5F
:10522000203D2025640D0A0005F10B017D48006832
:10523000FEF7DEFE35E0B9E000BF0420012806D00D
:1052400002280CD0032812D0042820D117E0AFF296
:105250008C5000F09BFB74A000F098FB1FE0AFF2B5
:10526000845000F093FB70A000F090FB17E0AFF2C9
:105270008C5000F08BFB6CA000F088FB0FE0AFF2CD
:10528000945000F083FB68A000F080FB07E0AFF2D1
:10529000985000F07BFB64A000F078FB00BF00BFDB
:1052A00000BF6A480078401C684908706848D0F818
:1052B00006000978884204D96448007800F0E6F8CE
:1052C00039E06348D0F8060060490978884231D156
:1052D0005F48D0F80A105348006800F0A3FA074668
:1052E0005B48807BB8421ED15848007800F0CEF869
:1052F0005748D0F80A204B480168564802F092F807
:105300002146002004F032FD46480168002004F0E8
:105310002DFD2946002004F029FD00204B4908708E
:105320000120BDE8F08149490978491CC8B200F064
:10533000ADF800E000BF2946002004F017FD35E07D
:1053400000BF0420012806D002280CD0032812D068
:10535000042820D117E0AFF2946000F017FB3EA0C4
:1053600000F014FB1FE0AFF28C6000F00FFB3AA0DE
:1053700000F00CFB17E0AFF2946000F007FB36A0E2
:1053800000F004FB0FE0AFF29C6000F0FFFA32A0E7
:1053900000F0FCFA07E0AFF2A06000F0F7FA2EA0F0
:1053A00000F0F4FA00BF00BF00BF00BF33E000BF51
:1053B000012030B902280CD0032812D0042820D1B3
:1053C00017E0AFF2007000F0E1FA27A000F0DEFA7B
:1053D0001FE0AFF2F86000F0D9FA23A000F0D6FA8F
:1053E00017E0AFF2007000F0D1FA1FA000F0CEFA83
:1053F0000FE0AFF2087000F0C9FA1BA000F0C6FA87
:1054000007E0AFF20C7000F0C1FA17A000F0BEFA8E
:1054100000BF00BF00BF2146002004F0A7FC002011
:105420007FE700007C000020557067726164655062
:10543000636B6574446174615F53747275206D6150
:105440006C6C6F63206661696C0D0A007800002047
:10545000B001002000000108496E76616C6964208B
:10546000646174610D0A0000557067726164655271
:105470006573706F6E73655F53747275206D616CC8
:105480006C6F63206661696C0D0A000070B505469B
:1054900000241021002004F07BFC0446002C37D0AF
:1054A00014212046FAF7F2FE2420207042F2014037
:1054B00000F0CCFCA4F801002F49086800F0CCFCF7
:1054C000C4F803001020E071082020818820A07219
:1054D000A4F80B500A21E01C00F0A4F9607343F219
:1054E000355000F0B3FCE0811022214623480068CB
:1054F00009F0D4F92248007800F0400028B1204893
:10550000007820F040001E49087003F014FD2EE0E2
:1055100000BF012030B902280BD0032810D0042886
:105520001CD114E017A000F031FA19A000F02EFAF7
:105530001BE020A000F02AFA15A000F027FA14E0E2
:105540001EA000F023FA12A000F020FA0DE01DA02A
:1055500000F01CFA0EA000F019FA06E01CA000F002
:1055600015FA0BA000F012FA00BF00BF00BF2146E1
:10557000002004F0FBFB70BD107AFF1FE400002048
:10558000EC0000205B4572726F725D3A0000000013
:10559000557067726164655061636B65745F5374C5
:1055A0007275206D616C6C6F63206661696C0D0AA9
:1055B000000000005B5741524E5D3A005B494E4689
:1055C0004F5D3A005B44454255475D3A000000009C
:1055D0005B556E6B6E6F776E204D73675D3A0000A2
:1055E0002DE9F0410026002700241421002004F0BA
:1055F000CFFB0446002C76D014212046FAF746FE55
:105600002420207042F2014000F020FCA4F80100A8
:10561000674807680146086800F01EFCC4F80300EC
:105620001020E071082000F011FC2081C020A07241
:105630000120E07200212173012161730020A07319
:105640000021E173012121740E21E01C00F0EAF831
:10565000607443F2355000F0F9FB608200BF042013
:10566000012806D002280BD0032810D004281CD112
:1056700014E050A000F08AF951A000F087F91BE077
:1056800051A000F083F94EA000F080F914E050A082
:1056900000F07CF94AA000F079F90DE04EA000F08E
:1056A00075F947A000F072F906E04EA000F06EF91F
:1056B00043A000F06BF900BF00BF00BF26460025E5
:1056C00004E0715D4BA000F061F96D1C1D2DF8D94F
:1056D00000BF0420012807D002280CD0032811D0D5
:1056E00004281DD115E02DE032A000F04FF943A0B1
:1056F00000F04CF91BE034A000F048F93FA000F0A6
:1057000045F914E032A000F041F93CA000F03EF968
:105710000DE031A000F03AF938A000F037F906E0CA
:1057200030A000F033F935A000F030F900BF00BF21
:1057300000BF142221463248006809F0AFF803F098
:10574000FAFB2EE000BF012030B902280BD003285D
:1057500010D004281CD114E016A000F017F929A0DD
:1057600000F014F91BE018A000F010F925A000F0DB
:105770000DF914E016A000F009F922A000F006F9D6
:105780000DE015A000F002F91EA000F0FFF806E001
:1057900014A000F0FBF81BA000F0F8F800BF00BF59
:1057A00000BF2146002004F0E1FABDE8F0810000CE
:1057B000107AFF1F5B4572726F725D3A0000000045
:1057C00072656376320D0A005B5741524E5D3A00B6
:1057D0005B494E464F5D3A005B44454255475D3A52
:1057E000000000005B556E6B6E6F776E204D736727
:1057F0005D3A000025303278000000000D0A0000FC
:10580000E4000020557067726164655265715F53F2
:10581000747275206D616C6C6F63206661696C0DCC
:105820000A0000002DE9F04104460F46002500263D
:105830002578012603E0A05D2844C5B2761CBE424F
:10584000F9D900BF0420012806D002280CD0032873
:1058500012D0042820D117E016A000F097F82946AE
:1058600017A000F093F81FE01BA000F08FF8294666
:1058700013A000F08BF817E019A000F087F8294674
:105880000FA000F083F80FE017A000F07FF8294682
:105890000BA000F07BF807E016A000F077F829468F
:1058A00007A000F073F800BF00BF00BF2846BDE8A6
:1058B000F08100005B4572726F725D3A000000007B
:1058C0000D0A586F72436865636B5F56616C75654E
:1058D000203D2025780D0A005B5741524E5D3A006D
:1058E0005B494E464F5D3A005B44454255475D3A41
:1058F000000000005B556E6B6E6F776E204D736716
:105900005D3A000000BFFEE700BF13A25D2114A0B6
:1059100000F03CF8012080F3108800BF00BF00BFFA
:1059200000BF00BF00BFBFF34F8F00BF00BF00BF6D
:105930001448006800F4E06013490843001D114951
:10594000086000BF00BF00BFBFF34F8F00BF00BFA4
:1059500000BF00BF00BFFDE76D61696E2E630000F0
:105960000D0A5265626F6F74206465766963652005
:105970006174206C696E6520256420696E20257332
:105980000D0A00000CED00E00000FA050FB4054B15
:1059900010B503A9044A029800F018F810BC5DF88D
:1059A00014FB0000E5730008AC01002002E008C809
:1059B000121F08C1002AFAD170477047002001E089
:1059C00001C1121F002AFBD1704700002DE9FF4FD3
:1059D0008DB00F460546002606E025280BD0DDE9F0
:1059E0000F1290476D1C761C28780028F5D111B055
:1059F0003046BDE8F08F0024A246A1460122EC49C2
:105A000000E0044315F8013F203B02FA03F008428E
:105A1000F7D128782A2810D06FF02F022878A0F12B
:105A20003001092914D80AEB8A0102EB410144F044
:105A3000020400EB010A6D1CF0E701CF5FEA000AE7
:105A400003D544F40054CAF1000A44F002046D1C6A
:105A500028782E2817D115F8010F44F004042A28BD
:105A60000ED06FF02F022878A0F1300109290AD852
:105A700009EB890102EB410100EB01096D1CF2E722
:105A800057F8049B6D1C28786C280FD006DC4C2836
:105A900017D068280DD06A2814D104E0742810D0DB
:105AA0007A280FD10DE044F400140AE044F4801485
:105AB00001E044F440146978814202D104F5801475
:105AC0006D1C6D1C2A786E2A1FD00CDC632A31D025
:105AD00004DC002A8BD0582A11D1A3E0642A68D0B4
