:020000040800F2
:1000000000000320B91800088106000883060008D4
:100010008506000887060008890600080000000021
:100020000000000000000000000000008B06000837
:100030008D060008000000008F06000891060008E9
:100040000919000809190008091900080919000808
:1000500009190008091900080919000809190008F8
:1000600009190008091900080919000809190008E8
:1000700009190008091900080919000809190008D8
:1000800009190008091900080919000809190008C8
:1000900009190008091900080919000809190008B8
:1000A00009190008091900080919000809190008A8
:1000B0000919000809190008091900080919000898
:1000C0000919000809190008091900080919000888
:1000D00009190008990600080919000809190008FB
:1000E0000919000809190008091900080919000868
:1000F0000919000809190008091900080919000858
:100100000919000809190008091900080919000847
:100110000919000809190008091900080919000837
:100120000919000809190008091900080919000827
:100130000919000809190008091900080919000817
:100140000919000809190008091900080919000807
:1001500009190008091900080919000809190008F7
:1001600009190008091900080919000809190008E7
:100170000919000809190008091900080000000001
:1001800009190008091900080919000809190008C7
:1001900009190008091900080919000809190008B7
:0C01A000091900080919000809190008D5
:1001AC0010B5054C237833B9044B13B10448AFF3A5
:1001BC0000800123237010BD0C0000200000000003
:1001CC006419000808B5034B1BB103490348AFF38E
:1001DC00008008BD00000000100000206419000819
:1001EC0053B94AB9002908BF00281CBF4FF0FF3192
:1001FC004FF0FF3000F06EB9ADF1080C6DE904CE94
:10020C0000F006F8DDF804E0DDE9022304B07047E5
:10021C002DE9F047089D04468C46002B40F0838066
:10022C008A42174647D9B2FA82F242B1C2F1200093
:10023C0024FA00F09140974040EA010C94404FEAB8
:10024C001748230CBCFBF8F61FFA87FE08FB16C1F7
:10025C0043EA014306FB0EF1994209D9FB1806F15A
:10026C00FF3080F01981994240F21681023E3B44E6
:10027C005B1AA4B2B3FBF8F008FB103344EA034456
:10028C0000FB0EFEA64509D93C1900F1FF3380F0A6
:10029C000581A64540F2028102383C4440EA064002
:1002AC00A4EB0E0400261DB1D4400023C5E9004385
:1002BC003146BDE8F08702B9FFDEB2FA82F2002ABD
:1002CC0050D1CB1B4FEA174E1FFA87F80126B3FB10
:1002DC00FEFC210C0EFB1C3341EA034108FB0CF322
:1002EC008B4207D979180CF1FF3002D28B4200F205
:1002FC00E9808446C91AA3B2B1FBFEF00EFB1011C3
:10030C0043EA014408FB00F8A04507D93C1900F169
:10031C00FF3302D2A04500F2D9801846A4EB0804A2
:10032C0040EA0C40BFE78B4209D9002D00F0B180A8
:10033C000026C5E9000130463146BDE8F087B3FA26
:10034C0083F6002E4AD18B4202D3824200F2B8804F
:10035C00841A61EB030101208C46002DA8D0C5E95D
:10036C00004CA5E7C2F1200320FA03F6974001FAEE
:10037C0002F04FEA174ED9403043030CB1FBFEF6A6
:10038C001FFA87F80EFB161143EA014306FB08F12E
:10039C00994204FA02F409D9FB1806F1FF3C80F0EB
:1003AC008D80994240F28A80023E3B445B1A81B2B6
:1003BC00B3FBFEF00EFB103341EA034100FB08F3E4
:1003CC008B4207D9791800F1FF3C73D28B4271D95B
:1003DC0002383944CB1A40EA064678E7C6F1200CBD
:1003EC0003FA06F422FA0CF31C4320FA0CF701FA78
:1003FC0006F34FEA144E21FA0CF11F433B0CB1FBF0
:10040C00FEF91FFA84F80EFB191143EA014109FBAE
:10041C0008FA8A4502FA06F200FA06F308D96118BE
:10042C0009F1FF3048D28A4546D9A9F10209214485
:10043C00A1EB0A01BFB2B1FBFEF00EFB101147EAB3
:10044C00014700FB08F8B84507D9E71900F1FF315F
:10045C002ED2B8452CD90238274440EA0940A7EBE4
:10046C000807A0FB02894F45C64649461AD317D048
:10047C005DB1B3EB0E0267EB010707FA0CFCF2401F
:10048C004CEA0202F740C5E9002700263146BDE8D8
:10049C00F0872E4628460BE70646E9E61846FDE6A9
:1004AC004345E5D2B8EB020E69EB04010138DFE7F6
:1004BC000846D2E760468DE78146B9E7664675E7A0
:1004CC0030464AE7ACF1020C394413E702383C449D
:1004DC0024E700BF704700BF00B589B0002201922D
:1004EC00114B196B41F080011963196B01F08001FC
:1004FC00019101990292196B41F0010119631B6B77
:10050C0003F001030293029B4FF4807303930223C5
:10051C00049305920692079203A9044800F0E6FEA4
:10052C0009B05DF804FB00BF003802400000024037
:10053C0000B583B000230193124A116B41F4800182
:10054C001163126B02F480020192019A0E480F4A59
:10055C0002604360802282604FF40072C2604FF4EC
:10056C008062026143618361C3610362042242625F
:10057C0003228262C362036301F014F803B05DF8D6
:10058C0004FB00BF00380240280000201064024029
:10059C0008B50848084B03604FF4E133436000236F
:1005AC008360C36003610C2242618361C36100F00C
:1005BC0009FA08BD880000200010014030B595B044
:1005CC003022002108A801F0BFF900240394049400
:1005DC0005940694079401941E4B1A6C42F08052B9
:1005EC001A641B6C03F080530193019B02941A4B09
:1005FC001A6842F440421A601B6803F440430293A9
:10060C00029B0225089501230B9310230C930E9546
:10061C000F9408231093B42311931295042313936E
:10062C0008A800F0F9FA01F037F80F2303930495AA
:10063C0005944FF4A05306934FF480530793052170
:10064C0003A800F07DFD22462146204600F0DAFC8E
:10065C0015B030BD003802400070004008B501F004
:10066C00EBF8FFF7ABFFFFF737FFFFF761FFFFF783
:10067C008FFFFEE77047FEE7FEE7FEE7FEE77047F9
:10068C007047704708B501F0F1F808BD08B502488D
:10069C0000F026FA08BD00BF8800002082B00021BF
:1006AC0000910B4B5A6C42F480425A645A6C02F41F
:1006BC0080420092009A01911A6C42F080521A64A6
:1006CC001B6C03F080530193019B02B0704700BF79
:1006DC000038024010B588B00023039304930593AF
:1006EC0006930793026803F1804303F588339A421B
:1006FC0001D008B010BD0024019403F594335A6C5A
:10070C0042F010025A645A6C02F010020192019AE3
:10071C0002941A6B42F001021A631B6B03F0010383
:10072C000293029B4FF4C06303930223049305943A
:10073C00032306930723079303A9064800F0D6FD6D
:10074C0022462146252000F0F9FF252001F02AF849
:10075C00CFE700BF000002400268D36823F4907317
:10076C00D3600268536923F001035361202380F89E
:10077C003A30704790F83930DBB2212B01D002208F
:10078C0070478368B3F5805F17D0036A5A1C026206
:10079C001A7803685A60C38C9BB2013B9BB2C3842A
:1007AC004BB90268D36823F08003D3600268D36826
:1007BC0043F04003D36000207047036A1B88026833
:1007CC00C3F30803536003691BB9036A0233036262
:1007DC00E1E7036A01330362DDE7000070B504460C
:1007EC000268136923F44053C1680B431361836897
:1007FC000269134342691343C2691A430168CB6807
:10080C0023F4164323F00C031343CB6002685369A3
:10081C0023F4407381690B435361C369B3F5004FF3
:10082C0036D00368654A934200F09A8002F58062E4
:10083C00934200F0958000F039FD0026051846EB38
:10084C0006012D1846EB0101CB0043EA5573EA0073
:10085C001546194663689A009B0F281846EB010150
:10086C00FFF7BEFC564DA5FB00325109642303FB78
:10087C0011031B013233A5FB03235B0903F0F002C8
:10088C0002EB011203F00F03216813448B6093E019
:10089C0003684A4A934233D002F5806293422FD0C8
:1008AC0000F004FD0026051846EB06012D1846EB5A
:1008BC000101CB0043EA5573EA00154619466268FC
:1008CC003346921846EB0303281846EB0101FFF759
:1008DC0087FC3B4DA5FB00325109642303FB11033C
:1008EC00DB003233A5FB03235B095A0002F4F872D8
:1008FC0002EB011203F00703216813448B605BE0E9
:10090C0000F0E4FC0026051846EB06012D1846EB1A
:10091C000101CB0043EA5573EA001546194662689B
:10092C003346921846EB0303281846EB0101FFF7F8
:10093C0057FC234DA5FB00325109642303FB110323
:10094C00DB003233A5FB03235B095A0002F4F87277
:10095C0002EB011203F00703216813448B602BE0B8
:10096C0000F0B4FC0026051846EB06012D1846EBEA
:10097C000101CB0043EA5573EA001546194663683A
:10098C009A009B0F281846EB0101FFF729FC0C4D30
:10099C00A5FB00325109642303FB11031B01323305
:1009AC00A5FB03235B0903F0F00202EB011203F039
:1009BC000F03216813448B6070BD00BF0010014011
:1009CC001F85EB5158B310B5044690F839300BB372
:1009DC00242384F839302268D36823F40053D3607D
:1009EC002046FFF7FBFE2268136923F49043136142
:1009FC002268536923F02A0353612268D36843F4B5
:100A0C000053D3600020E063202384F8393084F84D
:100A1C003A3010BD80F83830FFF75CFED8E7012083
:100A2C007047704708B50168CA6822F04002CA6076
:100A3C00202280F83920FFF7F4FF002008BD704712
:100A4C0008B590F83A30DBB2222B46D18368B3F567
:100A5C00805F0FD003690BBB03685A68836A591C0B
:100A6C0081621A70C38D9BB2013B9BB2C385F3B1FB
:100A7C00002008BD826A036943B903685B68C3F34D
:100A8C0008031380836A02338362EBE703685B68B5
:100A9C00DBB21380836A01338362E3E703685B682C
:100AAC00826A511C816203F07F031370DAE70268DB
:100ABC00D36823F02003D3600268D36823F48073D7
:100ACC00D3600268536923F001035361202380F83B
:100ADC003A30FFF7B4FF0020CBE70220C9E770479C
:100AEC0010B5044602681368D168526913F00F0000
:100AFC0005D113F0200F02D011F0200F13D128B123
:100B0C0012F0010213D111F4907F10D113F0800F69
:100B1C0002D011F0800F6CD113F0400F02D011F005
:100B2C00400F6AD110BD2046FFF78AFFFAE713F099
:100B3C00010F06D011F4807F03D0E06B40F0010070
:100B4C00E06313F0040F04D01AB1E06B40F0020024
:100B5C00E06313F0020F04D01AB1E06B40F0040014
:100B6C00E06313F0080F07D011F0200F00D11AB179
:100B7C00E26B42F00802E263E26B002AD2D013F07F
:100B8C00200F02D011F0200F21D123685B6903F0F4
:100B9C004003E26B12F0080F00D123B32046FFF79D
:100BAC00DBFD23685A6912F0400F18D05A6922F005
:100BBC0040025A61636B73B1124A1A65606B00F0A4
:100BCC0057FD0028AED0606B036D9847AAE720460E
:100BDC00FFF736FFD9E72046FFF781FFA2E7204653
:100BEC00FFF77DFF9EE72046FFF779FF0023E363C5
:100BFC0098E72046FFF7BEFD94E72046FFF712FF6B
:100C0C0090E700BF150C000808B5806B0023C38566
:100C1C00C384FFF764FF08BD002800F0D98170B5CC
:100C2C0082B00446036813F0010F3BD0A64B9B68BF
:100C3C0003F00C03042B2CD0A34B9B6803F00C0388
:100C4C00082B21D06368B3F5803F4FD0B3F5A02FAC
:100C5C0052D09D4B1A6822F480321A601A6822F422
:100C6C0080221A606368002B50D000F00BFE054602
:100C7C00954B1B6813F4003F14D100F003FE401B8E
:100C8C006428F5D90320AAE18F4B5B6813F4800F1D
:100C9C00D8D08D4B1B6813F4003F03D06368002B36
:100CAC0000F09881236813F0020F54D0864B9B6898
:100CBC0013F00C0F3ED0844B9B6803F00C03082BF5
:100CCC0033D0E368002B67D0804B01221A6000F010
:100CDC00D9FD05467C4B1B6813F0020F53D100F075
:100CEC00D1FD401B0228F5D9032078E1764A136820
:100CFC0043F480331360B5E7734B1A6842F48022D7
:100D0C001A601A6842F480321A60ABE700F0BAFD40
:100D1C0005466D4B1B6813F4003FC3D000F0B2FDC9
:100D2C00401B6428F5D9032059E1674B5B6813F429
:100D3C00800FC6D1644B1B6813F0020F03D0E3681D
:100D4C00012B40F04981604A136823F0F8032169B4
:100D5C0043EAC1031360236813F0080F40D06369A2
:100D6C0063B35B4B01221A6000F08CFD0546564BB9
:100D7C005B6F13F0020F33D100F084FD401B02288F
:100D8C00F5D903202BE1504A136823F0F8032169AD
:100D9C0043EAC1031360DEE74C4B00221A6000F0FB
:100DAC0071FD0546484B1B6813F0020FD3D000F0C1
:100DBC0069FD401B0228F5D9032010E1444B0022A9
:100DCC001A6000F05FFD05463F4B5B6F13F0020F9E
:100DDC0006D000F057FD401B0228F5D90320FEE099
:100DEC00236813F0040F78D0374B1B6C13F0805F23
:100DFC000DD100230193344B1A6C42F080521A64CB
:100E0C001B6C03F080530193019B012500E000252E
:100E1C00304B1B6813F4807F21D0A368012B32D098
:100E2C00052B36D0284B1A6F22F001021A671A6F65
:100E3C0022F004021A67A368002B34D000F022FDC4
:100E4C000646214B1B6F13F0020F45D100F01AFD23
:100E5C00801B41F288339842F3D90320BFE01D4A2E
:100E6C00136843F48073136000F00CFD0646194BB5
:100E7C001B6813F4807FD0D100F004FD801B022886
:100E8C00F5D90320ABE0104A136F43F0010313674D
:100E9C00D1E70D4B1A6F42F004021A671A6F42F039
:100EAC0001021A67C7E700F0EDFC0646064B1B6F04
:100EBC0013F0020F10D000F0E5FC801B41F28833D8
:100ECC009842F3D903208AE00038024000004742E0
:100EDC00800E474200700040E5B9A369002B7DD01D
:100EEC00464A926802F00C02082A51D0022B17D005
:100EFC00434B00221A6000F0C5FC04463F4B1B68B4
:100F0C0013F0007F42D000F0BDFC001B0228F5D985
:100F1C00032064E0394A136C23F080531364DCE73C
:100F2C00374B00221A6000F0ADFC0546334B1B68B2
:100F3C0013F0007F06D000F0A5FC401B0228F5D969
:100F4C0003204CE0E369226A1343626A43EA82138A
:100F5C00A26A5208013A43EA0243E26A43EA026394
:100F6C00264A5360264B01221A6000F08BFC044683
:100F7C00224B1B6813F0007F06D100F083FC001B92
:100F8C000228F5D903202AE0002028E0002026E0E2
:100F9C00012B26D0194B5B6803F48001E269914266
:100FAC0021D103F03F02216A8A421ED1616A47F6C1
:100FBC00C0721A408A421AD103F44032A16A8A42A2
:100FCC0017D103F07063E26A934214D1002006E05B
:100FDC0001207047012002E0012000E0002002B057
:100FEC0070BD0120FBE70120F9E70120F7E70120A4
:100FFC00F5E70120F3E70120F1E700BF00380240DC
:10100C006000474270B588B00C46154600BB002303
:10101C000193204E326B42F001023263326B02F0CC
:10102C0001020192019A4FF48072039202220492FF
:10103C00032206920593079303A9174800F056F96B
:10104C00B36823F0EC632C431C43B46008B070BD50
:10105C00002302930F4E326B42F004023263326B68
:10106C0002F004020292029A4FF4007203920222DE
:10107C000492032206920593079303A9074800F0F4
:10108C0035F9B36823F0784344EAC5041C43B460D3
:10109C00DCE700BF003802400000024000080240BC
:1010AC00F8B5244B9B6803F00C03042B3DD0082BA4
:1010BC003DD1204B5A6802F03F025B6813F4800F5D
:1010CC0012D01C4B5968C1F3881100231A48A1FB9C
:1010DC000001FFF785F8174B5B68C3F3014301333D
:1010EC005B00B0FBF3F023E0124B5B68C3F3881397
:1010FC005C010025E41A65F10005AE0146EA946630
:10110C00A701381B66EB0501CC0044EA5074C500FE
:10111C00E81844F100018B0243EA90538402204604
:10112C0019460023FFF75CF8D5E7034800E00348B5
:10113C00F8BD00BF0038024040787D010024F40067
:10114C00002800F09B8070B50D4604464F4B1B6881
:10115C0003F00F038B4208D2CBB24C4A13701368C6
:10116C0003F00F038B4240F08B80236813F0020FC7
:10117C0017D013F0040F04D0454A936843F4E0539E
:10118C009360236813F0080F04D0414A936843F42A
:10119C00604393603E4A936823F0F003A1680B43CD
:1011AC009360236813F0010F32D06368012B21D0B8
:1011BC009A1E012A25D9364A126812F0020F61D004
:1011CC0033498A6822F0030213438B6000F05AFB08
:1011DC0006462F4B9B6803F00C036268B3EB820F3F
:1011EC0016D000F04FFB801B41F288339842F0D9A7
:1011FC00032042E0264A126812F4003FE0D101209D
:10120C003BE0234A126812F0007FD9D1012034E070
:10121C001E4B1B6803F00F03AB4207D9EAB21B4B02
:10122C001A701B6803F00F03AB422DD1236813F027
:10123C00040F06D0164A936823F4E053E1680B437D
:10124C009360236813F0080F07D0114A936823F4B6
:10125C006043216943EAC1039360FFF721FF0C4B04
:10126C009B68C3F303130B4AD35CD8400A4B18603A
:10127C000A4B186800F0BAFA002070BD01207047C4
:10128C000120FAE70120F8E70120F6E7003C0240D4
:10129C0000380240841900080800002004000020D7
:1012AC00014B1868704700BF0800002008B5FFF715
:1012BC00F7FF044B9B68C3F38223034AD35CD840EB
:1012CC0008BD00BF003802409419000808B5FFF7AC
:1012DC00E7FF044B9B68C3F34233034AD35CD8400B
:1012EC0008BD00BF003802409419000800230F2BE2
:1012FC0000F2E580F0B583B039E0092200E000226D
:10130C00B2403A4302346E4E46F824206D4A1468BB
:10131C00EA4324EA05064F6817F4803F01D045EAFA
:10132C000406684C2660646802EA04064F6817F4E9
:10133C00003F01D045EA0406624C6660A46802EAEC
:10134C0004064F6817F4801F01D045EA04065D4C73
:10135C00A660E46822404E6816F4001F01D045EAEE
:10136C000402584CE26001330F2B00F2A6800122DC
:10137C009A400C6804EA020532EA0404F3D14C6882
:10138C00661E012E03D9112C01D0122C12D18668A5
:10139C005F000324BC4026EA0406CC68BC403443FE
:1013AC008460466826EA02064C68C4F300129A4030
:1013BC0032434260C7685E000324B440E24327EA2C
:1013CC0004078C68B4403C43C4604C68022C01D0C8
:1013DC00122C13D1DF08083750F827E003F007046C
:1013EC004FEA840C0F2404FA0CF42EEA040E0C6958
:1013FC0004FA0CF444EA0E0440F827400468144044
:10140C004A6802F00302B240224302604A6812F0BA
:10141C00805FA8D0002201922B4A546C44F4804483
:10142C005464526C02F480420192019A9C08A61CEE
:10143C00234A52F8267003F0030296000F22B240A2
:10144C0027EA0207214A90423FF459AF02F5806225
:10145C00904222D002F58062904220D002F5806248
:10146C0090421ED002F5806290421CD002F5806240
:10147C0090421AD002F58062904218D002F5806238
:10148C00904216D002F58062904214D002F5806230
:10149C0090423FF432AF0A2232E7012230E70222B7
:1014AC002EE703222CE704222AE7052228E706224E
:1014BC0026E7072224E7082222E703B0F0BD704795
:1014CC0000380140003C014000380240000002405E
:1014DC0010B40368D9B210390C4AA2FB01421209AC
:1014EC000B4CA25CC2655F2909D923F47F7323F0EE
:1014FC00030304338365806D5DF8044B704723F45C
:10150C007F7323F003038365F5E700BFABAAAAAA98
:10151C007C190008836A826992B9012B0AD0022BCC
:10152C0002D00BB100207047C36A13F0807F28D122
:10153C0000207047C36AB3F1C07F24D000207047ED
:10154C00B2F5005F09D0022B25D9032B25D1C36A34
:10155C0013F0807F23D100207047032B03D8DFE8E2
:10156C0003F01404140A00207047C36A13F0807F40
:10157C000DD100207047C36AB3F1C07F09D00020A1
:10158C0070470120704701207047012070470120EF
:10159C0070470120704701207047002070470120E0
:1015AC007047000070B5044600F06CF9002C5BD05D
:1015BC000546002384F83430022384F83530226841
:1015CC00136823F00103136023681A6812F0010FEB
:1015DC000AD000F057F9431B052BF5D9202363657E
:1015EC00032084F8350070BD1A68204810406168EB
:1015FC00A2680A43E1680A4321690A4361690A4304
:10160C00A1690A43E1690A43216A0A430243616AF8
:10161C0004291ED01A602668756925F00705636ACF
:10162C001D43042B07D1A36A1D43E36A1BB120465B
:10163C00FFF770FF90B975612046FFF749FFE26D27
:10164C003F239340836000206065012384F835308C
:10165C00C9E7E16A206B01430A43DBE7402363657A
:10166C00012084F83500BEE70120BCE73F8010F074
:10167C0090F83530DBB2022B03D080234365012078
:10168C007047052380F835300268136823F0010396
:10169C00136000207047000010B582B00023019346
:1016AC00194B1A6C42F080521A641B6C03F0805375
:1016BC000193019B154B01221A6000F0E3F80446DC
:1016CC00134B5B6813F4803F08D100F0DBF8001B70
:1016DC00B0F57A7FF4D9032002B010BD0D4B012276
:1016EC001A6000F0CFF80446094B5B6813F4003F16
:1016FC0007D100F0C7F8001BB0F57A7FF4D90320AE
:10170C00EAE70020E8E700BF0038024040000E4244
:10171C000070004044000E42074AD36823F4E06393
:10172C001B041B0C000200F4E060034343F0BF6396
:10173C0043F40033D360704700ED00E030B4174B36
:10174C00DB68C3F30223C3F10704042C28BF042471
:10175C001D1D062D18D9033B4FF0FF3505FA04F477
:10176C0021EA0401994005FA03F322EA0303194321
:10177C0000280BDB0901C9B200F1604000F56140A3
:10178C0080F8001330BC70470023E5E700F00F0031
:10179C000901C9B2024B1954F4E700BF00ED00E097
:1017AC0014ED00E0002807DB00F01F0240090123C4
:1017BC009340024A42F82030704700BF00E100E03D
:1017CC000138B0F1807F0AD2064B5860064AF021EE
:1017DC0082F823100020986007221A6070470120BD
:1017EC00704700BF10E000E000ED00E010B50446CB
:1017FC000E4B18784FF47A73B3FBF0F30C4A106865
:10180C00B0FBF3F0FFF7DCFF68B90F2C01D9012016
:10181C000AE0002221464FF0FF30FFF78FFF054B07
:10182C001C60002000E0012010BD00BF0000002063
:10183C00080000200400002008B50B4B1A6842F485
:10184C0000721A601A6842F480621A601A6842F4D4
:10185C0080721A600320FFF75FFF0020FFF7C6FFBE
:10186C00FEF71CFF002008BD003C0240034A116833
:10187C00034B1B780B441360704700BFC80000205B
:10188C0000000020014B1868704700BFC800002002
:10189C00054BD3F8882042F47002C3F888204FF02F
:1018AC0000629A60704700BF00ED00E0DFF834D0B2
:1018BC00002103E00C4B5B58435004310B480C4B9C
:1018CC0042189A42F6D30B4A02E0002342F8043B3A
:1018DC00094B9A42F9D3FFF7DBFF00F011F8FEF742
:1018EC00BDFE704700000320AC190008000000206A
:1018FC000C0000200C000020CC000020FEE70000B3
:10190C0070B50D4D0D4C641BA4100026A64209D1D8
:10191C000B4D0C4C00F020F8641BA4100026A642C2
:10192C0005D170BD55F8043B98470136EEE755F8E4
:10193C00043B98470136F2E7A4190008A4190008E3
:10194C00A4190008A819000802440346934200D1C8
:10195C00704703F8011BF9E7F8B500BFF8BC08BCE9
:10196C009E467047F8B500BFF8BC08BC9E46704751
:10197C000006101600061016000000000000000003
:10198C000102030406070809000000000102030419
:08199C0080E8FF7F010000005C
:0419A400D101000865
:0419A800AD01000885
:0C19AC0001000000100000000024F40006
:04000005080018B91E
:00000001FF
