:020000040800F2
:10000000C8BD0220D5010008E93100083D310008D3
:10001000E5310008F1030008333E0008000000004D
:10002000000000000000000000000000AD350008E6
:100030007D04000800000000433200086936000813
:10004000EF010008EF010008EF010008EF010008D0
:10005000EF010008EF010008EF010008EF010008C0
:10006000EF010008EF010008EF010008EF010008B0
:10007000EF010008EF010008EF010008EF010008A0
:10008000EF010008EF010008EF010008EF01000890
:10009000EF010008EF010008EF010008D108000897
:1000A000EF010008EF010008EF010008EF01000870
:1000B000EF010008D5360008EF010008EF01000845
:1000C000EF010008EF010008EF010008EF01000850
:1000D000EF010008EF010008EF010008EF01000840
:1000E000EF010008EF010008EF010008EF01000830
:1000F000EF010008EF010008EF010008EF01000820
:10010000EF010008EF010008EF010008EF0100080F
:10011000EF010008EF01000811370008EF010008A7
:10012000EF010008EF010008EF010008EF010008EF
:10013000EF01000881050008EF010008EF01000849
:10014000EF010008EF010008EF010008EF010008CF
:10015000EF010008EF010008EF010008EF010008BF
:10016000EF010008EF010008EF010008EF010008AF
:10017000EF010008EF010008EF0100080000000097
:10018000EF010008EF010008EF010008EF0100088F
:10019000EF010008EF010008EF010008EF0100087F
:1001A000EF010008EF010008EF010008DFF80CD0B4
:1001B00000F0A4F80048004729730008C8BD0220D9
:1001C00080F308887047000030BF72B6704762B68F
:1001D000704700000648804706480047FEE7FEE7F4
:1001E000FEE7FEE7FEE7FEE7FEE7FEE7FEE7FEE7E7
:1001F00071360008AD0100082DE9F05F05460020CA
:1002000092469B4688460646814640241BE0284687
:1002100041464746224600F060F853465A46C01A07
:10022000914110D311461846224600F047F82D1A86
:1002300067EB01084F4622460120002100F03EF8FE
:1002400017EB00094E41201EA4F10104DFDC4846F3
:1002500031462A464346BDE8F09F40EA01039B072A
:1002600003D009E008C9121F08C0042AFAD203E02B
:1002700011F8013B00F8013B521EF9D27047D2B28F
:1002800001E000F8012B491EFBD270470022F6E77F
:1002900010B513460A4604461946FFF7F0FF2046FC
:1002A00010BD30B504460020034600E05B1C9342BD
:1002B00003D2E05CCD5C401BF8D030BD202A04DBCB
:1002C000203A00FA02F1002070479140C2F1200369
:1002D00020FA03F3194390407047202A04DB203AA8
:1002E00021FA02F00021704721FA02F3D040C2F156
:1002F000200291400843194670470000064C074D04
:1003000006E0E06840F0010394E8070098471034E5
:10031000AC42F6D3FFF74EFF18D3000838D30008DD
:1003200070B58C1810F8015B15F0070301D110F8B7
:10033000013B2A1106D110F8012B03E010F8016BE4
:1003400001F8016B5B1EF9D12B0705D40023521E67
:100350000DD401F8013BFAE710F8013BCB1A921CCF
:1003600003E013F8015B01F8015B521EF9D5A142CD
:10037000D8D3002070BD000010B5044619480068AD
:1003800020F0100017490860C021174801F00CF94F
:10039000252001F061FB1348001F006820F00200D7
:1003A0001049091F08601D2001F056FB0D48001F71
:1003B000006820F010000B49091F0860362001F08A
:1003C0004BFB3D2001F048FB012080F3108800BF6B
:1003D0006068064908602068FFF7F2FE034800687D
:1003E000804710BD443802400004024084000020D1
:1003F00000BFFEE710B50E480E4908604FF482704A
:10040000486000210B488160C160016141614FF487
:10041000007181612021C16100210162416281621C
:100420000A21C16201F0D6FF642000F0D9FB10BDA3
:1004300000340140D40A002010B50E480E4908606F
:100440004FF48270486000210B488160C1600161F7
:1004500041614FF4007181610821C1610021016295
:10046000416281620A21C16201F0B4FF642000F0A0
:10047000B7FB10BD00340140D40A002070470000D3
:1004800010B50C480C4908604FF4E1304860002179
:1004900009488160C16001610C21416100218161D5
:1004A000C16102F054FD18B1192104A003F0C4FC8D
:1004B00010BD000000100140D40900202E2E5C5316
:1004C000595354454D5C75736172745C75736172F8
:1004D000742E63000FB500200090019002900390ED
:1004E00004226946034802F0F3FF9DF8000004B0BF
:1004F00000BD000000000608016801F5805189690F
:1005000041F00202016801F580518A61704701687B
:1005100001F58051896941F40052016801F580516B
:100520008A61704738B5044600200090206800F5C5
:100530008050806940F48011206800F5805081610E
:10054000206800F5805080690090012000F048FB91
:100550000099206800F58050816138BD0146002077
:100560000A6802F0004252B90A6802F4004232B945
:100570000A6802F4807212B10A68C2F30D40704733
:1005800010B501E006F098FE0949886AFFF7E6FF1A
:100590000028F7D14FF480310548006800F58050FD
:1005A000416140210248006800F58050416110BD62
:1005B000140A002030B503461479557944EA052021
:1005C000084C0C442064D4782406957844EA054409
:1005D000557844EA0524157844EA0500014C0C449A
:1005E000606430BD0080024070B5AEB004460E4677
:1005F000002526B14FF40061E160C900A160002030
:10060000119012901390149015901690E06918B9FB
:100610004FF48060179001E0002017904FF40070B5
:100620001890002019901A901B901C901D9040204B
:100630001E9000201F9020902190229023902490C3
:1006400025902690802027900020289029902A909D
:100650002B902C902D902068056871480540DDE9AD
:10066000110108431399084314990843A1680843EA
:100670001599084316990843E168084317990843F8
:1006800018990843199908431A9908431B99084374
:1006900005432068056020680568012000F0A0FA85
:1006A00020680560DDE91C0108431E9908431F9975
:1006B0000843209908432199084322990843239924
:1006C00008432168486020684568012000F088FAE6
:1006D0002068456024982168886025982168C86052
:1006E000206885694FF641700540DDE9261040EA33
:1006F000014028990843299908432A9908432B99CE
:10070000084305432068856120688569012000F061
:1007100067FA20688561DDE92C0108432168C8611A
:100720002068C569012000F05BFA2068C5610020DF
:1007300001904FF000700290002003904FF40010E1
:1007400004900020059006900790089004200990DE
:10075000C0050A9040120B9080010C9040120D9041
:1007600080200E9000200F901090206800F580509F
:1007700085692C480540DDE90101084303990843D8
:1007800004990843059908430699084307990843C3
:1007900008990843099908430543206800F58050EB
:1007A0008561206800F580508569012000F018FA05
:1007B000206800F580508561DDE90A0108430C9945
:1007C00008430D9908430E9908430F9940EA8100A8
:1007D0001099084340F40001206800F58050016042
:1007E000206800F580500568012000F0F9F92068C4
:1007F00000F580500560A069012809D1206800F546
:100800008050C06908490843216801F58051C861DA
:10081000002120466269FFF7CDFE2EB070BD0000BA
:100820000F8120FF233FDEF84000010038B5044669
:10083000002000902068006840F0040021680860F3
:10084000206800680090012000F0CAF90098216833
:10085000086038BD38B50446002000902068006864
:1008600040F00800216808602068006800900120BE
:1008700000F0B6F900982168086038BD10B54FF453
:10088000A071002007F0A4FA0D490860A021002003
:1008900007F09EFA0B49086043F68831002007F004
:1008A00097FA0949086041F6C451002007F090FA10
:1008B0000649086000BF00BF00BF00BF002010BD98
:1008C00094000020980000209C000020A000002040
:1008D00010B54FF4007000F043FF10BD10B50022BA
:1008E00001B909E0012901D10A0205E0022901D17B
:1008F0000A0201E04FF440720B2800D9001D114B91
:100900001B6823F440730F4C236023461B6813437A
:10091000236023461B6823F0F803236023461B68EB
:10092000F82494FAA4F4B4FA84F400FA04F444F039
:1009300002042343034C236023461B6843F48033A3
:10094000236010BD103C02401C48006800F4007099
:10095000B0B11A48006820F400701849086000BF60
:100960000846006840F4006008600846006820F40B
:100970000060086000BF0846006840F4007008602E
:100980000E48006800F48060B0B10C48006820F4A4
:1009900080600A49086000BF0846006840F4805043
:1009A00008600846006820F48050086000BF0846D0
:1009B000006840F48060086070470000003C02401E
:1009C00010B502460020144B1B6823F44073124CF0
:1009D000236023461B6803432360032906D1234673
:1009E0001B68E41323430C4C23600EE0012906D15D
:1009F000094B1B6843F00403074C236005E0064BDA
:100A00001B6843F40043044C2360034B1B6843F40E
:100A10008033014C236010BD103C0240074A12682D
:100A200022F44072054B1A601A4612681A601A4680
:100A3000126842F001021A6001707047103C0240D7
:100A400010B50949096821F44071074C216021461D
:100A5000096841F4407121602146096841F00101B3
:100A600021600260436010BD103C0240084A1268D9
:100A700022F44072064B1A601A46126842F48072E1
:100A80001A601A46126842F001021A60018070472B
:100A9000103C0240084A126822F44072064B1A6069
:100AA0001A46126842F400721A601A46126842F03E
:100AB00001021A6001607047103C02402A48006839
:100AC000C0F3001040B12948C06940F01000274928
:100AD000C86110202449086023480068C0F3401012
:100AE00040B12248C06940F008002049C861202078
:100AF0001D4908601C480068C0F3801040B11B48C5
:100B0000C06940F004001949C861402016490860D6
:100B100015480068C0F3C01040B11448C06940F0E7
:100B200002001249C86180200F4908600E48006821
:100B3000C0F3002048B10D48C06940F001000B49E6
:100B4000C8614FF480700849086007480068C0F326
:100B5000400040B10548C06940F020000349C86129
:100B600002200149086070470C3C0240B409002093
:100B700070B50446002500201749C86100F01EFF2B
:100B8000054609E0601C38B124B100F017FF401B96
:100B9000A04201D9032070BD10480068C0F3004096
:100BA0000028EFD10D48006800F0010010B10120CD
:100BB0000A4908600948006800F4F970B0F5F97F47
:100BC00001D1012000E0002018B1FFF777FF0120DC
:100BD000E1E70020DFE70000B40900200C3C024000
:100BE00031B5002400F0EAFE044600BF00F0E6FE46
:100BF000001B00998842F9D338BD70B504460D46F4
:100C00001646002200BF94F84500012801D10220B9
:100C100070BD012084F8450000BF022084F8440024
:100C2000A56200221FE005EB42114FF00040086072
:100C300044F2F4504860C2EBC21000EB400006EBF7
:100C400080008860A069012803D1486820F0004036
:100C50004860581E904204D905EB42102030C8600D
:100C600000E0CD60521C9A42DDD3206800F5805030
:100C7000C560012084F8440000BF002084F84500CE
:100C800000BF00BFC4E770B504460D4616460022FB
:100C900000BF94F84500012801D1022070BD012059
:100CA00084F8450000BF022084F84400E562002279
:100CB0001BE005EB42114FF480100860C2EBC2103C
:100CC00000EB400006EB80008860E06918B9086816
:100CD00040F440000860581E904204D905EB4210D1
:100CE0002030C86000E0CD60521C9A42E1D32068F9
:100CF00000F580500561012084F8440000BF002009
:100D000084F8450000BF00BFC8E70146002200BFCD
:100D100091F84500012801D102207047012081F897
:100D2000450000BF022081F84400886A006800F096
:100D30000040002838D1886A006800F48070F0B163
:100D4000886B401C8863886B012801D1886A08631E
:100D50008B6A4B63886A0068C0F30D40021FCA6348
:100D6000086B83680B64886AC0688862012081F818
:100D7000440000BF002081F8450000BFCDE7886A2D
:100D8000006800F4007048B1886A086300234B6370
:100D900001238B63886AC068886205E0886B401C09
:100DA0008863886AC0688862012081F8440000BFB7
:100DB000002081F8450000BF0120AEE72DE9FC418D
:100DC0000446002500200190924E0027804614B969
:100DD0000120BDE8FC8194F8440028B9002084F883
:100DE0004500204600F024F900BF002000908A480A
:100DF000006840F48040884908600846006800F4B4
:100E00008040009000BF00BF8448006820F40000CC
:100E10008249086008460068216A08437F490860E3
:100E2000206800F58050006840F00101206800F55E
:100E30008050016000BF206800F58050006800F01D
:100E400001000028F7D12068056925F01C0501F094
:100E50001BF806467248864205D37248864202D283
:100E600045F008051AE06F48864205D36948864276
:100E700002D245F00C0511E06648864203D36A4869
:100E8000864200D20AE06848864205D36748864217
:100E900002D245F0040501E045F010052068056127
:100EA0004FF400420021204600F071FA48B14FF0A3
:100EB000010841462046FFF797FB012084F84400D3
:100EC00087E7FF20FFF78CFE606800287ED000F0E7
:100ED00075FD074600BF01AA0121204600F046F932
:100EE00000F06CFDC01BB0F5FA6F0FD94FF0010890
:100EF00041462046FFF778FB012084F8440000BFFC
:100F0000002084F8450000BF032062E7019800F04C
:100F100004000428DFD182020021204600F037FAC5
:100F200048B14FF0010841462046FFF75DFB012024
:100F300084F844004DE700F041FD074600BF01AAD8
:100F40000121204600F012F900F038FDC01BB0F579
:100F50007A7F0FD94FF0010841462046FFF744FB46
:100F6000012084F8440000BF002084F8450000BF41
:100F700003202EE7019800F020002028DFD101AAED
:100F80001F21204600F0F2F848B14FF00108414619
:100F90002046FFF729FB012084F8440019E7019857
:100FA00000F0100020B14FF40061E16002E00DE0BC
:100FB0000021E160019800F00400042802D1002122
:100FC000A1601DE04FF48041A16019E0E068C0F32A
:100FD000CF00A168C1F34F0140EA01020021204681
:100FE00000F0D5F948B14FF0010841462046FFF71F
:100FF000FBFA012084F84400EBE6FF20FFF7F0FD48
:1010000041462046FFF7F0FA012084F84400002012
:10101000DFE60000008793034438024004380140B3
:10102000002D3101C00E160200E1F50580D1F00857
:1010300010B586B0044600BF00BF002000904748AE
:10104000006840F00070454908600846006800F0FC
:101050000070009000BF00BF00BF00200090084655
:10106000006840F0806008600846006800F080601A
:10107000009000BF00BF00BF00200090084600683D
:1010800040F0006008600846006800F000600090D2
:1010900000BF00BF00BF00BF0020009008460068EE
:1010A00040F0010008600846006800F00100009070
:1010B00000BF00BF00BF002000900846006840F05D
:1010C000020008600846006800F00200009000BFBF
:1010D00000BF00BF002000900846006840F00400F8
:1010E00008600846006800F00400009000BF00BFE0
:1010F000082001900120029003900320049001A990
:10110000174800F03BFB01220821154800F050FC75
:10111000862001900220029000200390032004907A
:101120000B20059001A90E4800F028FB4FF46050F9
:10113000019001A90B4800F021FB3220019001A988
:10114000094800F01BFB002201213D2000F09FFC1C
:101150003D2000F08FFC06B010BD0000303802408A
:101160000000024000040240000802402DE9F04166
:1011700004460E4617460025A84694F844008228E7
:1011800002D10220BDE8F081822084F8440020686A
:10119000056905F01C05208A4FF4784101EAC0205A
:1011A0000543481100EA8610054325F0020545F085
:1011B00001052068056100F001FC804612E000F0A6
:1011C000FDFBA0EB0800B0F5803F09D3012084F8B7
:1011D000440000BF002084F8450000BF0320D1E791
:1011E0002068056905F001000028E8D12068406901
:1011F00080B23860012084F844000020C2E710B5B6
:10120000044600BF94F84500012801D1022010BD1A
:10121000012084F8450000BF022084F844002046E5
:10122000FFF718FB2046FFF701FB2046FFF77AF98E
:101230002046FFF76CF92046FFF75EF9012084F89D
:10124000440000BF002084F8450000BF00BFDEE777
:1012500070B5024600230025002400BF92F8450027
:10126000012801D1022070BD012082F8450000BF95
:10127000022082F8440049B9012082F8440000BFEE
:10128000002082F8450000BF0120ECE7D06A00682A
:1012900000F0004048B1122082F8440000BF002056
:1012A00082F8450000BF0120DDE740F2F4508142A2
:1012B00008D9B1FBF0F3B1FBF0F600FB161010B14A
:1012C0005B1C00E00123012B13D1D06A006840F0C1
:1012D0004050D66A3060C1F30C00D66A7060D06AA4
:1012E000006840F00040D66A3060D06AC068D062C2
:1012F00032E000242EE0D06A006820F04050D66A28
:1013000030602CB9D06A006840F08050D66A3060F6
:1013100040F2F450D66A7060581EA04210D1D06AD4
:10132000006840F00050D66A3060581EC0EBC01014
:1013300000EB4000A1EB8005C5F30C00D66A70609D
:10134000D06A006840F00040D66A3060D06AC06859
:10135000D062641C9C42CED3106800F58050406976
:1013600000F0040048B10426106800F58050466182
:101370000026106800F580504660012082F8440085
:1013800000BF002082F8450000BF00BF6BE72DE9D9
:10139000F04104460E4617460025A84694F844003E
:1013A000422802D10220BDE8F081422084F84400A6
:1013B0002068056905F01C05208A4FF4784101EA90
:1013C000C0200543481100EA8610054345F0020598
:1013D00045F00105B8B2216848612068056100F058
:1013E000EDFA804612E000F0E9FAA0EB0800B0F553
:1013F000803F09D3012084F8440000BF002084F816
:10140000450000BF0320CEE72068056905F0010014
:101410000028E8D1012084F844000020C3E7000040
:101420002DE9F04104460E460127002500BF26485D
:10143000007E012802D10220BDE8F081012022496E
:10144000087600BF4CF25030FFF792FB0746002FA2
:1014500032D1401E30602068012810D1207C6168A4
:10146000FFF7AEFA4CF25030FFF782FB0746174801
:10147000006848F204018843144908601AE0A5682E
:1014800012E0217C2846FFF729FA4CF25030FFF792
:101490006FFB07460D48006820F0FA000B49086012
:1014A0000FB1356005E06D1CD4E902100844A84274
:1014B000E7D800BFFFF748FA00BF002002490876CE
:1014C00000BF3846B8E70000B4090020103C0240D5
:1014D0000348006840F00040014908600020704760
:1014E000103C02402DE9F04106460F4614461D46C9
:1014F0004FF0010800BF1F48007E012802D10220E2
:10150000BDE8F08101201B49087600BF4CF2503045
:10151000FFF72EFB8046B8F1000F23D126B9E1B2C8
:101520003846FFF77BFA12E0012E04D1A1B238460B
:10153000FFF79CFA0BE0022E04D121463846FFF754
:10154000A9FA04E022462B463846FFF779FA4CF216
:101550005030FFF70DFB80460748006820F001007F
:101560000549086000BF00200249087600BF4046D8
:10157000C6E70000B4090020103C0240074800689C
:1015800000F0004030B1064804490C3908600548B5
:10159000086001E0012070470020FCE7103C024099
:1015A00023016745AB89EFCDF0B50C46002500223D
:1015B000002300219CE0012606FA01F504EA050259
:1015C000AA427DD106684FEA410C032707FA0CF7BF
:1015D000BE430660CF0800F1200656F827604F078B
:1015E0004FEAD76C0F2707FA0CF7BE434FEAD10C2E
:1015F00000F1200747F82C6086684FEA410C03276A
:1016000007FA0CF7BE438660476801268E40B74351
:101610004760C6684FEA410C032707FA0CF7BE4340
:10162000C660354E8F0856F827308E07370F0F26C5
:10163000BE403340314EB04201D100262DE0304E45
:10164000B04201D1012628E02E4EB04201D102263F
:1016500023E02D4EB04201D103261EE02B4EB042B6
:1016600001D1042619E02A4EB04201D1052614E02A
:10167000284EB04201D106260FE0274EB04201D1DC
:1016800007260AE0254EB04201D1082605E0244E87
:10169000B04201D1092600E00A268F073F0FBE4065
:1016A0009E4224D18E07370F0F2606FA07F3124EFB
:1016B0008F0856F827609E430F4F4FEA910C00E0C9
:1016C00015E047F82C60174E36689643154F3E607C
:1016D0003E1D366896433F1D3E603E1D366896436C
:1016E0003F1D3E603E1D366896433F1D3E60491CCF
:1016F0001029FFF460AFF0BD08380140000002403F
:101700000004024000080240000C024000100240A9
:101710000014024000180240001C02400020024059
:1017200000240240003C014010B50446B4F5807F1F
:101730000FD0B4F5007F0DD100BF0848006802F05B
:1017400037FE02F05FFD0028F7D1172000F076F990
:1017500001E000E000BF00BF10BD00007C010020E0
:1017600010B5044604480068204020B102480460D7
:101770002046FFF7D9FF10BD143C0140F8B50246E2
:101780000B460025002400200021E6E0012606FA91
:1017900001F51E6806EA0504AC4273D15E68022EAC
:1017A00002D05E68122E13D1CF0802F1200656F83F
:1017B00027004E07F70E0F26BE40B0434F07FF0E1F
:1017C0001E69BE403043CF0802F1200646F82700CC
:1017D00010684F000326BE40B0431E7906F0030692
:1017E0004F00BE40304310605E68012E08D05E6836
:1017F000022E05D05E68112E02D05E68122E13D123
:1018000090684F000326BE40B0434F00DE68BE40E4
:1018100030439060506801268E40B0431E79C6F375
:1018200000168E4030435060D0684F000326BE4003
:10183000B0434F009E68BE403043D0605E6806F003
:101840008056B6F1805FA8D100BF00260096454EB5
:10185000366846F48046434F3E603E46366806F49E
:101860008046009600BF00BF3F4E8F0856F8270005
:101870008E07370F0F26BE40B0433C4EB24202D116
:1018800000262EE068E03A4EB24201D1012628E05F
:10189000384EB24201D1022623E0374EB24201D186
:1018A00003261EE0354EB24201D1042619E0344E23
:1018B000B24201D1052614E0324EB24201D10626D1
:1018C0000FE0314EB24201D107260AE02F4EB2425C
:1018D00001D1082605E02E4EB24201D1092600E0D2
:1018E0000A268F073F0FBE4030431F4E8F0846F831
:1018F0002700284E3068A0435E6806F48036B6F5AF
:10190000803F00D12043234E3060361D3068A04315
:101910005E6806F40036B6F5003F00D120431D4E48
:10192000361D3060361D3068A0435E6806F48016B0
:10193000B6F5801F00D12043164E08363060361DA4
:101940003068A0435E6806F40016B6F5001F00D1AB
:101950002043104E0C363060491C1029FFF416AF9E
:10196000F8BD000044380240083801400000024041
:101970000004024000080240000C02400010024037
:101980000014024000180240001C024000200240E7
:1019900000240240003C0140024613690B400BB199
:1019A000012000E00020704742694A4042617047D0
:1019B0000AB1816101E00B0483617047014800684E
:1019C000704700008C00002002480068401C01495C
:1019D000086070478C00002010B50D48006840F486
:1019E00000700B4908600846006840F48060086099
:1019F0000846006840F480700860052000F086F812
:101A00000F2000F007F800F017F8002010BD0000CC
:101A1000003C024070B5044600F036FA4FF47A718B
:101A2000B0FBF1F5284601F02FF900222146501EA7
:101A300000F02DF8002070BD7047000000BF00F0DE
:101A40001F0201219140034A430942F8231000BFBD
:101A50007047000080E200E000BF00F01F0201219B
:101A60009140034A430942F8231000BF7047000029
:101A700080E100E000BF00F01F0201219140420917
:101A8000920002F1E022C2F8001100BF70472DE978
:101A9000F05F80460D461646002701F0A7FB07467B
:101AA00039462A46334601F00700C0F1070ABAF169
:101AB000040F02D94FF0040A01E0C0F1070AD14631
:101AC00000F1040ABAF1070F02D24FF0000A01E058
:101AD000A0F1030AD4464FF0010A0AFA09FAAAF162
:101AE000010A0AEA020A0AFA0CFA4FF0010B0BFA91
:101AF0000CFBABF1010B0BEA030B4AEA0B0421468A
:101B0000404601F07BFBBDE8F09F000000BF00F005
:101B10000702064B19684FF6FF031940044B0B43AD
:101B200043EA0221014B196000BF70470CED00E051
:101B30000000FA0538B5002400BF002000902348BB
:101B4000006840F08050214908600846006800F0B5
:101B50008050009000BF00BF0120010491FAA1F164
:101B6000B1FA81F11A4A42F82100FFF727FF044633
:101B700007E0FFF723FF001BB0F57A7F01D90320B0
:101B800038BD1448406800F48030B0F5803FF0D193
:101B90000120410491FAA1F1B1FA81F10C4A42F815
:101BA0002100FFF70BFF044607E0FFF707FF001BCC
:101BB000B0F57A7F01D90320E2E70648406800F4D7
:101BC0000030B0F5003FF0D10020D9E740380240A6
:101BD00000000E420070004070B504460E4600251D
:101BE000A748006800F00F00B0426FD2A4490E7001
:101BF0000846006800F00F00B04201D0012070BD1F
:101C0000207800F00200022807D19E48006820F0EA
:101C1000F000A16808439B490860207800F00100AB
:101C200000283ED06068012807D19648083800682F
:101C3000C0F34040B8B90120E1E76068022802D053
:101C40006068032807D18F4808380068C0F34060F7
:101C500048B90120D3E78B4808380068C0F340003A
:101C600008B90120CBE78748006820F003006168CD
:101C7000084384490860FFF7A1FE05466068012813
:101C800010D108E0FFF79AFE401B41F288318842EC
:101C900001D90320B3E77B48006800F00C0004285A
:101CA000F0D1CDE06068022811D108E0FFF786FE90
:101CB000401B41F28831884201D903209FE77148D7
:101CC000006800F00C000828F0D1B9E024E060685A
:101CD000032810D108E0FFF771FE401B41F2883164
:101CE000884201D903208AE76648006800F00C00AA
:101CF0000328F0D1A4E008E0FFF760FE401B41F2AA
:101D00008831884201D9032079E75E48006800F0F5
:101D10000C000028F0D193E0207800F002000228A7
:101D200007D15848006820F0F000A16808435549E1
:101D30000860207800F00100002877D06068012852
:101D400007D1504808380068C0F34040B8B90120B6
:101D500055E76068022802D06068032807D1494827
:101D600008380068C0F3406048B9012047E745489B
:101D700008380068C0F3400008B901203FE7414837
:101D8000006820F00300616808433E490860FFF7DF
:101D900015FE05466068012810D108E0FFF70EFE29
:101DA000401B41F28831884201D9032027E735489A
:101DB000006800F00C000428F0D137E060680228C9
:101DC00010D108E0FFF7FAFD401B41F2883188424C
:101DD00001D9032013E72B48006800F00C00082805
:101DE000F0D123E06068032810D108E0FFF7E6FD9A
:101DF000401B41F28831884201D90320FFE6214887
:101E0000006800F00C000328F0D10FE008E0FFF7B5
:101E1000D5FD401B41F28831884201D90320EEE60E
:101E20001848006800F00C000028F0D114490E702A
:101E30000846006800F00F00B04201D00120DEE645
:101E4000207800F00400042807D10E48006820F430
:101E5000E050E16808430B490860207800F0080072
:101E6000082808D10748006820F46040216940EA4A
:101E7000C100044908600F20FFF7CCFD0020BEE63A
:101E8000003C02400838024010B500F045F809490E
:101E9000096801F0F001F02292FAA2F2B2FA82F29D
:101EA000D140054A515CC8400449086008460068B2
:101EB00010BD0000083802401CD1000800000020BE
:101EC00010B5FFF7E1FF0749096801F4E0514FF44D
:101ED000E05292FAA2F2B2FA82F2D140024A515C86
:101EE000C84010BD083802401CD1000810B5FFF7EB
:101EF000CBFF0749096801F460414FF4604292FA50
:101F0000A2F2B2FA82F2D140024A515CC84010BD3E
:101F1000083802401CD1000870B5002100220023BF
:101F20000020274C246804F00C0424B1042C04D0B5
:101F3000082C41D103E0234840E023483EE0204CF8
:101F4000241F246804F03F011D4C241F246804F45E
:101F5000800484B11C4CB4FBF1F5194C241F246897
:101F600047F6C076344096FAA6F6B6FA86F6F440FE
:101F700005FB04F20FE0134CB4FBF1F5104C241FE9
:101F8000246847F6C076344096FAA6F6B6FA86F686
:101F9000F44005FB04F20A4C241F246804F4403486
:101FA0004FF4403595FAA5F5B5FA85F5EC40641C7B
:101FB0006300B2FBF3F001E0024800BF00BF70BD58
:101FC000083802400024F40040787D0138B504460A
:101FD0000025207800F00100002866D0F74800684E
:101FE00000F00C0004280DD0F448006800F00C004C
:101FF000082813D1F148001F006800F48000B0F5F4
:10200000800F0BD1ED4808380068C0F3404000282D
:102010004BD06068002848D1012038BD0020E74936
:10202000891F0870FFF7CAFC054608E0FFF7C6FCE9
:10203000401B41F28831884201D90320EDE7DF4897
:1020400008380068C0F340400028EFD12079DB4910
:10205000891F08706068A0B1FFF7B0FC054608E072
:10206000FFF7ACFC401B41F28831884201D90320C4
:10207000D3E7D24808380068C0F340400028EFD0CA
:1020800013E0FFF79BFC054608E0FFF797FC401BB9
:1020900041F28831884201D90320BEE7C748083899
:1020A0000068C0F340400028EFD1207800F0020023
:1020B000022869D1C148006800F00C0058B1BF483F
:1020C000006800F00C00082821D1BC48001F0068FF
:1020D00000F48000D8B9B94808380068C0F340005F
:1020E00020B1E068012801D0012096E7B348083804
:1020F000006820F0F800F82292FAA2F2B2FA82F216
:10210000216991400843AD49083908603CE0E06826
:1021100028B30120AA490860FFF750FC054606E0F5
:10212000FFF74CFC401B642801D9032075E7A34846
:1021300008380068C0F340000028F1D09F480838F4
:10214000006820F0F800F82292FAA2F2B2FA82F2C5
:1021500021699140084399490839086014E000203A
:1021600097490860FFF72AFC054606E0FFF726FCC2
:10217000401B642801D903204FE7904808380068C5
:10218000C0F340000028F1D1207800F008000828B2
:102190002CD16069A8B101208A490860FFF70EFCC4
:1021A000054606E0FFF70AFC401B642801D903201E
:1021B00033E782486C300068C0F340000028F1D05B
:1021C00014E000207F490860FFF7F8FB054606E0B1
:1021D000FFF7F4FB401B642801D903201DE7774873
:1021E0006C300068C0F340000028F1D1207800F086
:1021F000040004286FD100BF002000906F483830E1
:10220000006840F080506D49383108600846006829
:1022100000F08050009000BF00BF6B48006840F4A1
:10222000807069490860FFF7C9FB054606E0FFF7C3
:10223000C5FB401B642801D90320EEE66248006814
:1022400000F480700028F2D000205C4968310870EA
:10225000FFF7B4FB054608E0FFF7B0FB401B41F277
:102260008831884201D90320D7E654486830006895
:10227000C0F340000028EFD1207A5049683108703F
:10228000A068A0B1FFF79AFB054608E0FFF796FBB0
:10229000401B41F28831884201D90320BDE64748FE
:1022A00068300068C0F340000028EFD013E0FFF76B
:1022B00085FB054608E0FFF781FB401B41F28831B2
:1022C000884201D90320A8E63C4868300068C0F382
:1022D00040000028EFD1A069F0B33848006800F052
:1022E0000C00082872D0A069022850D1002034497F
:1022F0000866FFF763FB054606E0FFF75FFB401B40
:10230000642801D9032088E62C4808380068C0F307
:1023100040600028F1D1D4E90701084347F6C072B4
:1023200092FAA2F2B2FA82F2616A91400843012263
:10233000A16AC2EB51014FF4403292FAA2F2B2FA12
:1023400082F2914008434FF0706292FAA2F2B2FA20
:1023500082F2E16A914000E03AE008431749091F20
:102360000860012016490866FFF728FB054606E0CD
:10237000FFF724FB401B642801D903204DE60F48DA
:1023800008380068C0F340600028F1D020E0002049
:102390000B490866FFF712FB054606E0FFF70EFB48
:1023A000401B642801D9032037E604480838006838
:1023B000C0F340600028F1D10AE007E0083802408D
:1023C00000004742800E474200700040012024E692
:1023D000002022E610B504460CB9012010BD94F887
:1023E000510028B9002084F85000204600F036F84B
:1023F000022084F851002068006820F04000216825
:102400000860D4E901010843E168084321690843F1
:1024100061690843218B01F400710843E1690843B5
:10242000216A0843A16A0843216808600421A06961
:1024300001EA1040616A0843216848602168E06A47
:1024400008612068C06920F400602168C86100202C
:102450006065012084F851000020BFE710B586B008
:10246000044628492068884249D100BF00200090D6
:102470002548006840F40050234908600846006879
:1024800000F40050009000BF00BF00BF002000908B
:102490001D481438006840F010001B4914390860CA
:1024A0000846006800F01000009000BF00BF8814CC
:1024B0000190022002900020039003200490052048
:1024C000059001A91148FFF759F94FF40050019008
:1024D00001A90E48FFF752F94FF48040019001A97D
:1024E0000A48FFF74BF94FF4006001900120029079
:1024F00000200390049001A90448FFF73FF906B0BB
:1025000010BD000000340140443802400010024079
:102510002DE9FC4104460E4615461F464FF00008C3
:1025200094F8510001287AD106B115B90120BDE80F
:10253000FC8100BF94F85000012801D10220F6E789
:10254000012084F8500000BF222084F851000020B0
:102550006065A663A587E587A064E064A086E08641
:10256000A068B0F5004F05D12068006820F48040D5
:1025700021680860A06AB0F5005F0DD100BF206837
:10258000006820F40050216808602068006840F46A
:1025900000502168086000BF6068B0F5827F0ED1EE
:1025A000A06860B900BF002084F8500000BF2B462F
:1025B000324631462046009700F0A9F9B7E7206877
:1025C000006800F04000402805D02068006840F016
:1025D000400021680860E06810BB12E03B46002222
:1025E0000121204600F02EFE08B103209FE720685D
:1025F000C068C1B2A26B501CA0631170E08F401E76
:10260000E087E08F0128E9DCA06AB0F5005F28D1FF
:102610002068006840F480502168086021E093E061
:1026200012E03B4600220121204600F00BFE08B1DB
:1026300003207CE72068C068A16B0880A06B801C29
:10264000A063E08F401EE087E08F0128E9DCA06AEC
:10265000B0F5005F05D12068006840F48050216823
:1026600008603B4600220121204600F0EBFD08B146
:1026700003205CE7E06838B92068C068C1B2A26B8B
:10268000501CA063117006E02068C068A16B088030
:10269000A06B801CA063E08F401EE087A06AB0F5AD
:1026A000005F12D13B4600220121204600F0CAFD06
:1026B00028B1606D40F002006065032037E72068B4
:1026C000C06880B20190BDF804006068B0F5827FF8
:1026D0000DD1A068B0F5004F03D0A068B0F5806FB1
:1026E00005D12068006820F04000216808600120C2
:1026F00084F8510020688068C0F30018A06AB0F523
:10270000005F1BD1B8F1000F18D0606D40F00200DF
:10271000606500BF2068006820F4005021680860F0
:102720002068006840F400502168086000BF00BFC6
:10273000002084F8500000BF0120F8E600BF002010
:1027400084F8500000BFF2E60220F0E6F8B5044637
:102750000E4615461F4694F85100012873D106B164
:102760000DB90120F8BD00BF94F85000012801D137
:102770000220F7E7012084F8500000BF122084F8FF
:102780005100002060652663A586E586E064A064AC
:10279000A087E087A06AB0F5005F0DD100BF206878
:1027A000006820F40050216808602068006840F448
:1027B00000502168086000BFA068B0F5004F05D147
:1027C0002068006840F48040216808602068006844
:1027D00000F04000402805D02068006840F040002C
:1027E00021680860E06878BB606810B1E08E01285D
:1027F00008D1216B481C206308782168C860E08EEE
:10280000401EE08611E03B4600220221204600F0F7
:1028100019FD08B10320A5E7216B481C2063087847
:102820002168C860E08E401EE086E08E0028EADC69
:10283000A06AB0F5005F38D12068006840F480508D
:102840002168086031E060E0FFE7606810B1E08E69
:10285000012809D1206B00882168C860206B801C8A
:102860002063E08E401EE08612E03B4600220221FB
:10287000204600F0E7FC08B1032073E7206B0088D6
:102880002168C860206B801C2063E08E401EE086BB
:10289000E08E0028E9DCA06AB0F5005F05D1206871
:1028A000006840F48050216808603B460022022105
:1028B000204600F0C7FC28B1606D40F02000606544
:1028C00003204FE73B4601228021204600F0BAFC5E
:1028D00028B1606D40F020006065032042E7A068E9
:1028E00050B900BF002000902068C06800902068A8
:1028F0008068009000BF00BF012084F8510000BF35
:10290000002084F8500000BF2CE702202AE72DE9C0
:10291000F84F04460E4617461D46DDF828904FF046
:102920000008C24694F85180B8F1010F02D0B8F106
:10293000220F76D10EB107B115B90120BDE8F88F8D
:1029400000BF94F85000012801D10220F6E70120D1
:1029500084F8500000BF94F85100012802D13220C1
:1029600084F8510000206065A763A587E58726638A
:10297000A586E586A064E064A06AB0F5005F0DD18D
:1029800000BF2068006820F40050216808602068BB
:10299000006840F400502168086000BF20680068AB
:1029A00000F04000402805D02068006840F040005A
:1029B00021680860E068B0F5006F75D1606830B1DB
:1029C0006068B0F5827F0CD1E08E012809D1206BC0
:1029D00000882168C860206B801C2063E08E401E48
:1029E000E086E08EF0B9A06AB0F5005F05D12068FE
:1029F000006840F48050216808604B4600220121A5
:102A0000204600F01FFC08B1032097E72068C0684B
:102A1000A16B0880A06B801CA063E08F401EE08744
:102A2000C7E01BE131E04B4600220221204600F0C6
:102A300009FC08B1032081E7206B00882168C86089
:102A4000206B801C2063E08E401EE086E08E48B93B
:102A5000A06AB0F5005F05D12068006840F480509E
:102A6000216808604B4600220121204600F0EAFB65
:102A700008B1032062E72068C068A16B0880A06BE2
:102A8000801CA063E08F401EE087E08E0028CADC37
:102A900060680028C4D14B4600220121204600F086
:102AA000D1FB10B1032049E70AE02068C068A16BA0
:102AB0000880A06B801CA063E08F401EE08778E058
:102AC000606830B16068B0F5827F0BD1E08E01287C
:102AD00008D1216B481C206308782168C860E08E0B
:102AE000401EE086E08ED0B9A06AB0F5005F05D147
:102AF0002068006840F48050216808604B4600223E
:102B00000121204600F09EFB08B1032016E7206853
:102B1000C068A16B0870E08F401EE08749E030E09C
:102B20004B4600220221204600F08CFB08B1032016
:102B300004E7216B481C206308782168C860E08E98
:102B4000401EE086E08E48B9A06AB0F5005F05D16E
:102B50002068006840F48050216808604B460022DD
:102B60000121204600F06EFB08B10320E6E6206854
:102B7000C068C1B2A26B501CA0631170E08F401EF0
:102B8000E087E08E0028CBDC606890B94B460022DD
:102B90000121204600F056FB08B10320CEE6206854
:102BA000C068C1B2A26B501CA0631170E08F401EC0
:102BB000E087A06AB0F5005F12D14B4600220121E8
:102BC000204600F03FFB28B1606D40F002006065D8
:102BD0000320B3E62068C06880B20090BDF8000012
:102BE0004B4601228021204600F02CFB28B1606D6D
:102BF00040F0200060650320A0E6012084F8510029
:102C000020688068C0F3001AA06AB0F5005F1FD189
:102C1000BAF1000F1CD0606D40F002006065A06A40
:102C2000B0F5005F0DD100BF2068006820F40050AF
:102C3000216808602068006840F40050216808603E
:102C400000BF00BF002084F8500000BF012075E6DF
:102C500000BF002084F8500000BF6FE602206DE640
:102C6000042808D14FF0E021096941F004014FF038
:102C7000E022116107E04FF0E021096921F0040131
:102C80004FF0E0221161704770B504462546681E7A
:102C9000B0F1807F01D301200FE0681E4FF0E021EA
:102CA00048610F214FF0FF3000F0A8FA00204FF0EC
:102CB000E021886107200861002070BD70477047DF
:102CC00010B504460CB9012010BD94F8390028B99C
:102CD000002084F83800204600F00CF8022084F828
:102CE0003900211D206800F01BFD012084F8390007
:102CF0000020E9E738B5044600BF002000901748DF
:102D0000006840F00200154908600846006800F0BD
:102D10000200009000BF00BF012211461D20FEF7F7
:102D2000B6FE1D20FEF7A6FE00BF002000900B4857
:102D3000006840F01000094908600846006800F08B
:102D40001000009000BF00BF012211463620FEF7A0
:102D50009EFE3620FEF78EFE38BD00004038024051
:102D600001460868C06840F001000A68D060086841
:102D7000006840F001000A6810600020704770474A
:102D800010B5044620680069C0F34000D8B120683F
:102D9000C068C0F34000B0B16FF002002168086164
:102DA000012020762068806900F0030018B12046D9
:102DB000FFF7E5FF05E0204600F0ADF8204600F003
:102DC000ABF80020207620680069C0F38000D8B1FD
:102DD0002068C068C0F38000B0B16FF004002168C3
:102DE0000861022020762068806900F4407018B1E4
:102DF0002046FFF7C4FF05E0204600F08CF820468F
:102E000000F08AF80020207620680069C0F3C00036
:102E1000D8B12068C068C0F3C000B0B16FF008003E
:102E200021680861042020762068C06900F0030052
:102E300018B12046FFF7A3FF05E0204600F06BF82D
:102E4000204600F069F80020207620680069C0F371
:102E50000010D8B12068C068C0F30010B0B16FF0A6
:102E6000100021680861082020762068C06900F4FD
:102E7000407018B12046FFF782FF05E0204600F0C1
:102E80004AF8204600F048F80020207620680069C3
:102E900000F0010058B12068C06800F0010030B1B6
:102EA0006FF0010021680861204600F037F82068C3
:102EB0000069C0F3C01058B12068C068C0F3C010EA
:102EC00030B16FF08000216808612046FFF7F6FE00
:102ED00020680069C0F3801058B12068C068C0F352
:102EE000801030B16FF0400021680861204600F08A
:102EF0002DF820680069C0F3401058B12068C06800
:102F0000C0F3401030B16FF0200021680861204606
:102F1000FFF7D5FE10BD7047704700000749884293
:102F200005D1074909680A31054A116005E00549DC
:102F3000884202D10121044A117070475C0A0020C6
:102F4000D0000020980A002014000020704710B51F
:102F500004460CB9012010BDA06900B100E000BF1B
:102F600094F8390028B9002084F83800204600F091
:102F700025F8022084F839002068C06820F4005049
:102F80002168C860204600F03DFC2068006920F4FC
:102F90009040216808612068406920F02A0021687B
:102FA00048612068C06840F400502168C860002073
:102FB000E063012084F839000020CCE710B586B02A
:102FC00004461F492068884237D100BF0020009086
:102FD0001C48006840F010001A4908600846006864
:102FE00000F01000009000BF00BF00BF0020009064
:102FF00014481438006840F002001249143908607F
:103000000846006800F00200009000BF00BFC0202A
:1030100001900220029001200390022004900720DA
:10302000059001A90848FEF7A9FB002211462520BA
:10303000FEF72DFD2520FEF71DFD06B010BD00009A
:103040000010014044380240000402402DE9F047DE
:1030500004460D46164699464FF0000894F839800C
:10306000B8F1010F02D0B8F1220F65D105B116B940
:103070000120BDE8F08700BF94F83800012801D195
:103080000220F6E7012084F8380000BF0020E0634A
:1030900094F83900222803D1322084F8390002E064
:1030A000122084F83900A684E68428E0E08C401ED3
:1030B000E084A068B0F5805F14D14B4600228021E7
:1030C000204600F0B1FC08B10320D2E72F46388833
:1030D000C0F3080021684860206908B9AD1C0EE003
:1030E0006D1C0CE04B4600228021204600F09CFC29
:1030F00008B10320BDE715F8010B21684860E08C9A
:103100000028D3DC4B4600224021204600F08CFCF6
:1031100008B10320ADE794F83900322803D122200A
:1031200084F8390002E0012084F8390000BF002053
:1031300084F8380000BF9CE702209AE700BFFEE752
:103140001CB5FDF742F8002208212248FEF730FCAA
:10315000642001F06BF8012208211E48FEF728FCCC
:10316000642001F063F8FDF732F81B4800788DF811
:103170000000194840788DF80100174880788DF8D4
:1031800002001548C0788DF80300134800798DF8C7
:103190000400114840798DF8050010481049086076
:1031A0000120486081030E488160C910C160002180
:1031B0000182C0F814D0012181610021C1614FF466
:1031C00000010162FDF7FAFD08B900201CBD0120D5
:1031D000FCE700000000024040B3022000800240F3
:1031E000140A002000BFFEE7704700000248006894
:1031F000C0F30220704700000CED00E010B500287D
:1032000007DA0A07140E054A00F00F031B1FD454F7
:1032100003E00A07130E024A135410BD18ED00E034
:1032200000E400E070B50446002000BF06E00D7821
:1032300000EB8326A555491C451CA8B29042F6DB3D
:1032400070BD70472DE9F04104460E4617461D46F5
:103250004FF00008FEF7B2FB8046002F3ED132E06F
:10326000681C78B32DB1FEF7A9FBA0EB0800A842BB
:1032700029D92068406820F0E00021684860206873
:10328000006820F0400021680860A06AB0F5005F87
:103290000DD100BF2068006820F40050216808604C
:1032A0002068006840F400502168086000BF0120D9
:1032B00084F8510000BF002084F8500000BF0320B4
:1032C000BDE8F081FFE7206880683040B04201D15E
:1032D000012000E000200028C2D03BE030E0681C64
:1032E00070B32DB1FEF76AFBA0EB0800A84227D906
:1032F0002068406820F0E00021684860206800688D
:1033000020F0400021680860A06AB0F5005F0DD190
:1033100000BF2068006820F4005021680860206821
:10332000006840F400502168086000BF012084F864
:10333000510000BF002084F8500000BF0320BFE709
:10334000206880683040B04201D1012000E00020B8
:103350000028C4D10020B3E701463A48814201D297
:10336000002070473848814201D20120F9E73748F0
:10337000814201D20220F4E73548814201D2032084
:10338000EFE73448814201D20420EAE73248814223
:1033900001D20520E5E73148814201D20620E0E76D
:1033A0002F48814201D20720DBE72E48814201D21B
:1033B0000820D6E72C48814201D20920D1E72B48CA
:1033C000814201D20A20CCE7B1F1016F01D20B207A
:1033D000C7E72748814201D20C20C2E72548814235
:1033E00001D20D20BDE72448814201D20E20B8E76A
:1033F0002248814201D20F20B3E72148814201D205
:103400001020AEE71F48814201D21120A9E71E48D3
:10341000814201D21220A4E71C48814201D213202C
:103420009FE71B48814201D214209AE71948814244
:1034300001D2152095E71848814201D2162090E765
:1034400017208EE7004000080080000800C0000838
:10345000000001080000020800000408000006083F
:103460000000080800000A0800000C0800000E0810
:10347000004010080080100800C01008000011086B
:1034800000001208000014080000160800001808C8
:1034900000001A0800001C0800001E081FB50020CC
:1034A000009001900290039004226946064800F0C3
:1034B0000FF80D220DF103010448FCF7CEFE03487E
:1034C000007804B010BD00000000060838B80220E3
:1034D00030B503460C461546002206E0184600F0BB
:1034E00007F844F822001B1D521CAA42F6D330BD37
:1034F00001460868704700002DE9F04387B0044694
:103500000E4617464FF00009002001900025804626
:10351000B4F1006F02D304F0030010B107B0BDE8AE
:10352000F083FEF72BF8254604EB87081E488542FA
:103530001DD219E02846FFF7DBFF401C78B10020C0
:1035400002902846FFF708FF049001200590022012
:10355000069001A902A8FDF763FF08B106E02D1D42
:103560004CF25030FDF704FB4545E3D300BF4CF26D
:103570005030FDF7FDFA8146B9F1000F0FD10BE095
:10358000D6F800C06246002321460220FDF7AAFFBC
:1035900000B103E0241D361D4445F1D300BFFDF703
:1035A00097FF00BFBAE700000000FF1F7047000050
:1035B0002DE9F04192B00546884616461F46002484
:1035C00000BF002000902648006840F08050244949
:1035D00008600846006800F08050009000BF00BFFF
:1035E00000BF002000901F48006840F440401D4983
:1035F00008600846006800F44040009000BF00BF2B
:1036000001200690079002200C9041050D91CDF805
:1036100038800F951096119706A8FEF7D7FC044640
:103620000CB100BFFEE7FEF785FA04460CB100BFFF
:10363000FEE70F20019002200290002003904FF43B
:10364000A05004904FF480500590052101A8FEF78A
:10365000C3FA04460CB100BFFEE712B0BDE8F0812A
:10366000403802400070004010B5FEF7ADF910BDC3
:103670001448006840F4700012490860124800685D
:1036800040F001001049086000200F49083108602F
:103690000D4800680D4908400B4908600C48091D99
:1036A0000860081F006820F48020091F08600020BF
:1036B00005490C3108604FF000600249803908600C
:1036C0007047000088ED00E000380240FFFFF6FE82
:1036D0001030002410B50248FFF752FB10BD000067
:1036E0005C0A002070B505460C460748074908608B
:1036F0000846446000218160C5600161FFF7E0FA7F
:103700000248FFF72DFB70BD000400405C0A00205A
:1037100010B50248FFF734FB10BD0000980A0020E6
:10372000002202682C4B98420ED0B0F1804F0BD093
:103730002A4B984208D02A4B984205D0294B9842F0
:1037400002D0294B984201D1012300E000231BB194
:1037500022F070024B681A431F4B984220D0B0F100
:10376000804F1DD01D4B98421AD01D4B984217D048
:103770001C4B984214D01C4B984211D01B4B9842C2
:103780000ED01B4B98420BD01A4B984208D01A4BC4
:10379000984205D0194B984202D0194B984201D15A
:1037A000012300E000231BB122F44072CB681A43CE
:1037B00002608B68C3620B688362074B984202D039
:1037C000094B984201D1012300E000230BB10B69A2
:1037D000036301234361704700000140000400407F
:1037E00000080040000C004000040140004001407F
:1037F000004401400048014000180040001C004007
:10380000002000402DE9F0410446002520680569AC
:1038100025F44055E0680543206805612068C568C7
:1038200049F20C6085432169A06808436169084337
:10383000E169084305432068C5602068456925F4AF
:103840004075A069054320684561E069B0F5004F07
:1038500072D173492068884203D072492068884237
:1038600034D1FEF743FB00EBC00101EB00106168AF
:103870004900B0FBF1F06421B0FBF1F6FEF736FB36
:1038800000EBC00101EB001061684900B0FBF1F7EB
:10389000FEF72CFB00EBC00101EB00106168490052
:1038A000B0FBF1F06421B0FBF1F000EBC00101EBE3
:1038B0000010A7EB8000322101EB00106421B0FB67
:1038C000F1F066F31F1021688860A6E0FEF7F8FAB1
:1038D00000EBC00101EB001061684900B0FBF1F0A2
:1038E0006421B0FBF1F6FEF7EBFA00EBC00101EB4F
:1038F000001061684900B0FBF1F7FEF7E1FA00EB58
:10390000C00101EB001061684900B0FBF1F06421D7
:10391000B0FBF1F000EBC00101EB0010A7EB800061
:10392000322101EB00106421B0FBF1F066F31F10AF
:103930002168886071E0FFE739492068884203D038
:1039400038492068884234D1FEF7D0FA00EBC00134
:1039500001EB001061688900B0FBF1F06421B0FB5D
:10396000F1F6FEF7C3FA00EBC00101EB001061684D
:103970008900B0FBF1F7FEF7B9FA00EBC00101EBEB
:10398000001061688900B0FBF1F06421B0FBF1F038
:1039900000EBC00101EB0010A7EB8000322101EB2E
:1039A00000106421B0FBF1F066F31F1021688860FD
:1039B00033E0FEF785FA00EBC00101EB001061680F
:1039C0008900B0FBF1F06421B0FBF1F6FEF778FA64
:1039D00000EBC00101EB001061688900B0FBF1F75A
:1039E000FEF76EFA00EBC00101EB00106168890080
:1039F000B0FBF1F06421B0FBF1F000EBC00101EB92
:103A00000010A7EB8000322101EB00106421B0FB15
:103A1000F1F066F31F1021688860BDE8F0810000B6
:103A200000100140001401402DE9F04104460E460B
:103A300017461D464FF00008FDF7C0FF80469FBBAC
:103A40002BE0681C48B32DB1FDF7B8FFA0EB0800D0
:103A5000A84222D92068C06820F080002168C86090
:103A60002068C06820F020002168C8602068C06815
:103A700020F480702168C8602068406920F001004F
:103A800021684861012084F8390000BF002084F8D3
:103A9000380000BF0320BDE8F08120680068304096
:103AA000B04202D1012001E003E000200028C8D08C
:103AB00035E02AE0681C40B32DB1FDF77FFFA0EB95
:103AC0000800A84221D92068C06820F08000216841
:103AD000C8602068C06820F020002168C8602068A5
:103AE000C06820F480702168C8602068406920F0B8
:103AF000010021684861012084F8390000BF0020DE
:103B000084F8380000BF0320C5E720680068304013
:103B1000B04201D1012000E000200028CAD10020DD
:103B2000B9E700002DE9F0414FF00008002600271A
:103B3000002400251D21002004F04AF90446002C31
:103B400079D062480078242809D160484078242838
:103B500005D11D225D492046FCF77FFB03E01D21B6
:103B60002046FCF793FB94F80A802789B8F1880F68
:103B700025D0B8F1C10F7DD11621E01C00F04AF923
:103B80000646A07EB04219D1D4F80B005049C1F8C6
:103B90000600D4F80F00C1F80A00E07C88730846DC
:103BA000D0F80A10002004F013F94A490860642094
:103BB00000F03CFB4848007800F092F87EE040F2CC
:103BC0000E41002004F004F9054615B340F20E4101
:103BD0002846FCF75BFB40F20E423C492846FCF7C6
:103BE0003CFBF91DE81C00F015F9064695F80B049E
:103BF000B04205D007F10B003449085CB04209D14E
:103C0000354803783A4605F10B0132480068FFF762
:103C100009FB00E052E030480078401C2E49087053
:103C20002B48D0F806000978884205D92A48007840
:103C300000F056F83CE042E02548D0F8060026495E
:103C40000978884233D12248D0F80A102148006808
:103C500000F0E0F806461E48807BB04220D11E48A6
:103C6000007800F03DF81A48D0F80A201948016899
:103C70001A4800E021E001F09BFD2146002004F0FD
:103C800095F814480168002004F090F829460020B7
:103C900004F08CF80020104908700120BDE8F08184
:103CA0000D490978491CC8B200F01AF800E000BFBD
:103CB0002946002004F07AF800E000BF00BF21464A
:103CC000002004F073F80020E8E7000088B3022029
:103CD000A40100207C0000207800002000000108E2
:103CE00070B5054600241021002004F071F8044648
:103CF000002C36D014212046FCF7C8FA242020706E
:103D000042F2014000F068FAA4F80100174908687F
:103D100000F068FAC4F803001020E0710820208148
:103D20008820A072A4F80B500A21E01C00F072F861
:103D3000607343F2355000F04FFAE08110222146C3
:103D40000B48006808F0AAFD0A48007800F040001F
:103D500028B10848007820F040000649087003F0B8
:103D6000A6FA2146002004F021F870BD107AFF1F4A
:103D7000D8000020E000002070B5002500260024B7
:103D80001421002004F024F80446002C39D014211A
:103D90002046FCF77BFA2420207042F2014000F01C
:103DA0001BFAA4F80100194806680146086800F0EB
:103DB00019FAC4F803001020E071082000F00CFA92
:103DC0002081C020A0720120E07200212173012116
:103DD00061730020A0730021E173012121740E2181
:103DE000E01C00F017F8607443F2355000F0F4F96D
:103DF0006082142221460648006808F04FFD03F057
:103E000056FA2146002003F0D1FF70BD107AFF1F43
:103E1000D800002010B502460B4600200021107883
:103E2000012103E0545C0444E0B2491C9942F9D9F1
:103E300010BD00BFFEE7000000BF13A2582114A070
:103E400000F03CF8012080F3108800BF00BF00BFE5
:103E500000BF00BF00BFBFF34F8F00BF00BF00BF58
:103E60001448006800F4E06013490843001D11493C
:103E7000086000BF00BF00BFBFF34F8F00BF00BF8F
:103E800000BF00BF00BFFDE76D61696E2E630000DB
:103E90000D0A5265626F6F742064657669636520F0
:103EA0006174206C696E6520256420696E2025731D
:103EB0000D0A00000CED00E00000FA050FB4054B00
:103EC00010B503A9044A029800F018F810BC5DF878
:103ED00014FB000071570008A001002002E008C890
:103EE000121F08C1002AFAD170477047002001E074
:103EF00001C1121F002AFBD1704700002DE9FF4FBE
:103F00008DB09B460F460446002606E025280BD0C0
:103F10005A460F999047641C761C20780028F5D1EA
:103F200011B03046BDE8F08F0025A846012298491F
:103F300000E0054314F8013F203B02FA03F0084279
:103F4000F7D120782E2817D114F8010F45F0040579
:103F50002A280ED06FF02F022078A0F13001092915
:103F60000AD808EB880102EB410100EB0108641C50
:103F7000F2E757F8048B641C20786C280DD004DC21
:103F80004C2812D06A2811D104E074280DD07A2868
:103F90000CD10AE045F4001507E0617845F480157E
:103FA000814202D1641C05F58015641C2278692ABF
:103FB00045D008DC002AB3D0582A69D0632A10D033
:103FC000642A08D13BE0702A67D0732A13D0752A7F
:103FD0005CD0782A5CD010465A460F999047761CE0
:103FE000D3E017F8040B8DF8000000208DF80100D5
:103FF000E946012003E057F8049B4FF0FF306907C2
:104000004FF0000501D40AE06D1C45450DDA8542EC
:10401000FADB19F805100029F6D106E06D1C85427F
:10402000FCDB19F805100029F8D12E4404E019F83A
:10403000010B5A460F9990476D1EF8D2A5E00A2051
:104040000021CDE90801C5F3025002280DD001CFAF
:10405000C117031E71F100030DDA4FF0000CD0EB15
:104060000C006CEB01012D2308E0FF1D27F0070772
:10407000F7E80201EDE72B0504D52B238DF8283056
:1040800001233BE0EB0739D02023F7E70A2000E0CB
:1040900010200021CDE9080107E01020002145F0A3
:1040A0000405CDE908014FF00808C5F302500228C5
:1040B0000FD001CF00214FF0000A2B071FD5702A27
:1040C0000DD0DDE908C38CF0100C5CEA030C0CD0B9
:1040D00015E0FF1D27F00707F7E80201EBE7402294
:1040E0008DF828204FF0010A0BE050EA010306D0BA
:1040F00030238DF828308DF8292002239A46582A3B
:1041000004D024A20DF120090B9209E026A2F9E7C0
:10411000DDE90823FCF770F80B9B9B5C09F8013D77
:1041200050EA0102F4D1ADEB090020300890680795
:1041300001D44FF001080899884502DDA8EB010081
:1041400000E000208046002506E00AA85A46405DAF
:104150000F9990476D1C761C5545F6DB04E0302026
:104160005A460F999047761CB8F10001A8F1010852
:10417000F5DC05E019F8010B5A460F999047761CBB
:104180000899481E08900029F4DC641CC5E600006C
:10419000092801003031323334353637383961621D
:1041A00063646566000000003031323334353637E1
:1041B00038394142434445460000000010B50446EA
:1041C00001F0E2F80022034941F2883005F072F86C
:1041D00010BD0000BD4100080146081240EA012060
:1041E00080B2704701464FF0FF2000EA01204FF0F7
:1041F000FF1202EA112240EA0201080C40EA0140E3
:104200007047000010B54FF400710248FDF7C4FB81
:1042100010BD00000010024010B504460420FEF757
:104220001FFD0148046010BD9000002030B5044619
:10423000002504E04FF47A7000F004F86D1CA542EC
:10424000F8D330BD70B5034600224FF0E026756903
:104250000D4E366803FB06F44FF0E026B16910E01E
:104260004FF0E026B06988420BD0884202D20E1A85
:10427000324402E02E1A0E4432440146A24200D3D8
:1042800000E0EDE700BF70BD9000002070B505466E
:104290000C462046FCF7A4FC70BD704738B50446B8
:1042A0000020C4F81D0084F82100052004F11D033E
:1042B00000220F210090204600F0C2F938BD38B529
:1042C000044601230D22052104F11D0004F02EFFF8
:1042D00001230A22052104F11D0004F027FF012318
:1042E0001222052104F11D0004F020FF01230C22FD
:1042F000052104F11D0004F019FF01230F220521FF
:1043000004F11D0004F012FF01230E22052104F127
:104310001D0004F00BFF01231022052104F11D00F4
:1043200004F004FF052004F11D0300220F2100907A
:10433000204600F085F938BD38B5044601230A222D
:10434000052104F11D0004F0F1FE052004F11D0318
:1043500000220F210090204600F072F938BD38B5D8
:10436000044601230422052104F11D0004F0DEFEB1
:1043700001230522114604F11D0004F0D7FE01239C
:104380000622052104F11D0004F0D0FE01230722BE
:10439000052104F11D0004F0C9FE052004F11D03F0
:1043A00000220F210090204600F04AF938BD00009D
:1043B00010B50446204600F0FEF8204600F080F8D4
:1043C00028B13248006810B1304800688047204664
:1043D00000F0DBF838B1E06B28B12046E16B88478C
:1043E0002046FFF7BCFF204600F0C6F840B1284841
:1043F000006828B12648006880472046FFF79CFFE8
:10440000204600F086F890B12248006878B1214833
:10441000006880472046FFF752FF94F8300088B3C9
:10442000204600F0BBF8204600F046F92AE020467E
:1044300000F099F888B1606C78B12046616C8847CB
:104440002046FFF73CFF94F83000D8B1204600F03A
:10445000A5F8204600F030F914E0204600F046F8B8
:1044600080B1206C70B12046216C88472046FFF750
:1044700026FF94F8300028B1204600F08FF820463F
:1044800000F01AF92046FFF709FF10BD9401002043
:104490009C0100209801002038B504460020A0604F
:1044A000207A40F04000207200202073042004F1A4
:1044B000080300220D210090204600F0C1F838BD0D
:1044C00070B504461922052104F11D0001F060F9C0
:1044D00005461822052104F11D0001F059F9064690
:1044E00005B90EB1012070BD0020FCE710B50446EF
:1044F00094F82F0030B10E22052104F11D0001F0C7
:1045000047F910BD0D22052104F11D0001F040F90D
:10451000F7E72DE9F04104461222052104F11D00C0
:1045200001F036F905460F22052104F11D0001F0C6
:104530002FF906460C22052104F11D0001F028F98F
:1045400007461022052104F11D0001F021F98046E3
:1045500025B91EB917B9B8F1000F02D00120BDE886
:10456000F0810020FBE710B504461122052104F17B
:104570001D0001F00DF910BD10B504460A220521F9
:1045800004F11D0001F004F910BD10B50446072226
:10459000052104F11D0001F0FBF810BD10B5044623
:1045A0002046FFF779FF0020A0602046FFF787FE36
:1045B0000120207310BD38B50446052004F11D0309
:1045C00000220F210090204600F001F838BD2DE9AF
:1045D000FC4705460E4614461F46DDF8288000209D
:1045E00001904FF0010906F03F008DF80400DCB1A6
:1045F0009DF8040040F040008DF8040004F07F00B6
:104600008DF80500E4094FF002096CB19DF8050032
:1046100040F080008DF805009DF80600E1B20843E7
:104620008DF806004FF00309CDF8008028683B465E
:104630004A4601A9D0F800C02846E047BDE8FC87FB
:104640002DE9FC4705460E4614461F46DDF8288036
:10465000002001904FF0010906F03F008DF80400A2
:104660009DF8040040F080008DF80400C4B19DF86E
:10467000040040F040008DF8040004F07F008DF845
:104680000500E4094FF0020954B19DF8050040F01F
:1046900080008DF80500E0B28DF806004FF00309A8
:1046A000CDF8008028683B464A4601A9D0F804C0EE
:1046B0002846E047BDE8FC8738B5044694F82F004B
:1046C00008B9012000E0002003460022042104F183
:1046D000080004F02BFD01230822042104F1080046
:1046E00004F024FD042004F1080300220D210090B1
:1046F0002046FFF7A5FF38BD2DE9FC470546884653
:10470000164600BF55B900BF47A340F2BB2250A1D7
:1047100053A0FFF7D3FB00BFBDE8FC8700BF708943
:104720002A2803DA304604F063F9F5E7776807F1E1
:104730000E042088B0F5807F08D12079062805D1A5
:104740006079042802D16088082803D0304604F03C
:104750004FF9E1E7D4F80E000190A0690090281D00
:1047600008B1686810B94FF0000907E0009869685F
:10477000884201D1012000E000208146B9F1000FFC
:1047800001D0012000E00220034604F1080201A943
:10479000284600F03FFEE088B0F5807F03D0B0F5FA
:1047A000007F3AD138E0B9F1000F33D0022002F097
:1047B0005EFDE080D4F80E00A0616868C4F80E00C9
:1047C00000BF95F82200062808D000BF16A340F2CB
:1047D00011322E4922A0FFF771FB00BF00BFA06875
:1047E000C4F81200A089E082A0683860A089B8806F
:1047F000D8F80000A060B8F80400A081D8F8000044
:10480000C7F80600B8F80400788131462846AA693E
:10481000904700E000BF01E000E000BF00BF30466D
:1048200004F0E6F800BF77E72E2E5C4C5749505C49
:104830006C7769702D312E342E315C7372635C6E2F
:10484000657469665C6574686172702E630000004F
:104850006E6574696620213D204E554C4C00000069
:10486000417373657274696F6E202225732220660E
:1048700061696C6564206174206C696E65202564D3
:1048800020696E2025730D0A0000000004D2000884
:104890002DE9FE4F064688464FF00A09CA460A2708
:1048A0000024002002900190BB46009000BF6BE006
:1048B00004EB84006F4901EB8000857C0A2F02D154
:1048C0000DB967B25EE0002D5CD000BF012D0AD0AB
:1048D000022D08DA00BF68A340F22B1270A180A05D
:1048E000FFF7ECFA00BF00BF5EB104EB8401614A40
:1048F00002EB810130684968884202D160B2BDE8AC
:10490000FE8F012D2AD104EB84005A4951F8200072
:1049100088B104EB840001EB8000C17C00988142E7
:1049200030DB4FFA84FB04EB8400524901EB80003A
:10493000C07C009026E004EB84004E4901EB80002F
:10494000C17C029881421DDB4FFA84F904EB84009C
:10495000484901EB8000C07C029013E0022D11DB7E
:1049600004EB8400434901EB8000C17C0198814243
:1049700008DB4FFA84FA04EB84003E4901EB800027
:10498000C07C0190601CC4B20A2C91DB08F00200CC
:1049900020B90A2F05D108F0010010B94FF0FF30FF
:1049A000ADE70A2F01DAFCB234E0BAF10A0F12DAED
:1049B0000AF0FF0400BF04EB84002E4951F82000E8
:1049C00040B100BF2CA340F2711250A144A0FFF7E8
:1049D00075FA00BF0EE0B9F10A0F02DA09F0FF0420
:1049E00008E0BBF10A0F02DA0BF0FF0402E04FF01F
:1049F000FF3084E700BF0A2C08DB00BF1EA340F293
:104A0000831248A136A0FFF759FA00BF00BF204625
:104A100000F0A8F800BF0A2C08DB00BF16A340F284
:104A2000871240A12EA0FFF749FA00BF00BF00BFC8
:104A300004EB84000F4901EB8000807C40B100BF93
:104A40000DA34FF4C4723CA125A0FFF737FA00BFB5
:104A500000BF36B104EB8401064A02EB81013068E5
:104A60004860002004EB8401024A02EB8101C87413
:104A700060B244E748B802202E2E5C4C5749505C87
:104A80006C7769702D312E342E315C7372635C6EDD
:104A9000657469665C6574686172702E63000000FD
:104AA0007374617465203D3D204554484152505F08
:104AB00053544154455F50454E44494E47207C7CF9
:104AC000207374617465203E3D2045544841525026
:104AD0005F53544154455F535441424C45000000DC
:104AE000417373657274696F6E202225732220668C
:104AF00061696C6564206174206C696E6520256451
:104B000020696E2025730D0A000000006172705F3D
:104B10007461626C655B695D2E71203D3D204E5570
:104B20004C4C000069203C204152505F5441424CA3
:104B3000455F53495A4500006172705F7461626C51
:104B4000655B695D2E7374617465203D3D2045543D
:104B5000484152505F53544154455F454D5054595C
:104B60000000000010B5044604EB84000C4951F825
:104B7000200060B104EB8401094A52F8210003F0DF
:104B800037FF002004EB8401054A42F82100002091
:104B900004EB8401024A02EB8101887410BD00001D
:104BA00048B802202DE9FC4704460F461546A946A1
:104BB00000BF44B900BF59A340F2753261A165A09E
:104BC000FFF77CF900BF00BF00BF47B900BF53A388
:104BD00040F276326AA15FA0FFF770F900BF00BF14
:104BE00000BF45B900BF4DA340F2773267A159A07D
:104BF000FFF764F900BF00BF0E21384603F0CAFF7B
:104C000018B16FF00100BDE8FC872146286801F06B
:104C100055F810B1DFF8848177E0287800F0F000D3
:104C2000E02815D101208DF8000000208DF801004A
:104C30005E208DF80200687800F07F008DF8030098
:104C4000A8788DF80400E8788DF80500E8465BE068
:104C50002868A1680840D4E901121140884210D0A8
:104C6000288880B24FF6A96188420AD004F10C006E
:104C700020B1E06810B104F10C0902E06FF003000C
:104C8000C1E74748007800EB8000464901EB80000F
:104C9000807C022812DB4249097801EB8101414AFC
:104CA00002EB8101D9F800004968884206D13C48EE
:104CB00002783946204600F077F8A4E700261BE08A
:104CC00006EB8600374901EB8000807C022811DB6F
:104CD00006EB8601334A02EB8101D9F800004968EE
:104CE000884207D12E490E70F2B23946204600F0B4
:104CF0005BF888E7701C46B20A2EE1DB3A4649466B
:104D0000204600F0DBF87EE700BF434604F12302B3
:104D10003946204600F0E2FA75E700002E2E5C4C82
:104D20005749505C6C7769702D312E342E315C738D
:104D300072635C6E657469665C6574686172702E1E
:104D4000630000006E6574696620213D204E554C5D
:104D50004C000000417373657274696F6E202225E8
:104D60007322206661696C6564206174206C696ED1
:104D70006520256420696E2025730D0A000000005F
:104D80007120213D204E554C4C000000697061643B
:104D9000647220213D204E554C4C000050D100083B
:104DA000E200002048B8022070B505460E461446C1
:104DB00000BF04EB84001F4901EB8000807C0228C7
:104DC00008DA00BF1CA34FF4537225A130A0FFF7EF
:104DD00075F800BF00BF04EB8400164901EB8000AA
:104DE000807C022817D104EB840001EB8000C07C9A
:104DF000E42810DB04EB84000A4602EB8000011D6E
:104E0000284600F055FA30B9032004EB8401094A22
:104E100002EB8101887404EB8400064901EB8000F9
:104E200000F10C0305F123023146284600F056FA42
:104E300070BD000048B802202E2E5C4C5749505CD3
:104E40006C7769702D312E342E315C7372635C6E19
:104E5000657469665C6574686172702E6300000039
:104E60006172705F7461626C655B6172705F6964CE
:104E7000785D2E7374617465203E3D204554484131
:104E800052505F53544154455F535441424C450086
:104E9000417373657274696F6E20222573222066D8
:104EA00061696C6564206174206C696E652025649D
:104EB00020696E2025730D0A000000002DE9F05FC7
:104EC00080460F46164608F123094FF0FF3A414647
:104ED000386800F0F3FE38B9387800F0F000E028C8
:104EE00002D00FB1386818B96FF00D00BDE8F09F1F
:104EF00001213846FFF7CCFC0446002C01DA20469D
:104F0000F4E704EB84005A4901EB8000807C30B95F
:104F1000012004EB8401564A02EB8101887400BF32
:104F200004EB8400524901EB8000807C01280FD003
:104F300004EB840001EB8000807C022808DA00BFCB
:104F40004CA340F2194255A15EA0FEF7B7FF00BF87
:104F500000BF04EB8400464901EB8000807C0128FF
:104F600000D03EB93946404600F0A2F982460EB95B
:104F70005046BBE700BF46B900BF3EA340F22D42FA
:104F80005BA150A0FEF79AFF00BF00BF04EB8400B6
:104F9000374901EB8000807C02280FDB57490C70F9
:104FA00004EB8400324901EB800000F10C034A4617
:104FB0003146404600F092F9824657E004EB840007
:104FC0002B4901EB8000807C01284FD14FF0000B72
:104FD000354617E000BF6889298988420AD12868C8
:104FE00040B100BF23A340F23E4245A135A0FEF7E9
:104FF00065FF00BF00BF287B012802D04FF0010BE6
:1050000002E02D68002DE5D100BFBBF1000F10D0EC
:1050100029890022032002F0EDFF05466DB13146DB
:10502000284603F027FB40B1284603F0E1FC0025A9
:1050300003E03546284603F035FFA5B104EB8400B4
:105040000B4951F8200030B104EB8401084A52F8B2
:10505000210003F0CDFC04EB8400054941F8205009
:105060004FF0000A01E04FF0FF3A00BF50463DE725
:1050700048B802202E2E5C4C5749505C6C77697002
:105080002D312E342E315C7372635C6E65746966EB
:105090005C6574686172702E630000006172705FFD
:1050A0007461626C655B695D2E7374617465203D2B
:1050B0003D2050454E44494E47206F722053544185
:1050C000424C4500417373657274696F6E202225EE
:1050D0007322206661696C6564206174206C696E5E
:1050E0006520256420696E2025730D0A00000000EC
:1050F0007120213D204E554C4C000000E200002064
:105100006E6F207061636B65742071756575657372
:1051100020616C6C6F776564210000002DE9F84F09
:105120000746884691469A46DDF828B00020009050
:1051300000BF47B900BF37A340F2A5423FA143A03B
:10514000FEF7BCFE00BF00BF00222A21032002F0B0
:1051500051FF05461DB94FF0FF30BDE8F88F00BF85
:1051600068892A2808DA00BF2AA34FF4966242A170
:1051700036A0FEF7A3FE00BF00BF6E6806F10E0466
:105180000D9802F074F8E08000BF97F8220006281E
:1051900008D000BF1FA34FF4976244492BA0FEF72D
:1051A0008DFE00BF00BFDAF80000A060BAF804006E
:1051B000A0810B980168C4F812108088E082D9F8A9
:1051C00000003060B9F80400B080D8F80000C6F8DC
:1051D0000600B8F804007081DBF80000C4F80E0087
:1051E0000C980068A0614FF48070208008206080D7
:1051F00006202071042060714FF4C160B0812946FF
:105200003846BA6990470090284603F0F1FB002524
:105210000098A2E72E2E5C4C5749505C6C77697061
:105220002D312E342E315C7372635C6E6574696649
:105230005C6574686172702E630000006E6574694D
:105240006620213D204E554C4C0000004173736593
:105250007274696F6E2022257322206661696C6505
:1052600064206174206C696E6520256420696E205D
:1052700025730D0A00000000636865636B20746885
:105280006174206669727374207062756620636150
:105290006E20686F6C64207374727563742065741B
:1052A000686172705F6864720000000004D20008D8
:1052B0007FB504460D460121064A201D04F1230353
:1052C0008DE825000391044A19462046FFF726FF82
:1052D00004B070BD56D1000850D100082DE9F0414E
:1052E00004460E4617469846756800BF94F822009B
:1052F000062808D000BF0EA340F2A312164917A03B
:10530000FEF7DCFD00BF00BFD8F800002860B8F849
:105310000400A8803868C5F80600B88868810820AD
:10532000A88131462046A2699047BDE8F08100007F
:105330002E2E5C4C5749505C6C7769702D312E34A1
:105340002E315C7372635C6E657469665C6574684B
:105350006172702E6300000004D20008417373650F
:105360007274696F6E2022257322206661696C65F4
:1053700064206174206C696E6520256420696E204C
:1053800025730D0A0000000070B500243DE004EB19
:1053900084001F4901EB8000857C25B304EB840069
:1053A00001EB8000C07C401C04EB8401184A02EB36
:1053B0008101C87404EB8400114601EB8000C07CBD
:1053C000F0280DDA04EB840001EB8000807C0128DA
:1053D0000AD104EB840001EB8000C07C022803DBCF
:1053E0002046FFF7BFFB0EE004EB8400084901EB09
:1053F0008000807C032806D1022004EB8401044A4B
:1054000002EB81018874601CC4B20A2CBFDB70BD42
:1054100048B802202DE9F04706460D461746984643
:1054200000BF96F82200062808D000BF2CA340F247
:10543000C31235A13EA0FEF741FD00BF00BF5DB124
:10544000286848B13146286800F038FC20B928782F
:1054500000F0F000E02803D16FF00D00BDE8F08708
:1054600041462846FFF714FA0446002C01DA20468C
:10547000F4E7022004EB8401384A02EB81018874CE
:1054800004EB8400114601EB8000866004EB84008D
:1054900001EB80003968C160B9880182002004EB0B
:1054A000840102EB8101C87404EB8400114651F8B9
:1054B000200098B104EB840051F82090002004EB08
:1054C000840142F821003B4606F12302494630465A
:1054D000FFF704FF484603F08BFA00BF0020BDE74A
:1054E0002E2E5C4C5749505C6C7769702D312E34F0
:1054F0002E315C7372635C6E657469665C6574689A
:105500006172702E630000006E657469662D3E68DE
:1055100077616464725F6C656E203D3D2045544840
:105520004152505F4857414444525F4C454E000041
:10553000417373657274696F6E2022257322206631
:1055400061696C6564206174206C696E65202564F6
:1055500020696E2025730D0A0000000048B8022063
:105560002DE9F04104460E464FF00E0860890E28E2
:1055700000DC52E06568AF89287800F00100B0B126
:105580002878012809D1687888B9A8785E280ED1D2
:10559000607B40F01000607309E006222149284634
:1055A000FAF77FFE18B9607B40F008006073082F9F
:1055B00003D0B7F5C16F2BD11DE096F8290000F09C
:1055C000200000B929E0C8F1000001B2204603F034
:1055D000E1FA58B100BF00BF13A340F24F521CA123
:1055E00024A0FEF76BFC00BF00BF16E0314620464A
:1055F00000F0F6FC0DE096F8290000F0200000B95C
:105600000BE0224606F123013046FFF775F800E073
:1056100003E000BF0020BDE8F081204603F0E8F978
:105620000020F8E750D100082E2E5C4C5749505C02
:105630006C7769702D312E342E315C7372635C6E21
:10564000657469665C6574686172702E6300000041
:1056500043616E2774206D6F7665206F76657220CA
:1056600068656164657220696E207061636B657442
:1056700000000000417373657274696F6E2022250B
:105680007322206661696C6564206174206C696EA8
:105690006520256420696E2025730D0A0000000036
:1056A00010B5044600BF3CB900BF0BA3C02215A132
:1056B00017A0FEF703FC00BF00BF652084F82A0096
:1056C0006E212B2001551D4860611D48A0612046B8
:1056D00001F00EFB002010BD2E2E5C4C5749505C93
:1056E0006C7769702D312E342E315C7372635C6E71
:1056F000657469665C65746865726E657469662E4A
:10570000630000006E65746966213D4E554C4C0087
:10571000417373657274696F6E202225732220664F
:1057200061696C6564206174206C696E6520256414
:1057300020696E2025730D0A00000000A54B0008AB
:10574000796E000870B50446204601F015FB064648
:1057500016B94FF0FF3070BD2146304622699047A0
:1057600005461DB1304603F043F900262846F2E70E
:10577000F8B505460E460124E8B200902246A31E65
:1057800069460248FDF762FC2046F8BDD4090020B6
:1057900070B50346D4088C4201D3002070BD1E5D55
:1057A00002F0070546FA05F000F00100F6E70000F8
:1057B0002DE9F05F0746884691460025BB464446E2
:1057C000AA461DE0E0780606A07846EA0046607822
:1057D00046EA002620780643241D2846691C8DB21F
:1057E0000C4941F82060B5F5007F07D100254FF442
:1057F00000725846FDF780FE0BF5006B0AF1040AB3
:10580000CA45DFD325B12A4602495846FDF774FE42
:10581000BDE8F09FB401002070B505460C46224655
:105820000321284600F088F970BD00002DE9FE4FE5
:1058300004468946666830780007870E794220461C
:1058400003F0A8F910B92089042800D2C7E06068E5
:1058500090F800A0BAF1000F03D0BAF1080F6CD194
:1058600000E0B7E001256248007800F0F000E02891
:1058700000D100255E490868494600F01FFA00B1D2
:10588000002525B9204603F0B3F8BDE8FE8F208936
:10589000082800D2A3E0204600F0E5F918B1204620
:1058A00003F0A6F8F1E72221204603F073F900285F
:1058B00050D03946204603F06DF900280AD000BFC9
:1058C00000BF4CA3982255A161A0FEF7F7FA00BFD4
:1058D00000BF88E021890022022002F08BFB0546F0
:1058E00005B980E000BF698907F10800814207D24D
:1058F00000BF40A3A12261A155A0FEF7DFFA00BFBF
:1059000000BF2146284602F0B5FE50B100BF00BFDF
:1059100038A3A52267A14EA0FEF7D0FA00BF00BFB2
:1059200061E06E68784201B2284603F033F960B155
:1059300000BF00BF2FA3AB2200E04AE067A144A054
:10594000FEF7BCFA00BF00BF4DE0204603F050F860
:105950002C4610E06FF02101204603F01BF950B1F6
:1059600000BF00BF23A3B5225CA139A0FEF7A6FAB1
:1059700000BF00BF37E0D4F804801D480068F06025
:10598000634800683061002088F80000A8F8020031
:10599000FF203072002070813946204603F0FAF86B
:1059A00048B100BF00BF13A3DA225AA128A0FEF716
:1059B00085FA00BF0CE001200021FF230A46CDE953
:1059C000010900910A49204600F028FC054600BF65
:1059D00000E000BF00BF204603F00AF855E720466C
:1059E00003F006F851E7204603F002F800BF4CE749
:1059F000F00000202E2E5C4C5749505C6C7769708B
:105A00002D312E342E315C7372635C636F72655C72
:105A1000697076345C69636D702E630069636D70C4
:105A20005F696E7075743A206D6F76696E6720706D
:105A30002D3E7061796C6F616420746F20697020F5
:105A4000686561646572206661696C65640A00005E
:105A5000417373657274696F6E202225732220660C
:105A600061696C6564206174206C696E65202564D1
:105A700020696E2025730D0A0000000063686563CD
:105A80006B2074686174206669727374207062752B
:105A9000662063616E20686F6C6420737472756336
:105AA00074207468652049434D50206865616465C1
:105AB0007200000069636D705F696E7075743A20E2
:105AC000636F7079696E6720746F206E65772070E0
:105AD000627566206661696C65640A0069636D7051
