:020000040801F1
:1000000088B50120D1010108FD400108553F0108D4
:10001000B1400108190A0108055901080000000053
:10002000000000000000000000000000A1450108E1
:10003000CD0F010800000000014201085D460108E3
:10004000EB010108EB010108EB010108EB010108DC
:10005000EB010108EB010108EB010108EB010108CC
:10006000EB010108EB010108EB010108EB010108BC
:10007000EB010108EB010108EB010108EB010108AC
:10008000EB010108EB010108EB010108EB0101089C
:10009000EB010108EB010108EB01010881170108E0
:1000A000EB010108EB010108EB010108EB0101087C
:1000B000EB010108C9460108EB010108EB01010849
:1000C000EB010108EB010108EB010108EB0101085C
:1000D000EB010108EB010108EB010108EB0101084C
:1000E000EB010108EB010108EB010108EB0101083C
:1000F000EB010108EB010108EB010108EB0101082C
:10010000EB010108EB010108EB010108EB0101081B
:10011000EB010108EB01010805470108EB010108AB
:10012000EB010108EB010108EB010108EB010108FB
:10013000EB01010831140108EB010108EB01010892
:10014000EB010108EB010108EB010108EB010108DB
:10015000EB010108EB010108EB010108EB010108CB
:10016000EB010108EB010108EB010108EB010108BB
:10017000EB010108EB010108EB01010800000000A0
:10018000EB010108EB010108EB010108EB0101089B
:10019000EB010108EB010108EB010108EB0101088B
:1001A000EB010108EB010108EB010108DFF80CD0BD
:1001B00000F07AFB00480047D1AC010888B5012067
:1001C00030BF72B6704762B6704780F308887047D8
:1001D0000648804706480047FEE7FEE7FEE7FEE7E1
:1001E000FEE7FEE7FEE7FEE7FEE7FEE765460108FD
:1001F000AD0101082DE9F05F0546002092469B46BF
:1002000088460646814640241BE02846414647462C
:10021000224600F04AFA53465A46C01A914110D37A
:1002200011461846224600F031FA2D1A67EB0108F4
:100230004F4622460120002100F028FA17EB000962
:100240004E41201EA4F10104DFDC484631462A4617
:100250004346BDE8F09F40EA01039B0703D009E055
:1002600008C9121F08C0042AFAD203E011F8013BA2
:1002700000F8013B521EF9D27047D2B201E000F8FB
:10028000012B491EFBD270470022F6E710B513463A
:100290000A4604461946FFF7F0FF204610BD30B568
:1002A00005462A460B4612F8010B13F8014B08B11C
:1002B000A042F8D01CB1002802D06D1CF1E72846FE
:1002C00030BD421C10F8011B0029FBD1801A704779
:1002D00030B504460020034600E05B1C934203D285
:1002E000E05CCD5C401BF8D030BD70B5064605F033
:1002F00081FB046805460A220021304600F0F7F928
:100300002C6070BD2DE9FE4F804681EA0300C00FCE
:100310000C46009021F0004123F00045B8EB0200AC
:10032000A94105D24046214690461C460B4602464E
:1003300023F00040104347D0270DC7F30A00C3F352
:100340000A510290401A019040286BDAC3F313005F
:1003500040F4801B0098924620B10023D2EB030AA0
:1003600063EB0B0B01985946C0F14002504600F078
:100370008DF906460D4650465946019A00F0A5F9FA
:1003800010EB08006141002487EA115284EAE77308
:100390001A4340D0009A62B3019A012A4FEA0752E9
:1003A00015DC001B61EB02014FF0004202EA07522C
:1003B000CDE90042001C41F5801132462B4600F089
:1003C00014FA03B0BDE8F08F40462146F9E7001B60
:1003D00061EB0201001C41F5801300185B412018FD
:1003E000A2F5001747EB030140EAD570B6196D413D
:1003F00011E06D084FEA360645EAC0754FEA07522C
:10040000001B61EB0201001C41F5801149084FEA15
:1004100030000019514132462B4603B0BDE8F04F81
:1004200000F0D4B90098012240000023D0EB020272
:1004300063EBE073009821464FEAE074B8EB0000EC
:1004400061EB0401E9E783F000435BE781F00041E1
:1004500058E72DE9FE4F81EA030404F0004421F03F
:10046000004100944FF0000B23F0004350EA0104D8
:100470005ED052EA03045BD0C3F30A54C1F30A55B9
:100480002C44A4F2F3340194A0FB0254C1F31301F1
:1004900041F48011C3F3130343F4801301FB0244BE
:1004A00000FB034E840A970A44EA815447EA8357C3
:1004B000A4FB076802958D0A05FB07854FEA932C7C
:1004C00004FB0C542705029D4FEA065847EA1637ED
:1004D000B5EB08056EEB070C870E920E47EA811705
:1004E00042EA8312A7FB0201B6EB0B0164EB0004A6
:1004F0002B0D43EA0C335E1844EB1C50DA46514690
:10050000E7FB0201C5F313044FEA0B3343EA14532C
:100510004FEA0432019C43EA0603A4F10C0402945E
:10052000009CCDE900B400F060F903B0BDE8F08FA5
:1005300000200146F9E72DE9F04D81EA030404F0BB
:10054000004B21F0004514464FF0000A23F0004113
:1005500050EA050220D054EA01021DD0C5F30A5723
:100560000246C5F31303C1F31300C1F30A5640F466
:10057000801543F48013A7EB0608101BD64608F23B
:10058000FD3873EB050002D308F1010801E0921871
:100590005B41B8F1000F03DA00200146BDE8F08DA1
:1005A00000204FF48011064684460EE0171B73EBC3
:1005B000050705D3121B63EB050306434CEA010C48
:1005C00049084FEA300092185B4150EA0107EDD12B
:1005D00052EA030012D082EA040083EA05010843CC
:1005E00005D0101BAB4106D20122002306E00022F9
:1005F0004FF0004302E06FF0010253101AEB0600C7
:100600004CEB085110EB0A0041EB0B01BDE8F04D3B
:1006100000F0DCB80EB540F2334102910021CDE983
:1006200000110A460B4600F0E0F803B000BD00F0F0
:10063000004230F000400AD0C10D01F56071C0F3F6
:10064000160042EA0151C2084007114370470020DA
:100650000146704701F0004330B421F0004150EAF8
:10066000010206D00A0DA2F56072C1F31301002A3F
:1006700002DC30BC00207047440F44EAC104C100D2
:10068000E01830BC00EBC25000F069B8202A04DB4F
:10069000203A00FA02F1002070479140C2F1200395
:1006A00020FA03F3194390407047202A04DB203AD4
:1006B00021FA02F00021704721FA02F3D040C2F182
:1006C00020029140084319467047202A06DBCB17C9
:1006D000203A41FA02F043EAE07306E041FA02F3FD
:1006E000D040C2F1200291400843194670472DE9DD
:1006F000F04791460F4680460446002614F8015BF9
:100700002DB100F0E3F80068405DC007F6D12B2D55
:1007100002D02D2D18D0641E4A463946204600F0DE
:10072000D9F827B13968A14201D1C7F80080710515
:100730004FF002040BD54042002803DD05F05AF9C2
:100740000460A007BDE8F08746F48066E4E700286F
:10075000F8DA05F04FF904606FF00040F2E7002985
:10076000A8BF7047401C490008BF20F00100704737
:1007700010B4B0FA80FC00FA0CF050EA010404BF97
:1007800010BC704749B1CCF1200421FA04F411FAED
:100790000CF118BF012121430843A3EB0C01CB1D31
:1007A0004FEA00614FEA102042BF002010BC7047A2
:1007B00000EBC35010440029A4BF10BC7047401C7C
:1007C000490008BF20F0010010BC704710B5141E8E
:1007D00073F1000408DA401C41F1000192185B41FA
:1007E0001A4301D120F0010010BD2DE9F04D9246D1
:1007F0009B4611B1B1FA81F202E0B0FA80F22032E8
:100800009046FFF743FF04460F4640EA0A0041EADC
:100810000B0153465A46084313D0114653EA0100D0
:1008200019D0C8F140025046FFF73FFF05460E467B
:10083000504659464246FFF729FF084305D001209C
:1008400004E020463946BDE8F08D0020054346EA25
:10085000E0762C4337430A986305E40AA0EB0800CE
:100860000022FD0A44EA47540A3002D5002001461E
:10087000E9E7010510196941DDE9084500196941F9
:10088000BDE8F04DA2E70EB5C10F80EAE070084464
:10089000CA07002140F233438DE80E000A460B469A
:1008A000FFF7A3FF03B000BD064C074D06E0E0686C
:1008B00040F0010394E8070098471034AC42F6D3A7
:1008C000FFF778FC4C1702086C17020800487047C5
:1008D0000C1602082DE9F05F8246007800271546C5
:1008E0008B460AF10104B946302801D09DB113E0CE
:1008F00014F8010B0127782803D0582801D045B1FE
:100900000AE00DB1102D07D10027102514F8010BB6
:1009100002E0082500E00A250026B0460EE005FBAF
:10092000080005FB06F1012701EB10461FFA80F8CD
:10093000B6F5803F00D3B94614F8010B294600F004
:1009400031F80028EBDABBF1000F05D00FB1641EBF
:1009500000E05446CBF80040B9F1000F06D005F096
:1009600049F802210160C81EBDE8F09F48EA064030
:10097000FAE7000030B5041E71F1000404DB4FF00B
:100980000044404264EB0101141E73F1000405DBD6
:100990001C464FF00043524263EB04038B4208BFF6
:1009A000824230BD3A2800D2303820F02002412A5D
:1009B00001D3A2F13700884201D34FF0FF307047D6
:1009C00070B58C1810F8015B15F0070301D110F811
:1009D000013B2A1106D110F8012B03E010F8016B3E
:1009E00001F8016B5B1EF9D12B0705D40023521EC1
:1009F0000DD401F8013BFAE710F8013BCB1A921C29
:100A000003E013F8015B01F8015B521EF9D5A14226
:100A1000D8D3002070BD000000BF05A2662108A049
:100A200004F0D8FF012005F026FB03F0A9FB00002D
:100A300073746D3332663478785F69742E630000A6
:100A40000D0A5265626F6F74206465766963652074
:100A50006174206C696E6520256420696E202573A1
:100A60000D0A000000B587B000BF002001901E48AD
:100A7000006840F010001C4908600846006800F05B
:100A80001000019000BF00BF00BF00200190084689
:100A9000006840F0100008600846006800F0100090
:100AA000019000BF00BF08200290012003900020A9
:100AB0000490059002A90D4801F0F8FC4FF4007075
:100AC00002900B48039002200490059002A9074869
:100AD00001F0ECFC00220221172001F0D8FE1720C3
:100AE00001F0C8FE07B000BD3038024000100240DF
:100AF000000011102DE9F04105460024012600BF39
:100B00000420012806D002280BD0032810D0042886
:100B10001CD114E06EA004F05DFF70A004F05AFF39
:100B20001BE076A004F056FF6CA004F053FF14E025
:100B300074A004F04FFF69A004F04CFF0DE073A017
:100B400004F048FF65A004F045FF06E072A004F041
:100B500041FF62A004F03EFF00BF00BF00BF72492A
:100B6000284606F06DF8284606F0D0F9284605F02C
:100B70006BFD0446002C2FD100BF0420012806D0B5
:100B800002280BD0032810D004281CD114E050A058
:100B900004F020FF65A004F01DFF1BE057A004F047
:100BA00019FF62A004F016FF14E056A004F012FF33
:100BB0005EA004F00FFF0DE054A004F00BFF5BA05B
:100BC00004F008FF06E054A004F004FF57A004F06E
:100BD00001FF00BF00BF48E000BF012030B902287C
:100BE00010D003281AD0042830D123E038A004F014
:100BF000F1FE204606F0D6FC074639464DA004F02B
:100C0000E9FE2FE03DA004F0E5FE204606F0CAFC18
:100C10000746394647A004F0DDFE23E039A004F082
:100C2000D9FE204606F0BEFC0746394641A004F036
:100C3000D1FE17E035A004F0CDFE204606F0B2FC50
:100C4000074639463BA004F0C5FE0BE032A004F095
:100C5000C1FE204606F0A6FC0746394635A004F042
:100C6000B9FE00BF00BF00BF0026002E2ED100BF7E
:100C7000012030B902280BD0032810D004281CD141
:100C800014E013A004F0A6FE2EA004F0A3FE1BE0C7
:100C90001AA004F09FFE2BA004F09CFE14E019A003
:100CA00004F098FE27A004F095FE0DE017A004F0D4
:100CB00091FE24A004F08EFE06E017A004F08AFE48
:100CC00020A004F087FE00BF00BF00BFBDE8F08198
:100CD0005B4572726F725D3A00000000445731301C
:100CE00030305F506172616D657465725F436F6E25
:100CF0006669672E2E2E0A20000000005B574152C5
:100D00004E5D3A005B494E464F5D3A005B444542BA
:100D100055475D3A000000005B556E6B6E6F776E55
:100D2000204D73675D3A0000EC0100205B4F4B5D86
:100D30000D0A00005B4552524F525D3A2025730D5B
:100D40000A00000054455354093A204F6E65206F45
:100D500072206D6F72652073656C662D7465737497
:100D600073206661696C65642C20626C6F636B69CB
:100D70006E672073746172747570210D0A00000033
:100D800010B50E480E4908604FF48270486000218B
:100D90000B488160C160016141614FF40071816164
:100DA0002021C16100210162416281620A21C16288
:100DB00002F010FA642000F06BFE10BD0034014018
:100DC000DC03002010B50E480E4908604FF4827015
:100DD000486000210B488160C160016141614FF4AE
:100DE000007181610821C16100210162416281625B
:100DF0000A21C16202F0EEF9642000F049FE10BD44
:100E000000340140DC03002010B5044606480068A9
:100E100006F062F80448006806F06EF902480068BF
:100E200006F049FB10BD0000D001002010B50446BB
:100E300029480068022805D100202749086020467B
:100E4000FFF7E2FF24480068012808D1002022496A
:100E50000860204605F0E0FE204606F082FB1F48B1
:100E60000078012806D108211D4801F035FC00203A
:100E70001A4908701B48007800F0400038B103F0B0
:100E80004BFE1848007820F040001649087009F021
:100E9000E2FE15488078012803D11448007805281F
:100EA0000FD011488078022803D11048007802281A
:100EB00007D00D488078032809D10C480078052810
:100EC00005D104F0ABFB01200949086002E00020D5
:100ED0000749086010BD0000DC0100205C02002012
:100EE00000100240280100202B010020EA00002011
:100EF000E00100201CB504462E4903C9CDE90001DC
:100F00002046DDE9001206F059F82B49204605F08D
:100F1000E3FA2A49204605F0DDFA204605F0C7FF2E
:100F2000204606F0E9F826492648006805F045FD08
:100F30000221204606F04AF80921204606F07CF9F5
:100F4000204605F058FB2048007820F00700401CA0
:100F50001D4908700846007820F00800087008460F
:100F6000007820F0100008700846007820F020007B
:100F700008700846007820F04000403008700846AD
:100F8000407820F00C000C3048700846407820F083
:100F90003000103048700846407820F0C000C03063
:100FA00048704BF6CF40A1F803000321204606F01D
:100FB00021F91CBDE4140208290B0208F9CF01082D
:100FC0003D150208D001002091B0012070470000BB
:100FD00010B50C480C4908604FF4E130486000211E
:100FE00009488160C16001610C214161002181617A
:100FF000C16102F0B8FE18B1192104A004F0A8FCE8
:1010000010BD000000100140CC0200202E2E5C53C9
:10101000595354454D5C75736172745C757361729C
:10102000742E63001FB50020009001900290039081
:1010300004226946204803F045FA00BF0420012835
:1010400006D002280DD0032814D0042824D11AE099
:101050001AA004F0BFFC9DF800101BA004F0BAFC1D
:1010600023E01DA004F0B6FC9DF8001016A004F0CB
:10107000B1FC1AE01AA004F0ADFC9DF8001012A01B
:1010800004F0A8FC11E018A004F0A4FC9DF80010E6
:101090000DA004F09FFC08E016A004F09BFC9DF856
:1010A000001009A004F096FC00BF00BF00BF9DF82F
:1010B000000004B010BD0000000006085B4572721D
:1010C0006F725D3A000000005570677261646520C0
:1010D0003D2025640D0A00005B5741524E5D3A00E9
:1010E0005B494E464F5D3A005B44454255475D3A89
:1010F000000000005B556E6B6E6F776E204D73675E
:101100005D3A00001FB50446002000900190029057
:101110000390042269461D4803F0D4F98DF800407D
:1011200010226946194803F0E1F900BF04200128A4
:1011300006D002280BD0032810D004281CD114E0BC
:1011400013A004F047FC15A004F044FC1BE01BA016
:1011500004F040FC11A004F03DFC14E019A004F0E0
:1011600039FC0EA004F036FC0DE018A004F032FCAF
:101170000AA004F02FFC06E017A004F02BFC07A047
:1011800004F028FC00BF00BF00BF1FBD0000060820
:101190005B4572726F725D3A0000000055706772B5
:1011A000616465466C616720777269746520746F4D
:1011B00020666C617368200D0A0000005B57415285
:1011C0004E5D3A005B494E464F5D3A005B444542F6
:1011D00055475D3A000000005B556E6B6E6F776E91
:1011E000204D73675D3A00001FB50020009001900C
:1011F0000290039004226946204803F063F900BF7F
:101200000420012806D002280DD0032814D0042879
:1012100024D11AE01AA004F0DDFB9DF802101BA0F7
:1012200004F0D8FB23E01DA004F0D4FB9DF80210CD
:1012300016A004F0CFFB1AE01AA004F0CBFB9DF837
:10124000021012A004F0C6FB11E018A004F0C2FBCB
:101250009DF802100DA004F0BDFB08E016A004F0FC
:10126000B9FB9DF8021009A004F0B4FB00BF00BF59
:1012700000BF9DF8020004B010BD00000000060889
:101280005B4572726F725D3A00000000576F726BBF
:101290006D6F6465203D2025640D0A005B57415247
:1012A0004E5D3A005B494E464F5D3A005B44454215
:1012B00055475D3A000000005B556E6B6E6F776EB0
:1012C000204D73675D3A00001FB504460020009072
:1012D000019002900390042269461D4803F0F2F841
:1012E0008DF8024010226946194803F0FFF800BF4C
:1012F0000420012806D002280BD0032810D004288F
:101300001CD114E013A004F065FB15A004F062FBEF
:101310001BE01AA004F05EFB11A004F05BFB14E0DC
:1013200018A004F057FB0EA004F054FB0DE017A02A
:1013300004F050FB0AA004F04DFB06E016A004F0F8
:1013400049FB07A004F046FB00BF00BF00BF1FBD64
:10135000000006085B4572726F725D3A0000000083
:10136000576F726B4D6F6465207772697465207476
:101370006F20666C617368200D0A00005B57415254
:101380004E5D3A005B494E464F5D3A005B44454234
:1013900055475D3A000000005B556E6B6E6F776ECF
:1013A000204D73675D3A0000016801F5805189693D
:1013B00041F00202016801F580518A6170470168BD
:1013C00001F58051896941F40052016801F58051AD
:1013D0008A61704738B5044600200090206800F507
:1013E0008050806940F48011206800F58050816150
:1013F000206800F5805080690090012000F048FBD3
:101400000099206800F58050816138BD01460020B8
:101410000A6802F0004252B90A6802F4004232B986
:101420000A6802F4807212B10A68C2F30D40704774
:1014300010B501E009F014FC0949886AFFF7E6FFDE
:101440000028F7D14FF480310548006800F580503E
:10145000416140210248006800F58050416110BDA3
:101460000C03002030B503461479557944EA052071
:10147000084C0C442064D4782406957844EA05444A
:10148000557844EA0524157844EA0500014C0C44DB
:10149000606430BD0080024070B5AEB004460E46B8
:1014A000002526B14FF40061E160C900A160002071
:1014B000119012901390149015901690E06918B93D
:1014C0004FF48060179001E0002017904FF40070F7
:1014D0001890002019901A901B901C901D9040208D
:1014E0001E9000201F902090219022902390249005
:1014F00025902690802027900020289029902A90DF
:101500002B902C902D902068056871480540DDE9EE
:10151000110108431399084314990843A16808432B
:101520001599084316990843E16808431799084339
:1015300018990843199908431A9908431B990843B5
:1015400005432068056020680568012000F0A0FAC6
:1015500020680560DDE91C0108431E9908431F99B6
:101560000843209908432199084322990843239965
:1015700008432168486020684568012000F088FA27
:101580002068456024982168886025982168C86093
:10159000206885694FF641700540DDE9261040EA74
:1015A000014028990843299908432A9908432B990F
:1015B000084305432068856120688569012000F0A3
:1015C00067FA20688561DDE92C0108432168C8615C
:1015D0002068C569012000F05BFA2068C561002021
:1015E00001904FF000700290002003904FF4001023
:1015F0000490002005900690079008900420099020
:10160000C0050A9040120B9080010C9040120D9082
:1016100080200E9000200F901090206800F58050E0
:1016200085692C480540DDE9010108430399084319
:101630000499084305990843069908430799084304
:1016400008990843099908430543206800F580502C
:101650008561206800F580508569012000F018FA46
:10166000206800F580508561DDE90A0108430C9986
:1016700008430D9908430E9908430F9940EA8100E9
:101680001099084340F40001206800F58050016083
:10169000206800F580500568012000F0F9F9206805
:1016A00000F580500560A069012809D1206800F587
:1016B0008050C06908490843216801F58051C8611C
:1016C000002120466269FFF7CDFE2EB070BD0000FC
:1016D0000F8120FF233FDEF84000010038B50446AB
:1016E000002000902068006840F004002168086035
:1016F000206800680090012000F0CAF90098216875
:10170000086038BD38B504460020009020680068A5
:1017100040F00800216808602068006800900120FF
:1017200000F0B6F900982168086038BD10B54FF494
:10173000A07100200AF0B2FA0D490860A021002033
:101740000AF0ACFA0B49086043F6883100200AF031
:10175000A5FA0949086041F6C45100200AF09EFA32
:101760000649086000BF00BF00BF00BF002010BDD9
:10177000D4000020D8000020DC000020E000002081
:1017800010B54FF4007000F083FE10BD10B50022BC
:1017900001B909E0012901D10A0205E0022901D1BC
:1017A0000A0201E04FF440720B2800D9001D114BD2
:1017B0001B6823F440730F4C236023461B681343BC
:1017C000236023461B6823F0F803236023461B682D
:1017D000F82494FAA4F4B4FA84F400FA04F444F07B
:1017E00002042343034C236023461B6843F48033E5
:1017F000236010BD103C02401C48006800F40070DB
:10180000B0B11A48006820F400701849086000BFA1
:101810000846006840F4006008600846006820F44C
:101820000060086000BF0846006840F4007008606F
:101830000E48006800F48060B0B10C48006820F4E5
:1018400080600A49086000BF0846006840F4805084
:1018500008600846006820F48050086000BF084611
:10186000006840F48060086070470000003C02405F
:1018700010B502460020144B1B6823F44073124C31
:10188000236023461B6803432360032906D12346B4
:101890001B68E41323430C4C23600EE0012906D19E
:1018A000094B1B6843F00403074C236005E0064B1B
:1018B0001B6843F40043044C2360034B1B6843F450
:1018C0008033014C236010BD103C0240074A12686F
:1018D00022F44072054B1A601A4612681A601A46C2
:1018E000126842F001021A6001707047103C024019
:1018F00010B50949096821F44071074C216021465F
:10190000096841F4407121602146096841F00101F4
:1019100021600260436010BD103C0240084A12681A
:1019200022F44072064B1A601A46126842F4807222
:101930001A601A46126842F001021A60018070476C
:10194000103C0240084A126822F44072064B1A60AA
:101950001A46126842F400721A601A46126842F07F
:1019600001021A6001607047103C02402A4800687A
:10197000C0F3001040B12948C06940F01000274969
:10198000C86110202449086023480068C0F3401053
:1019900040B12248C06940F008002049C8612020B9
:1019A0001D4908601C480068C0F3801040B11B4806
:1019B000C06940F004001949C86140201649086018
:1019C00015480068C0F3C01040B11448C06940F029
:1019D00002001249C86180200F4908600E48006863
:1019E000C0F3002048B10D48C06940F001000B4928
:1019F000C8614FF480700849086007480068C0F368
:101A0000400040B10548C06940F020000349C8616A
:101A100002200149086070470C3C0240AC020020E3
:101A200070B50446002500201749C86100F05EFE2D
:101A3000054609E0601C38B124B100F057FE401B98
:101A4000A04201D9032070BD10480068C0F30040D7
:101A50000028EFD10D48006800F0010010B101200E
:101A60000A4908600948006800F4F970B0F5F97F88
:101A700001D1012000E0002018B1FFF777FF01201D
:101A8000E1E70020DFE70000AC0200200C3C024050
:101A900031B5002400F02AFE044600BF00F026FE07
:101AA000001B00998842F9D338BD70B504460D4635
:101AB0001646002200BF94F84500012801D10220FB
:101AC00070BD012084F8450000BF022084F8440066
:101AD000A56200221FE005EB42114FF000400860B4
:101AE00044F2F4504860C2EBC21000EB400006EB39
:101AF00080008860A069012803D1486820F0004078
:101B00004860581E904204D905EB42102030C8604E
:101B100000E0CD60521C9A42DDD3206800F5805071
:101B2000C560012084F8440000BF002084F845000F
:101B300000BF00BFC4E770B504460D46164600223C
:101B400000BF94F84500012801D1022070BD01209A
:101B500084F8450000BF022084F84400E5620022BA
:101B60001BE005EB42114FF480100860C2EBC2107D
:101B700000EB400006EB80008860E06918B9086857
:101B800040F440000860581E904204D905EB421012
:101B90002030C86000E0CD60521C9A42E1D320683A
:101BA00000F580500561012084F8440000BF00204A
:101BB00084F8450000BF00BFC8E70146002200BF0F
:101BC00091F84500012801D102207047012081F8D9
:101BD000450000BF022081F84400886A006800F0D8
:101BE0000040002838D1886A006800F48070F0B1A5
:101BF000886B401C8863886B012801D1886A086360
:101C00008B6A4B63886A0068C0F30D40021FCA6389
:101C1000086B83680B64886AC0688862012081F859
:101C2000440000BF002081F8450000BFCDE7886A6E
:101C3000006800F4007048B1886A086300234B63B1
:101C400001238B63886AC068886205E0886B401C4A
:101C50008863886AC0688862012081F8440000BFF8
:101C6000002081F8450000BF0120AEE72DE9FC41CE
:101C70000446002500200190924E0027804614B9AA
:101C80000120BDE8FC8194F8440028B9002084F8C4
:101C90004500204600F024F900BF002000908A484B
:101CA000006840F48040884908600846006800F4F5
:101CB0008040009000BF00BF8448006820F400000E
:101CC0008249086008460068216A08437F49086025
:101CD000206800F58050006840F00101206800F5A0
:101CE0008050016000BF206800F58050006800F05F
:101CF00001000028F7D12068056925F01C0500F0D7
:101D0000C3FF06467248864205D37248864202D215
:101D100045F008051AE06F48864205D369488642B7
:101D200002D245F00C0511E06648864203D36A48AA
:101D3000864200D20AE06848864205D36748864258
:101D400002D245F0040501E045F010052068056168
:101D50004FF400420021204600F071FA48B14FF0E4
:101D6000010841462046FFF797FB012084F8440014
:101D700087E7FF20FFF78CFE606800287ED000F028
:101D8000B5FC074600BF01AA0121204600F046F934
:101D900000F0ACFCC01BB0F5FA6F0FD94FF0010892
:101DA00041462046FFF778FB012084F8440000BF3D
:101DB000002084F8450000BF032062E7019800F08E
:101DC00004000428DFD182020021204600F037FA07
:101DD00048B14FF0010841462046FFF75DFB012066
:101DE00084F844004DE700F081FC074600BF01AADB
:101DF0000121204600F012F900F078FCC01BB0F57C
:101E00007A7F0FD94FF0010841462046FFF744FB87
:101E1000012084F8440000BF002084F8450000BF82
:101E200003202EE7019800F020002028DFD101AA2E
:101E30001F21204600F0F2F848B14FF0010841465A
:101E40002046FFF729FB012084F8440019E7019898
:101E500000F0100020B14FF40061E16002E00DE0FD
:101E60000021E160019800F00400042802D1002163
:101E7000A1601DE04FF48041A16019E0E068C0F36B
:101E8000CF00A168C1F34F0140EA010200212046C2
:101E900000F0D5F948B14FF0010841462046FFF760
:101EA000FBFA012084F84400EBE6FF20FFF7F0FD89
:101EB00041462046FFF7F0FA012084F84400002054
:101EC000DFE60000008793034438024004380140F5
:101ED000002D3101C00E160200E1F50580D1F00899
:101EE00010B586B0044600BF00BF002000904748F0
:101EF000006840F00070454908600846006800F03E
:101F00000070009000BF00BF00BF00200090084696
:101F1000006840F0806008600846006800F080605B
:101F2000009000BF00BF00BF00200090084600687E
:101F300040F0006008600846006800F00060009013
:101F400000BF00BF00BF00BF00200090084600682F
:101F500040F0010008600846006800F001000090B1
:101F600000BF00BF00BF002000900846006840F09E
:101F7000020008600846006800F00200009000BF00
:101F800000BF00BF002000900846006840F0040039
:101F900008600846006800F00400009000BF00BF21
:101FA000082001900120029003900320049001A9D1
:101FB000174800F07BFA01220821154800F090FB39
:101FC00086200190022002900020039003200490BC
:101FD0000B20059001A90E4800F068FA4FF46050FC
:101FE000019001A90B4800F061FA3220019001A98B
:101FF000094800F05BFA002201213D2000F047FC77
:102000003D2000F037FC06B010BD00003038024023
:102010000000024000040240000802402DE9F041A7
:1020200004460E4617460025A84694F84400822828
:1020300002D10220BDE8F081822084F844002068AB
:10204000056905F01C05208A4FF4784101EAC0209B
:102050000543481100EA8610054325F0020545F0C6
:1020600001052068056100F041FB804612E000F0A8
:102070003DFBA0EB0800B0F5803F09D3012084F8B8
:10208000440000BF002084F8450000BF0320D1E7D2
:102090002068056905F001000028E8D12068406942
:1020A00080B23860012084F844000020C2E710B5F7
:1020B000044600BF94F84500012801D1022010BD5C
:1020C000012084F8450000BF022084F84400204627
:1020D000FFF718FB2046FFF701FB2046FFF77AF9D0
:1020E0002046FFF76CF92046FFF75EF9012084F8DF
:1020F000440000BF002084F8450000BF00BFDEE7B9
:1021000070B5024600230025002400BF92F8450068
:10211000012801D1022070BD012082F8450000BFD6
:10212000022082F8440049B9012082F8440000BF2F
:10213000002082F8450000BF0120ECE7D06A00686B
:1021400000F0004048B1122082F8440000BF002097
:1021500082F8450000BF0120DDE740F2F4508142E3
:1021600008D9B1FBF0F3B1FBF0F600FB161010B18B
:102170005B1C00E00123012B13D1D06A006840F002
:102180004050D66A3060C1F30C00D66A7060D06AE5
:10219000006840F00040D66A3060D06AC068D06203
:1021A00032E000242EE0D06A006820F04050D66A69
:1021B00030602CB9D06A006840F08050D66A306038
:1021C00040F2F450D66A7060581EA04210D1D06A16
:1021D000006840F00050D66A3060581EC0EBC01056
:1021E00000EB4000A1EB8005C5F30C00D66A7060DF
:1021F000D06A006840F00040D66A3060D06AC0689B
:10220000D062641C9C42CED3106800F580504069B7
:1022100000F0040048B10426106800F580504661C3
:102220000026106800F580504660012082F84400C6
:1022300000BF002082F8450000BF00BF6BE72DE91A
:10224000F04104460E4617460025A84694F844007F
:10225000422802D10220BDE8F081422084F84400E7
:102260002068056905F01C05208A4FF4784101EAD1
:10227000C0200543481100EA8610054345F00205D9
:1022800045F00105B8B2216848612068056100F099
:102290002DFA804612E000F029FAA0EB0800B0F514
:1022A000803F09D3012084F8440000BF002084F857
:1022B000450000BF0320CEE72068056905F0010056
:1022C0000028E8D1012084F844000020C3E7000082
:1022D0002DE9F04104460E460127002500BF26489F
:1022E000007E012802D10220BDE8F08101202249B0
:1022F000087600BF4CF25030FFF792FB0746002FE4
:1023000032D1401E30602068012810D1207C6168E5
:10231000FFF7AEFA4CF25030FFF782FB0746174842
:10232000006848F204018843144908601AE0A5686F
:1023300012E0217C2846FFF729FA4CF25030FFF7D3
:102340006FFB07460D48006820F0FA000B49086053
:102350000FB1356005E06D1CD4E902100844A842B5
:10236000E7D800BFFFF748FA00BF0020024908760F
:1023700000BF3846B8E70000AC020020103C024025
:102380000348006840F000400149086000207047A1
:10239000103C02402DE9F04106460F4614461D460A
:1023A0004FF0010800BF1F48007E012802D1022023
:1023B000BDE8F08101201B49087600BF4CF2503087
:1023C000FFF72EFB8046B8F1000F23D126B9E1B20A
:1023D0003846FFF77BFA12E0012E04D1A1B238464D
:1023E000FFF79CFA0BE0022E04D121463846FFF796
:1023F000A9FA04E022462B463846FFF779FA4CF258
:102400005030FFF70DFB80460748006820F00100C0
:102410000549086000BF00200249087600BF404619
:10242000C6E70000AC020020103C024007480068EC
:1024300000F0004030B1064804490C3908600548F6
:10244000086001E0012070470020FCE7103C0240DA
:1024500023016745AB89EFCD10B50446B4F5807F05
:102460000FD0B4F5007F0DD100BF0848006804F01C
:102470005FFB03F0E3FF0028F7D1172000F0ECF931
:1024800001E000E000BF00BF10BD0000E801002037
:1024900010B5044604480068204020B1024804609A
:1024A0002046FFF7D9FF10BD143C0140F8B50246A5
:1024B0000B460025002400200021E6E0012606FA54
:1024C00001F51E6806EA0504AC4273D15E68022E6F
:1024D00002D05E68122E13D1CF0802F1200656F802
:1024E00027004E07F70E0F26BE40B0434F07FF0EE2
:1024F0001E69BE403043CF0802F1200646F827008F
:1025000010684F000326BE40B0431E7906F0030654
:102510004F00BE40304310605E68012E08D05E68F8
:10252000022E05D05E68112E02D05E68122E13D1E5
:1025300090684F000326BE40B0434F00DE68BE40A7
:1025400030439060506801268E40B0431E79C6F338
:1025500000168E4030435060D0684F000326BE40C6
:10256000B0434F009E68BE403043D0605E6806F0C6
:102570008056B6F1805FA8D100BF00260096454E78
:10258000366846F48046434F3E603E46366806F461
:102590008046009600BF00BF3F4E8F0856F82700C8
:1025A0008E07370F0F26BE40B0433C4EB24202D1D9
:1025B00000262EE068E03A4EB24201D1012628E022
:1025C000384EB24201D1022623E0374EB24201D149
:1025D00003261EE0354EB24201D1042619E0344EE6
:1025E000B24201D1052614E0324EB24201D1062694
:1025F0000FE0314EB24201D107260AE02F4EB2421F
:1026000001D1082605E02E4EB24201D1092600E094
:102610000A268F073F0FBE4030431F4E8F0846F8F3
:102620002700284E3068A0435E6806F48036B6F571
:10263000803F00D12043234E3060361D3068A043D8
:102640005E6806F40036B6F5003F00D120431D4E0B
:10265000361D3060361D3068A0435E6806F4801673
:10266000B6F5801F00D12043164E08363060361D67
:102670003068A0435E6806F40016B6F5001F00D16E
:102680002043104E0C363060491C1029FFF416AF61
:10269000F8BD000044380240083801400000024004
:1026A0000004024000080240000C024000100240FA
:1026B0000014024000180240001C024000200240AA
:1026C00000240240003C0140024613690B400BB15C
:1026D000012000E00020704742694A404261704793
:1026E0000AB1816101E00B04836170470148006811
:1026F00070470000CC00002010B504460CB9012042
:1027000010BD607B20B900202073204600F01AF82D
:102710000220607345F255502168086020684068C7
:1027200020F00700616808432168486020688068DD
:102730006FF30B00A1680843216888600120607373
:102740000020DDE7704770B50446002500BF207B00
:10275000012801D1022070BD0120207300BF02209A
:102760006073FFF7C3FF05460DE0FFF7BFFF401B97
:10277000B0F57A7F07D90320607300BF0020207373
:1027800000BF0320E7E72068C068C0F340000028CE
:10279000EBD14AF6AA20216808600120607300BFCF
:1027A0000020207300BF00BFD5E7014600BF087BB3
:1027B000012801D1022070470120087300BF0220C8
:1027C00048734CF6CC400A6810604AF6AA200A68A2
:1027D00010600120487300BF0020087300BF00BFD5
:1027E000E9E7000002480068401C014908607047A2
:1027F000CC00002010B50D48006840F400700B4973
:1028000008600846006840F4806008600846006878
:1028100040F480700860052000F078F80F2000F088
:1028200007F800F017F8002010BD0000003C02403F
:1028300070B5044600F028FA4FF47A71B0FBF1F558
:10284000284601F021F900222146501E00F01FF811
:10285000002070BD7047000000BF00F01F02012182
:102860009140034A430942F8231000BF704700001B
:1028700080E200E000BF00F01F0201219140420908
:10288000920002F1E022C2F8001100BF70472DE96A
:10289000F05F80460D461646002701F055FC0746BE
:1028A00039462A46334601F00700C0F1070ABAF15B
:1028B000040F02D94FF0040A01E0C0F1070AD14623
:1028C00000F1040ABAF1070F02D24FF0000A01E04A
:1028D000A0F1030AD4464FF0010A0AFA09FAAAF154
:1028E000010A0AEA020A0AFA0CFA4FF0010B0BFA83
:1028F0000CFBABF1010B0BEA030B4AEA0B0421467C
:10290000404601F029FCBDE8F09F000000BF00F048
:102910000702064B19684FF6FF031940044B0B439F
:1029200043EA0221014B196000BF70470CED00E043
:102930000000FA0538B5002400BF002000902348AD
:10294000006840F08050214908600846006800F0A7
:102950008050009000BF00BF0120010491FAA1F156
:10296000B1FA81F11A4A42F82100FFF7BFFE04468E
:1029700007E0FFF7BBFE001BB0F57A7F01D903200B
:1029800038BD1448406800F48030B0F5803FF0D185
:102990000120410491FAA1F1B1FA81F10C4A42F807
:1029A0002100FFF7A3FE044607E0FFF79FFE001B90
:1029B000B0F57A7F01D90320E2E70648406800F4C9
:1029C0000030B0F5003FF0D10020D9E74038024098
:1029D00000000E420070004070B504460E4600250F
:1029E000A748006800F00F00B0426FD2A4490E70F3
:1029F0000846006800F00F00B04201D0012070BD11
:102A0000207800F00200022807D19E48006820F0DC
:102A1000F000A16808439B490860207800F001009D
:102A200000283ED06068012807D196480838006821
:102A3000C0F34040B8B90120E1E76068022802D045
:102A40006068032807D18F4808380068C0F34060E9
:102A500048B90120D3E78B4808380068C0F340002C
:102A600008B90120CBE78748006820F003006168BF
:102A7000084384490860FFF739FE0546606801286D
:102A800010D108E0FFF732FE401B41F28831884246
:102A900001D90320B3E77B48006800F00C0004284C
:102AA000F0D1CDE06068022811D108E0FFF71EFEEA
:102AB000401B41F28831884201D903209FE77148C9
:102AC000006800F00C000828F0D1B9E024E060684C
:102AD000032810D108E0FFF709FE401B41F28831BE
:102AE000884201D903208AE76648006800F00C009C
:102AF0000328F0D1A4E008E0FFF7F8FD401B41F205
:102B00008831884201D9032079E75E48006800F0E7
:102B10000C000028F0D193E0207800F00200022899
:102B200007D15848006820F0F000A16808435549D3
:102B30000860207800F00100002877D06068012844
:102B400007D1504808380068C0F34040B8B90120A8
:102B500055E76068022802D06068032807D1494819
:102B600008380068C0F3406048B9012047E745488D
:102B700008380068C0F3400008B901203FE7414829
:102B8000006820F00300616808433E490860FFF7D1
:102B9000ADFD05466068012810D108E0FFF7A6FDED
:102BA000401B41F28831884201D9032027E735488C
:102BB000006800F00C000428F0D137E060680228BB
:102BC00010D108E0FFF792FD401B41F288318842A6
:102BD00001D9032013E72B48006800F00C000828F7
:102BE000F0D123E06068032810D108E0FFF77EFDF4
:102BF000401B41F28831884201D90320FFE6214879
:102C0000006800F00C000328F0D10FE008E0FFF7A7
:102C10006DFD401B41F28831884201D90320EEE668
:102C20001848006800F00C000028F0D114490E701C
:102C30000846006800F00F00B04201D00120DEE637
:102C4000207800F00400042807D10E48006820F422
:102C5000E050E16808430B490860207800F0080064
:102C6000082808D10748006820F46040216940EA3C
:102C7000C100044908600F20FFF7DAFD0020BEE61E
:102C8000003C02400838024010B500F045F8094900
:102C9000096801F0F001F02292FAA2F2B2FA82F28F
:102CA000D140054A515CC8400449086008460068A4
:102CB00010BD000008380240001402081400002073
:102CC00010B5FFF7E1FF0749096801F4E0514FF43F
:102CD000E05292FAA2F2B2FA82F2D140024A515C78
:102CE000C84010BD083802400014020810B5FFF7B4
:102CF000CBFF0749096801F460414FF4604292FA42
:102D0000A2F2B2FA82F2D140024A515CC84010BD30
:102D1000083802400014020870B500210022002388
:102D20000020274C246804F00C0424B1042C04D0A7
:102D3000082C41D103E0234840E023483EE0204CEA
:102D4000241F246804F03F011D4C241F246804F450
:102D5000800484B11C4CB4FBF1F5194C241F246889
:102D600047F6C076344096FAA6F6B6FA86F6F440F0
:102D700005FB04F20FE0134CB4FBF1F5104C241FDB
:102D8000246847F6C076344096FAA6F6B6FA86F678
:102D9000F44005FB04F20A4C241F246804F4403478
:102DA0004FF4403595FAA5F5B5FA85F5EC40641C6D
:102DB0006300B2FBF3F001E0024800BF00BF70BD4A
:102DC000083802400024F40040787D0138B50446FC
:102DD0000025207800F00100002866D0F748006840
:102DE00000F00C0004280DD0F448006800F00C003E
:102DF000082813D1F148001F006800F48000B0F5E6
:102E0000800F0BD1ED4808380068C0F3404000281F
:102E10004BD06068002848D1012038BD0020E74928
:102E2000891F0870FFF762FC054608E0FFF75EFCAB
:102E3000401B41F28831884201D90320EDE7DF4889
:102E400008380068C0F340400028EFD12079DB4902
:102E5000891F08706068A0B1FFF748FC054608E0CC
:102E6000FFF744FC401B41F28831884201D903201E
:102E7000D3E7D24808380068C0F340400028EFD0BC
:102E800013E0FFF733FC054608E0FFF72FFC401B7B
:102E900041F28831884201D90320BEE7C74808388B
:102EA0000068C0F340400028EFD1207800F0020015
:102EB000022869D1C148006800F00C0058B1BF4831
:102EC000006800F00C00082821D1BC48001F0068F1
:102ED00000F48000D8B9B94808380068C0F3400051
:102EE00020B1E068012801D0012096E7B3480838F6
:102EF000006820F0F800F82292FAA2F2B2FA82F208
:102F0000216991400843AD49083908603CE0E06818
:102F100028B30120AA490860FFF7E8FB054606E050
:102F2000FFF7E4FB401B642801D9032075E7A348A1
:102F300008380068C0F340000028F1D09F480838E6
:102F4000006820F0F800F82292FAA2F2B2FA82F2B7
:102F500021699140084399490839086014E000202C
:102F600097490860FFF7C2FB054606E0FFF7BEFB86
:102F7000401B642801D903204FE7904808380068B7
:102F8000C0F340000028F1D1207800F008000828A4
:102F90002CD16069A8B101208A490860FFF7A6FB1F
:102FA000054606E0FFF7A2FB401B642801D9032079
:102FB00033E782486C300068C0F340000028F1D04D
:102FC00014E000207F490860FFF790FB054606E00B
:102FD000FFF78CFB401B642801D903201DE77748CD
:102FE0006C300068C0F340000028F1D1207800F078
:102FF000040004286FD100BF002000906F483830D3
:10300000006840F080506D4938310860084600681B
:1030100000F08050009000BF00BF6B48006840F493
:10302000807069490860FFF761FB054606E0FFF71D
:103030005DFB401B642801D90320EEE6624800686E
:1030400000F480700028F2D000205C4968310870DC
:10305000FFF74CFB054608E0FFF748FB401B41F239
:103060008831884201D90320D7E654486830006887
:10307000C0F340000028EFD1207A50496831087031
:10308000A068A0B1FFF732FB054608E0FFF72EFB72
:10309000401B41F28831884201D90320BDE64748F0
:1030A00068300068C0F340000028EFD013E0FFF75D
:1030B0001DFB054608E0FFF719FB401B41F2883174
:1030C000884201D90320A8E63C4868300068C0F374
:1030D00040000028EFD1A069F0B33848006800F044
:1030E0000C00082872D0A069022850D10020344971
:1030F0000866FFF7FBFA054606E0FFF7F7FA401B04
:10310000642801D9032088E62C4808380068C0F3F9
:1031100040600028F1D1D4E90701084347F6C072A6
:1031200092FAA2F2B2FA82F2616A91400843012255
:10313000A16AC2EB51014FF4403292FAA2F2B2FA04
:1031400082F2914008434FF0706292FAA2F2B2FA12
:1031500082F2E16A914000E03AE008431749091F12
:103160000860012016490866FFF7C0FA054606E028
:10317000FFF7BCFA401B642801D903204DE60F4835
:1031800008380068C0F340600028F1D020E000203B
:103190000B490866FFF7AAFA054606E0FFF7A6FA0C
:1031A000401B642801D9032037E60448083800682A
:1031B000C0F340600028F1D10AE007E0083802407F
:1031C00000004742800E474200700040012024E684
:1031D000002022E610B504460CB9012010BD94F879
:1031E000510028B9002084F85000204600F036F83D
:1031F000022084F851002068006820F04000216817
:103200000860D4E901010843E168084321690843E3
:1032100061690843218B01F400710843E1690843A7
:10322000216A0843A16A0843216808600421A06953
:1032300001EA1040616A0843216848602168E06A39
:1032400008612068C06920F400602168C86100201E
:103250006065012084F851000020BFE710B586B0FA
:10326000044628492068884249D100BF00200090C8
:103270002548006840F4005023490860084600686B
:1032800000F40050009000BF00BF00BF002000907D
:103290001D481438006840F010001B4914390860BC
:1032A0000846006800F01000009000BF00BF8814BE
:1032B000019002200290002003900320049005203A
:1032C000059001A91148FFF7F1F84FF40050019063
:1032D00001A90E48FFF7EAF84FF48040019001A9D8
:1032E0000A48FFF7E3F84FF40060019001200290D4
:1032F00000200390049001A90448FFF7D7F806B016
:1033000010BD00000034014044380240001002406B
:103310002DE9FC4104460E4615461F464FF00008B5
:1033200094F8510001287AD106B115B90120BDE801
:10333000FC8100BF94F85000012801D10220F6E77B
:10334000012084F8500000BF222084F851000020A2
:103350006065A663A587E587A064E064A086E08633
:10336000A068B0F5004F05D12068006820F48040C7
:1033700021680860A06AB0F5005F0DD100BF206829
:10338000006820F40050216808602068006840F45C
:1033900000502168086000BF6068B0F5827F0ED1E0
:1033A000A06860B900BF002084F8500000BF2B4621
:1033B000324631462046009700F0A9F9B7E7206869
:1033C000006800F04000402805D02068006840F008
:1033D000400021680860E06810BB12E03B46002214
:1033E0000121204600F00DFF08B103209FE720686F
:1033F000C068C1B2A26B501CA0631170E08F401E68
:10340000E087E08F0128E9DCA06AB0F5005F28D1F1
:103410002068006840F480502168086021E093E053
:1034200012E03B4600220121204600F0EAFE08B1EE
:1034300003207CE72068C068A16B0880A06B801C1B
:10344000A063E08F401EE087E08F0128E9DCA06ADE
:10345000B0F5005F05D12068006840F48050216815
:1034600008603B4600220121204600F0CAFE08B158
:1034700003205CE7E06838B92068C068C1B2A26B7D
:10348000501CA063117006E02068C068A16B088022
:10349000A06B801CA063E08F401EE087A06AB0F59F
:1034A000005F12D13B4600220121204600F0A9FE18
:1034B00028B1606D40F002006065032037E72068A6
:1034C000C06880B20190BDF804006068B0F5827FEA
:1034D0000DD1A068B0F5004F03D0A068B0F5806FA3
:1034E00005D12068006820F04000216808600120B4
:1034F00084F8510020688068C0F30018A06AB0F515
:10350000005F1BD1B8F1000F18D0606D40F00200D1
:10351000606500BF2068006820F4005021680860E2
:103520002068006840F400502168086000BF00BFB8
:10353000002084F8500000BF0120F8E600BF002002
:1035400084F8500000BFF2E60220F0E6F8B5044629
:103550000E4615461F4694F85100012873D106B156
:103560000DB90120F8BD00BF94F85000012801D129
:103570000220F7E7012084F8500000BF122084F8F1
:103580005100002060652663A586E586E064A0649E
:10359000A087E087A06AB0F5005F0DD100BF20686A
:1035A000006820F40050216808602068006840F43A
:1035B00000502168086000BFA068B0F5004F05D139
:1035C0002068006840F48040216808602068006836
:1035D00000F04000402805D02068006840F040001E
:1035E00021680860E06878BB606810B1E08E01284F
:1035F00008D1216B481C206308782168C860E08EE0
:10360000401EE08611E03B4600220221204600F0E9
:10361000F8FD08B10320A5E7216B481C206308785A
:103620002168C860E08E401EE086E08E0028EADC5B
:10363000A06AB0F5005F38D12068006840F480507F
:103640002168086031E060E0FFE7606810B1E08E5B
:10365000012809D1206B00882168C860206B801C7C
:103660002063E08E401EE08612E03B4600220221ED
:10367000204600F0C6FD08B1032073E7206B0088E8
:103680002168C860206B801C2063E08E401EE086AD
:10369000E08E0028E9DCA06AB0F5005F05D1206863
:1036A000006840F48050216808603B4600220221F7
:1036B000204600F0A6FD28B1606D40F02000606556
:1036C00003204FE73B4601228021204600F099FD70
:1036D00028B1606D40F020006065032042E7A068DB
:1036E00050B900BF002000902068C068009020689A
:1036F0008068009000BF00BF012084F8510000BF27
:10370000002084F8500000BF2CE702202AE72DE9B2
:10371000F84F04460E4617461D46DDF828904FF038
:103720000008C24694F85180B8F1010F02D0B8F1F8
:10373000220F76D10EB107B115B90120BDE8F88F7F
:1037400000BF94F85000012801D10220F6E70120C3
:1037500084F8500000BF94F85100012802D13220B3
:1037600084F8510000206065A763A587E58726637C
:10377000A586E586A064E064A06AB0F5005F0DD17F
:1037800000BF2068006820F40050216808602068AD
:10379000006840F400502168086000BF206800689D
:1037A00000F04000402805D02068006840F040004C
:1037B00021680860E068B0F5006F75D1606830B1CD
:1037C0006068B0F5827F0CD1E08E012809D1206BB2
:1037D00000882168C860206B801C2063E08E401E3A
:1037E000E086E08EF0B9A06AB0F5005F05D12068F0
:1037F000006840F48050216808604B460022012197
:10380000204600F0FEFC08B1032097E72068C0685E
:10381000A16B0880A06B801CA063E08F401EE08736
:10382000C7E01BE131E04B4600220221204600F0B8
:10383000E8FC08B1032081E7206B00882168C8609C
:10384000206B801C2063E08E401EE086E08E48B92D
:10385000A06AB0F5005F05D12068006840F4805090
:10386000216808604B4600220121204600F0C9FC77
:1038700008B1032062E72068C068A16B0880A06BD4
:10388000801CA063E08F401EE087E08E0028CADC29
:1038900060680028C4D14B4600220121204600F078
:1038A000B0FC10B1032049E70AE02068C068A16BB2
:1038B0000880A06B801CA063E08F401EE08778E04A
:1038C000606830B16068B0F5827F0BD1E08E01286E
:1038D00008D1216B481C206308782168C860E08EFD
:1038E000401EE086E08ED0B9A06AB0F5005F05D139
:1038F0002068006840F48050216808604B46002230
:103900000121204600F07DFC08B1032016E7206865
:10391000C068A16B0870E08F401EE08749E030E08E
:103920004B4600220221204600F06BFC08B1032028
:1039300004E7216B481C206308782168C860E08E8A
:10394000401EE086E08E48B9A06AB0F5005F05D160
:103950002068006840F48050216808604B460022CF
:103960000121204600F04DFC08B10320E6E6206866
:10397000C068C1B2A26B501CA0631170E08F401EE2
:10398000E087E08E0028CBDC606890B94B460022CF
:103990000121204600F035FC08B10320CEE6206866
:1039A000C068C1B2A26B501CA0631170E08F401EB2
:1039B000E087A06AB0F5005F12D14B4600220121DA
:1039C000204600F01EFC28B1606D40F002006065EA
:1039D0000320B3E62068C06880B20090BDF8000004
:1039E0004B4601228021204600F00BFC28B1606D7F
:1039F00040F0200060650320A0E6012084F851001B
:103A000020688068C0F3001AA06AB0F5005F1FD17B
:103A1000BAF1000F1CD0606D40F002006065A06A32
:103A2000B0F5005F0DD100BF2068006820F40050A1
:103A3000216808602068006840F400502168086030
:103A400000BF00BF002084F8500000BF012075E6D1
:103A500000BF002084F8500000BF6FE602206DE632
:103A6000042808D14FF0E021096941F004014FF02A
:103A7000E022116107E04FF0E021096921F0040123
:103A80004FF0E0221161704770B504462546681E6C
:103A9000B0F1807F01D301200FE0681E4FF0E021DC
:103AA00048610F214FF0FF3000F056FB00204FF02F
:103AB000E021886107200861002070BD70477047D1
:103AC00010B504460CB9012010BD94F8390028B98E
:103AD000002084F83800204600F00CF8022084F81A
:103AE0003900211D206800F015FE012084F83900FE
:103AF0000020E9E738B5044600BF002000901748D1
:103B0000006840F00200154908600846006800F0AF
:103B10000200009000BF00BF002202211D20FEF71E
:103B2000B6FE1D20FEF7A6FE00BF002000900B4849
:103B3000006840F01000094908600846006800F07D
:103B40001000009000BF00BF002204213620FEF7C5
:103B50009EFE3620FEF78EFE38BD00004038024043
:103B600001460868C06840F001000A68D060086833
:103B7000006840F001000A6810600020704770473C
:103B800010B5044620680069C0F34000D8B1206831
:103B9000C068C0F34000B0B16FF002002168086156
:103BA000012020762068806900F0030018B12046CB
:103BB000FFF7E5FF05E0204600F0ADF8204600F0F5
:103BC000ABF80020207620680069C0F38000D8B1EF
:103BD0002068C068C0F38000B0B16FF004002168B5
:103BE0000861022020762068806900F4407018B1D6
:103BF0002046FFF7C4FF05E0204600F08CF8204681
:103C000000F08AF80020207620680069C0F3C00028
:103C1000D8B12068C068C0F3C000B0B16FF0080030
:103C200021680861042020762068C06900F0030044
:103C300018B12046FFF7A3FF05E0204600F06BF81F
:103C4000204600F069F80020207620680069C0F363
:103C50000010D8B12068C068C0F30010B0B16FF098
:103C6000100021680861082020762068C06900F4EF
:103C7000407018B12046FFF782FF05E0204600F0B3
:103C80004AF8204600F048F80020207620680069B5
:103C900000F0010058B12068C06800F0010030B1A8
:103CA0006FF0010021680861204600F037F82068B5
:103CB0000069C0F3C01058B12068C068C0F3C010DC
:103CC00030B16FF08000216808612046FFF7F6FEF2
:103CD00020680069C0F3801058B12068C068C0F344
:103CE000801030B16FF0400021680861204600F07C
:103CF00039F820680069C0F3401058B12068C068E6
:103D0000C0F3401030B16FF02000216808612046F8
:103D1000FFF7D5FE10BD70477047000010B5044690
:103D20000B48844205D10B4800680A3009490860F5
:103D30000CE00948844209D101200849087006F0C6
:103D40008AFF07480068401C0549086010BD000054
:103D500054030020180100209003002028000020B8
:103D600010000020704710B504460CB9012010BDAA
:103D7000A06900B100E000BF94F8390028B9002024
:103D800084F83800204600F025F8022084F8390035
:103D90002068C06820F400502168C860204600F008
:103DA0002BFD2068006920F490402168086120689C
:103DB000406920F02A00216848612068C06840F40A
:103DC00000502168C8600020E063012084F83900B9
:103DD0000020CCE710B586B004461F492068884211
:103DE00037D100BF002000901C48006840F0100050
:103DF0001A4908600846006800F01000009000BFF3
:103E000000BF00BF0020009014481438006840F044
:103E100002001249143908600846006800F00200E8
:103E2000009000BF00BFC02001900220029001203E
:103E30000390022004900720059001A90848FEF78E
:103E400035FB002211462520FEF721FD2520FEF737
:103E500011FD06B010BD00000010014044380240C2
:103E6000000402402DE9F04704460D4616469946E7
:103E70004FF0000894F83980B8F1010F02D0B8F182
:103E8000220F65D105B116B90120BDE8F08700BF4A
:103E900094F83800012801D10220F6E7012084F8C7
:103EA000380000BF0020E06394F83900222803D1D5
:103EB000322084F8390002E0122084F83900A68408
:103EC000E68428E0E08C401EE084A068B0F5805FC6
:103ED00014D14B4600228021204600F09FFD08B1FE
:103EE0000320D2E72F463888C0F3080021684860D5
:103EF000206908B9AD1C0EE06D1C0CE04B46002299
:103F00008021204600F08AFD08B10320BDE715F8A6
:103F1000010B21684860E08C0028D3DC4B4600226E
:103F20004021204600F07AFD08B10320ADE794F867
:103F30003900322803D1222084F8390002E0012020
:103F400084F8390000BF002084F8380000BF9CE7E7
:103F500002209AE700BF05A2522108A001F03AFD15
:103F6000012002F088F800F00BF9000073746D3343
:103F700032663478785F69742E6300000D0A5265EA
:103F8000626F6F7420646576696365206174206C6C
:103F9000696E6520256420696E2025730D0A000076
:103FA00010B50248FEF7CFFB10BD0000CC03002087
:103FB00070B504460D460648064908600846446048
:103FC0008560FEF799FB0348FEF7EFFB70BD00002C
:103FD00000300040CC0300201CB5FCF7F2F80022B2
:103FE00008212248FEF77CFB642002F03BFA012204
:103FF00008211E48FEF774FB642002F033FAFCF738
:10400000E2F81B4800788DF80000194840788DF8D8
:104010000100174880788DF802001548C0788DF8A7
:104020000300134800798DF80400114840798DF899
:1040300005001048104908600120486081030E48BF
:104040008160C910C16000210182C0F814D0012133
:1040500081610021C1614FF400010162FDF706FE9C
:1040600008B900201CBD0120FCE700000000024050
:1040700040AD0120008002400C0300201CB5002050
:104080000090019008480949086048F69F40486040
:10409000002106488160F921C160FFF711FD034846
:1040A000FFF75EFD1CBD00000010004090030020E3
:1040B00000BF05A25C2108A001F08CFC012001F0EA
:1040C000DAFF00F05DF8000073746D333266347807
:1040D000785F69742E6300000D0A5265626F6F7419
:1040E00020646576696365206174206C696E652063
:1040F000256420696E2025730D0A000000BF05A20B
:10410000482108A001F066FC012001F0B4FF00F096
:1041100037F8000073746D3332663478785F6974F1
:104120002E6300000D0A5265626F6F74206465761D
:10413000696365206174206C696E6520256420695F
:104140006E2025730D0A000002480068C0F30220AB
:10415000704700000CED00E010B5002807DA0A07F0
:10416000140E054A00F00F031B1FD45403E00A0786
:10417000130E024A135410BD18ED00E000E400E0F5
:1041800000BF00BF00BFBFF34F8F00BF00BF00BF25
:104190000948006800F4E06008490843001D06492A
:1041A000086000BF00BF00BFBFF34F8F00BF00BF5C
:1041B00000BF00BF00BFFDE70CED00E00000FA0506
:1041C00000BF00BF00BFBFF34F8F00BF00BF00BFE5
:1041D0000948006800F4E06008490843001D0649EA
:1041E000086000BF00BF00BFBFF34F8F00BF00BF1C
:1041F00000BF00BF00BFFDE70CED00E00000FA05C6
:1042000070472DE9F04104460E4617461D464FF013
:104210000008FEF76BFA8046002F3ED132E0681CA2
:1042200078B32DB1FEF762FAA0EB0800A84229D9B5
:104230002068406820F0E00021684860206800683D
:1042400020F0400021680860A06AB0F5005F0DD141
:1042500000BF2068006820F40050216808602068D2
:10426000006840F400502168086000BF012084F815
:10427000510000BF002084F8500000BF0320BDE8BB
:10428000F081FFE7206880683040B04201D1012012
:1042900000E000200028C2D03BE030E0681C70B392
:1042A0002DB1FEF723FAA0EB0800A84227D9206819
:1042B000406820F0E000216848602068006820F035
:1042C000400021680860A06AB0F5005F0DD100BF12
:1042D0002068006820F400502168086020680068A9
:1042E00040F400502168086000BF012084F85100AC
:1042F00000BF002084F8500000BF0320BFE7206803
:1043000080683040B04201D1012000E00020002848
:10431000C4D10020B3E7000001463A48814201D2EF
:10432000002070473848814201D20120F9E7374820
:10433000814201D20220F4E73548814201D20320B4
:10434000EFE73448814201D20420EAE73248814253
:1043500001D20520E5E73148814201D20620E0E79D
:104360002F48814201D20720DBE72E48814201D24B
:104370000820D6E72C48814201D20920D1E72B48FA
:10438000814201D20A20CCE7B1F1016F01D20B20AA
:10439000C7E72748814201D20C20C2E72548814265
:1043A00001D20D20BDE72448814201D20E20B8E79A
:1043B0002248814201D20F20B3E72148814201D235
:1043C0001020AEE71F48814201D21120A9E71E4804
:1043D000814201D21220A4E71C48814201D213205D
:1043E0009FE71B48814201D214209AE71948814275
:1043F00001D2152095E71848814201D2162090E796
:1044000017208EE7004000080080000800C0000868
:10441000000001080000020800000408000006086F
:104420000000080800000A0800000C0800000E0840
:10443000004010080080100800C01008000011089B
:1044400000001208000014080000160800001808F8
:1044500000001A0800001C0800001E081FB50020FC
:10446000009001900290039004226946064800F0F3
:1044700029F80D220DF103010448FBF7ECFE034877
:10448000007804B010BD00000000060850AE012006
:104490001FB5044600200090019002900390042272
:1044A0006946074800F00EF80D2221460DF1030081
:1044B000FBF7D1FE04226946014800F017F81FBD42
:1044C0000000060830B503460C461546002206E0FB
:1044D000184600F007F844F822001B1D521CAA429F
:1044E000F6D330BD01460868704700002DE9F0435F
:1044F00087B004460E4617464FF000090020019091
:1045000000258046B4F1006F02D304F0030010B11F
:1045100007B0BDE8F083FDF789FF254604EB870867
:104520001E4885421DD219E02846FFF7DBFF401CDC
:1045300078B1002002902846FFF7EEFE049001209B
:1045400005900220069001A902A8FDF7C1FE08B15E
:1045500006E02D1D4CF25030FDF762FA4545E3D3DD
:1045600000BF4CF25030FDF75BFA8146B9F1000F05
:104570000FD10BE0D6F800C062460023214602208E
:10458000FDF708FF00B103E0241D361D4445F1D3BB
:1045900000BFFDF7F5FE00BFBAE700000000FF1FF7
:1045A000704700002DE9F04192B005468846164656
:1045B0001F46002400BF002000902648006840F0FD
:1045C0008050244908600846006800F08050009040
:1045D00000BF00BF00BF002000901F48006840F4EB
:1045E00040401D4908600846006800F440400090C3
:1045F00000BF00BF01200690079002200C904105EB
:104600000D91CDF838800F951096119706A8FEF7FA
:10461000DDFB04460CB100BFFEE7FEF78BF9044654
:104620000CB100BFFEE70F20019002200290002095
:1046300003904FF4A05004904FF480500590052152
:1046400001A8FEF7C9F904460CB100BFFEE712B09D
:10465000BDE8F081403802400070004010B5FEF720
:10466000C1F810BD1448006840F470001249086099
:104670001248006840F001001049086000200F490E
:10468000083108600D4800680D4908400B49086072
:104690000C48091D0860081F006820F48020091FCD
:1046A0000860002005490C3108604FF000600249A5
:1046B000803908607047000088ED00E00038024053
:1046C000FFFFF6FE1030002410B50248FFF758FA3D
:1046D00010BD00005403002070B505460C46074885
:1046E000074908600846446000218160C560016197
:1046F000FFF7E6F90248FFF733FA70BD0004004007
:104700005403002010B50248FFF73AFA10BD00002C
:1047100090030020002202682C4B98420ED0B0F18A
:10472000804F0BD02A4B984208D02A4B984205D094
:10473000294B984202D0294B984201D1012300E035
:1047400000231BB122F070024B681A431F4B9842A2
:1047500020D0B0F1804F1DD01D4B98421AD01D4B78
:10476000984217D01C4B984214D01C4B984211D041
:104770001B4B98420ED01B4B98420BD01A4B9842C1
:1047800008D01A4B984205D0194B984202D0194BC9
:10479000984201D1012300E000231BB122F44072B2
:1047A000CB681A4302608B68C3620B688362074B55
:1047B000984202D0094B984201D1012300E0002326
:1047C0000BB10B6903630123436170470000014093
:1047D0000004004000080040000C004000040140BC
:1047E00000400140004401400048014000180040E2
:1047F000001C0040002000402DE9F0410446002547
:104800002068056925F44055E06805432068056186
:104810002068C56849F20C6085432169A068084397
:1048200061690843E169084305432068C560206861
:10483000456925F44075A069054320684561E06934
:10484000B0F5004F72D173492068884203D0724995
:104850002068884234D1FEF749FA00EBC00101EB31
:10486000001061684900B0FBF1F06421B0FBF1F683
:10487000FEF73CFA00EBC00101EB00106168490053
:10488000B0FBF1F7FEF732FA00EBC00101EB0010CC
:1048900061684900B0FBF1F06421B0FBF1F000EB7E
:1048A000C00101EB0010A7EB8000322101EB0010EA
:1048B0006421B0FBF1F066F31F1021688860A6E068
:1048C000FEF7FEF900EBC00101EB00106168490042
:1048D000B0FBF1F06421B0FBF1F6FEF7F1F900EB6B
:1048E000C00101EB001061684900B0FBF1F7FEF771
:1048F000E7F900EBC00101EB001061684900B0FB73
:10490000F1F06421B0FBF1F000EBC00101EB00100D
:10491000A7EB8000322101EB00106421B0FBF1F025
:1049200066F31F102168886071E0FFE7394920684D
:10493000884203D038492068884234D1FEF7D6F93E
:1049400000EBC00101EB001061688900B0FBF1F0E1
:104950006421B0FBF1F6FEF7C9F900EBC00101EBF1
:10496000001061688900B0FBF1F7FEF7BFF900EBBA
:10497000C00101EB001061688900B0FBF1F0642117
:10498000B0FBF1F000EBC00101EB0010A7EB8000E1
:10499000322101EB00106421B0FBF1F066F31F102F
:1049A0002168886033E0FEF78BF900EBC00101EB72
:1049B000001061688900B0FBF1F06421B0FBF1F6F2
:1049C000FEF77EF900EBC00101EB00106168890081
:1049D000B0FBF1F7FEF774F900EBC00101EB00103A
:1049E00061688900B0FBF1F06421B0FBF1F000EBED
:1049F000C00101EB0010A7EB8000322101EB001099
:104A00006421B0FBF1F066F31F1021688860BDE8F7
:104A1000F081000000100140001401402DE9F04138
:104A200004460E4617461D464FF00008FDF75EFE91
:104A300080469FBB2BE0681C48B32DB1FDF756FEA6
:104A4000A0EB0800A84222D92068C06820F08000AE
:104A50002168C8602068C06820F020002168C86014
:104A60002068C06820F480702168C86020684069B0
:104A700020F0010021684861012084F8390000BF5E
:104A8000002084F8380000BF0320BDE8F0812068D2
:104A900000683040B04202D1012001E003E0002074
:104AA0000028C8D035E02AE0681C40B32DB1FDF7DE
:104AB0001DFEA0EB0800A84221D92068C06820F0A4
:104AC00080002168C8602068C06820F0200021684C
:104AD000C8602068C06820F480702168C8602068C1
:104AE000406920F0010021684861012084F8390004
:104AF00000BF002084F8380000BF0320C5E720680D
:104B000000683040B04201D1012000E000200028C0
:104B1000CAD10020B9E700002DE9F04786B0002493
:104B2000002003900490059000258246002700266F
:104B3000814600900190029000BFF6A1F948FBF772
:104B4000AEFB0746002F6FD007F10E0500BF042013
:104B5000012806D002280CD0032812D0042820D126
:104B600017E0F1A000F036FF2946F2A000F032FF76
:104B70001FE0F2A000F02EFF2946EEA000F02AFF71
:104B800017E0F0A000F026FF2946EAA000F022FF7F
:104B90000FE0EEA000F01EFF2946E6A000F01AFF8D
:104BA00007E0EDA000F016FF2946E2A000F012FF9A
:104BB00000BF00BF00BF0024A0465FE015F808005A
:104BC0002C2859D108F0FF000DF80400012C52D117
:104BD00000200390049005901DF80430601E1DF81D
:104BE0000000181A421E601E1DF800002844411CD7
:104BF00003A8FBF730FB03A8FBF777FBDA49087043
:104C000000BF0420012806D002280ED0032815D0AA
:104C1000042825D11BE0C4A000F0DCFED2480178B6
:104C2000D2A000F0D7FE24E051E0C4A000F0D2FEF4
:104C3000CD480178CDA000F0CDFE1AE0C1A000F073
:104C4000C9FEC9480178C9A000F0C4FE11E0BFA0A8
:104C500000F0C0FEC4480178C4A000F0BBFE08E02C
:104C6000BDA000F0B7FEC0480178C0A000F0B2FEC1
:104C700000BF00BF00BF641C08F101082846FBF715
:104C800020FB40459AD8B8480078002819DDB6487E
:104C900000780A2815DA0A22BA49BB4800680BF0E6
:104CA0008FFFB148007800F047FC00BFB7A2CF21CA
:104CB000C0A000F08FFE012080F3108800BFFFF736
:104CC0007FFA0A22C449B04800680BF079FF002738
:104CD000C2A19448FBF7E3FA0746A7B10A22A94903
:104CE000A94800680BF06CFF0120FCF70BFA00BF2D
:104CF000A6A2DE21AFA000F06DFE012080F3108897
:104D000000BFFFF75DFA0027B8A18648FBF7C7FA96
:104D10000746002F70D00A229A499B4800680BF082
:104D20004FFF07F10E0500BF0420012806D002281E
:104D30000CD0032812D0042820D117E07AA000F06C
:104D400049FE29467BA000F045FE1FE07BA000F055
:104D500041FE294677A000F03DFE17E079A000F063
:104D600039FE294673A000F035FE0FE077A000F071
:104D700031FE29466FA000F02DFE07E076A000F07E
:104D800029FE29466BA000F025FE00BF00BF00BF32
:104D90000024A04678E015F808002C2803D015F868
:104DA00008002E286ED108F0FF000DF80400012C39
:104DB00052D100200390049005901DF80430601E2D
:104DC0001DF80000181A421E601E1DF8000028443D
:104DD000411C03A8FBF73FFA03A8FBF786FA8749B3
:104DE000087000BF0420012807D002280ED0032835
:104DF00015D0042825D11BE04FE04BA000F0EAFDC0
:104E00007E4801787EA000F0E5FD23E04BA000F095
:104E1000E1FD7A4801787AA000F0DCFD1AE049A0B3
:104E200000F0D8FD7548017875A000F0D3FD11E0C1
:104E300046A000F0CFFD7148017871A000F0CAFDD6
:104E400008E045A000F0C6FD6C4801786CA000F0B9
:104E5000C1FD00BF00BF00BF022C12D10020039093
:104E6000049005901DF80430601E1DF80000181A0B
:104E7000421E601E1DF800002844411C03A8FBF7D9
:104E8000EAF9641C08F101082846FBF71AFA4045C4
:104E900081D85A480078FCF717FA00275DA121480D
:104EA000FBF7FDF90746002F31D00A223549364875
:104EB00000680BF085FE0D21002006F0EFFE06468F
:104EC0005848066007F10E0500BF0420012806D0EF
:104ED00002280CD0032812D0042819D1A4E012A073
:104EE00000F078FD294613A000F074FDB0E013A097
:104EF00000F070FD29460FA000F06CFDA8E011A0A5
:104F000000F068FD29460BA000F064FDA0E057E129
:104F100094E0000048442D526F626F742D436D641D
:104F20003D302C0088AD01205B4572726F725D3A96
:104F30000000000025730D0A000000005B5741527D
:104F40004E5D3A005B494E464F5D3A005B44454238
:104F500055475D3A000000005B556E6B6E6F776ED3
:104F6000204D73675D3A0000000200205557425FF4
:104F7000616464726573735F74656D70203D202594
:104F8000640D0A0034140208200100202E2E5C4C0F
:104F90005749505C6C7769705F6170705C756470C4
:104FA0005F64656D6F5C7564705F64656D6F2E63C3
:104FB000000000000D0A5265626F6F742064657610
:104FC000696365206174206C696E652025642069C1
:104FD0006E2025730D0A00003E14020848442D522D
:104FE0006F626F742D436D643D31000048442D5253
:104FF0006F626F742D436D643D322C00EA00002017
:10500000576F726B696E674D6F6465203D20256434
:105010000D0A000048442D526F626F742D436D6479
:105020003D332C0030010020AFF2E00000F0D2FC54
:105030002946AFF2001000F0CDFC09E0AFF2E80025
:1050400000F0C8FC2946AFF2141000F0C3FC00BF0A
:1050500000BF00BF0024A0467EE015F808002C2801
:1050600003D015F808002E2874D108F0FF000DF8C1
:105070000400012C1BDB042C19DC0020039004909D
:1050800005901DF80430601E1DF80000181A421E1D
:10509000601E1DF800002844411C03A8FBF7DBF844
:1050A00003A8FBF722F9C2B2601E711C0A54052C3A
:1050B00017D100200390049005901DF80430601E65
:1050C0001DF80000181A421E601E1DF8000028443A
:1050D000411C03A8FBF7BFF803A8FBF706F9A6F8E5
:1050E0000500062C1BDB092C19DC00200390049022
:1050F00005901DF80430601E1DF80000181A421EAD
:10510000601E1DF800002844411C03A8FBF7A3F80B
:1051100003A8FBF7EAF8C2B2A01FF11D0A540A2C3B
:1051200017D100200390049005901DF80430601EF4
:105130001DF80000181A421E601E1DF800002844C9
:10514000411C03A8FBF787F803A8FBF7CEF8A6F8E5
:105150000B00641C08F101082846FBF7B2F8404533
:105160003FF67BAF7078F179884210D1B178307A10
:1051700081420CD1F178707A814208D10120A14995
:10518000096808709F480068FFF782F905E00F2260
:105190009D499E4800680BF013FD3146002006F043
:1051A0006BFD00BFAFF21C224FF49E71AFF2FC10FA
:1051B00000F010FC012080F3108800BFFFF700F81A
:1051C000002793A19348FBF76AF80746002F73D096
:1051D0001921002006F062FD8146B9F1000F6CD064
:1051E00019214846FBF750F8192239464846FBF783
:1051F00032F899F802A0BAF1010F06D0BAF1020F05
:105200004FD0BAF1030F71D19AE000BF04200128FA
:1052100006D002280CD0032812D0042820D117E091
:10522000AFF2FC2000F0D6FB7BA000F0D3FB1FE028
:10523000AFF2F82000F0CEFB77A000F0CBFB17E038
:10524000AFF2003000F0C6FB73A000F0C3FB0FE02C
:10525000AFF2083000F0BEFB6FA000F0BBFB07E030
:10526000AFF20C3000F0B6FB6BA000F0B3FB00BF58
:1052700000BF00BF6C4800210160017101206A4934
:1052800088706A480078022803D0684800780328AC
:1052900003D101206649086002E0022064490860E9
:1052A0009BE000BF0420012808D002280ED003286C
:1052B00014D0042823D11AE0A0E09BE0AFF298308C
:1052C00000F088FB5BA000F085FB20E0AFF294309B
:1052D00000F080FB57A000F07DFB18E0AFF29C309F
:1052E00000F078FB53A000F075FB10E074E0AFF223
:1052F000A43000F06FFB4FA000F06CFB07E0AFF2B2
:10530000A83000F067FB4BA000F064FB00BF00BFBB
:1053100000BF4548002101600171022042498870A8
:1053200042480078032803D040480078052803D17C
:1053300001203F49086002E002203D4908604CE03E
:1053400000BF0420012806D002280CD0032812D068
:10535000042820D117E0AFF2304000F03BFB39A029
:1053600000F038FB1FE0AFF22C4000F033FB35A01B
:1053700000F030FB17E0AFF2344000F02BFB31A01F
:1053800000F028FB0FE0AFF23C4000F023FB2DA023
:1053900000F020FB07E0AFF2404000F01BFB29A02B
:1053A00000F018FB00BF00BF00BF1F4800210160D4
:1053B000017103201C4988701C480078022803D022
:1053C0001A480078042803D101201949086002E036
:1053D00002201749086000E000BF00BF44F24840C7
:1053E0001149088044F64F300880052207480068BC
:1053F0000BF0E6FB4946002006F03EFC06B0BDE897
:10540000F08700003001002048140208200100202D
:105410004844000088AD0120204168656164466F02
:105420006C6C6F770D0A00002B010020EA00002051
:10543000DC0100204C656674466F6C6C6F770D0A5A
:10544000000000005269676874466F6C6C6F770DDE
:105450000A0000001FB50020009001900290039008
:10546000042269462048FFF72DF800BF04200128D8
:1054700006D002280DD0032814D0042824D11AE025
:105480001AA000F0A7FA9DF801101BA000F0A2FAE4
:1054900023E01EA000F09EFA9DF8011016A000F077
:1054A00099FA1AE01BA000F095FA9DF8011012A0DD
:1054B00000F090FA11E019A000F08CFA9DF80110AC
:1054C0000DA000F087FA08E017A000F083FA9DF81D
:1054D000011009A000F07EFA00BF00BF00BF9DF8D8
:1054E000010004B010BD0000000006085B457272A8
:1054F0006F725D3A00000000555742416E63686F5D
:10550000724944203D2025640D0A00005B5741523A
:105510004E5D3A005B494E464F5D3A005B44454262
:1055200055475D3A000000005B556E6B6E6F776EFD
:10553000204D73675D3A00001FB5044600200090BF
:10554000019002900390042269461D48FEF7BAFFBD
:105550008DF80140102269461948FEF7C7FF00BFC9
:105560000420012806D002280BD0032810D00428DC
:105570001CD114E013A000F02DFA15A000F02AFAB7
:105580001BE01BA000F026FA11A000F023FA14E0A3
:1055900019A000F01FFA0EA000F01CFA0DE018A0F0
:1055A00000F018FA0AA000F015FA06E017A000F0C3
:1055B00011FA07A000F00EFA00BF00BF00BF1FBD28
:1055C000000006085B4572726F725D3A00000000D1
:1055D000555742416E63686F72494420777269740F
:1055E0006520746F20666C617368200D0A000000EE
:1055F0005B5741524E5D3A005B494E464F5D3A0063
:105600005B44454255475D3A000000005B556E6BB8
:105610006E6F776E204D73675D3A00002DE9F04F95
:105620002DED088BB3B014212EA8FAF72DFE5021D2
:105630001AA8FAF729FE502106A8FAF725FE4FF01E
:105640000008C146C246C3460020059004900026CB
:1056500000279FED8F0BB0EE40AAF0EE60AA9FED01
:105660008C0BB0EE40BAF0EE60BA0390029001905D
:10567000002400259FED880AB0EE408A9FED860A3F
:10568000F0EE408A9FED840AB0EE409A9FED820AC8
:10569000F0EE409A8148007801287DD100207F49B2
:1056A000087050227E491AA8FAF7D5FD50227D498C
:1056B00006A8FAF7D0FD50217948FAF7E5FD502108
:1056C0007848FAF7E1FD78480468784805680020D2
:1056D0007549086075490860DDF86880DDF86890F4
:1056E000DDF818A0DDF818B0022C28DD00BF1BE0A3
:1056F0001AA951F82010414502D91AA951F8208061
:105700001AA951F82010494502D21AA951F820903F
:105710001AA951F820200599114405911AA951F8A8
:10572000201001B9641E401CA042E1DB0598A0EBEB
:105730000800A0EB0901A01EB1FBF0F604E0012C6B
:1057400001D11A9E00E00026022D2ADD00201BE078
:1057500006A951F82010514502D906A951F820A0F8
:1057600006A951F82010594502D206A951F820B0D7
:1057700006A951F8202004991144049106A951F872
:10578000201001B96D1E401CA842E1DB0498A0EB7B
:105790000A00A0EB0B0100E075E0A81EB1FBF0F7DA
:1057A00004E0012D01D1069F00E0002744F24840AB
:1057B0003F490880FE2088703E480078C8703D4808
:1057C000407808713B48807848723A48007988757B
:1057D00044F22520A1F817005EB13748864208D26E
:1057E0003FB1874205D20846C0F80560C0F80A708C
:1057F00005E000202E49C1F80500C1F80A00192271
:105800002B492E4800680BF0DBF919212848FAF7DC
:105810003BFD00BF0420012806D002280DD003283C
:1058200014D0042824D11AE025A000F0D3F83A4679
:10583000314626A000F0CEF823E027A000F0CAF8F9
:105840003A46314621A000F0C5F81AE024A000F045
:10585000C1F83A4631461DA000F0BCF811E022A084
:1058600000F0B8F83A46314618A000F0B3F808E066
:1058700020A000F0AFF83A46314614A000F0AAF894
:1058800000BF00BF00BF33B0BDEC088BBDE8F08F98
:1058900000000000000000000000000028000020C0
:1058A000E8B0012038B1012060020020640200202D
:1058B0009002002038000020A08601002001002076
:1058C0005B4572726F725D3A00000000413D2564D5
:1058D0002C423D25640D0A005B5741524E5D3A0053
:1058E0005B494E464F5D3A005B44454255475D3A41
:1058F000000000005B556E6B6E6F776E204D736716
:105900005D3A000000BF05A2702108A000F062F817
:10591000012000F0B0FBFEF733FC000073746D3320
:1059200032663478785F69742E6300000D0A526520
:10593000626F6F7420646576696365206174206CA2
:10594000696E6520256420696E2025730D0A0000AC
:1059500000BF13A2802114A000F03CF8012080F3C6
:10596000108800BF00BF00BF00BF00BF00BFBFF373
:105970004F8F00BF00BF00BF1448006800F4E06014
:1059800013490843001D1149086000BF00BF00BF54
:10599000BFF34F8F00BF00BF00BF00BF00BFFDE7D8
:1059A0006D61696E2E6300000D0A5265626F6F743F
:1059B00020646576696365206174206C696E65207A
:1059C000256420696E2025730D0A00000CED00E0AF
:1059D0000000FA050FB4054B10B503A9044A02985C
:1059E00000F052FB10BC5DF814FB00004990010868
:1059F00078020020004870477C0200200000000070
:105A000070B5D94B00242DED020B2DED108BDDE987
:105A10001010984205DA20F000429A4201D809D1CC
:105A200041B19DED100BBDEC108B02B0BDE8704094
:105A300000F0F6BAB0F5801F26DA11430BD000282B
:105A400013DA012000F01AFBBDEC108B02B0BDE8A8
:105A5000704000F0F1BA022000F010FB00F0C8FA2C
:105A600051EC100B81F000419EE06FF035049FED8A
:105A7000C00B53EC102B9DED100B51EC100BFAF7F3
:105A8000E8FCCDE91001084604EB2051C0F31304F3
:105A9000B948A1F2FF31204400F4801080F07F6209
:105AA00082F04052224301EB20559FEDB50B11923D
:105AB00053EC102B9DED100B51EC100BFAF7C3FCBF
:105AC00041EC180BA01CC0F313009FEDAFDB9FED62
:105AD000B0EBB14E7E4403286CD296ED000B51EC36
